{
  "abi": [
    {
      "inputs": [],
      "stateMutability": "nonpayable",
      "type": "constructor"
    },
    {
      "anonymous": false,
      "inputs": [
        {
          "indexed": true,
          "internalType": "address",
          "name": "owner",
          "type": "address"
        },
        {
          "indexed": true,
          "internalType": "address",
          "name": "approved",
          "type": "address"
        },
        {
          "indexed": true,
          "internalType": "uint256",
          "name": "tokenId",
          "type": "uint256"
        }
      ],
      "name": "Approval",
      "type": "event"
    },
    {
      "anonymous": false,
      "inputs": [
        {
          "indexed": true,
          "internalType": "address",
          "name": "owner",
          "type": "address"
        },
        {
          "indexed": true,
          "internalType": "address",
          "name": "operator",
          "type": "address"
        },
        {
          "indexed": false,
          "internalType": "bool",
          "name": "approved",
          "type": "bool"
        }
      ],
      "name": "ApprovalForAll",
      "type": "event"
    },
    {
      "anonymous": false,
      "inputs": [
        {
          "indexed": true,
          "internalType": "address",
          "name": "from",
          "type": "address"
        },
        {
          "indexed": true,
          "internalType": "address",
          "name": "to",
          "type": "address"
        },
        {
          "indexed": true,
          "internalType": "uint256",
          "name": "tokenId",
          "type": "uint256"
        }
      ],
      "name": "Transfer",
      "type": "event"
    },
    {
      "inputs": [],
      "name": "NAME",
      "outputs": [
        {
          "internalType": "string",
          "name": "",
          "type": "string"
        }
      ],
      "stateMutability": "view",
      "type": "function"
    },
    {
      "inputs": [],
      "name": "SYMBOL",
      "outputs": [
        {
          "internalType": "string",
          "name": "",
          "type": "string"
        }
      ],
      "stateMutability": "view",
      "type": "function"
    },
    {
      "inputs": [
        {
          "internalType": "address",
          "name": "to",
          "type": "address"
        },
        {
          "internalType": "uint256",
          "name": "tokenId",
          "type": "uint256"
        }
      ],
      "name": "approve",
      "outputs": [],
      "stateMutability": "nonpayable",
      "type": "function"
    },
    {
      "inputs": [
        {
          "internalType": "address",
          "name": "owner",
          "type": "address"
        }
      ],
      "name": "balanceOf",
      "outputs": [
        {
          "internalType": "uint256",
          "name": "",
          "type": "uint256"
        }
      ],
      "stateMutability": "view",
      "type": "function"
    },
    {
      "inputs": [
        {
          "internalType": "uint256",
          "name": "tokenId",
          "type": "uint256"
        }
      ],
      "name": "getApproved",
      "outputs": [
        {
          "internalType": "address",
          "name": "",
          "type": "address"
        }
      ],
      "stateMutability": "view",
      "type": "function"
    },
    {
      "inputs": [
        {
          "internalType": "address",
          "name": "owner",
          "type": "address"
        },
        {
          "internalType": "address",
          "name": "operator",
          "type": "address"
        }
      ],
      "name": "isApprovedForAll",
      "outputs": [
        {
          "internalType": "bool",
          "name": "",
          "type": "bool"
        }
      ],
      "stateMutability": "view",
      "type": "function"
    },
    {
      "inputs": [],
      "name": "name",
      "outputs": [
        {
          "internalType": "string",
          "name": "",
          "type": "string"
        }
      ],
      "stateMutability": "view",
      "type": "function"
    },
    {
      "inputs": [
        {
          "internalType": "uint256",
          "name": "tokenId",
          "type": "uint256"
        }
      ],
      "name": "ownerOf",
      "outputs": [
        {
          "internalType": "address",
          "name": "",
          "type": "address"
        }
      ],
      "stateMutability": "view",
      "type": "function"
    },
    {
      "inputs": [
        {
          "internalType": "address",
          "name": "from",
          "type": "address"
        },
        {
          "internalType": "address",
          "name": "to",
          "type": "address"
        },
        {
          "internalType": "uint256",
          "name": "tokenId",
          "type": "uint256"
        }
      ],
      "name": "safeTransferFrom",
      "outputs": [],
      "stateMutability": "nonpayable",
      "type": "function"
    },
    {
      "inputs": [
        {
          "internalType": "address",
          "name": "from",
          "type": "address"
        },
        {
          "internalType": "address",
          "name": "to",
          "type": "address"
        },
        {
          "internalType": "uint256",
          "name": "tokenId",
          "type": "uint256"
        },
        {
          "internalType": "bytes",
          "name": "data",
          "type": "bytes"
        }
      ],
      "name": "safeTransferFrom",
      "outputs": [],
      "stateMutability": "nonpayable",
      "type": "function"
    },
    {
      "inputs": [
        {
          "internalType": "address",
          "name": "operator",
          "type": "address"
        },
        {
          "internalType": "bool",
          "name": "approved",
          "type": "bool"
        }
      ],
      "name": "setApprovalForAll",
      "outputs": [],
      "stateMutability": "nonpayable",
      "type": "function"
    },
    {
      "inputs": [
        {
          "internalType": "bytes4",
          "name": "interfaceId",
          "type": "bytes4"
        }
      ],
      "name": "supportsInterface",
      "outputs": [
        {
          "internalType": "bool",
          "name": "",
          "type": "bool"
        }
      ],
      "stateMutability": "view",
      "type": "function"
    },
    {
      "inputs": [],
      "name": "symbol",
      "outputs": [
        {
          "internalType": "string",
          "name": "",
          "type": "string"
        }
      ],
      "stateMutability": "view",
      "type": "function"
    },
    {
      "inputs": [
        {
          "internalType": "uint256",
          "name": "tokenId",
          "type": "uint256"
        }
      ],
      "name": "tokenURI",
      "outputs": [
        {
          "internalType": "string",
          "name": "",
          "type": "string"
        }
      ],
      "stateMutability": "view",
      "type": "function"
    },
    {
      "inputs": [
        {
          "internalType": "address",
          "name": "from",
          "type": "address"
        },
        {
          "internalType": "address",
          "name": "to",
          "type": "address"
        },
        {
          "internalType": "uint256",
          "name": "tokenId",
          "type": "uint256"
        }
      ],
      "name": "transferFrom",
      "outputs": [],
      "stateMutability": "nonpayable",
      "type": "function"
    }
  ],
  "bytecode": {
    "object": "0x60c0604052600a60809081526950726f746f57414d4f5360b01b60a0526006906200002b90826200025b565b506040805180820190915260068152657057414d4f7360d01b60208201526007906200005890826200025b565b503480156200006657600080fd5b50600680546200007690620001cc565b80601f0160208091040260200160405190810160405280929190818152602001828054620000a490620001cc565b8015620000f55780601f10620000c957610100808354040283529160200191620000f5565b820191906000526020600020905b815481529060010190602001808311620000d757829003601f168201915b5050505050600780546200010990620001cc565b80601f01602080910402602001604051908101604052809291908181526020018280546200013790620001cc565b8015620001885780601f106200015c5761010080835404028352916020019162000188565b820191906000526020600020905b8154815290600101906020018083116200016a57829003601f168201915b505050505081600090816200019e91906200025b565b506001620001ad82826200025b565b50505062000327565b634e487b7160e01b600052604160045260246000fd5b600181811c90821680620001e157607f821691505b6020821081036200020257634e487b7160e01b600052602260045260246000fd5b50919050565b601f8211156200025657600081815260208120601f850160051c81016020861015620002315750805b601f850160051c820191505b8181101562000252578281556001016200023d565b5050505b505050565b81516001600160401b03811115620002775762000277620001b6565b6200028f81620002888454620001cc565b8462000208565b602080601f831160018114620002c75760008415620002ae5750858301515b600019600386901b1c1916600185901b17855562000252565b600085815260208120601f198616915b82811015620002f857888601518255948401946001909101908401620002d7565b5085821015620003175787850151600019600388901b60f8161c191681555b5050505050600190811b01905550565b61127a80620003376000396000f3fe608060405234801561001057600080fd5b50600436106100f55760003560e01c806370a0823111610097578063b88d4fde11610066578063b88d4fde146101f4578063c87b56dd14610207578063e985e9c51461021a578063f76f8d781461022d57600080fd5b806370a08231146101b057806395d89b41146101d1578063a22cb465146101d9578063a3f4df7e146101ec57600080fd5b8063095ea7b3116100d3578063095ea7b31461016257806323b872dd1461017757806342842e0e1461018a5780636352211e1461019d57600080fd5b806301ffc9a7146100fa57806306fdde0314610122578063081812fc14610137575b600080fd5b61010d610108366004610dca565b610235565b60405190151581526020015b60405180910390f35b61012a610287565b6040516101199190610e37565b61014a610145366004610e4a565b610319565b6040516001600160a01b039091168152602001610119565b610175610170366004610e7f565b610340565b005b610175610185366004610ea9565b61045a565b610175610198366004610ea9565b61048b565b61014a6101ab366004610e4a565b6104a6565b6101c36101be366004610ee5565b610506565b604051908152602001610119565b61012a61058c565b6101756101e7366004610f00565b61059b565b61012a6105aa565b610175610202366004610f52565b610638565b61012a610215366004610e4a565b610670565b61010d61022836600461102e565b6106e4565b61012a610712565b60006001600160e01b031982166380ac58cd60e01b148061026657506001600160e01b03198216635b5e139f60e01b145b8061028157506301ffc9a760e01b6001600160e01b03198316145b92915050565b60606000805461029690611061565b80601f01602080910402602001604051908101604052809291908181526020018280546102c290611061565b801561030f5780601f106102e45761010080835404028352916020019161030f565b820191906000526020600020905b8154815290600101906020018083116102f257829003601f168201915b5050505050905090565b60006103248261071f565b506000908152600460205260409020546001600160a01b031690565b600061034b826104a6565b9050806001600160a01b0316836001600160a01b0316036103bd5760405162461bcd60e51b815260206004820152602160248201527f4552433732313a20617070726f76616c20746f2063757272656e74206f776e656044820152603960f91b60648201526084015b60405180910390fd5b336001600160a01b03821614806103d957506103d981336106e4565b61044b5760405162461bcd60e51b815260206004820152603d60248201527f4552433732313a20617070726f76652063616c6c6572206973206e6f7420746f60448201527f6b656e206f776e6572206f7220617070726f76656420666f7220616c6c00000060648201526084016103b4565b6104558383610781565b505050565b61046433826107ef565b6104805760405162461bcd60e51b81526004016103b49061109b565b61045583838361084e565b61045583838360405180602001604052806000815250610638565b6000818152600260205260408120546001600160a01b0316806102815760405162461bcd60e51b8152602060048201526018602482015277115490cdcc8c4e881a5b9d985b1a59081d1bdad95b88125160421b60448201526064016103b4565b60006001600160a01b0382166105705760405162461bcd60e51b815260206004820152602960248201527f4552433732313a2061646472657373207a65726f206973206e6f7420612076616044820152683634b21037bbb732b960b91b60648201526084016103b4565b506001600160a01b031660009081526003602052604090205490565b60606001805461029690611061565b6105a63383836109bf565b5050565b600680546105b790611061565b80601f01602080910402602001604051908101604052809291908181526020018280546105e390611061565b80156106305780601f1061060557610100808354040283529160200191610630565b820191906000526020600020905b81548152906001019060200180831161061357829003601f168201915b505050505081565b61064233836107ef565b61065e5760405162461bcd60e51b81526004016103b49061109b565b61066a84848484610a8d565b50505050565b606061067b8261071f565b600061069260408051602081019091526000815290565b905060008151116106b257604051806020016040528060008152506106dd565b806106bc84610ac0565b6040516020016106cd9291906110e8565b6040516020818303038152906040525b9392505050565b6001600160a01b03918216600090815260056020908152604080832093909416825291909152205460ff1690565b600780546105b790611061565b6000818152600260205260409020546001600160a01b031661077e5760405162461bcd60e51b8152602060048201526018602482015277115490cdcc8c4e881a5b9d985b1a59081d1bdad95b88125160421b60448201526064016103b4565b50565b600081815260046020526040902080546001600160a01b0319166001600160a01b03841690811790915581906107b6826104a6565b6001600160a01b03167f8c5be1e5ebec7d5bd14f71427d1e84f3dd0314c0f7b2291e5b200ac8c7c3b92560405160405180910390a45050565b6000806107fb836104a6565b9050806001600160a01b0316846001600160a01b03161480610822575061082281856106e4565b806108465750836001600160a01b031661083b84610319565b6001600160a01b0316145b949350505050565b826001600160a01b0316610861826104a6565b6001600160a01b0316146108875760405162461bcd60e51b81526004016103b490611117565b6001600160a01b0382166108e95760405162461bcd60e51b8152602060048201526024808201527f4552433732313a207472616e7366657220746f20746865207a65726f206164646044820152637265737360e01b60648201526084016103b4565b6108f68383836001610b53565b826001600160a01b0316610909826104a6565b6001600160a01b03161461092f5760405162461bcd60e51b81526004016103b490611117565b600081815260046020908152604080832080546001600160a01b03199081169091556001600160a01b0387811680865260038552838620805460001901905590871680865283862080546001019055868652600290945282852080549092168417909155905184937fddf252ad1be2c89b69c2b068fc378daa952ba7f163c4a11628f55a4df523b3ef91a4505050565b816001600160a01b0316836001600160a01b031603610a205760405162461bcd60e51b815260206004820152601960248201527f4552433732313a20617070726f766520746f2063616c6c65720000000000000060448201526064016103b4565b6001600160a01b03838116600081815260056020908152604080832094871680845294825291829020805460ff191686151590811790915591519182527f17307eab39ab6107e8899845ad3d59bd9653f200f220920489ca2b5937696c31910160405180910390a3505050565b610a9884848461084e565b610aa484848484610bdb565b61066a5760405162461bcd60e51b81526004016103b49061115c565b60606000610acd83610cdc565b600101905060008167ffffffffffffffff811115610aed57610aed610f3c565b6040519080825280601f01601f191660200182016040528015610b17576020820181803683370190505b5090508181016020015b600019016f181899199a1a9b1b9c1cb0b131b232b360811b600a86061a8153600a8504945084610b2157509392505050565b600181111561066a576001600160a01b03841615610b99576001600160a01b03841660009081526003602052604081208054839290610b939084906111c4565b90915550505b6001600160a01b0383161561066a576001600160a01b03831660009081526003602052604081208054839290610bd09084906111d7565b909155505050505050565b60006001600160a01b0384163b15610cd157604051630a85bd0160e11b81526001600160a01b0385169063150b7a0290610c1f9033908990889088906004016111ea565b6020604051808303816000875af1925050508015610c5a575060408051601f3d908101601f19168201909252610c5791810190611227565b60015b610cb7573d808015610c88576040519150601f19603f3d011682016040523d82523d6000602084013e610c8d565b606091505b508051600003610caf5760405162461bcd60e51b81526004016103b49061115c565b805181602001fd5b6001600160e01b031916630a85bd0160e11b149050610846565b506001949350505050565b60008072184f03e93ff9f4daa797ed6e38ed64bf6a1f0160401b8310610d1b5772184f03e93ff9f4daa797ed6e38ed64bf6a1f0160401b830492506040015b6d04ee2d6d415b85acef81000000008310610d47576d04ee2d6d415b85acef8100000000830492506020015b662386f26fc100008310610d6557662386f26fc10000830492506010015b6305f5e1008310610d7d576305f5e100830492506008015b6127108310610d9157612710830492506004015b60648310610da3576064830492506002015b600a83106102815760010192915050565b6001600160e01b03198116811461077e57600080fd5b600060208284031215610ddc57600080fd5b81356106dd81610db4565b60005b83811015610e02578181015183820152602001610dea565b50506000910152565b60008151808452610e23816020860160208601610de7565b601f01601f19169290920160200192915050565b6020815260006106dd6020830184610e0b565b600060208284031215610e5c57600080fd5b5035919050565b80356001600160a01b0381168114610e7a57600080fd5b919050565b60008060408385031215610e9257600080fd5b610e9b83610e63565b946020939093013593505050565b600080600060608486031215610ebe57600080fd5b610ec784610e63565b9250610ed560208501610e63565b9150604084013590509250925092565b600060208284031215610ef757600080fd5b6106dd82610e63565b60008060408385031215610f1357600080fd5b610f1c83610e63565b915060208301358015158114610f3157600080fd5b809150509250929050565b634e487b7160e01b600052604160045260246000fd5b60008060008060808587031215610f6857600080fd5b610f7185610e63565b9350610f7f60208601610e63565b925060408501359150606085013567ffffffffffffffff80821115610fa357600080fd5b818701915087601f830112610fb757600080fd5b813581811115610fc957610fc9610f3c565b604051601f8201601f19908116603f01168101908382118183101715610ff157610ff1610f3c565b816040528281528a602084870101111561100a57600080fd5b82602086016020830137600060208483010152809550505050505092959194509250565b6000806040838503121561104157600080fd5b61104a83610e63565b915061105860208401610e63565b90509250929050565b600181811c9082168061107557607f821691505b60208210810361109557634e487b7160e01b600052602260045260246000fd5b50919050565b6020808252602d908201527f4552433732313a2063616c6c6572206973206e6f7420746f6b656e206f776e6560408201526c1c881bdc88185c1c1c9bdd9959609a1b606082015260800190565b600083516110fa818460208801610de7565b83519083019061110e818360208801610de7565b01949350505050565b60208082526025908201527f4552433732313a207472616e736665722066726f6d20696e636f72726563742060408201526437bbb732b960d91b606082015260800190565b60208082526032908201527f4552433732313a207472616e7366657220746f206e6f6e20455243373231526560408201527131b2b4bb32b91034b6b83632b6b2b73a32b960711b606082015260800190565b634e487b7160e01b600052601160045260246000fd5b81810381811115610281576102816111ae565b80820180821115610281576102816111ae565b6001600160a01b038581168252841660208201526040810183905260806060820181905260009061121d90830184610e0b565b9695505050505050565b60006020828403121561123957600080fd5b81516106dd81610db456fea26469706673582212207a9120dbcf229c20b083af590d9284aaefabec5b22fce9547dfd4007ab361b7964736f6c63430008110033",
    "linkReferences": {}
  },
  "methodIdentifiers": {
    "NAME()": "a3f4df7e",
    "SYMBOL()": "f76f8d78",
    "approve(address,uint256)": "095ea7b3",
    "balanceOf(address)": "70a08231",
    "getApproved(uint256)": "081812fc",
    "isApprovedForAll(address,address)": "e985e9c5",
    "name()": "06fdde03",
    "ownerOf(uint256)": "6352211e",
    "safeTransferFrom(address,address,uint256)": "42842e0e",
    "safeTransferFrom(address,address,uint256,bytes)": "b88d4fde",
    "setApprovalForAll(address,bool)": "a22cb465",
    "supportsInterface(bytes4)": "01ffc9a7",
    "symbol()": "95d89b41",
    "tokenURI(uint256)": "c87b56dd",
    "transferFrom(address,address,uint256)": "23b872dd"
  },
  "id": 18
}