{
  "abi": [
    {
      "inputs": [
        {
          "internalType": "uint64",
          "name": "subscriptionId",
          "type": "uint64"
        }
      ],
      "stateMutability": "nonpayable",
      "type": "constructor"
    },
    {
      "inputs": [
        {
          "internalType": "address",
          "name": "have",
          "type": "address"
        },
        {
          "internalType": "address",
          "name": "want",
          "type": "address"
        }
      ],
      "name": "OnlyCoordinatorCanFulfill",
      "type": "error"
    },
    {
      "anonymous": false,
      "inputs": [
        {
          "indexed": true,
          "internalType": "address",
          "name": "owner",
          "type": "address"
        },
        {
          "indexed": true,
          "internalType": "address",
          "name": "approved",
          "type": "address"
        },
        {
          "indexed": true,
          "internalType": "uint256",
          "name": "tokenId",
          "type": "uint256"
        }
      ],
      "name": "Approval",
      "type": "event"
    },
    {
      "anonymous": false,
      "inputs": [
        {
          "indexed": true,
          "internalType": "address",
          "name": "owner",
          "type": "address"
        },
        {
          "indexed": true,
          "internalType": "address",
          "name": "operator",
          "type": "address"
        },
        {
          "indexed": false,
          "internalType": "bool",
          "name": "approved",
          "type": "bool"
        }
      ],
      "name": "ApprovalForAll",
      "type": "event"
    },
    {
      "anonymous": false,
      "inputs": [
        {
          "indexed": true,
          "internalType": "address",
          "name": "from",
          "type": "address"
        },
        {
          "indexed": true,
          "internalType": "address",
          "name": "to",
          "type": "address"
        }
      ],
      "name": "OwnershipTransferRequested",
      "type": "event"
    },
    {
      "anonymous": false,
      "inputs": [
        {
          "indexed": true,
          "internalType": "address",
          "name": "from",
          "type": "address"
        },
        {
          "indexed": true,
          "internalType": "address",
          "name": "to",
          "type": "address"
        }
      ],
      "name": "OwnershipTransferred",
      "type": "event"
    },
    {
      "anonymous": false,
      "inputs": [
        {
          "indexed": true,
          "internalType": "address",
          "name": "from",
          "type": "address"
        },
        {
          "indexed": true,
          "internalType": "address",
          "name": "to",
          "type": "address"
        },
        {
          "indexed": true,
          "internalType": "uint256",
          "name": "tokenId",
          "type": "uint256"
        }
      ],
      "name": "Transfer",
      "type": "event"
    },
    {
      "inputs": [],
      "name": "NAME",
      "outputs": [
        {
          "internalType": "string",
          "name": "",
          "type": "string"
        }
      ],
      "stateMutability": "view",
      "type": "function"
    },
    {
      "inputs": [],
      "name": "SYMBOL",
      "outputs": [
        {
          "internalType": "string",
          "name": "",
          "type": "string"
        }
      ],
      "stateMutability": "view",
      "type": "function"
    },
    {
      "inputs": [],
      "name": "acceptOwnership",
      "outputs": [],
      "stateMutability": "nonpayable",
      "type": "function"
    },
    {
      "inputs": [
        {
          "internalType": "address",
          "name": "to",
          "type": "address"
        },
        {
          "internalType": "uint256",
          "name": "tokenId",
          "type": "uint256"
        }
      ],
      "name": "approve",
      "outputs": [],
      "stateMutability": "nonpayable",
      "type": "function"
    },
    {
      "inputs": [
        {
          "internalType": "address",
          "name": "owner",
          "type": "address"
        }
      ],
      "name": "balanceOf",
      "outputs": [
        {
          "internalType": "uint256",
          "name": "",
          "type": "uint256"
        }
      ],
      "stateMutability": "view",
      "type": "function"
    },
    {
      "inputs": [
        {
          "internalType": "uint256",
          "name": "tokenId",
          "type": "uint256"
        }
      ],
      "name": "getApproved",
      "outputs": [
        {
          "internalType": "address",
          "name": "",
          "type": "address"
        }
      ],
      "stateMutability": "view",
      "type": "function"
    },
    {
      "inputs": [
        {
          "internalType": "address",
          "name": "owner",
          "type": "address"
        },
        {
          "internalType": "address",
          "name": "operator",
          "type": "address"
        }
      ],
      "name": "isApprovedForAll",
      "outputs": [
        {
          "internalType": "bool",
          "name": "",
          "type": "bool"
        }
      ],
      "stateMutability": "view",
      "type": "function"
    },
    {
      "inputs": [],
      "name": "lastRequestId",
      "outputs": [
        {
          "internalType": "uint256",
          "name": "",
          "type": "uint256"
        }
      ],
      "stateMutability": "view",
      "type": "function"
    },
    {
      "inputs": [],
      "name": "mint",
      "outputs": [
        {
          "internalType": "uint256",
          "name": "",
          "type": "uint256"
        }
      ],
      "stateMutability": "nonpayable",
      "type": "function"
    },
    {
      "inputs": [],
      "name": "name",
      "outputs": [
        {
          "internalType": "string",
          "name": "",
          "type": "string"
        }
      ],
      "stateMutability": "view",
      "type": "function"
    },
    {
      "inputs": [],
      "name": "owner",
      "outputs": [
        {
          "internalType": "address",
          "name": "",
          "type": "address"
        }
      ],
      "stateMutability": "view",
      "type": "function"
    },
    {
      "inputs": [
        {
          "internalType": "uint256",
          "name": "tokenId",
          "type": "uint256"
        }
      ],
      "name": "ownerOf",
      "outputs": [
        {
          "internalType": "address",
          "name": "",
          "type": "address"
        }
      ],
      "stateMutability": "view",
      "type": "function"
    },
    {
      "inputs": [
        {
          "internalType": "uint256",
          "name": "requestId",
          "type": "uint256"
        },
        {
          "internalType": "uint256[]",
          "name": "randomWords",
          "type": "uint256[]"
        }
      ],
      "name": "rawFulfillRandomWords",
      "outputs": [],
      "stateMutability": "nonpayable",
      "type": "function"
    },
    {
      "inputs": [
        {
          "internalType": "uint256",
          "name": "",
          "type": "uint256"
        }
      ],
      "name": "requestIds",
      "outputs": [
        {
          "internalType": "uint256",
          "name": "",
          "type": "uint256"
        }
      ],
      "stateMutability": "view",
      "type": "function"
    },
    {
      "inputs": [],
      "name": "requestRandomWords",
      "outputs": [
        {
          "internalType": "uint256",
          "name": "requestId",
          "type": "uint256"
        }
      ],
      "stateMutability": "nonpayable",
      "type": "function"
    },
    {
      "inputs": [
        {
          "internalType": "uint256",
          "name": "",
          "type": "uint256"
        }
      ],
      "name": "s_requests",
      "outputs": [
        {
          "internalType": "bool",
          "name": "fulfilled",
          "type": "bool"
        },
        {
          "internalType": "bool",
          "name": "exists",
          "type": "bool"
        }
      ],
      "stateMutability": "view",
      "type": "function"
    },
    {
      "inputs": [
        {
          "internalType": "address",
          "name": "from",
          "type": "address"
        },
        {
          "internalType": "address",
          "name": "to",
          "type": "address"
        },
        {
          "internalType": "uint256",
          "name": "tokenId",
          "type": "uint256"
        }
      ],
      "name": "safeTransferFrom",
      "outputs": [],
      "stateMutability": "nonpayable",
      "type": "function"
    },
    {
      "inputs": [
        {
          "internalType": "address",
          "name": "from",
          "type": "address"
        },
        {
          "internalType": "address",
          "name": "to",
          "type": "address"
        },
        {
          "internalType": "uint256",
          "name": "tokenId",
          "type": "uint256"
        },
        {
          "internalType": "bytes",
          "name": "data",
          "type": "bytes"
        }
      ],
      "name": "safeTransferFrom",
      "outputs": [],
      "stateMutability": "nonpayable",
      "type": "function"
    },
    {
      "inputs": [
        {
          "internalType": "address",
          "name": "operator",
          "type": "address"
        },
        {
          "internalType": "bool",
          "name": "approved",
          "type": "bool"
        }
      ],
      "name": "setApprovalForAll",
      "outputs": [],
      "stateMutability": "nonpayable",
      "type": "function"
    },
    {
      "inputs": [
        {
          "internalType": "bytes4",
          "name": "interfaceId",
          "type": "bytes4"
        }
      ],
      "name": "supportsInterface",
      "outputs": [
        {
          "internalType": "bool",
          "name": "",
          "type": "bool"
        }
      ],
      "stateMutability": "view",
      "type": "function"
    },
    {
      "inputs": [],
      "name": "symbol",
      "outputs": [
        {
          "internalType": "string",
          "name": "",
          "type": "string"
        }
      ],
      "stateMutability": "view",
      "type": "function"
    },
    {
      "inputs": [
        {
          "internalType": "uint256",
          "name": "tokenId",
          "type": "uint256"
        }
      ],
      "name": "tokenURI",
      "outputs": [
        {
          "internalType": "string",
          "name": "",
          "type": "string"
        }
      ],
      "stateMutability": "view",
      "type": "function"
    },
    {
      "inputs": [
        {
          "internalType": "address",
          "name": "from",
          "type": "address"
        },
        {
          "internalType": "address",
          "name": "to",
          "type": "address"
        },
        {
          "internalType": "uint256",
          "name": "tokenId",
          "type": "uint256"
        }
      ],
      "name": "transferFrom",
      "outputs": [],
      "stateMutability": "nonpayable",
      "type": "function"
    },
    {
      "inputs": [
        {
          "internalType": "address",
          "name": "to",
          "type": "address"
        }
      ],
      "name": "transferOwnership",
      "outputs": [],
      "stateMutability": "nonpayable",
      "type": "function"
    }
  ],
  "bytecode": {
    "object": "0x60e0604052600a60a09081526950726f746f57414d4f5360b01b60c0526008906200002b908262000501565b506040805180820190915260068152657057414d4f7360d01b602082015260099062000058908262000501565b50600e805466020000000186a069ffffffff0000ffffffff199091161790557f79d3d8832d904592c0bf9818b621522c988bb8b0c05cdc3b15aea1b6e8db0c15600f557f4b09e658ed251bcafeebbc69400383d49f344ace09b9576fe248bb02c003fe9f6010557f354d2f95da55398f44b7cff77da56283d9c6c829a4bdf1bbcaf2ad6a4d081f61601155601280546001600160a01b0319908116732ca8e0c643bde4c2e08ab1fa0da3401adad7734d17909155601380548216737a1bac17ccc5b313516c5e16fb24f7659aa5ebed17905560148054909116732ed832ba664535e5886b75d64c46eb9a228c26101790553480156200015657600080fd5b5060405162001cd538038062001cd58339810160408190526200017991620005cd565b60135460088054339283926000926001600160a01b03909216916200019e9062000472565b80601f0160208091040260200160405190810160405280929190818152602001828054620001cc9062000472565b80156200021d5780601f10620001f1576101008083540402835291602001916200021d565b820191906000526020600020905b815481529060010190602001808311620001ff57829003601f168201915b505050505060098054620002319062000472565b80601f01602080910402602001604051908101604052809291908181526020018280546200025f9062000472565b8015620002b05780601f106200028457610100808354040283529160200191620002b0565b820191906000526020600020905b8154815290600101906020018083116200029257829003601f168201915b50505050508160009081620002c6919062000501565b506001620002d5828262000501565b5050506001600160a01b0390811660805282166200033a5760405162461bcd60e51b815260206004820152601860248201527f43616e6e6f7420736574206f776e657220746f207a65726f000000000000000060448201526064015b60405180910390fd5b600680546001600160a01b0319166001600160a01b03848116919091179091558116156200036d576200036d81620003b0565b5050601354600b80546001600160401b03909416600160a01b026001600160e01b03199094166001600160a01b03909216919091179290921790915550620005ff565b336001600160a01b038216036200040a5760405162461bcd60e51b815260206004820152601760248201527f43616e6e6f74207472616e7366657220746f2073656c66000000000000000000604482015260640162000331565b600780546001600160a01b0319166001600160a01b03838116918217909255600654604051919216907fed8889f560326eb138920d842192f0eb3dd22b4f139c87a2c57538e05bae127890600090a350565b634e487b7160e01b600052604160045260246000fd5b600181811c908216806200048757607f821691505b602082108103620004a857634e487b7160e01b600052602260045260246000fd5b50919050565b601f821115620004fc57600081815260208120601f850160051c81016020861015620004d75750805b601f850160051c820191505b81811015620004f857828155600101620004e3565b5050505b505050565b81516001600160401b038111156200051d576200051d6200045c565b62000535816200052e845462000472565b84620004ae565b602080601f8311600181146200056d5760008415620005545750858301515b600019600386901b1c1916600185901b178555620004f8565b600085815260208120601f198616915b828110156200059e578886015182559484019460019091019084016200057d565b5085821015620005bd5787850151600019600388901b60f8161c191681555b5050505050600190811b01905550565b600060208284031215620005e057600080fd5b81516001600160401b0381168114620005f857600080fd5b9392505050565b6080516116b3620006226000396000818161057101526105b301526116b36000f3fe608060405234801561001057600080fd5b50600436106101585760003560e01c80638da5cb5b116100c3578063c87b56dd1161007c578063c87b56dd146102ef578063e0c8628914610302578063e985e9c51461030a578063f2fde38b1461031d578063f76f8d7814610330578063fc2a88c31461033857600080fd5b80638da5cb5b1461026557806395d89b4114610276578063a168fa891461027e578063a22cb465146102c1578063a3f4df7e146102d4578063b88d4fde146102dc57600080fd5b806323b872dd1161011557806323b872dd146101fe57806342842e0e146102115780636352211e1461022457806370a082311461023757806379ba50971461024a5780638796ba8c1461025257600080fd5b806301ffc9a71461015d57806306fdde0314610185578063081812fc1461019a578063095ea7b3146101c55780631249c58b146101da5780631fe543e3146101eb575b600080fd5b61017061016b36600461113c565b610341565b60405190151581526020015b60405180910390f35b61018d610393565b60405161017c91906111a9565b6101ad6101a83660046111bc565b610425565b6040516001600160a01b03909116815260200161017c565b6101d86101d33660046111f1565b61044c565b005b60005b60405190815260200161017c565b6101d86101f9366004611262565b610566565b6101d861020c366004611314565b6105e4565b6101d861021f366004611314565b610615565b6101ad6102323660046111bc565b610630565b6101dd610245366004611350565b610690565b6101d8610716565b6101dd6102603660046111bc565b6107c4565b6006546001600160a01b03166101ad565b61018d6107e5565b6102aa61028c3660046111bc565b600a6020526000908152604090205460ff8082169161010090041682565b60408051921515835290151560208301520161017c565b6101d86102cf36600461136b565b6107f4565b61018d6107ff565b6101d86102ea3660046113a7565b61088d565b61018d6102fd3660046111bc565b6108c5565b6101dd610939565b610170610318366004611467565b610946565b6101d861032b366004611350565b610974565b61018d610988565b6101dd600d5481565b60006001600160e01b031982166380ac58cd60e01b148061037257506001600160e01b03198216635b5e139f60e01b145b8061038d57506301ffc9a760e01b6001600160e01b03198316145b92915050565b6060600080546103a29061149a565b80601f01602080910402602001604051908101604052809291908181526020018280546103ce9061149a565b801561041b5780601f106103f05761010080835404028352916020019161041b565b820191906000526020600020905b8154815290600101906020018083116103fe57829003601f168201915b5050505050905090565b600061043082610995565b506000908152600460205260409020546001600160a01b031690565b600061045782610630565b9050806001600160a01b0316836001600160a01b0316036104c95760405162461bcd60e51b815260206004820152602160248201527f4552433732313a20617070726f76616c20746f2063757272656e74206f776e656044820152603960f91b60648201526084015b60405180910390fd5b336001600160a01b03821614806104e557506104e58133610946565b6105575760405162461bcd60e51b815260206004820152603d60248201527f4552433732313a20617070726f76652063616c6c6572206973206e6f7420746f60448201527f6b656e206f776e6572206f7220617070726f76656420666f7220616c6c00000060648201526084016104c0565b61056183836109f4565b505050565b336001600160a01b037f000000000000000000000000000000000000000000000000000000000000000016146105e05760405163073e64fd60e21b81523360048201526001600160a01b037f00000000000000000000000000000000000000000000000000000000000000001660248201526044016104c0565b5050565b6105ee3382610a62565b61060a5760405162461bcd60e51b81526004016104c0906114d4565b610561838383610ac1565b6105618383836040518060200160405280600081525061088d565b6000818152600260205260408120546001600160a01b03168061038d5760405162461bcd60e51b8152602060048201526018602482015277115490cdcc8c4e881a5b9d985b1a59081d1bdad95b88125160421b60448201526064016104c0565b60006001600160a01b0382166106fa5760405162461bcd60e51b815260206004820152602960248201527f4552433732313a2061646472657373207a65726f206973206e6f7420612076616044820152683634b21037bbb732b960b91b60648201526084016104c0565b506001600160a01b031660009081526003602052604090205490565b6007546001600160a01b031633146107695760405162461bcd60e51b815260206004820152601660248201527526bab9ba10313290383937b837b9b2b21037bbb732b960511b60448201526064016104c0565b600680546001600160a01b0319808216339081179093556007805490911690556040516001600160a01b03909116919082907f8be0079c531659141344cd1fd0a4f28419497f9722a3daafe3b4186f6b6457e090600090a350565b600c81815481106107d457600080fd5b600091825260209091200154905081565b6060600180546103a29061149a565b6105e0338383610c32565b6008805461080c9061149a565b80601f01602080910402602001604051908101604052809291908181526020018280546108389061149a565b80156108855780601f1061085a57610100808354040283529160200191610885565b820191906000526020600020905b81548152906001019060200180831161086857829003601f168201915b505050505081565b6108973383610a62565b6108b35760405162461bcd60e51b81526004016104c0906114d4565b6108bf84848484610d00565b50505050565b60606108d082610995565b60006108e760408051602081019091526000815290565b905060008151116109075760405180602001604052806000815250610932565b8061091184610d33565b604051602001610922929190611521565b6040516020818303038152906040525b9392505050565b6000610943610dc6565b90565b6001600160a01b03918216600090815260056020908152604080832093909416825291909152205460ff1690565b61097c610dc6565b61098581610e1b565b50565b6009805461080c9061149a565b6000818152600260205260409020546001600160a01b03166109855760405162461bcd60e51b8152602060048201526018602482015277115490cdcc8c4e881a5b9d985b1a59081d1bdad95b88125160421b60448201526064016104c0565b600081815260046020526040902080546001600160a01b0319166001600160a01b0384169081179091558190610a2982610630565b6001600160a01b03167f8c5be1e5ebec7d5bd14f71427d1e84f3dd0314c0f7b2291e5b200ac8c7c3b92560405160405180910390a45050565b600080610a6e83610630565b9050806001600160a01b0316846001600160a01b03161480610a955750610a958185610946565b80610ab95750836001600160a01b0316610aae84610425565b6001600160a01b0316145b949350505050565b826001600160a01b0316610ad482610630565b6001600160a01b031614610afa5760405162461bcd60e51b81526004016104c090611550565b6001600160a01b038216610b5c5760405162461bcd60e51b8152602060048201526024808201527f4552433732313a207472616e7366657220746f20746865207a65726f206164646044820152637265737360e01b60648201526084016104c0565b610b698383836001610ec5565b826001600160a01b0316610b7c82610630565b6001600160a01b031614610ba25760405162461bcd60e51b81526004016104c090611550565b600081815260046020908152604080832080546001600160a01b03199081169091556001600160a01b0387811680865260038552838620805460001901905590871680865283862080546001019055868652600290945282852080549092168417909155905184937fddf252ad1be2c89b69c2b068fc378daa952ba7f163c4a11628f55a4df523b3ef91a4505050565b816001600160a01b0316836001600160a01b031603610c935760405162461bcd60e51b815260206004820152601960248201527f4552433732313a20617070726f766520746f2063616c6c65720000000000000060448201526064016104c0565b6001600160a01b03838116600081815260056020908152604080832094871680845294825291829020805460ff191686151590811790915591519182527f17307eab39ab6107e8899845ad3d59bd9653f200f220920489ca2b5937696c31910160405180910390a3505050565b610d0b848484610ac1565b610d1784848484610f4d565b6108bf5760405162461bcd60e51b81526004016104c090611595565b60606000610d408361104e565b600101905060008167ffffffffffffffff811115610d6057610d6061121b565b6040519080825280601f01601f191660200182016040528015610d8a576020820181803683370190505b5090508181016020015b600019016f181899199a1a9b1b9c1cb0b131b232b360811b600a86061a8153600a8504945084610d9457509392505050565b6006546001600160a01b03163314610e195760405162461bcd60e51b815260206004820152601660248201527527b7363c9031b0b63630b1363290313c9037bbb732b960511b60448201526064016104c0565b565b336001600160a01b03821603610e735760405162461bcd60e51b815260206004820152601760248201527f43616e6e6f74207472616e7366657220746f2073656c6600000000000000000060448201526064016104c0565b600780546001600160a01b0319166001600160a01b03838116918217909255600654604051919216907fed8889f560326eb138920d842192f0eb3dd22b4f139c87a2c57538e05bae127890600090a350565b60018111156108bf576001600160a01b03841615610f0b576001600160a01b03841660009081526003602052604081208054839290610f059084906115fd565b90915550505b6001600160a01b038316156108bf576001600160a01b03831660009081526003602052604081208054839290610f42908490611610565b909155505050505050565b60006001600160a01b0384163b1561104357604051630a85bd0160e11b81526001600160a01b0385169063150b7a0290610f91903390899088908890600401611623565b6020604051808303816000875af1925050508015610fcc575060408051601f3d908101601f19168201909252610fc991810190611660565b60015b611029573d808015610ffa576040519150601f19603f3d011682016040523d82523d6000602084013e610fff565b606091505b5080516000036110215760405162461bcd60e51b81526004016104c090611595565b805181602001fd5b6001600160e01b031916630a85bd0160e11b149050610ab9565b506001949350505050565b60008072184f03e93ff9f4daa797ed6e38ed64bf6a1f0160401b831061108d5772184f03e93ff9f4daa797ed6e38ed64bf6a1f0160401b830492506040015b6d04ee2d6d415b85acef810000000083106110b9576d04ee2d6d415b85acef8100000000830492506020015b662386f26fc1000083106110d757662386f26fc10000830492506010015b6305f5e10083106110ef576305f5e100830492506008015b612710831061110357612710830492506004015b60648310611115576064830492506002015b600a831061038d5760010192915050565b6001600160e01b03198116811461098557600080fd5b60006020828403121561114e57600080fd5b813561093281611126565b60005b8381101561117457818101518382015260200161115c565b50506000910152565b60008151808452611195816020860160208601611159565b601f01601f19169290920160200192915050565b602081526000610932602083018461117d565b6000602082840312156111ce57600080fd5b5035919050565b80356001600160a01b03811681146111ec57600080fd5b919050565b6000806040838503121561120457600080fd5b61120d836111d5565b946020939093013593505050565b634e487b7160e01b600052604160045260246000fd5b604051601f8201601f1916810167ffffffffffffffff8111828210171561125a5761125a61121b565b604052919050565b6000806040838503121561127557600080fd5b8235915060208084013567ffffffffffffffff8082111561129557600080fd5b818601915086601f8301126112a957600080fd5b8135818111156112bb576112bb61121b565b8060051b91506112cc848301611231565b81815291830184019184810190898411156112e657600080fd5b938501935b83851015611304578435825293850193908501906112eb565b8096505050505050509250929050565b60008060006060848603121561132957600080fd5b611332846111d5565b9250611340602085016111d5565b9150604084013590509250925092565b60006020828403121561136257600080fd5b610932826111d5565b6000806040838503121561137e57600080fd5b611387836111d5565b91506020830135801515811461139c57600080fd5b809150509250929050565b600080600080608085870312156113bd57600080fd5b6113c6856111d5565b935060206113d58187016111d5565b935060408601359250606086013567ffffffffffffffff808211156113f957600080fd5b818801915088601f83011261140d57600080fd5b81358181111561141f5761141f61121b565b611431601f8201601f19168501611231565b9150808252898482850101111561144757600080fd5b808484018584013760008482840101525080935050505092959194509250565b6000806040838503121561147a57600080fd5b611483836111d5565b9150611491602084016111d5565b90509250929050565b600181811c908216806114ae57607f821691505b6020821081036114ce57634e487b7160e01b600052602260045260246000fd5b50919050565b6020808252602d908201527f4552433732313a2063616c6c6572206973206e6f7420746f6b656e206f776e6560408201526c1c881bdc88185c1c1c9bdd9959609a1b606082015260800190565b60008351611533818460208801611159565b835190830190611547818360208801611159565b01949350505050565b60208082526025908201527f4552433732313a207472616e736665722066726f6d20696e636f72726563742060408201526437bbb732b960d91b606082015260800190565b60208082526032908201527f4552433732313a207472616e7366657220746f206e6f6e20455243373231526560408201527131b2b4bb32b91034b6b83632b6b2b73a32b960711b606082015260800190565b634e487b7160e01b600052601160045260246000fd5b8181038181111561038d5761038d6115e7565b8082018082111561038d5761038d6115e7565b6001600160a01b03858116825284166020820152604081018390526080606082018190526000906116569083018461117d565b9695505050505050565b60006020828403121561167257600080fd5b81516109328161112656fea2646970667358221220b237bdadb69cdc8b460e5e1e91c7de762d6a9c6a5319738a30ccb8a199d8ae9c64736f6c63430008110033",
    "linkReferences": {}
  },
  "methodIdentifiers": {
    "NAME()": "a3f4df7e",
    "SYMBOL()": "f76f8d78",
    "acceptOwnership()": "79ba5097",
    "approve(address,uint256)": "095ea7b3",
    "balanceOf(address)": "70a08231",
    "getApproved(uint256)": "081812fc",
    "isApprovedForAll(address,address)": "e985e9c5",
    "lastRequestId()": "fc2a88c3",
    "mint()": "1249c58b",
    "name()": "06fdde03",
    "owner()": "8da5cb5b",
    "ownerOf(uint256)": "6352211e",
    "rawFulfillRandomWords(uint256,uint256[])": "1fe543e3",
    "requestIds(uint256)": "8796ba8c",
    "requestRandomWords()": "e0c86289",
    "s_requests(uint256)": "a168fa89",
    "safeTransferFrom(address,address,uint256)": "42842e0e",
    "safeTransferFrom(address,address,uint256,bytes)": "b88d4fde",
    "setApprovalForAll(address,bool)": "a22cb465",
    "supportsInterface(bytes4)": "01ffc9a7",
    "symbol()": "95d89b41",
    "tokenURI(uint256)": "c87b56dd",
    "transferFrom(address,address,uint256)": "23b872dd",
    "transferOwnership(address)": "f2fde38b"
  },
  "id": 22
}