{
  "_format": "hh-sol-artifact-1",
  "contractName": "WamosV2Arena",
  "sourceName": "src/v2/WamosV2Arena.sol",
  "abi": [
    {
      "inputs": [
        {
          "internalType": "address",
          "name": "_wamosAddr",
          "type": "address"
        }
      ],
      "stateMutability": "nonpayable",
      "type": "constructor"
    },
    {
      "inputs": [
        {
          "internalType": "uint256",
          "name": "gameId",
          "type": "uint256"
        },
        {
          "internalType": "address",
          "name": "sender",
          "type": "address"
        }
      ],
      "name": "GameNotFinished",
      "type": "error"
    },
    {
      "inputs": [
        {
          "internalType": "uint256",
          "name": "wamoId",
          "type": "uint256"
        },
        {
          "internalType": "int16",
          "name": "attemptedIdenMutation",
          "type": "int16"
        }
      ],
      "name": "MoveOutOfBounds",
      "type": "error"
    },
    {
      "inputs": [
        {
          "internalType": "uint256",
          "name": "gameId",
          "type": "uint256"
        },
        {
          "internalType": "address",
          "name": "sender",
          "type": "address"
        }
      ],
      "name": "NotPlayerInGame",
      "type": "error"
    },
    {
      "inputs": [
        {
          "internalType": "uint256",
          "name": "gameId",
          "type": "uint256"
        },
        {
          "internalType": "address",
          "name": "sender",
          "type": "address"
        }
      ],
      "name": "NotPlayersTurnOrNotInGame",
      "type": "error"
    },
    {
      "inputs": [
        {
          "internalType": "uint256",
          "name": "gameId",
          "type": "uint256"
        }
      ],
      "name": "OpponentNotDefeated",
      "type": "error"
    },
    {
      "inputs": [],
      "name": "GRID_SIZE",
      "outputs": [
        {
          "internalType": "int16",
          "name": "",
          "type": "int16"
        }
      ],
      "stateMutability": "view",
      "type": "function"
    },
    {
      "inputs": [],
      "name": "MAX_PLAYERS",
      "outputs": [
        {
          "internalType": "uint256",
          "name": "",
          "type": "uint256"
        }
      ],
      "stateMutability": "view",
      "type": "function"
    },
    {
      "inputs": [],
      "name": "PARTY_SIZE",
      "outputs": [
        {
          "internalType": "uint256",
          "name": "",
          "type": "uint256"
        }
      ],
      "stateMutability": "view",
      "type": "function"
    },
    {
      "inputs": [
        {
          "components": [
            {
              "internalType": "address[2]",
              "name": "players",
              "type": "address[2]"
            },
            {
              "internalType": "enum GameStatus",
              "name": "status",
              "type": "uint8"
            },
            {
              "internalType": "uint256",
              "name": "partySize",
              "type": "uint256"
            },
            {
              "internalType": "bool",
              "name": "party1IsStaked",
              "type": "bool"
            },
            {
              "internalType": "bool",
              "name": "party2IsStaked",
              "type": "bool"
            },
            {
              "internalType": "uint256[3]",
              "name": "party1",
              "type": "uint256[3]"
            },
            {
              "internalType": "uint256[3]",
              "name": "party2",
              "type": "uint256[3]"
            },
            {
              "internalType": "uint256",
              "name": "createTime",
              "type": "uint256"
            },
            {
              "internalType": "uint256",
              "name": "lastMoveTime",
              "type": "uint256"
            },
            {
              "internalType": "uint256",
              "name": "turnCount",
              "type": "uint256"
            },
            {
              "internalType": "uint256",
              "name": "victor",
              "type": "uint256"
            }
          ],
          "internalType": "struct GameData",
          "name": "game",
          "type": "tuple"
        }
      ],
      "name": "_encodeGameData",
      "outputs": [
        {
          "internalType": "uint256",
          "name": "gameData",
          "type": "uint256"
        }
      ],
      "stateMutability": "nonpayable",
      "type": "function"
    },
    {
      "inputs": [
        {
          "internalType": "int16",
          "name": "number",
          "type": "int16"
        }
      ],
      "name": "abs",
      "outputs": [
        {
          "internalType": "int16",
          "name": "",
          "type": "int16"
        }
      ],
      "stateMutability": "pure",
      "type": "function"
    },
    {
      "inputs": [
        {
          "internalType": "address",
          "name": "",
          "type": "address"
        },
        {
          "internalType": "uint256",
          "name": "",
          "type": "uint256"
        }
      ],
      "name": "addrToChallengesReceived",
      "outputs": [
        {
          "internalType": "uint256",
          "name": "",
          "type": "uint256"
        }
      ],
      "stateMutability": "view",
      "type": "function"
    },
    {
      "inputs": [
        {
          "internalType": "address",
          "name": "",
          "type": "address"
        },
        {
          "internalType": "uint256",
          "name": "",
          "type": "uint256"
        }
      ],
      "name": "addrToChallengesSent",
      "outputs": [
        {
          "internalType": "uint256",
          "name": "",
          "type": "uint256"
        }
      ],
      "stateMutability": "view",
      "type": "function"
    },
    {
      "inputs": [
        {
          "internalType": "address",
          "name": "",
          "type": "address"
        }
      ],
      "name": "addrToPlayerTag",
      "outputs": [
        {
          "internalType": "string",
          "name": "",
          "type": "string"
        }
      ],
      "stateMutability": "view",
      "type": "function"
    },
    {
      "inputs": [
        {
          "internalType": "uint256",
          "name": "actingWamoId",
          "type": "uint256"
        },
        {
          "internalType": "uint256",
          "name": "targetWamoId",
          "type": "uint256"
        },
        {
          "components": [
            {
              "internalType": "uint256",
              "name": "dietyType",
              "type": "uint256"
            },
            {
              "internalType": "enum DamageType",
              "name": "damageType",
              "type": "uint8"
            },
            {
              "internalType": "uint256",
              "name": "power",
              "type": "uint256"
            },
            {
              "internalType": "uint256",
              "name": "accuracy",
              "type": "uint256"
            },
            {
              "internalType": "int16",
              "name": "range",
              "type": "int16"
            },
            {
              "internalType": "uint256",
              "name": "cost",
              "type": "uint256"
            }
          ],
          "internalType": "struct Ability",
          "name": "ability",
          "type": "tuple"
        }
      ],
      "name": "calculateDamage",
      "outputs": [
        {
          "internalType": "uint256",
          "name": "damage",
          "type": "uint256"
        }
      ],
      "stateMutability": "nonpayable",
      "type": "function"
    },
    {
      "inputs": [
        {
          "internalType": "uint256",
          "name": "gameId",
          "type": "uint256"
        }
      ],
      "name": "claimVictory",
      "outputs": [],
      "stateMutability": "nonpayable",
      "type": "function"
    },
    {
      "inputs": [
        {
          "internalType": "uint256",
          "name": "gameId",
          "type": "uint256"
        },
        {
          "internalType": "uint256",
          "name": "actingWamoId",
          "type": "uint256"
        },
        {
          "internalType": "uint256",
          "name": "targetWamoId",
          "type": "uint256"
        },
        {
          "internalType": "uint256",
          "name": "moveSelection",
          "type": "uint256"
        },
        {
          "internalType": "uint256",
          "name": "abilitySelection",
          "type": "uint256"
        },
        {
          "internalType": "bool",
          "name": "isMoved",
          "type": "bool"
        },
        {
          "internalType": "bool",
          "name": "moveBeforeAbility",
          "type": "bool"
        },
        {
          "internalType": "bool",
          "name": "useAbility",
          "type": "bool"
        }
      ],
      "name": "commitTurn",
      "outputs": [],
      "stateMutability": "nonpayable",
      "type": "function"
    },
    {
      "inputs": [
        {
          "internalType": "uint256",
          "name": "gameId",
          "type": "uint256"
        },
        {
          "internalType": "uint256[3]",
          "name": "wamoIds",
          "type": "uint256[3]"
        }
      ],
      "name": "connectWamos",
      "outputs": [],
      "stateMutability": "nonpayable",
      "type": "function"
    },
    {
      "inputs": [
        {
          "internalType": "address",
          "name": "player2",
          "type": "address"
        },
        {
          "internalType": "uint256",
          "name": "partySize",
          "type": "uint256"
        }
      ],
      "name": "createGame",
      "outputs": [
        {
          "internalType": "uint256",
          "name": "gameId",
          "type": "uint256"
        }
      ],
      "stateMutability": "nonpayable",
      "type": "function"
    },
    {
      "inputs": [
        {
          "internalType": "int16",
          "name": "p1",
          "type": "int16"
        },
        {
          "internalType": "int16",
          "name": "p2",
          "type": "int16"
        }
      ],
      "name": "euclideanDistance",
      "outputs": [
        {
          "internalType": "int16",
          "name": "y",
          "type": "int16"
        }
      ],
      "stateMutability": "pure",
      "type": "function"
    },
    {
      "inputs": [],
      "name": "gameCount",
      "outputs": [
        {
          "internalType": "uint256",
          "name": "",
          "type": "uint256"
        }
      ],
      "stateMutability": "view",
      "type": "function"
    },
    {
      "inputs": [
        {
          "internalType": "uint256",
          "name": "gameId",
          "type": "uint256"
        }
      ],
      "name": "getGameDataStruct",
      "outputs": [
        {
          "components": [
            {
              "internalType": "address[2]",
              "name": "players",
              "type": "address[2]"
            },
            {
              "internalType": "enum GameStatus",
              "name": "status",
              "type": "uint8"
            },
            {
              "internalType": "uint256",
              "name": "partySize",
              "type": "uint256"
            },
            {
              "internalType": "bool",
              "name": "party1IsStaked",
              "type": "bool"
            },
            {
              "internalType": "bool",
              "name": "party2IsStaked",
              "type": "bool"
            },
            {
              "internalType": "uint256[3]",
              "name": "party1",
              "type": "uint256[3]"
            },
            {
              "internalType": "uint256[3]",
              "name": "party2",
              "type": "uint256[3]"
            },
            {
              "internalType": "uint256",
              "name": "createTime",
              "type": "uint256"
            },
            {
              "internalType": "uint256",
              "name": "lastMoveTime",
              "type": "uint256"
            },
            {
              "internalType": "uint256",
              "name": "turnCount",
              "type": "uint256"
            },
            {
              "internalType": "uint256",
              "name": "victor",
              "type": "uint256"
            }
          ],
          "internalType": "struct GameData",
          "name": "",
          "type": "tuple"
        }
      ],
      "stateMutability": "view",
      "type": "function"
    },
    {
      "inputs": [
        {
          "internalType": "uint256",
          "name": "gameId",
          "type": "uint256"
        }
      ],
      "name": "getGameStatus",
      "outputs": [
        {
          "internalType": "enum GameStatus",
          "name": "",
          "type": "uint8"
        }
      ],
      "stateMutability": "view",
      "type": "function"
    },
    {
      "inputs": [
        {
          "internalType": "uint256",
          "name": "gameId",
          "type": "uint256"
        }
      ],
      "name": "getTurnCount",
      "outputs": [
        {
          "internalType": "uint256",
          "name": "",
          "type": "uint256"
        }
      ],
      "stateMutability": "view",
      "type": "function"
    },
    {
      "inputs": [
        {
          "internalType": "uint256",
          "name": "wamoId",
          "type": "uint256"
        }
      ],
      "name": "getWamoHealthStatus",
      "outputs": [
        {
          "internalType": "uint256",
          "name": "",
          "type": "uint256"
        }
      ],
      "stateMutability": "view",
      "type": "function"
    },
    {
      "inputs": [
        {
          "internalType": "uint256",
          "name": "wamoId",
          "type": "uint256"
        }
      ],
      "name": "getWamoPosition",
      "outputs": [
        {
          "internalType": "int16",
          "name": "position",
          "type": "int16"
        }
      ],
      "stateMutability": "view",
      "type": "function"
    },
    {
      "inputs": [
        {
          "internalType": "uint256",
          "name": "wamoId",
          "type": "uint256"
        }
      ],
      "name": "getWamoStatus",
      "outputs": [
        {
          "components": [
            {
              "internalType": "bool",
              "name": "inArena",
              "type": "bool"
            },
            {
              "internalType": "int16",
              "name": "position",
              "type": "int16"
            },
            {
              "internalType": "uint256",
              "name": "health",
              "type": "uint256"
            },
            {
              "internalType": "uint256",
              "name": "stamina",
              "type": "uint256"
            },
            {
              "internalType": "uint256",
              "name": "mana",
              "type": "uint256"
            }
          ],
          "internalType": "struct WamoStatus",
          "name": "status",
          "type": "tuple"
        }
      ],
      "stateMutability": "view",
      "type": "function"
    },
    {
      "inputs": [
        {
          "internalType": "address",
          "name": "operator",
          "type": "address"
        },
        {
          "internalType": "address",
          "name": "from",
          "type": "address"
        },
        {
          "internalType": "uint256",
          "name": "tokenId",
          "type": "uint256"
        },
        {
          "internalType": "bytes",
          "name": "data",
          "type": "bytes"
        }
      ],
      "name": "onERC721Received",
      "outputs": [
        {
          "internalType": "bytes4",
          "name": "",
          "type": "bytes4"
        }
      ],
      "stateMutability": "nonpayable",
      "type": "function"
    },
    {
      "inputs": [
        {
          "internalType": "uint256",
          "name": "gameId",
          "type": "uint256"
        }
      ],
      "name": "resign",
      "outputs": [],
      "stateMutability": "nonpayable",
      "type": "function"
    },
    {
      "inputs": [
        {
          "internalType": "uint256",
          "name": "gameId",
          "type": "uint256"
        }
      ],
      "name": "retrieveWamos",
      "outputs": [],
      "stateMutability": "nonpayable",
      "type": "function"
    },
    {
      "inputs": [
        {
          "internalType": "string",
          "name": "newPlayerTag",
          "type": "string"
        }
      ],
      "name": "setPlayerTag",
      "outputs": [],
      "stateMutability": "nonpayable",
      "type": "function"
    },
    {
      "inputs": [
        {
          "internalType": "uint256",
          "name": "wamoId",
          "type": "uint256"
        },
        {
          "internalType": "int16",
          "name": "newIden",
          "type": "int16"
        }
      ],
      "name": "setWamoPosition",
      "outputs": [],
      "stateMutability": "nonpayable",
      "type": "function"
    },
    {
      "inputs": [
        {
          "internalType": "int16",
          "name": "x",
          "type": "int16"
        }
      ],
      "name": "sqrtApprox",
      "outputs": [
        {
          "internalType": "int16",
          "name": "y",
          "type": "int16"
        }
      ],
      "stateMutability": "pure",
      "type": "function"
    }
  ],
  "bytecode": "0x60a06040523480156200001157600080fd5b50604051620027a5380380620027a583398101604081905262000034916200005e565b600080546001600160a01b0319166001600160a01b03929092169190911790553360805262000090565b6000602082840312156200007157600080fd5b81516001600160a01b03811681146200008957600080fd5b9392505050565b6080516126f9620000ac6000396000610f2501526126f96000f3fe608060405234801561001057600080fd5b50600436106101a95760003560e01c806345f61431116100f957806398f5ec3511610097578063d2ec4bf111610071578063d2ec4bf1146103f0578063d6058aa314610418578063e8ea16551461042b578063f4499ef51461043e57600080fd5b806398f5ec351461036b578063b7ea822914610382578063ca9d19171461039657600080fd5b80634ff776b8116100d35780634ff776b81461033057806374919396146103435780637ae3e8d0146102f95780637fc4eda81461036357600080fd5b806345f614311461030157806348c407ef146103145780634d1975b41461032757600080fd5b80631ab67bc31161016657806333f82cb01161014057806333f82cb0146102b35780633ddead32146102c65780633f83c2c0146102d95780634411b3eb146102f957600080fd5b80631ab67bc314610267578063256959b81461027a5780632ee908221461028d57600080fd5b806304f79420146101ae57806307ead930146101d457806308d9801c146101e75780630b25680f146101fc5780630f1bf4541461020f578063150b7a021461022f575b600080fd5b6101c16101bc366004611ab8565b610451565b6040519081526020015b60405180910390f35b6101c16101e2366004611aed565b61046a565b6101fa6101f5366004611ab8565b6105d9565b005b6101c161020a366004611aed565b610685565b61022261021d366004611ab8565b6106b6565b6040516101cb9190611b4f565b61024e61023d366004611ba6565b630a85bd0160e11b95945050505050565b6040516001600160e01b031990911681526020016101cb565b6101fa610275366004611d0a565b6106d0565b6101c1610288366004611ab8565b6108d7565b6102a061029b366004611d49565b6108ee565b60405160019190910b81526020016101cb565b6101fa6102c1366004611d6d565b61090d565b6102a06102d4366004611daf565b610927565b6102ec6102e7366004611de8565b610a01565b6040516101cb9190611e03565b6101c1600281565b6101fa61030f366004611ab8565b610a9b565b6101c1610322366004611aed565b610c13565b6101c160015481565b6101fa61033e366004611ab8565b610c2f565b610356610351366004611ab8565b610d30565b6040516101cb9190611ea0565b6102a0601081565b6101c1610379366004611f64565b50600a92915050565b6101c1610390366004612072565b50600090565b6103a96103a4366004611ab8565b610e8a565b6040516101cb9190600060a082019050825115158252602083015160010b602083015260408301516040830152606083015160608301526080830151608083015292915050565b6102a06103fe366004611ab8565b600090815260096020526040902054610100900460010b90565b6101fa610426366004612130565b610f1a565b6102a0610439366004611d49565b610fb1565b6101fa61044c366004612155565b611010565b6000818152600560205260408120600d01545b92915050565b600180546000913391908361047e836121df565b91905055915061048c611979565b4260e08201526040808201859052805180820182526001600160a01b038481168252871660208083018290529184526000828501819052835180850185523381528084019290925286815260079092529190206104ea9160026119e5565b506000838152600560205260409020815182919061050b90829060026119e5565b5060208201518160020160006101000a81548160ff0219169083600281111561053657610536611b17565b021790555060408201516003808301919091556060830151600483018054608086015115156101000261ff00199315159390931661ffff199091161791909117905560a083015161058c91600584019190611a39565b5060c08201516105a29060088301906003611a39565b5060e082015181600b015561010082015181600c015561012082015181600d015561014082015181600e0155905050505092915050565b6000818152600760205260408120829101546001600160a01b0316331480159061061d57506000818152600760205260409020600101546001600160a01b03163314155b15610649576040516314ecadef60e21b8152600481018290523360248201526044015b60405180910390fd5b6000610653611a67565b80516001600160a01b031633036106705760208101519150610675565b805191505b61067f848361120d565b50505050565b600260205281600052604060002081815481106106a157600080fd5b90600052602060002001600091509150505481565b60008181526005602052604081206002015460ff16610464565b6000828152600760205260408120839101546001600160a01b0316331480159061071457506000818152600760205260409020600101546001600160a01b03163314155b1561073b576040516314ecadef60e21b815260048101829052336024820152604401610640565b60005b600381101561083c5760016008600085846003811061075f5761075f6121f8565b6020020151815260200190815260200160002060006101000a81548160ff0219169083600281111561079357610793611b17565b02179055506000546001600160a01b03166342842e0e33308685600381106107bd576107bd6121f8565b60200201516040516001600160e01b031960e086901b1681526001600160a01b0393841660048201529290911660248301526044820152606401600060405180830381600087803b15801561081157600080fd5b505af1158015610825573d6000803e3d6000fd5b505050508080610834906121df565b91505061073e565b506000838152600560205260409020546001600160a01b0316330361088e57600083815260056020819052604090912060048101805460ff191660011790556108889101836003611a39565b506108be565b600083815260056020526040902060048101805461ff0019166101001790556108bc90600801836003611a39565b505b6108c9833384611233565b6108d2836113f7565b505050565b600081815260096020526040812060010154610464565b6000808260010b1215610909576109048261220e565b610464565b5090565b3360009081526004602052604090206108d28284836122b1565b600080610935601085612387565b610940601085612387565b61094a91906123a9565b905060006109596010866123cc565b6109646010866123cc565b61096e91906123a9565b610979906001612405565b90506000610988600283612543565b610993600285612543565b61099d9190612405565b9050600060026109ae836001612405565b6109b891906123cc565b90508194505b8460010b8160010b12156109f7579350836002816109dc81856123cc565b6109e69190612405565b6109f091906123cc565b90506109be565b5050505092915050565b60046020526000908152604090208054610a1a9061222f565b80601f0160208091040260200160405190810160405280929190818152602001828054610a469061222f565b8015610a935780601f10610a6857610100808354040283529160200191610a93565b820191906000526020600020905b815481529060010190602001808311610a7657829003601f168201915b505050505081565b6000818152600760205260408120829101546001600160a01b03163314801590610adf57506000818152600760205260409020600101546001600160a01b03163314155b15610b06576040516314ecadef60e21b815260048101829052336024820152604401610640565b600260008381526005602052604090206002015460ff166002811115610b2e57610b2e611b17565b14610b555760405163527a1abd60e11b815260048101839052336024820152604401610640565b6000610b61833361157c565b905060005b600381101561067f576000546001600160a01b03166342842e0e3033858560038110610b9457610b946121f8565b60200201516040516001600160e01b031960e086901b1681526001600160a01b0393841660048201529290911660248301526044820152606401600060405180830381600087803b158015610be857600080fd5b505af1158015610bfc573d6000803e3d6000fd5b505050508080610c0b906121df565b915050610b66565b600360205281600052604060002081815481106106a157600080fd5b6000818152600760205260408120829101546001600160a01b03163314801590610c7357506000818152600760205260409020600101546001600160a01b03163314155b15610c9a576040516314ecadef60e21b815260048101829052336024820152604401610640565b60036000610ca8843361162f565b90506000805b83811015610d1e57828160038110610cc857610cc86121f8565b602002015191506000610cea8360009081526009602052604090206001015490565b1115610d0c57604051635e5e978d60e11b815260048101879052602401610640565b80610d16816121df565b915050610cae565b50610d29853361120d565b5050505050565b610d38611979565b6000828152600560205260409081902081516101a081019092528161016081018260028282826020028201915b81546001600160a01b03168152600190910190602001808311610d6557505050918352505060028281015460209092019160ff1690811115610da957610da9611b17565b6002811115610dba57610dba611b17565b81526003828101546020830152600483015460ff808216151560408086019190915261010090920416151560608085019190915281519081019182905260809093019291600585019182845b815481526020019060010190808311610e0657505050918352505060408051606081019182905260209092019190600884019060039082845b815481526020019060010190808311610e3f5750505050508152602001600b8201548152602001600c8201548152602001600d8201548152602001600e820154815250509050919050565b610ec16040518060a00160405280600015158152602001600060010b81526020016000815260200160008152602001600081525090565b50600090815260096020908152604091829020825160a081018452815460ff8116151582526101009004600190810b93820193909352918101549282019290925260028201546060820152600390910154608082015290565b336001600160a01b037f00000000000000000000000000000000000000000000000000000000000000001614610fa35760405162461bcd60e51b815260206004820152602860248201527f46756e6374696f6e206f6e6c792063616c6c61626c65206279204172656e61206044820152672232b83637bcb2b960c11b6064820152608401610640565b610fad82826116e3565b5050565b6000806002610fc1846001612405565b610fcb91906123cc565b90508291505b8160010b8160010b121561100a57905080600281610fef81866123cc565b610ff99190612405565b61100391906123cc565b9050610fd1565b50919050565b6000888152600760205260408082208151808301928390528b939290919060029082845b81546001600160a01b0316815260019091019060200180831161103457505050505090506000611073836000908152600560205260409020600d015490565b905081611081600283612555565b60028110611091576110916121f8565b60200201516001600160a01b0316336001600160a01b0316146110d0576040516398d9763160e01b815260048101849052336024820152604401610640565b6004871061112b5760405162461bcd60e51b815260206004820152602260248201527f4162696c6974792073656c656374696f6e206d75737420626520696e205b302c604482015261335d60f01b6064820152608401610640565b6008881061117b5760405162461bcd60e51b815260206004820152601f60248201527f4d6f76652073656c656374696f6e206d75737420626520696e205b302c375d006044820152606401610640565b600160008c81526005602052604090206002015460ff1660028111156111a3576111a3611b17565b146111e75760405162461bcd60e51b815260206004820152601460248201527347616d65206d757374206265206f6e666f6f742160601b6044820152606401610640565b6111f08b61170e565b6112008b8b8b8b8b8b8b8b611733565b5050505050505050505050565b60008281526005602052604090206002908101805460ff19166001835b02179055505050565b60005b600381101561067f57600080546001600160a01b031663e1dc0761848460038110611263576112636121f8565b60200201516040518263ffffffff1660e01b815260040161128691815260200190565b61018060405180830381865afa1580156112a4573d6000803e3d6000fd5b505050506040513d601f19601f820116820180604052508101906112c89190612569565b90506113016040518060a00160405280600015158152602001600060010b81526020016000815260200160008152602001600081525090565b600181526000868152600560205260409020546001600160a01b039081169086160361133657600183900b602082015261134a565b6113418360ff612608565b60010b60208201525b8151604082015260e0820151608082015260c08201516060820152806009600086866003811061137c5761137c6121f8565b602090810291909101518252818101929092526040908101600020835181549385015162ffffff1990941690151562ffff0019161761010061ffff90941693909302929092178255820151600182015560608201516002820155608090910151600390910155508190506113ef816121df565b915050611236565b60008181526005602052604080822081516101a081019092528161016081018260028282826020028201915b81546001600160a01b0316815260019091019060200180831161142357505050918352505060028281015460209092019160ff169081111561146757611467611b17565b600281111561147857611478611b17565b81526003828101546020830152600483015460ff808216151560408086019190915261010090920416151560608085019190915281519081019182905260809093019291600585019182845b8154815260200190600101908083116114c457505050918352505060408051606081019182905260209092019190600884019060039082845b8154815260200190600101908083116114fd5750505050508152602001600b8201548152602001600c8201548152602001600d8201548152602001600e82015481525050905080606001518015611555575080608001515b15610fad57600082815260056020526040902060020180546001919060ff1916828061122a565b611584611a85565b6000838152600760205260409020546001600160a01b031633036115e757600083815260056020819052604091829020825160608101938490529291019060039082845b8154815260200190600101908083116115c85750505050509050610464565b6000838152600560205260409081902081516060810190925260080160038282826020028201915b81548152602001906001019080831161160f575050505050905092915050565b611637611a85565b6000838152600760205260409020546001600160a01b039081169083160361169f576000838152600560205260409081902081516060810190925260080160038282826020028201918154815260200190600101908083116115c85750505050509050610464565b60008381526005602081815260409283902083516060810194859052928101805484529293600392909160060190850180831161160f575050505050905092915050565b600091825260096020526040909120805461ffff9092166101000262ffff0019909216919091179055565b6000818152600560205260408120600d0180549161172b836121df565b919050555050565b8215801561173f575080155b6117ad5782801561174e575080155b156117625761175d87866117b7565b6117ad565b8215801561176d5750805b1561177d5761175d8787866118a6565b81156117985761178d87866117b7565b61175d8787866118a6565b6117a38787866118a6565b6117ad87866117b7565b5050505050505050565b600080546040516331c67a0f60e11b815260048101859052602481018490526001600160a01b039091169063638cf41e90604401602060405180830381865afa158015611808573d6000803e3d6000fd5b505050506040513d601f19601f8201168201806040525081019061182c919061261b565b60008481526009602052604081205491925061010090910460010b906118528383612405565b905060008160010b1215801561186c57506101008160010b125b156118805761187b85826116e3565b610d29565b604051637dfa5c0960e01b815260048101869052600184900b6024820152604401610640565b600080546040516380dcec8960e01b815260048101869052602481018490526001600160a01b03909116906380dcec899060440160c060405180830381865afa1580156118f7573d6000803e3d6000fd5b505050506040513d601f19601f8201168201806040525081019061191b9190612638565b90506000600a9050610d298482600082815260096020526040902060010154808210156119635761194c8282612608565b600084815260096020526040902060010155505050565b5050600090815260096020526040812060010155565b60405180610160016040528061198d611a67565b8152602001600081526000602082018190526040820181905260608201526080016119b6611a85565b81526020016119c3611a85565b8152602001600081526020016000815260200160008152602001600081525090565b8260028101928215611a2d579160200282015b82811115611a2d57825182546001600160a01b0319166001600160a01b039091161782556020909201916001909101906119f8565b50610909929150611aa3565b8260038101928215611a2d579160200282015b82811115611a2d578251825591602001919060010190611a4c565b60405180604001604052806002906020820280368337509192915050565b60405180606001604052806003906020820280368337509192915050565b5b808211156109095760008155600101611aa4565b600060208284031215611aca57600080fd5b5035919050565b80356001600160a01b0381168114611ae857600080fd5b919050565b60008060408385031215611b0057600080fd5b611b0983611ad1565b946020939093013593505050565b634e487b7160e01b600052602160045260246000fd5b60038110611b4b57634e487b7160e01b600052602160045260246000fd5b9052565b602081016104648284611b2d565b60008083601f840112611b6f57600080fd5b50813567ffffffffffffffff811115611b8757600080fd5b602083019150836020828501011115611b9f57600080fd5b9250929050565b600080600080600060808688031215611bbe57600080fd5b611bc786611ad1565b9450611bd560208701611ad1565b935060408601359250606086013567ffffffffffffffff811115611bf857600080fd5b611c0488828901611b5d565b969995985093965092949392505050565b634e487b7160e01b600052604160045260246000fd5b60405160c0810167ffffffffffffffff81118282101715611c4e57611c4e611c15565b60405290565b604051610160810167ffffffffffffffff81118282101715611c4e57611c4e611c15565b604051610180810167ffffffffffffffff81118282101715611c4e57611c4e611c15565b600082601f830112611cad57600080fd5b6040516060810181811067ffffffffffffffff82111715611cd057611cd0611c15565b604052806060840185811115611ce557600080fd5b845b81811015611cff578035835260209283019201611ce7565b509195945050505050565b60008060808385031215611d1d57600080fd5b82359150611d2e8460208501611c9c565b90509250929050565b8060010b8114611d4657600080fd5b50565b600060208284031215611d5b57600080fd5b8135611d6681611d37565b9392505050565b60008060208385031215611d8057600080fd5b823567ffffffffffffffff811115611d9757600080fd5b611da385828601611b5d565b90969095509350505050565b60008060408385031215611dc257600080fd5b8235611dcd81611d37565b91506020830135611ddd81611d37565b809150509250929050565b600060208284031215611dfa57600080fd5b611d6682611ad1565b600060208083528351808285015260005b81811015611e3057858101830151858201604001528201611e14565b506000604082860101526040601f19601f8301168501019250505092915050565b8060005b600281101561067f5781516001600160a01b0316845260209384019390910190600101611e55565b8060005b600381101561067f578151845260209384019390910190600101611e81565b600061020082019050611eb4828451611e51565b6020830151611ec66040840182611b2d565b50604083015160608301526060830151611ee4608084018215159052565b50608083015180151560a08401525060a0830151611f0560c0840182611e7d565b5060c0830151610120611f1a81850183611e7d565b60e08501516101808501526101008501516101a08501528401516101c084015250610140909201516101e09091015290565b60038110611d4657600080fd5b8035611ae881611f4c565b6000806000838503610100811215611f7b57600080fd5b843593506020850135925060c0603f1982011215611f9857600080fd5b50611fa1611c2b565b604085013581526060850135611fb681611f4c565b60208201526080850135604082015260a0850135606082015260c0850135611fdd81611d37565b608082015260e0949094013560a0850152509093909250565b600082601f83011261200757600080fd5b6040516040810181811067ffffffffffffffff8211171561202a5761202a611c15565b806040525080604084018581111561204157600080fd5b845b81811015611cff5761205481611ad1565b835260209283019201612043565b80358015158114611ae857600080fd5b6000610200828403121561208557600080fd5b61208d611c54565b6120978484611ff6565b81526120a560408401611f59565b6020820152606083013560408201526120c060808401612062565b60608201526120d160a08401612062565b60808201526120e38460c08501611c9c565b60a08201526101206120f785828601611c9c565b60c083015261018084013560e08301526101a08401356101008301526101c0840135908201526101e09092013561014083015250919050565b6000806040838503121561214357600080fd5b823591506020830135611ddd81611d37565b600080600080600080600080610100898b03121561217257600080fd5b883597506020890135965060408901359550606089013594506080890135935061219e60a08a01612062565b92506121ac60c08a01612062565b91506121ba60e08a01612062565b90509295985092959890939650565b634e487b7160e01b600052601160045260246000fd5b6000600182016121f1576121f16121c9565b5060010190565b634e487b7160e01b600052603260045260246000fd5b60008160010b617fff198103612226576122266121c9565b60000392915050565b600181811c9082168061224357607f821691505b60208210810361100a57634e487b7160e01b600052602260045260246000fd5b601f8211156108d257600081815260208120601f850160051c8101602086101561228a5750805b601f850160051c820191505b818110156122a957828155600101612296565b505050505050565b67ffffffffffffffff8311156122c9576122c9611c15565b6122dd836122d7835461222f565b83612263565b6000601f84116001811461231157600085156122f95750838201355b600019600387901b1c1916600186901b178355610d29565b600083815260209020601f19861690835b828110156123425786850135825560209485019460019092019101612322565b508682101561235f5760001960f88860031b161c19848701351681555b505060018560011b0183555050505050565b634e487b7160e01b600052601260045260246000fd5b60008260010b8061239a5761239a612371565b808360010b0791505092915050565b600182810b9082900b03617fff198112617fff82131715610464576104646121c9565b60008160010b8360010b806123e3576123e3612371565b617fff198214600019821416156123fc576123fc6121c9565b90059392505050565b600181810b9083900b01617fff8113617fff1982121715610464576104646121c9565b80825b600180861161243a5750612467565b81617fff0482111561244e5761244e6121c9565b8086161561245b57918102915b9490941c93800261242b565b935093915050565b6000828015612485576001811461248f57612498565b6001915050610464565b82915050610464565b50816124a657506000610464565b506001600082138082146124bf5780156124d8576124ec565b82617fff048311156124d3576124d36121c9565b6124ec565b82617fff058312156124ec576124ec6121c9565b50808316156124f85750805b6125088360011c83840283612428565b80617fff048211600083131615612521576125216121c9565b80617fff1905821260008312161561253b5761253b6121c9565b029392505050565b6000611d6660ff84168360010b61246f565b60008261256457612564612371565b500690565b6000610180828403121561257c57600080fd5b612584611c78565b825181526020830151602082015260408301516040820152606083015160608201526080830151608082015260a083015160a082015260c083015160c082015260e083015160e08201526101008084015181830152506101208084015181830152506101408084015181830152506101608084015181830152508091505092915050565b81810381811115610464576104646121c9565b60006020828403121561262d57600080fd5b8151611d6681611d37565b600060c0828403121561264a57600080fd5b60405160c0810181811067ffffffffffffffff8211171561266d5761266d611c15565b60405282518152602083015161268281611f4c565b80602083015250604083015160408201526060830151606082015260808301516126ab81611d37565b608082015260a092830151928101929092525091905056fea26469706673582212205eb95c6eabfded71dc26c49660f9128d3c4ae9306675f0a2036265261fac1a4064736f6c63430008110033",
  "linkReferences": {},
  "deployedLinkReferences": {}
}