{
  "abi": [
    {
      "inputs": [
        {
          "internalType": "address",
          "name": "_vrfCoordinatorAddr",
          "type": "address"
        },
        {
          "internalType": "bytes32",
          "name": "_vrfKeyHash",
          "type": "bytes32"
        },
        {
          "internalType": "uint64",
          "name": "_vrfSubscriptionId",
          "type": "uint64"
        },
        {
          "internalType": "uint256",
          "name": "_mintPrice",
          "type": "uint256"
        }
      ],
      "stateMutability": "nonpayable",
      "type": "constructor"
    },
    {
      "inputs": [
        {
          "internalType": "address",
          "name": "have",
          "type": "address"
        },
        {
          "internalType": "address",
          "name": "want",
          "type": "address"
        }
      ],
      "name": "OnlyCoordinatorCanFulfill",
      "type": "error"
    },
    {
      "anonymous": false,
      "inputs": [
        {
          "indexed": true,
          "internalType": "address",
          "name": "owner",
          "type": "address"
        },
        {
          "indexed": true,
          "internalType": "address",
          "name": "approved",
          "type": "address"
        },
        {
          "indexed": true,
          "internalType": "uint256",
          "name": "tokenId",
          "type": "uint256"
        }
      ],
      "name": "Approval",
      "type": "event"
    },
    {
      "anonymous": false,
      "inputs": [
        {
          "indexed": true,
          "internalType": "address",
          "name": "owner",
          "type": "address"
        },
        {
          "indexed": true,
          "internalType": "address",
          "name": "operator",
          "type": "address"
        },
        {
          "indexed": false,
          "internalType": "bool",
          "name": "approved",
          "type": "bool"
        }
      ],
      "name": "ApprovalForAll",
      "type": "event"
    },
    {
      "anonymous": false,
      "inputs": [
        {
          "indexed": false,
          "internalType": "int256[]",
          "name": "results",
          "type": "int256[]"
        }
      ],
      "name": "GaussianRNGOutput",
      "type": "event"
    },
    {
      "anonymous": false,
      "inputs": [
        {
          "indexed": false,
          "internalType": "address",
          "name": "sender",
          "type": "address"
        },
        {
          "indexed": false,
          "internalType": "uint256",
          "name": "requestId",
          "type": "uint256"
        },
        {
          "indexed": false,
          "internalType": "uint256",
          "name": "firstWamoId",
          "type": "uint256"
        },
        {
          "indexed": false,
          "internalType": "uint256",
          "name": "lastWamoId",
          "type": "uint256"
        }
      ],
      "name": "SpawnCompleted",
      "type": "event"
    },
    {
      "anonymous": false,
      "inputs": [
        {
          "indexed": false,
          "internalType": "address",
          "name": "sender",
          "type": "address"
        },
        {
          "indexed": false,
          "internalType": "uint256",
          "name": "requestId",
          "type": "uint256"
        },
        {
          "indexed": false,
          "internalType": "uint256",
          "name": "startWamoId",
          "type": "uint256"
        },
        {
          "indexed": false,
          "internalType": "uint256",
          "name": "numWamos",
          "type": "uint256"
        }
      ],
      "name": "SpawnRequested",
      "type": "event"
    },
    {
      "anonymous": false,
      "inputs": [
        {
          "indexed": true,
          "internalType": "address",
          "name": "from",
          "type": "address"
        },
        {
          "indexed": true,
          "internalType": "address",
          "name": "to",
          "type": "address"
        },
        {
          "indexed": true,
          "internalType": "uint256",
          "name": "tokenId",
          "type": "uint256"
        }
      ],
      "name": "Transfer",
      "type": "event"
    },
    {
      "inputs": [],
      "name": "MAX_ABILITIES",
      "outputs": [
        {
          "internalType": "uint256",
          "name": "",
          "type": "uint256"
        }
      ],
      "stateMutability": "view",
      "type": "function"
    },
    {
      "inputs": [],
      "name": "MAX_FECUNDITY",
      "outputs": [
        {
          "internalType": "uint256",
          "name": "",
          "type": "uint256"
        }
      ],
      "stateMutability": "view",
      "type": "function"
    },
    {
      "inputs": [],
      "name": "MAX_INDEX_MUTATION",
      "outputs": [
        {
          "internalType": "int16",
          "name": "",
          "type": "int16"
        }
      ],
      "stateMutability": "view",
      "type": "function"
    },
    {
      "inputs": [],
      "name": "NAME",
      "outputs": [
        {
          "internalType": "string",
          "name": "",
          "type": "string"
        }
      ],
      "stateMutability": "view",
      "type": "function"
    },
    {
      "inputs": [],
      "name": "NUMBER_OF_GODS",
      "outputs": [
        {
          "internalType": "uint256",
          "name": "",
          "type": "uint256"
        }
      ],
      "stateMutability": "view",
      "type": "function"
    },
    {
      "inputs": [],
      "name": "SYMBOL",
      "outputs": [
        {
          "internalType": "string",
          "name": "",
          "type": "string"
        }
      ],
      "stateMutability": "view",
      "type": "function"
    },
    {
      "inputs": [
        {
          "internalType": "address",
          "name": "to",
          "type": "address"
        },
        {
          "internalType": "uint256",
          "name": "tokenId",
          "type": "uint256"
        }
      ],
      "name": "approve",
      "outputs": [],
      "stateMutability": "nonpayable",
      "type": "function"
    },
    {
      "inputs": [],
      "name": "approveArenaStaking",
      "outputs": [],
      "stateMutability": "nonpayable",
      "type": "function"
    },
    {
      "inputs": [
        {
          "internalType": "address",
          "name": "owner",
          "type": "address"
        }
      ],
      "name": "balanceOf",
      "outputs": [
        {
          "internalType": "uint256",
          "name": "",
          "type": "uint256"
        }
      ],
      "stateMutability": "view",
      "type": "function"
    },
    {
      "inputs": [
        {
          "internalType": "uint256",
          "name": "requestId",
          "type": "uint256"
        }
      ],
      "name": "completeSpawn",
      "outputs": [],
      "stateMutability": "nonpayable",
      "type": "function"
    },
    {
      "inputs": [],
      "name": "contractOwner",
      "outputs": [
        {
          "internalType": "address",
          "name": "",
          "type": "address"
        }
      ],
      "stateMutability": "view",
      "type": "function"
    },
    {
      "inputs": [
        {
          "internalType": "uint256",
          "name": "seed",
          "type": "uint256"
        },
        {
          "internalType": "uint256",
          "name": "n",
          "type": "uint256"
        },
        {
          "internalType": "int256",
          "name": "mu",
          "type": "int256"
        },
        {
          "internalType": "uint256",
          "name": "sigma",
          "type": "uint256"
        }
      ],
      "name": "gaussianRNG",
      "outputs": [
        {
          "internalType": "int256[]",
          "name": "",
          "type": "int256[]"
        }
      ],
      "stateMutability": "nonpayable",
      "type": "function"
    },
    {
      "inputs": [
        {
          "internalType": "uint256",
          "name": "wamoId",
          "type": "uint256"
        }
      ],
      "name": "getAbilities",
      "outputs": [
        {
          "components": [
            {
              "internalType": "uint256",
              "name": "dietyType",
              "type": "uint256"
            },
            {
              "internalType": "enum DamageType",
              "name": "damageType",
              "type": "uint8"
            },
            {
              "internalType": "uint256",
              "name": "power",
              "type": "uint256"
            },
            {
              "internalType": "uint256",
              "name": "accuracy",
              "type": "uint256"
            },
            {
              "internalType": "int16",
              "name": "range",
              "type": "int16"
            },
            {
              "internalType": "uint256",
              "name": "cost",
              "type": "uint256"
            }
          ],
          "internalType": "struct Ability[]",
          "name": "abilities",
          "type": "tuple[]"
        }
      ],
      "stateMutability": "view",
      "type": "function"
    },
    {
      "inputs": [
        {
          "internalType": "uint256",
          "name": "wamoId",
          "type": "uint256"
        },
        {
          "internalType": "uint256",
          "name": "index",
          "type": "uint256"
        }
      ],
      "name": "getAbility",
      "outputs": [
        {
          "components": [
            {
              "internalType": "uint256",
              "name": "dietyType",
              "type": "uint256"
            },
            {
              "internalType": "enum DamageType",
              "name": "damageType",
              "type": "uint8"
            },
            {
              "internalType": "uint256",
              "name": "power",
              "type": "uint256"
            },
            {
              "internalType": "uint256",
              "name": "accuracy",
              "type": "uint256"
            },
            {
              "internalType": "int16",
              "name": "range",
              "type": "int16"
            },
            {
              "internalType": "uint256",
              "name": "cost",
              "type": "uint256"
            }
          ],
          "internalType": "struct Ability",
          "name": "ability",
          "type": "tuple"
        }
      ],
      "stateMutability": "view",
      "type": "function"
    },
    {
      "inputs": [
        {
          "internalType": "uint256",
          "name": "tokenId",
          "type": "uint256"
        }
      ],
      "name": "getApproved",
      "outputs": [
        {
          "internalType": "address",
          "name": "",
          "type": "address"
        }
      ],
      "stateMutability": "view",
      "type": "function"
    },
    {
      "inputs": [
        {
          "internalType": "uint256",
          "name": "wamoId",
          "type": "uint256"
        },
        {
          "internalType": "uint256",
          "name": "index",
          "type": "uint256"
        }
      ],
      "name": "getMovement",
      "outputs": [
        {
          "internalType": "int16",
          "name": "movement",
          "type": "int16"
        }
      ],
      "stateMutability": "view",
      "type": "function"
    },
    {
      "inputs": [
        {
          "internalType": "uint256",
          "name": "wamoId",
          "type": "uint256"
        }
      ],
      "name": "getMovements",
      "outputs": [
        {
          "internalType": "int16[8]",
          "name": "movements",
          "type": "int16[8]"
        }
      ],
      "stateMutability": "view",
      "type": "function"
    },
    {
      "inputs": [
        {
          "internalType": "uint256",
          "name": "requestId",
          "type": "uint256"
        }
      ],
      "name": "getRequest",
      "outputs": [
        {
          "internalType": "bool",
          "name": "exists",
          "type": "bool"
        },
        {
          "internalType": "bool",
          "name": "isFulfilled",
          "type": "bool"
        },
        {
          "internalType": "bool",
          "name": "isCompleted",
          "type": "bool"
        },
        {
          "internalType": "address",
          "name": "sender",
          "type": "address"
        },
        {
          "internalType": "uint256",
          "name": "firstWamoId",
          "type": "uint256"
        },
        {
          "internalType": "uint256",
          "name": "numWamos",
          "type": "uint256"
        },
        {
          "internalType": "uint256[]",
          "name": "seeds",
          "type": "uint256[]"
        }
      ],
      "stateMutability": "view",
      "type": "function"
    },
    {
      "inputs": [
        {
          "internalType": "uint256",
          "name": "requestId",
          "type": "uint256"
        }
      ],
      "name": "getRequestData",
      "outputs": [
        {
          "internalType": "address",
          "name": "sender",
          "type": "address"
        },
        {
          "internalType": "uint256",
          "name": "firstWamoId",
          "type": "uint256"
        },
        {
          "internalType": "uint256",
          "name": "numWamos",
          "type": "uint256"
        }
      ],
      "stateMutability": "view",
      "type": "function"
    },
    {
      "inputs": [
        {
          "internalType": "uint256",
          "name": "requestId",
          "type": "uint256"
        }
      ],
      "name": "getRequestStatus",
      "outputs": [
        {
          "internalType": "bool",
          "name": "fulfilled",
          "type": "bool"
        },
        {
          "internalType": "bool",
          "name": "completed",
          "type": "bool"
        }
      ],
      "stateMutability": "view",
      "type": "function"
    },
    {
      "inputs": [
        {
          "internalType": "uint256",
          "name": "wamoId",
          "type": "uint256"
        }
      ],
      "name": "getTraits",
      "outputs": [
        {
          "components": [
            {
              "internalType": "uint256",
              "name": "health",
              "type": "uint256"
            },
            {
              "internalType": "uint256",
              "name": "meeleeAttack",
              "type": "uint256"
            },
            {
              "internalType": "uint256",
              "name": "meeleeDefence",
              "type": "uint256"
            },
            {
              "internalType": "uint256",
              "name": "magicAttack",
              "type": "uint256"
            },
            {
              "internalType": "uint256",
              "name": "magicDefence",
              "type": "uint256"
            },
            {
              "internalType": "uint256",
              "name": "luck",
              "type": "uint256"
            },
            {
              "internalType": "uint256",
              "name": "stamina",
              "type": "uint256"
            },
            {
              "internalType": "uint256",
              "name": "mana",
              "type": "uint256"
            },
            {
              "internalType": "uint256",
              "name": "diety",
              "type": "uint256"
            },
            {
              "internalType": "uint256",
              "name": "manaRegen",
              "type": "uint256"
            },
            {
              "internalType": "uint256",
              "name": "staminaRegen",
              "type": "uint256"
            },
            {
              "internalType": "uint256",
              "name": "fecundity",
              "type": "uint256"
            }
          ],
          "internalType": "struct Traits",
          "name": "traits",
          "type": "tuple"
        }
      ],
      "stateMutability": "view",
      "type": "function"
    },
    {
      "inputs": [
        {
          "internalType": "address",
          "name": "owner",
          "type": "address"
        },
        {
          "internalType": "address",
          "name": "operator",
          "type": "address"
        }
      ],
      "name": "isApprovedForAll",
      "outputs": [
        {
          "internalType": "bool",
          "name": "",
          "type": "bool"
        }
      ],
      "stateMutability": "view",
      "type": "function"
    },
    {
      "inputs": [],
      "name": "lastRequestId",
      "outputs": [
        {
          "internalType": "uint256",
          "name": "",
          "type": "uint256"
        }
      ],
      "stateMutability": "view",
      "type": "function"
    },
    {
      "inputs": [],
      "name": "mintPrice",
      "outputs": [
        {
          "internalType": "uint256",
          "name": "",
          "type": "uint256"
        }
      ],
      "stateMutability": "view",
      "type": "function"
    },
    {
      "inputs": [],
      "name": "name",
      "outputs": [
        {
          "internalType": "string",
          "name": "",
          "type": "string"
        }
      ],
      "stateMutability": "view",
      "type": "function"
    },
    {
      "inputs": [],
      "name": "nextWamoId",
      "outputs": [
        {
          "internalType": "uint256",
          "name": "",
          "type": "uint256"
        }
      ],
      "stateMutability": "view",
      "type": "function"
    },
    {
      "inputs": [
        {
          "internalType": "uint256",
          "name": "tokenId",
          "type": "uint256"
        }
      ],
      "name": "ownerOf",
      "outputs": [
        {
          "internalType": "address",
          "name": "",
          "type": "address"
        }
      ],
      "stateMutability": "view",
      "type": "function"
    },
    {
      "inputs": [
        {
          "internalType": "uint256",
          "name": "requestId",
          "type": "uint256"
        },
        {
          "internalType": "uint256[]",
          "name": "randomWords",
          "type": "uint256[]"
        }
      ],
      "name": "rawFulfillRandomWords",
      "outputs": [],
      "stateMutability": "nonpayable",
      "type": "function"
    },
    {
      "inputs": [
        {
          "internalType": "uint256",
          "name": "wamoId",
          "type": "uint256"
        }
      ],
      "name": "recordLoss",
      "outputs": [],
      "stateMutability": "nonpayable",
      "type": "function"
    },
    {
      "inputs": [
        {
          "internalType": "uint256",
          "name": "wamoId",
          "type": "uint256"
        }
      ],
      "name": "recordWin",
      "outputs": [],
      "stateMutability": "nonpayable",
      "type": "function"
    },
    {
      "inputs": [
        {
          "internalType": "uint256",
          "name": "",
          "type": "uint256"
        }
      ],
      "name": "requestIds",
      "outputs": [
        {
          "internalType": "uint256",
          "name": "",
          "type": "uint256"
        }
      ],
      "stateMutability": "view",
      "type": "function"
    },
    {
      "inputs": [
        {
          "internalType": "uint32",
          "name": "number",
          "type": "uint32"
        }
      ],
      "name": "requestSpawn",
      "outputs": [
        {
          "internalType": "uint256",
          "name": "requestId",
          "type": "uint256"
        }
      ],
      "stateMutability": "payable",
      "type": "function"
    },
    {
      "inputs": [
        {
          "internalType": "address",
          "name": "from",
          "type": "address"
        },
        {
          "internalType": "address",
          "name": "to",
          "type": "address"
        },
        {
          "internalType": "uint256",
          "name": "tokenId",
          "type": "uint256"
        }
      ],
      "name": "safeTransferFrom",
      "outputs": [],
      "stateMutability": "nonpayable",
      "type": "function"
    },
    {
      "inputs": [
        {
          "internalType": "address",
          "name": "from",
          "type": "address"
        },
        {
          "internalType": "address",
          "name": "to",
          "type": "address"
        },
        {
          "internalType": "uint256",
          "name": "tokenId",
          "type": "uint256"
        },
        {
          "internalType": "bytes",
          "name": "data",
          "type": "bytes"
        }
      ],
      "name": "safeTransferFrom",
      "outputs": [],
      "stateMutability": "nonpayable",
      "type": "function"
    },
    {
      "inputs": [
        {
          "internalType": "address",
          "name": "operator",
          "type": "address"
        },
        {
          "internalType": "bool",
          "name": "approved",
          "type": "bool"
        }
      ],
      "name": "setApprovalForAll",
      "outputs": [],
      "stateMutability": "nonpayable",
      "type": "function"
    },
    {
      "inputs": [
        {
          "internalType": "uint256",
          "name": "_mintPrice",
          "type": "uint256"
        }
      ],
      "name": "setMintPrice",
      "outputs": [],
      "stateMutability": "nonpayable",
      "type": "function"
    },
    {
      "inputs": [
        {
          "internalType": "uint32",
          "name": "_gasLimit",
          "type": "uint32"
        }
      ],
      "name": "setVrfCallbackGasLimit",
      "outputs": [],
      "stateMutability": "nonpayable",
      "type": "function"
    },
    {
      "inputs": [
        {
          "internalType": "uint16",
          "name": "_numConfirmations",
          "type": "uint16"
        }
      ],
      "name": "setVrfRequestConfirmations",
      "outputs": [],
      "stateMutability": "nonpayable",
      "type": "function"
    },
    {
      "inputs": [
        {
          "internalType": "uint256",
          "name": "wamoId",
          "type": "uint256"
        },
        {
          "internalType": "string",
          "name": "name",
          "type": "string"
        }
      ],
      "name": "setWamoName",
      "outputs": [],
      "stateMutability": "nonpayable",
      "type": "function"
    },
    {
      "inputs": [
        {
          "internalType": "address",
          "name": "_arenaAddress",
          "type": "address"
        }
      ],
      "name": "setWamosArenaAddress",
      "outputs": [],
      "stateMutability": "nonpayable",
      "type": "function"
    },
    {
      "inputs": [
        {
          "internalType": "bytes4",
          "name": "interfaceId",
          "type": "bytes4"
        }
      ],
      "name": "supportsInterface",
      "outputs": [
        {
          "internalType": "bool",
          "name": "",
          "type": "bool"
        }
      ],
      "stateMutability": "view",
      "type": "function"
    },
    {
      "inputs": [],
      "name": "symbol",
      "outputs": [
        {
          "internalType": "string",
          "name": "",
          "type": "string"
        }
      ],
      "stateMutability": "view",
      "type": "function"
    },
    {
      "inputs": [
        {
          "internalType": "uint256",
          "name": "tokenId",
          "type": "uint256"
        }
      ],
      "name": "tokenURI",
      "outputs": [
        {
          "internalType": "string",
          "name": "",
          "type": "string"
        }
      ],
      "stateMutability": "view",
      "type": "function"
    },
    {
      "inputs": [
        {
          "internalType": "address",
          "name": "from",
          "type": "address"
        },
        {
          "internalType": "address",
          "name": "to",
          "type": "address"
        },
        {
          "internalType": "uint256",
          "name": "tokenId",
          "type": "uint256"
        }
      ],
      "name": "transferFrom",
      "outputs": [],
      "stateMutability": "nonpayable",
      "type": "function"
    },
    {
      "inputs": [],
      "name": "vrfCallbackGasLimit",
      "outputs": [
        {
          "internalType": "uint32",
          "name": "",
          "type": "uint32"
        }
      ],
      "stateMutability": "view",
      "type": "function"
    },
    {
      "inputs": [],
      "name": "vrfCoordinator",
      "outputs": [
        {
          "internalType": "contract VRFCoordinatorV2Interface",
          "name": "",
          "type": "address"
        }
      ],
      "stateMutability": "view",
      "type": "function"
    },
    {
      "inputs": [],
      "name": "vrfKeyHash",
      "outputs": [
        {
          "internalType": "bytes32",
          "name": "",
          "type": "bytes32"
        }
      ],
      "stateMutability": "view",
      "type": "function"
    },
    {
      "inputs": [],
      "name": "vrfRequestConfirmations",
      "outputs": [
        {
          "internalType": "uint16",
          "name": "",
          "type": "uint16"
        }
      ],
      "stateMutability": "view",
      "type": "function"
    },
    {
      "inputs": [],
      "name": "vrfSubscriptionId",
      "outputs": [
        {
          "internalType": "uint64",
          "name": "",
          "type": "uint64"
        }
      ],
      "stateMutability": "view",
      "type": "function"
    },
    {
      "inputs": [],
      "name": "withdrawFunds",
      "outputs": [],
      "stateMutability": "payable",
      "type": "function"
    }
  ],
  "bytecode": {
    "object": "0x60a06040523480156200001157600080fd5b50604051620039ed380380620039ed833981016040819052620000349162000131565b83604051806040016040528060078152602001662bb0b6b7b9ab1960c91b8152506040518060400160405280600581526020016457414d4f5360d81b81525081600090816200008491906200023a565b5060016200009382826200023a565b5050506001600160a01b0390811660805260078054336001600160a01b031991821617909155600892909255600160095560068054909216941693909317909255600a55600b80546207a120600160201b600160701b03199091166401000000006001600160401b039094169390930261ffff60601b1916929092176c030000000000000000000000001763ffffffff191691909117905562000306565b600080600080608085870312156200014857600080fd5b84516001600160a01b03811681146200016057600080fd5b6020860151604087015191955093506001600160401b03811681146200018557600080fd5b6060959095015193969295505050565b634e487b7160e01b600052604160045260246000fd5b600181811c90821680620001c057607f821691505b602082108103620001e157634e487b7160e01b600052602260045260246000fd5b50919050565b601f8211156200023557600081815260208120601f850160051c81016020861015620002105750805b601f850160051c820191505b8181101562000231578281556001016200021c565b5050505b505050565b81516001600160401b0381111562000256576200025662000195565b6200026e81620002678454620001ab565b84620001e7565b602080601f831160018114620002a657600084156200028d5750858301515b600019600386901b1c1916600185901b17855562000231565b600085815260208120601f198616915b82811015620002d757888601518255948401946001909101908401620002b6565b5085821015620002f65787850151600019600388901b60f8161c191681555b5050505050600190811b01905550565b6080516136c46200032960003960008181610f980152610fda01526136c46000f3fe6080604052600436106102c95760003560e01c80638c8e9d1f11610175578063b88d4fde116100dc578063e985e9c511610095578063f735968c1161006f578063f735968c146109bc578063f76f8d7814610a2b578063fc2a88c314610a5c578063fd34c9f114610a7257600080fd5b8063e985e9c51461093a578063ed647d211461095a578063f4a0a5281461099c57600080fd5b8063b88d4fde146107a9578063c58343ef146107c9578063c87b56dd146107fc578063ce606ee01461081c578063d8a4676f1461083c578063e1dc07611461089257600080fd5b8063a22cb4651161012e578063a22cb465146106d6578063a3e56fa8146106f6578063a3f4df7e14610716578063ab14953314610749578063adb6704814610769578063b478fe401461078957600080fd5b80638c8e9d1f146106355780638e09f3361461064a5780638f3ae5b41461065f57806395d89b4114610674578063995a07e3146106895780639e6611a5146106b657600080fd5b806342842e0e116102345780636352211e116101ed57806369e71056116101c757806369e710561461059b57806370a08231146105c857806380dcec89146105e85780638796ba8c1461061557600080fd5b80636352211e14610545578063638cf41e146105655780636817c76c1461058557600080fd5b806342842e0e146104725780634d65b6ae14610492578063598bc486146104ba5780635a405c87146104ef5780635c4760911461050f5780636022743e1461052557600080fd5b80631d086206116102865780631d086206146103b65780631fe543e3146103cb57806323b872dd146103eb57806324600fc31461040b5780633679ca33146104135780633b7ed7341461044057600080fd5b806301ffc9a7146102ce5780630396988614610303578063041d443e1461032457806306fdde031461033a578063081812fc1461035c578063095ea7b314610394575b600080fd5b3480156102da57600080fd5b506102ee6102e9366004612b3d565b610a92565b60405190151581526020015b60405180910390f35b610316610311366004612b5a565b610ae4565b6040519081526020016102fa565b34801561033057600080fd5b50610316600a5481565b34801561034657600080fd5b5061034f610da6565b6040516102fa9190612bd8565b34801561036857600080fd5b5061037c610377366004612beb565b610e38565b6040516001600160a01b0390911681526020016102fa565b3480156103a057600080fd5b506103b46103af366004612c1b565b610e5f565b005b3480156103c257600080fd5b506103b4610f74565b3480156103d757600080fd5b506103b46103e6366004612c8c565b610f8d565b3480156103f757600080fd5b506103b4610406366004612d3e565b611015565b6103b4611046565b34801561041f57600080fd5b5061043361042e366004612beb565b6110ac565b6040516102fa9190612d7a565b34801561044c57600080fd5b50600b5461045d9063ffffffff1681565b60405163ffffffff90911681526020016102fa565b34801561047e57600080fd5b506103b461048d366004612d3e565b611119565b34801561049e57600080fd5b506104a7604081565b60405160019190910b81526020016102fa565b3480156104c657600080fd5b50600b546104dc90600160601b900461ffff1681565b60405161ffff90911681526020016102fa565b3480156104fb57600080fd5b506103b461050a366004612b5a565b611134565b34801561051b57600080fd5b5061031660095481565b34801561053157600080fd5b506103b4610540366004612beb565b61117a565b34801561055157600080fd5b5061037c610560366004612beb565b6111c9565b34801561057157600080fd5b506104a7610580366004612daf565b611229565b34801561059157600080fd5b5061031660085481565b3480156105a757600080fd5b506105bb6105b6366004612beb565b611269565b6040516102fa9190612e3f565b3480156105d457600080fd5b506103166105e3366004612e8d565b611351565b3480156105f457600080fd5b50610608610603366004612daf565b6113d7565b6040516102fa9190612ea8565b34801561062157600080fd5b50610316610630366004612beb565b6114c2565b34801561064157600080fd5b50610316600481565b34801561065657600080fd5b50610316601081565b34801561066b57600080fd5b50610316600881565b34801561068057600080fd5b5061034f6114e3565b34801561069557600080fd5b506106a96106a4366004612eb6565b6114f2565b6040516102fa9190612ee8565b3480156106c257600080fd5b506103b46106d1366004612beb565b611666565b3480156106e257600080fd5b506103b46106f1366004612f20565b6116aa565b34801561070257600080fd5b5060065461037c906001600160a01b031681565b34801561072257600080fd5b5061034f604051806040016040528060078152602001662bb0b6b7b9ab1960c91b81525081565b34801561075557600080fd5b506103b4610764366004612f5c565b6116b5565b34801561077557600080fd5b506103b4610784366004612fd8565b611701565b34801561079557600080fd5b506103b46107a4366004612e8d565b611795565b3480156107b557600080fd5b506103b46107c4366004613033565b6117e1565b3480156107d557600080fd5b506107e96107e4366004612beb565b611813565b6040516102fa97969594939291906130af565b34801561080857600080fd5b5061034f610817366004612beb565b6118bb565b34801561082857600080fd5b5060075461037c906001600160a01b031681565b34801561084857600080fd5b5061087b610857366004612beb565b6000908152600f602052604090205460ff6101008204811692620100009092041690565b6040805192151583529015156020830152016102fa565b34801561089e57600080fd5b506108b26108ad366004612beb565b61192f565b6040516102fa9190815181526020808301519082015260408083015190820152606080830151908201526080808301519082015260a0808301519082015260c0808301519082015260e0808301519082015261010080830151908201526101208083015190820152610140808301519082015261016091820151918101919091526101800190565b34801561094657600080fd5b506102ee61095536600461312f565b611a6e565b34801561096657600080fd5b50600b5461098390640100000000900467ffffffffffffffff1681565b60405167ffffffffffffffff90911681526020016102fa565b3480156109a857600080fd5b506103b46109b7366004612beb565b611a9c565b3480156109c857600080fd5b50610a066109d7366004612beb565b6000908152600f602052604090208054600282015460039092015463010000009091046001600160a01b031692565b604080516001600160a01b0390941684526020840192909252908201526060016102fa565b348015610a3757600080fd5b5061034f6040518060400160405280600581526020016457414d4f5360d81b81525081565b348015610a6857600080fd5b50610316600e5481565b348015610a7e57600080fd5b506103b4610a8d366004612beb565b611acb565b60006001600160e01b031982166380ac58cd60e01b1480610ac357506001600160e01b03198216635b5e139f60e01b145b80610ade57506301ffc9a760e01b6001600160e01b03198316145b92915050565b6000600854341015610b3d5760405162461bcd60e51b815260206004820152601f60248201527f496e73756666696369656e74206d73672e76616c756520746f206d696e74210060448201526064015b60405180910390fd5b600654600a54600b546040516305d3b1d360e41b81526004810192909252640100000000810467ffffffffffffffff166024830152600160601b810461ffff16604483015263ffffffff9081166064830152841660848201526001600160a01b0390911690635d3b1d309060a4016020604051808303816000875af1158015610bca573d6000803e3d6000fd5b505050506040513d601f19601f82011682018060405250810190610bee9190613162565b6009805491925063ffffffff8416906000610c098385613191565b9091555050604080516101008101825260018152600060208201819052918101919091523360608201526080810183905260a0810182905263ffffffff841660c0820181905260e082019067ffffffffffffffff811115610c6c57610c6c612c45565b604051908082528060200260200182016040528015610c95578160200160208202803683370190505b5090526000838152600f6020908152604091829020835181548584015194860151606087015161ffff1990921692151561ff00191692909217610100951515959095029490941762010000600160b81b03191662010000911515919091026301000000600160b81b0319161763010000006001600160a01b03909416939093029290921782556080830151600183015560a0830151600283015560c0830151600383015560e08301518051610d5092600485019201906129b2565b5050604080513381526020810185905290810183905263ffffffff851660608201527f27187bd827f2d3fdbdf637ff0b46df312088a9040bbaeb898fc5b9bc88ef42a6915060800160405180910390a150919050565b606060008054610db5906131a9565b80601f0160208091040260200160405190810160405280929190818152602001828054610de1906131a9565b8015610e2e5780601f10610e0357610100808354040283529160200191610e2e565b820191906000526020600020905b815481529060010190602001808311610e1157829003601f168201915b5050505050905090565b6000610e4382611dae565b506000908152600460205260409020546001600160a01b031690565b6000610e6a826111c9565b9050806001600160a01b0316836001600160a01b031603610ed75760405162461bcd60e51b815260206004820152602160248201527f4552433732313a20617070726f76616c20746f2063757272656e74206f776e656044820152603960f91b6064820152608401610b34565b336001600160a01b0382161480610ef35750610ef38133611a6e565b610f655760405162461bcd60e51b815260206004820152603d60248201527f4552433732313a20617070726f76652063616c6c6572206973206e6f7420746f60448201527f6b656e206f776e6572206f7220617070726f76656420666f7220616c6c0000006064820152608401610b34565b610f6f8383611e0d565b505050565b600c54610f8b906001600160a01b031660016116aa565b565b336001600160a01b037f000000000000000000000000000000000000000000000000000000000000000016146110075760405163073e64fd60e21b81523360048201526001600160a01b037f0000000000000000000000000000000000000000000000000000000000000000166024820152604401610b34565b6110118282611e7b565b5050565b61101f3382611f11565b61103b5760405162461bcd60e51b8152600401610b34906131e3565b610f6f838383611f6f565b6007546001600160a01b031633146110705760405162461bcd60e51b8152600401610b3490613230565b6007546040516001600160a01b03909116904780156108fc02916000818181858888f193505050501580156110a9573d6000803e3d6000fd5b50565b6110b46129fd565b60008281526014602052604080822081516101008101928390529290916008918390855b82829054906101000a900460010b60010b815260200190600201906020826001010492830192600103820291508084116110d8575094979650505050505050565b610f6f838383604051806020016040528060008152506117e1565b6007546001600160a01b0316331461115e5760405162461bcd60e51b8152600401610b3490613230565b600b805463ffffffff191663ffffffff92909216919091179055565b600c546001600160a01b031633146111a45760405162461bcd60e51b8152600401610b349061325e565b60008181526012602052604081206001018054916111c1836132a6565b919050555050565b6000818152600260205260408120546001600160a01b031680610ade5760405162461bcd60e51b8152602060048201526018602482015277115490cdcc8c4e881a5b9d985b1a59081d1bdad95b88125160421b6044820152606401610b34565b60008281526014602052604081208260088110611248576112486132bf565b601091828204019190066002029054906101000a900460010b905092915050565b606060156000838152602001908152602001600020805480602002602001604051908101604052809291908181526020016000905b8282101561134657838290600052602060002090600602016040518060c0016040529081600082015481526020016001820160009054906101000a900460ff1660028111156112ef576112ef612dd1565b600281111561130057611300612dd1565b81526002820154602080830191909152600383015460408301526004830154600190810b606084015260059093015460809092019190915291835292909201910161129e565b505050509050919050565b60006001600160a01b0382166113bb5760405162461bcd60e51b815260206004820152602960248201527f4552433732313a2061646472657373207a65726f206973206e6f7420612076616044820152683634b21037bbb732b960b91b6064820152608401610b34565b506001600160a01b031660009081526003602052604090205490565b6114146040805160c081019091526000808252602082019081526020016000815260200160008152602001600060010b8152602001600081525090565b6000838152601560205260409020805483908110611434576114346132bf565b90600052602060002090600602016040518060c0016040529081600082015481526020016001820160009054906101000a900460ff16600281111561147b5761147b612dd1565b600281111561148c5761148c612dd1565b81526002820154602082015260038201546040820152600482015460010b60608201526005909101546080909101529392505050565b600d81815481106114d257600080fd5b600091825260209091200154905081565b606060018054610db5906131a9565b606060008560405160200161150991815260200190565b6040516020818303038152906040528051906020012060001c905060008567ffffffffffffffff81111561153f5761153f612c45565b604051908082528060200260200182016040528015611568578160200160208202803683370190505b5090506000805b8781101561162157611580846120e0565b91508660086115908860806132d5565b61159a9190613370565b60086115a689866132d5565b6115b09190613370565b6115ba919061339e565b6115c491906133dd565b8382815181106115d6576115d66132bf565b602002602001018181525050836040516020016115f591815260200190565b60408051601f198184030181529190528051602090910120935080611619816132a6565b91505061156f565b507ff9fc71c43f1e7e37f78a908ed23771aebf73f9a89bb81b30743f5db1b4697e95826040516116519190612ee8565b60405180910390a1509150505b949350505050565b600c546001600160a01b031633146116905760405162461bcd60e51b8152600401610b349061325e565b60008181526012602052604081208054916111c1836132a6565b6110113383836120ff565b6007546001600160a01b031633146116df5760405162461bcd60e51b8152600401610b3490613230565b600b805461ffff909216600160601b0261ffff60601b19909216919091179055565b8161170b816111c9565b6001600160a01b0316336001600160a01b0316146117775760405162461bcd60e51b8152602060048201526024808201527f4f6e6c7920746865206f776e6572206f6620746869732077616d6f2063616e2060448201526318d85b1b60e21b6064820152608401610b34565b600083815260116020526040902061178f8382613464565b50505050565b6007546001600160a01b031633146117bf5760405162461bcd60e51b8152600401610b3490613230565b600c80546001600160a01b0319166001600160a01b0392909216919091179055565b6117eb3383611f11565b6118075760405162461bcd60e51b8152600401610b34906131e3565b61178f848484846121cd565b6000818152600f60209081526040918290208054600282015460038301546004909301805486518187028101870190975280875260ff8085169761010086048216976201000087049092169663010000009096046001600160a01b0316959360609391929091908301828280156118a957602002820191906000526020600020905b815481526020019060010190808311611895575b50505050509050919395979092949650565b60606118c682611dae565b60006118dd60408051602081019091526000815290565b905060008151116118fd5760405180602001604052806000815250611928565b8061190784612200565b604051602001611918929190613524565b6040516020818303038152906040525b9392505050565b6119936040518061018001604052806000815260200160008152602001600081526020016000815260200160008152602001600081526020016000815260200160008152602001600081526020016000815260200160008152602001600081525090565b6000828152601360209081526040918290205460ff600882811d82168652601083901d821686850152601883901d8216868601529282901d81166060860152602882901d81166080860152603082901d811660a0860152603882901d811660c08601529281901d831660e085015291611a129190604884901d16613553565b61010083015260e0820151611a2e9060ff605084901d16613553565b61012083015260c0820151611a4a9060ff605884901d16613553565b610140830152611a62601060ff606084901d16613553565b61016083015250919050565b6001600160a01b03918216600090815260056020908152604080832093909416825291909152205460ff1690565b6007546001600160a01b03163314611ac65760405162461bcd60e51b8152600401610b3490613230565b600855565b6000818152600f6020908152604080832081516101008082018452825460ff808216151584529181048216151583870152620100008104909116151582850152630100000090046001600160a01b0316606082015260018201546080820152600282015460a0820152600382015460c08201526004820180548451818702810187019095528085529194929360e0860193909290830182828015611b8e57602002820191906000526020600020905b815481526020019060010190808311611b7a575b50505050508152505090508060000151611be35760405162461bcd60e51b815260206004820152601660248201527514995c5d595cdd08191bd95cc81b9bdd08195e1a5cdd60521b6044820152606401610b34565b8060200151611c435760405162461bcd60e51b815260206004820152602660248201527f52616e646f6d6e65737320686173206e6f74206265656e2066756c66696c6c6560448201526532103cb2ba1760d11b6064820152608401610b34565b806040015115611ca65760405162461bcd60e51b815260206004820152602860248201527f537061776e206f6620746869732057616d6f20697320616c726561647920636f60448201526736b83632ba32b21760c11b6064820152608401610b34565b60a081015160c082015160005b81811015611d1e576000611cc78285613191565b905060008560e001518381518110611ce157611ce16132bf565b60200260200101519050611cf58282612293565b611cff828261231a565b611d09828261237b565b50508080611d16906132a6565b915050611cb3565b506000848152600f60205260409020805462ff000019166201000017905560608301517f888d946d0d01658bbbe699800132393d4e4a35253b2f527878f12ef3fe8760ff9085846001611d718683613191565b611d7b9190613567565b604080516001600160a01b039095168552602085019390935291830152606082015260800160405180910390a150505050565b6000818152600260205260409020546001600160a01b03166110a95760405162461bcd60e51b8152602060048201526018602482015277115490cdcc8c4e881a5b9d985b1a59081d1bdad95b88125160421b6044820152606401610b34565b600081815260046020526040902080546001600160a01b0319166001600160a01b0384169081179091558190611e42826111c9565b6001600160a01b03167f8c5be1e5ebec7d5bd14f71427d1e84f3dd0314c0f7b2291e5b200ac8c7c3b92560405160405180910390a45050565b6000828152600f60209081526040909120805461ff0019166101001781558251611ead926004909201918401906129b2565b506000828152600f602052604081208054600282015460039092015463010000009091046001600160a01b0316925b81811015611f0957611ef784611ef28386613191565b61256e565b80611f01816132a6565b915050611edc565b505050505050565b600080611f1d836111c9565b9050806001600160a01b0316846001600160a01b03161480611f445750611f448185611a6e565b8061165e5750836001600160a01b0316611f5d84610e38565b6001600160a01b031614949350505050565b826001600160a01b0316611f82826111c9565b6001600160a01b031614611fa85760405162461bcd60e51b8152600401610b349061357e565b6001600160a01b03821661200a5760405162461bcd60e51b8152602060048201526024808201527f4552433732313a207472616e7366657220746f20746865207a65726f206164646044820152637265737360e01b6064820152608401610b34565b6120178383836001612588565b826001600160a01b031661202a826111c9565b6001600160a01b0316146120505760405162461bcd60e51b8152600401610b349061357e565b600081815260046020908152604080832080546001600160a01b03199081169091556001600160a01b0387811680865260038552838620805460001901905590871680865283862080546001019055868652600290945282852080549092168417909155905184937fddf252ad1be2c89b69c2b068fc378daa952ba7f163c4a11628f55a4df523b3ef91a4505050565b60005b81156120fa576000198201909116906001016120e3565b919050565b816001600160a01b0316836001600160a01b0316036121605760405162461bcd60e51b815260206004820152601960248201527f4552433732313a20617070726f766520746f2063616c6c6572000000000000006044820152606401610b34565b6001600160a01b03838116600081815260056020908152604080832094871680845294825291829020805460ff191686151590811790915591519182527f17307eab39ab6107e8899845ad3d59bd9653f200f220920489ca2b5937696c31910160405180910390a3505050565b6121d8848484611f6f565b6121e484848484612610565b61178f5760405162461bcd60e51b8152600401610b34906135c3565b6060600061220d8361270e565b600101905060008167ffffffffffffffff81111561222d5761222d612c45565b6040519080825280601f01601f191660200182016040528015612257576020820181803683370190505b5090508181016020015b600019016f181899199a1a9b1b9c1cb0b131b232b360811b600a86061a8153600a850494508461226157509392505050565b6000600c60806020836122a8868585856114f2565b905060005b848110156122ff576122c0816008613615565b8282815181106122d2576122d26132bf565b602002602001015160016122e691906133dd565b901b8617955080806122f7906132a6565b9150506122ad565b50505060009485525050601360205260409092209190915550565b604080516101008101825260001981526001602080830191909152600f1982840152601060608301526003608083015260021960a0830152603060c0830152602f1960e0830152600085815260149091529190912061178f90826008612a1c565b612383612ab0565b60005b600281101561247a5760008481526015602052604090819020815160c0810190925290806123b5600887613553565b815260006020808301829052603c604084018190526060840152600260808401819052600a60a0909401939093528454600180820187559583529181902084516006909302019182558301518185018054949592949193909260ff199092169190849081111561242757612427612dd1565b02179055506040820151600282015560608201516003820155608082015160048201805461ffff191661ffff90921691909117905560a09091015160059091015580612472816132a6565b915050612386565b5060005b600281101561178f5760008481526015602052604090819020815160c0810190925290806124ad600887613553565b815260016020808301829052603c60408401819052606084015260056080840152600a60a0909301929092528354808201855560009485529382902083516006909502019384559082015183820180549394939192909160ff19169083600281111561251b5761251b612dd1565b02179055506040820151600282015560608201516003820155608082015160048201805461ffff191661ffff90921691909117905560a09091015160059091015580612566816132a6565b91505061247e565b6110118282604051806020016040528060008152506127e6565b600181111561178f576001600160a01b038416156125ce576001600160a01b038416600090815260036020526040812080548392906125c8908490613567565b90915550505b6001600160a01b0383161561178f576001600160a01b03831660009081526003602052604081208054839290612605908490613191565b909155505050505050565b60006001600160a01b0384163b1561270657604051630a85bd0160e11b81526001600160a01b0385169063150b7a0290612654903390899088908890600401613634565b6020604051808303816000875af192505050801561268f575060408051601f3d908101601f1916820190925261268c91810190613671565b60015b6126ec573d8080156126bd576040519150601f19603f3d011682016040523d82523d6000602084013e6126c2565b606091505b5080516000036126e45760405162461bcd60e51b8152600401610b34906135c3565b805181602001fd5b6001600160e01b031916630a85bd0160e11b14905061165e565b50600161165e565b60008072184f03e93ff9f4daa797ed6e38ed64bf6a1f0160401b831061274d5772184f03e93ff9f4daa797ed6e38ed64bf6a1f0160401b830492506040015b6d04ee2d6d415b85acef81000000008310612779576d04ee2d6d415b85acef8100000000830492506020015b662386f26fc10000831061279757662386f26fc10000830492506010015b6305f5e10083106127af576305f5e100830492506008015b61271083106127c357612710830492506004015b606483106127d5576064830492506002015b600a8310610ade5760010192915050565b6127f08383612819565b6127fd6000848484612610565b610f6f5760405162461bcd60e51b8152600401610b34906135c3565b6001600160a01b03821661286f5760405162461bcd60e51b815260206004820181905260248201527f4552433732313a206d696e7420746f20746865207a65726f20616464726573736044820152606401610b34565b6000818152600260205260409020546001600160a01b0316156128d45760405162461bcd60e51b815260206004820152601c60248201527f4552433732313a20746f6b656e20616c7265616479206d696e746564000000006044820152606401610b34565b6128e2600083836001612588565b6000818152600260205260409020546001600160a01b0316156129475760405162461bcd60e51b815260206004820152601c60248201527f4552433732313a20746f6b656e20616c7265616479206d696e746564000000006044820152606401610b34565b6001600160a01b038216600081815260036020908152604080832080546001019055848352600290915280822080546001600160a01b0319168417905551839291907fddf252ad1be2c89b69c2b068fc378daa952ba7f163c4a11628f55a4df523b3ef908290a45050565b8280548282559060005260206000209081019282156129ed579160200282015b828111156129ed5782518255916020019190600101906129d2565b506129f9929150612b12565b5090565b6040518061010001604052806008906020820280368337509192915050565b6001830191839082156129ed5791602002820160005b83821115612a7557835183826101000a81548161ffff021916908360010b61ffff1602179055509260200192600201602081600101049283019260010302612a32565b8015612aa35782816101000a81549061ffff0219169055600201602081600101049283019260010302612a75565b50506129f9929150612b12565b60405180608001604052806004905b612afc6040805160c081019091526000808252602082019081526020016000815260200160008152602001600060010b8152602001600081525090565b815260200190600190039081612abf5790505090565b5b808211156129f95760008155600101612b13565b6001600160e01b0319811681146110a957600080fd5b600060208284031215612b4f57600080fd5b813561192881612b27565b600060208284031215612b6c57600080fd5b813563ffffffff8116811461192857600080fd5b60005b83811015612b9b578181015183820152602001612b83565b8381111561178f5750506000910152565b60008151808452612bc4816020860160208601612b80565b601f01601f19169290920160200192915050565b6020815260006119286020830184612bac565b600060208284031215612bfd57600080fd5b5035919050565b80356001600160a01b03811681146120fa57600080fd5b60008060408385031215612c2e57600080fd5b612c3783612c04565b946020939093013593505050565b634e487b7160e01b600052604160045260246000fd5b604051601f8201601f1916810167ffffffffffffffff81118282101715612c8457612c84612c45565b604052919050565b60008060408385031215612c9f57600080fd5b8235915060208084013567ffffffffffffffff80821115612cbf57600080fd5b818601915086601f830112612cd357600080fd5b813581811115612ce557612ce5612c45565b8060051b9150612cf6848301612c5b565b8181529183018401918481019089841115612d1057600080fd5b938501935b83851015612d2e57843582529385019390850190612d15565b8096505050505050509250929050565b600080600060608486031215612d5357600080fd5b612d5c84612c04565b9250612d6a60208501612c04565b9150604084013590509250925092565b6101008101818360005b6008811015612da6578151600190810b84526020938401939092019101612d84565b50505092915050565b60008060408385031215612dc257600080fd5b50508035926020909101359150565b634e487b7160e01b600052602160045260246000fd5b80518252602081015160038110612e0e57634e487b7160e01b600052602160045260246000fd5b6020830152604081810151908301526060808201519083015260808082015160010b9083015260a090810151910152565b6020808252825182820181905260009190848201906040850190845b81811015612e8157612e6e838551612de7565b9284019260c09290920191600101612e5b565b50909695505050505050565b600060208284031215612e9f57600080fd5b61192882612c04565b60c08101610ade8284612de7565b60008060008060808587031215612ecc57600080fd5b5050823594602084013594506040840135936060013592509050565b6020808252825182820181905260009190848201906040850190845b81811015612e8157835183529284019291840191600101612f04565b60008060408385031215612f3357600080fd5b612f3c83612c04565b915060208301358015158114612f5157600080fd5b809150509250929050565b600060208284031215612f6e57600080fd5b813561ffff8116811461192857600080fd5b600067ffffffffffffffff831115612f9a57612f9a612c45565b612fad601f8401601f1916602001612c5b565b9050828152838383011115612fc157600080fd5b828260208301376000602084830101529392505050565b60008060408385031215612feb57600080fd5b82359150602083013567ffffffffffffffff81111561300957600080fd5b8301601f8101851361301a57600080fd5b61302985823560208401612f80565b9150509250929050565b6000806000806080858703121561304957600080fd5b61305285612c04565b935061306060208601612c04565b925060408501359150606085013567ffffffffffffffff81111561308357600080fd5b8501601f8101871361309457600080fd5b6130a387823560208401612f80565b91505092959194509250565b600060e082018915158352602089151581850152881515604085015260018060a01b03881660608501528660808501528560a085015260e060c085015281855180845261010086019150828701935060005b8181101561311d57845183529383019391830191600101613101565b50909c9b505050505050505050505050565b6000806040838503121561314257600080fd5b61314b83612c04565b915061315960208401612c04565b90509250929050565b60006020828403121561317457600080fd5b5051919050565b634e487b7160e01b600052601160045260246000fd5b600082198211156131a4576131a461317b565b500190565b600181811c908216806131bd57607f821691505b6020821081036131dd57634e487b7160e01b600052602260045260246000fd5b50919050565b6020808252602d908201527f4552433732313a2063616c6c6572206973206e6f7420746f6b656e206f776e6560408201526c1c881bdc88185c1c1c9bdd9959609a1b606082015260800190565b60208082526014908201527327b7363c9037bbb732b91031b0b71031b0b6361760611b604082015260600190565b60208082526028908201527f4f6e6c792057616d6f73426174746c652063616e2063616c6c207468697320666040820152673ab731ba34b7b71760c11b606082015260800190565b6000600182016132b8576132b861317b565b5060010190565b634e487b7160e01b600052603260045260246000fd5b60006001600160ff1b03818413828413808216868404861116156132fb576132fb61317b565b600160ff1b600087128281168783058912161561331a5761331a61317b565b600087129250878205871284841616156133365761333661317b565b8785058712818416161561334c5761334c61317b565b505050929093029392505050565b634e487b7160e01b600052601260045260246000fd5b60008261337f5761337f61335a565b600160ff1b8214600019841416156133995761339961317b565b500590565b60008083128015600160ff1b8501841216156133bc576133bc61317b565b6001600160ff1b03840183138116156133d7576133d761317b565b50500390565b600080821280156001600160ff1b03849003851316156133ff576133ff61317b565b600160ff1b83900384128116156134185761341861317b565b50500190565b601f821115610f6f57600081815260208120601f850160051c810160208610156134455750805b601f850160051c820191505b81811015611f0957828155600101613451565b815167ffffffffffffffff81111561347e5761347e612c45565b6134928161348c84546131a9565b8461341e565b602080601f8311600181146134c757600084156134af5750858301515b600019600386901b1c1916600185901b178555611f09565b600085815260208120601f198616915b828110156134f6578886015182559484019460019091019084016134d7565b50858210156135145787850151600019600388901b60f8161c191681555b5050505050600190811b01905550565b60008351613536818460208801612b80565b83519083019061354a818360208801612b80565b01949350505050565b6000826135625761356261335a565b500690565b6000828210156135795761357961317b565b500390565b60208082526025908201527f4552433732313a207472616e736665722066726f6d20696e636f72726563742060408201526437bbb732b960d91b606082015260800190565b60208082526032908201527f4552433732313a207472616e7366657220746f206e6f6e20455243373231526560408201527131b2b4bb32b91034b6b83632b6b2b73a32b960711b606082015260800190565b600081600019048311821515161561362f5761362f61317b565b500290565b6001600160a01b038581168252841660208201526040810183905260806060820181905260009061366790830184612bac565b9695505050505050565b60006020828403121561368357600080fd5b815161192881612b2756fea26469706673582212205afbd43f47128c95e21cf46955c8034ebe5d74de84ac98313339a00ddfc4915964736f6c634300080f0033",
    "linkReferences": {}
  },
  "methodIdentifiers": {
    "MAX_ABILITIES()": "8c8e9d1f",
    "MAX_FECUNDITY()": "8e09f336",
    "MAX_INDEX_MUTATION()": "4d65b6ae",
    "NAME()": "a3f4df7e",
    "NUMBER_OF_GODS()": "8f3ae5b4",
    "SYMBOL()": "f76f8d78",
    "approve(address,uint256)": "095ea7b3",
    "approveArenaStaking()": "1d086206",
    "balanceOf(address)": "70a08231",
    "completeSpawn(uint256)": "fd34c9f1",
    "contractOwner()": "ce606ee0",
    "gaussianRNG(uint256,uint256,int256,uint256)": "995a07e3",
    "getAbilities(uint256)": "69e71056",
    "getAbility(uint256,uint256)": "80dcec89",
    "getApproved(uint256)": "081812fc",
    "getMovement(uint256,uint256)": "638cf41e",
    "getMovements(uint256)": "3679ca33",
    "getRequest(uint256)": "c58343ef",
    "getRequestData(uint256)": "f735968c",
    "getRequestStatus(uint256)": "d8a4676f",
    "getTraits(uint256)": "e1dc0761",
    "isApprovedForAll(address,address)": "e985e9c5",
    "lastRequestId()": "fc2a88c3",
    "mintPrice()": "6817c76c",
    "name()": "06fdde03",
    "nextWamoId()": "5c476091",
    "ownerOf(uint256)": "6352211e",
    "rawFulfillRandomWords(uint256,uint256[])": "1fe543e3",
    "recordLoss(uint256)": "6022743e",
    "recordWin(uint256)": "9e6611a5",
    "requestIds(uint256)": "8796ba8c",
    "requestSpawn(uint32)": "03969886",
    "safeTransferFrom(address,address,uint256)": "42842e0e",
    "safeTransferFrom(address,address,uint256,bytes)": "b88d4fde",
    "setApprovalForAll(address,bool)": "a22cb465",
    "setMintPrice(uint256)": "f4a0a528",
    "setVrfCallbackGasLimit(uint32)": "5a405c87",
    "setVrfRequestConfirmations(uint16)": "ab149533",
    "setWamoName(uint256,string)": "adb67048",
    "setWamosArenaAddress(address)": "b478fe40",
    "supportsInterface(bytes4)": "01ffc9a7",
    "symbol()": "95d89b41",
    "tokenURI(uint256)": "c87b56dd",
    "transferFrom(address,address,uint256)": "23b872dd",
    "vrfCallbackGasLimit()": "3b7ed734",
    "vrfCoordinator()": "a3e56fa8",
    "vrfKeyHash()": "041d443e",
    "vrfRequestConfirmations()": "598bc486",
    "vrfSubscriptionId()": "ed647d21",
    "withdrawFunds()": "24600fc3"
  },
  "id": 26
}