{
  "abi": [
    {
      "inputs": [
        {
          "internalType": "address",
          "name": "_vrfCoordinatorAddr",
          "type": "address"
        },
        {
          "internalType": "bytes32",
          "name": "_vrfKeyHash",
          "type": "bytes32"
        },
        {
          "internalType": "uint64",
          "name": "_vrfSubscriptionId",
          "type": "uint64"
        },
        {
          "internalType": "uint256",
          "name": "_mintPrice",
          "type": "uint256"
        }
      ],
      "stateMutability": "nonpayable",
      "type": "constructor"
    },
    {
      "inputs": [
        {
          "internalType": "address",
          "name": "have",
          "type": "address"
        },
        {
          "internalType": "address",
          "name": "want",
          "type": "address"
        }
      ],
      "name": "OnlyCoordinatorCanFulfill",
      "type": "error"
    },
    {
      "anonymous": false,
      "inputs": [
        {
          "indexed": true,
          "internalType": "address",
          "name": "owner",
          "type": "address"
        },
        {
          "indexed": true,
          "internalType": "address",
          "name": "approved",
          "type": "address"
        },
        {
          "indexed": true,
          "internalType": "uint256",
          "name": "tokenId",
          "type": "uint256"
        }
      ],
      "name": "Approval",
      "type": "event"
    },
    {
      "anonymous": false,
      "inputs": [
        {
          "indexed": true,
          "internalType": "address",
          "name": "owner",
          "type": "address"
        },
        {
          "indexed": true,
          "internalType": "address",
          "name": "operator",
          "type": "address"
        },
        {
          "indexed": false,
          "internalType": "bool",
          "name": "approved",
          "type": "bool"
        }
      ],
      "name": "ApprovalForAll",
      "type": "event"
    },
    {
      "anonymous": false,
      "inputs": [
        {
          "indexed": false,
          "internalType": "int256[]",
          "name": "results",
          "type": "int256[]"
        }
      ],
      "name": "GaussianRNGOutput",
      "type": "event"
    },
    {
      "anonymous": false,
      "inputs": [
        {
          "indexed": false,
          "internalType": "address",
          "name": "sender",
          "type": "address"
        },
        {
          "indexed": false,
          "internalType": "uint256",
          "name": "requestId",
          "type": "uint256"
        },
        {
          "indexed": false,
          "internalType": "uint256",
          "name": "firstWamoId",
          "type": "uint256"
        },
        {
          "indexed": false,
          "internalType": "uint256",
          "name": "lastWamoId",
          "type": "uint256"
        }
      ],
      "name": "SpawnCompleted",
      "type": "event"
    },
    {
      "anonymous": false,
      "inputs": [
        {
          "indexed": false,
          "internalType": "address",
          "name": "sender",
          "type": "address"
        },
        {
          "indexed": false,
          "internalType": "uint256",
          "name": "requestId",
          "type": "uint256"
        },
        {
          "indexed": false,
          "internalType": "uint256",
          "name": "startWamoId",
          "type": "uint256"
        },
        {
          "indexed": false,
          "internalType": "uint256",
          "name": "numWamos",
          "type": "uint256"
        }
      ],
      "name": "SpawnRequested",
      "type": "event"
    },
    {
      "anonymous": false,
      "inputs": [
        {
          "indexed": true,
          "internalType": "address",
          "name": "from",
          "type": "address"
        },
        {
          "indexed": true,
          "internalType": "address",
          "name": "to",
          "type": "address"
        },
        {
          "indexed": true,
          "internalType": "uint256",
          "name": "tokenId",
          "type": "uint256"
        }
      ],
      "name": "Transfer",
      "type": "event"
    },
    {
      "inputs": [],
      "name": "MAX_ABILITIES",
      "outputs": [
        {
          "internalType": "uint256",
          "name": "",
          "type": "uint256"
        }
      ],
      "stateMutability": "view",
      "type": "function"
    },
    {
      "inputs": [],
      "name": "MAX_FECUNDITY",
      "outputs": [
        {
          "internalType": "uint256",
          "name": "",
          "type": "uint256"
        }
      ],
      "stateMutability": "view",
      "type": "function"
    },
    {
      "inputs": [],
      "name": "MAX_INDEX_MUTATION",
      "outputs": [
        {
          "internalType": "int16",
          "name": "",
          "type": "int16"
        }
      ],
      "stateMutability": "view",
      "type": "function"
    },
    {
      "inputs": [],
      "name": "NAME",
      "outputs": [
        {
          "internalType": "string",
          "name": "",
          "type": "string"
        }
      ],
      "stateMutability": "view",
      "type": "function"
    },
    {
      "inputs": [],
      "name": "NUMBER_OF_GODS",
      "outputs": [
        {
          "internalType": "uint256",
          "name": "",
          "type": "uint256"
        }
      ],
      "stateMutability": "view",
      "type": "function"
    },
    {
      "inputs": [],
      "name": "SYMBOL",
      "outputs": [
        {
          "internalType": "string",
          "name": "",
          "type": "string"
        }
      ],
      "stateMutability": "view",
      "type": "function"
    },
    {
      "inputs": [
        {
          "internalType": "address",
          "name": "to",
          "type": "address"
        },
        {
          "internalType": "uint256",
          "name": "tokenId",
          "type": "uint256"
        }
      ],
      "name": "approve",
      "outputs": [],
      "stateMutability": "nonpayable",
      "type": "function"
    },
    {
      "inputs": [],
      "name": "approveArenaStaking",
      "outputs": [],
      "stateMutability": "nonpayable",
      "type": "function"
    },
    {
      "inputs": [],
      "name": "arenaAddress",
      "outputs": [
        {
          "internalType": "address",
          "name": "",
          "type": "address"
        }
      ],
      "stateMutability": "view",
      "type": "function"
    },
    {
      "inputs": [
        {
          "internalType": "address",
          "name": "owner",
          "type": "address"
        }
      ],
      "name": "balanceOf",
      "outputs": [
        {
          "internalType": "uint256",
          "name": "",
          "type": "uint256"
        }
      ],
      "stateMutability": "view",
      "type": "function"
    },
    {
      "inputs": [
        {
          "internalType": "uint256",
          "name": "requestId",
          "type": "uint256"
        }
      ],
      "name": "completeSpawn",
      "outputs": [],
      "stateMutability": "nonpayable",
      "type": "function"
    },
    {
      "inputs": [],
      "name": "contractOwner",
      "outputs": [
        {
          "internalType": "address",
          "name": "",
          "type": "address"
        }
      ],
      "stateMutability": "view",
      "type": "function"
    },
    {
      "inputs": [
        {
          "internalType": "uint256",
          "name": "seed",
          "type": "uint256"
        },
        {
          "internalType": "uint256",
          "name": "n",
          "type": "uint256"
        },
        {
          "internalType": "int256",
          "name": "mu",
          "type": "int256"
        },
        {
          "internalType": "uint256",
          "name": "sigma",
          "type": "uint256"
        }
      ],
      "name": "gaussianRNG",
      "outputs": [
        {
          "internalType": "int256[]",
          "name": "",
          "type": "int256[]"
        }
      ],
      "stateMutability": "nonpayable",
      "type": "function"
    },
    {
      "inputs": [
        {
          "internalType": "uint256",
          "name": "wamoId",
          "type": "uint256"
        }
      ],
      "name": "getAbilities",
      "outputs": [
        {
          "components": [
            {
              "internalType": "uint256",
              "name": "dietyType",
              "type": "uint256"
            },
            {
              "internalType": "enum DamageType",
              "name": "damageType",
              "type": "uint8"
            },
            {
              "internalType": "uint256",
              "name": "power",
              "type": "uint256"
            },
            {
              "internalType": "uint256",
              "name": "accuracy",
              "type": "uint256"
            },
            {
              "internalType": "int16",
              "name": "range",
              "type": "int16"
            },
            {
              "internalType": "uint256",
              "name": "cost",
              "type": "uint256"
            }
          ],
          "internalType": "struct Ability[]",
          "name": "abilities",
          "type": "tuple[]"
        }
      ],
      "stateMutability": "view",
      "type": "function"
    },
    {
      "inputs": [
        {
          "internalType": "uint256",
          "name": "wamoId",
          "type": "uint256"
        },
        {
          "internalType": "uint256",
          "name": "index",
          "type": "uint256"
        }
      ],
      "name": "getAbility",
      "outputs": [
        {
          "components": [
            {
              "internalType": "uint256",
              "name": "dietyType",
              "type": "uint256"
            },
            {
              "internalType": "enum DamageType",
              "name": "damageType",
              "type": "uint8"
            },
            {
              "internalType": "uint256",
              "name": "power",
              "type": "uint256"
            },
            {
              "internalType": "uint256",
              "name": "accuracy",
              "type": "uint256"
            },
            {
              "internalType": "int16",
              "name": "range",
              "type": "int16"
            },
            {
              "internalType": "uint256",
              "name": "cost",
              "type": "uint256"
            }
          ],
          "internalType": "struct Ability",
          "name": "ability",
          "type": "tuple"
        }
      ],
      "stateMutability": "view",
      "type": "function"
    },
    {
      "inputs": [
        {
          "internalType": "uint256",
          "name": "tokenId",
          "type": "uint256"
        }
      ],
      "name": "getApproved",
      "outputs": [
        {
          "internalType": "address",
          "name": "",
          "type": "address"
        }
      ],
      "stateMutability": "view",
      "type": "function"
    },
    {
      "inputs": [
        {
          "internalType": "uint256",
          "name": "wamoId",
          "type": "uint256"
        },
        {
          "internalType": "uint256",
          "name": "index",
          "type": "uint256"
        }
      ],
      "name": "getMovement",
      "outputs": [
        {
          "internalType": "int16",
          "name": "movement",
          "type": "int16"
        }
      ],
      "stateMutability": "view",
      "type": "function"
    },
    {
      "inputs": [
        {
          "internalType": "uint256",
          "name": "wamoId",
          "type": "uint256"
        }
      ],
      "name": "getMovements",
      "outputs": [
        {
          "internalType": "int16[8]",
          "name": "movements",
          "type": "int16[8]"
        }
      ],
      "stateMutability": "view",
      "type": "function"
    },
    {
      "inputs": [
        {
          "internalType": "uint256",
          "name": "requestId",
          "type": "uint256"
        }
      ],
      "name": "getRequest",
      "outputs": [
        {
          "internalType": "bool",
          "name": "exists",
          "type": "bool"
        },
        {
          "internalType": "bool",
          "name": "isFulfilled",
          "type": "bool"
        },
        {
          "internalType": "bool",
          "name": "isCompleted",
          "type": "bool"
        },
        {
          "internalType": "address",
          "name": "sender",
          "type": "address"
        },
        {
          "internalType": "uint256",
          "name": "firstWamoId",
          "type": "uint256"
        },
        {
          "internalType": "uint256",
          "name": "numWamos",
          "type": "uint256"
        },
        {
          "internalType": "uint256[]",
          "name": "seeds",
          "type": "uint256[]"
        }
      ],
      "stateMutability": "view",
      "type": "function"
    },
    {
      "inputs": [
        {
          "internalType": "uint256",
          "name": "requestId",
          "type": "uint256"
        }
      ],
      "name": "getRequestData",
      "outputs": [
        {
          "internalType": "address",
          "name": "sender",
          "type": "address"
        },
        {
          "internalType": "uint256",
          "name": "firstWamoId",
          "type": "uint256"
        },
        {
          "internalType": "uint256",
          "name": "numWamos",
          "type": "uint256"
        }
      ],
      "stateMutability": "view",
      "type": "function"
    },
    {
      "inputs": [
        {
          "internalType": "uint256",
          "name": "requestId",
          "type": "uint256"
        }
      ],
      "name": "getRequestStatus",
      "outputs": [
        {
          "internalType": "bool",
          "name": "fulfilled",
          "type": "bool"
        },
        {
          "internalType": "bool",
          "name": "completed",
          "type": "bool"
        }
      ],
      "stateMutability": "view",
      "type": "function"
    },
    {
      "inputs": [
        {
          "internalType": "uint256",
          "name": "wamoId",
          "type": "uint256"
        }
      ],
      "name": "getTraits",
      "outputs": [
        {
          "components": [
            {
              "internalType": "uint256",
              "name": "health",
              "type": "uint256"
            },
            {
              "internalType": "uint256",
              "name": "meeleeAttack",
              "type": "uint256"
            },
            {
              "internalType": "uint256",
              "name": "meeleeDefence",
              "type": "uint256"
            },
            {
              "internalType": "uint256",
              "name": "magicAttack",
              "type": "uint256"
            },
            {
              "internalType": "uint256",
              "name": "magicDefence",
              "type": "uint256"
            },
            {
              "internalType": "uint256",
              "name": "luck",
              "type": "uint256"
            },
            {
              "internalType": "uint256",
              "name": "stamina",
              "type": "uint256"
            },
            {
              "internalType": "uint256",
              "name": "mana",
              "type": "uint256"
            },
            {
              "internalType": "uint256",
              "name": "diety",
              "type": "uint256"
            },
            {
              "internalType": "uint256",
              "name": "manaRegen",
              "type": "uint256"
            },
            {
              "internalType": "uint256",
              "name": "staminaRegen",
              "type": "uint256"
            },
            {
              "internalType": "uint256",
              "name": "fecundity",
              "type": "uint256"
            }
          ],
          "internalType": "struct Traits",
          "name": "traits",
          "type": "tuple"
        }
      ],
      "stateMutability": "view",
      "type": "function"
    },
    {
      "inputs": [
        {
          "internalType": "address",
          "name": "owner",
          "type": "address"
        },
        {
          "internalType": "address",
          "name": "operator",
          "type": "address"
        }
      ],
      "name": "isApprovedForAll",
      "outputs": [
        {
          "internalType": "bool",
          "name": "",
          "type": "bool"
        }
      ],
      "stateMutability": "view",
      "type": "function"
    },
    {
      "inputs": [],
      "name": "lastRequestId",
      "outputs": [
        {
          "internalType": "uint256",
          "name": "",
          "type": "uint256"
        }
      ],
      "stateMutability": "view",
      "type": "function"
    },
    {
      "inputs": [],
      "name": "mintPrice",
      "outputs": [
        {
          "internalType": "uint256",
          "name": "",
          "type": "uint256"
        }
      ],
      "stateMutability": "view",
      "type": "function"
    },
    {
      "inputs": [],
      "name": "name",
      "outputs": [
        {
          "internalType": "string",
          "name": "",
          "type": "string"
        }
      ],
      "stateMutability": "view",
      "type": "function"
    },
    {
      "inputs": [],
      "name": "nextWamoId",
      "outputs": [
        {
          "internalType": "uint256",
          "name": "",
          "type": "uint256"
        }
      ],
      "stateMutability": "view",
      "type": "function"
    },
    {
      "inputs": [
        {
          "internalType": "uint256",
          "name": "tokenId",
          "type": "uint256"
        }
      ],
      "name": "ownerOf",
      "outputs": [
        {
          "internalType": "address",
          "name": "",
          "type": "address"
        }
      ],
      "stateMutability": "view",
      "type": "function"
    },
    {
      "inputs": [
        {
          "internalType": "uint256",
          "name": "requestId",
          "type": "uint256"
        },
        {
          "internalType": "uint256[]",
          "name": "randomWords",
          "type": "uint256[]"
        }
      ],
      "name": "rawFulfillRandomWords",
      "outputs": [],
      "stateMutability": "nonpayable",
      "type": "function"
    },
    {
      "inputs": [
        {
          "internalType": "uint256",
          "name": "wamoId",
          "type": "uint256"
        }
      ],
      "name": "recordLoss",
      "outputs": [],
      "stateMutability": "nonpayable",
      "type": "function"
    },
    {
      "inputs": [
        {
          "internalType": "uint256",
          "name": "wamoId",
          "type": "uint256"
        }
      ],
      "name": "recordWin",
      "outputs": [],
      "stateMutability": "nonpayable",
      "type": "function"
    },
    {
      "inputs": [
        {
          "internalType": "uint256",
          "name": "",
          "type": "uint256"
        }
      ],
      "name": "requestIds",
      "outputs": [
        {
          "internalType": "uint256",
          "name": "",
          "type": "uint256"
        }
      ],
      "stateMutability": "view",
      "type": "function"
    },
    {
      "inputs": [
        {
          "internalType": "uint32",
          "name": "number",
          "type": "uint32"
        }
      ],
      "name": "requestSpawn",
      "outputs": [
        {
          "internalType": "uint256",
          "name": "requestId",
          "type": "uint256"
        }
      ],
      "stateMutability": "payable",
      "type": "function"
    },
    {
      "inputs": [
        {
          "internalType": "address",
          "name": "from",
          "type": "address"
        },
        {
          "internalType": "address",
          "name": "to",
          "type": "address"
        },
        {
          "internalType": "uint256",
          "name": "tokenId",
          "type": "uint256"
        }
      ],
      "name": "safeTransferFrom",
      "outputs": [],
      "stateMutability": "nonpayable",
      "type": "function"
    },
    {
      "inputs": [
        {
          "internalType": "address",
          "name": "from",
          "type": "address"
        },
        {
          "internalType": "address",
          "name": "to",
          "type": "address"
        },
        {
          "internalType": "uint256",
          "name": "tokenId",
          "type": "uint256"
        },
        {
          "internalType": "bytes",
          "name": "data",
          "type": "bytes"
        }
      ],
      "name": "safeTransferFrom",
      "outputs": [],
      "stateMutability": "nonpayable",
      "type": "function"
    },
    {
      "inputs": [
        {
          "internalType": "address",
          "name": "operator",
          "type": "address"
        },
        {
          "internalType": "bool",
          "name": "approved",
          "type": "bool"
        }
      ],
      "name": "setApprovalForAll",
      "outputs": [],
      "stateMutability": "nonpayable",
      "type": "function"
    },
    {
      "inputs": [
        {
          "internalType": "uint256",
          "name": "_mintPrice",
          "type": "uint256"
        }
      ],
      "name": "setMintPrice",
      "outputs": [],
      "stateMutability": "nonpayable",
      "type": "function"
    },
    {
      "inputs": [
        {
          "internalType": "uint32",
          "name": "_gasLimit",
          "type": "uint32"
        }
      ],
      "name": "setVrfCallbackGasLimit",
      "outputs": [],
      "stateMutability": "nonpayable",
      "type": "function"
    },
    {
      "inputs": [
        {
          "internalType": "uint16",
          "name": "_numConfirmations",
          "type": "uint16"
        }
      ],
      "name": "setVrfRequestConfirmations",
      "outputs": [],
      "stateMutability": "nonpayable",
      "type": "function"
    },
    {
      "inputs": [
        {
          "internalType": "uint256",
          "name": "wamoId",
          "type": "uint256"
        },
        {
          "internalType": "string",
          "name": "name",
          "type": "string"
        }
      ],
      "name": "setWamoName",
      "outputs": [],
      "stateMutability": "nonpayable",
      "type": "function"
    },
    {
      "inputs": [
        {
          "internalType": "address",
          "name": "_arenaAddress",
          "type": "address"
        }
      ],
      "name": "setWamosArenaAddress",
      "outputs": [],
      "stateMutability": "nonpayable",
      "type": "function"
    },
    {
      "inputs": [
        {
          "internalType": "bytes4",
          "name": "interfaceId",
          "type": "bytes4"
        }
      ],
      "name": "supportsInterface",
      "outputs": [
        {
          "internalType": "bool",
          "name": "",
          "type": "bool"
        }
      ],
      "stateMutability": "view",
      "type": "function"
    },
    {
      "inputs": [],
      "name": "symbol",
      "outputs": [
        {
          "internalType": "string",
          "name": "",
          "type": "string"
        }
      ],
      "stateMutability": "view",
      "type": "function"
    },
    {
      "inputs": [
        {
          "internalType": "uint256",
          "name": "tokenId",
          "type": "uint256"
        }
      ],
      "name": "tokenURI",
      "outputs": [
        {
          "internalType": "string",
          "name": "",
          "type": "string"
        }
      ],
      "stateMutability": "view",
      "type": "function"
    },
    {
      "inputs": [
        {
          "internalType": "address",
          "name": "from",
          "type": "address"
        },
        {
          "internalType": "address",
          "name": "to",
          "type": "address"
        },
        {
          "internalType": "uint256",
          "name": "tokenId",
          "type": "uint256"
        }
      ],
      "name": "transferFrom",
      "outputs": [],
      "stateMutability": "nonpayable",
      "type": "function"
    },
    {
      "inputs": [],
      "name": "vrfCallbackGasLimit",
      "outputs": [
        {
          "internalType": "uint32",
          "name": "",
          "type": "uint32"
        }
      ],
      "stateMutability": "view",
      "type": "function"
    },
    {
      "inputs": [],
      "name": "vrfCoordinator",
      "outputs": [
        {
          "internalType": "contract VRFCoordinatorV2Interface",
          "name": "",
          "type": "address"
        }
      ],
      "stateMutability": "view",
      "type": "function"
    },
    {
      "inputs": [],
      "name": "vrfKeyHash",
      "outputs": [
        {
          "internalType": "bytes32",
          "name": "",
          "type": "bytes32"
        }
      ],
      "stateMutability": "view",
      "type": "function"
    },
    {
      "inputs": [],
      "name": "vrfRequestConfirmations",
      "outputs": [
        {
          "internalType": "uint16",
          "name": "",
          "type": "uint16"
        }
      ],
      "stateMutability": "view",
      "type": "function"
    },
    {
      "inputs": [],
      "name": "vrfSubscriptionId",
      "outputs": [
        {
          "internalType": "uint64",
          "name": "",
          "type": "uint64"
        }
      ],
      "stateMutability": "view",
      "type": "function"
    },
    {
      "inputs": [],
      "name": "withdrawFunds",
      "outputs": [],
      "stateMutability": "payable",
      "type": "function"
    }
  ],
  "bytecode": {
    "object": "0x60a06040523480156200001157600080fd5b5060405162003a8038038062003a80833981016040819052620000349162000131565b83604051806040016040528060078152602001662bb0b6b7b9ab1960c91b8152506040518060400160405280600581526020016457414d4f5360d81b81525081600090816200008491906200023a565b5060016200009382826200023a565b5050506001600160a01b0390811660805260078054336001600160a01b031991821617909155600892909255600160095560068054909216941693909317909255600a55600b80546207a120600160201b600160701b03199091166401000000006001600160401b039094169390930261ffff60601b1916929092176c030000000000000000000000001763ffffffff191691909117905562000306565b600080600080608085870312156200014857600080fd5b84516001600160a01b03811681146200016057600080fd5b6020860151604087015191955093506001600160401b03811681146200018557600080fd5b6060959095015193969295505050565b634e487b7160e01b600052604160045260246000fd5b600181811c90821680620001c057607f821691505b602082108103620001e157634e487b7160e01b600052602260045260246000fd5b50919050565b601f8211156200023557600081815260208120601f850160051c81016020861015620002105750805b601f850160051c820191505b8181101562000231578281556001016200021c565b5050505b505050565b81516001600160401b0381111562000256576200025662000195565b6200026e81620002678454620001ab565b84620001e7565b602080601f831160018114620002a657600084156200028d5750858301515b600019600386901b1c1916600185901b17855562000231565b600085815260208120601f198616915b82811015620002d757888601518255948401946001909101908401620002b6565b5085821015620002f65787850151600019600388901b60f8161c191681555b5050505050600190811b01905550565b608051613757620003296000396000818161102b015261106d01526137576000f3fe6080604052600436106102e45760003560e01c80638c8e9d1f11610190578063c58343ef116100dc578063ed647d2111610095578063f76f8d781161006f578063f76f8d7814610a46578063f93c5cb814610a77578063fc2a88c314610a97578063fd34c9f114610aad57600080fd5b8063ed647d2114610975578063f4a0a528146109b7578063f735968c146109d757600080fd5b8063c58343ef146107e4578063c87b56dd14610817578063ce606ee014610837578063d8a4676f14610857578063e1dc0761146108ad578063e985e9c51461095557600080fd5b8063a22cb46511610149578063ab14953311610123578063ab14953314610764578063adb6704814610784578063b478fe40146107a4578063b88d4fde146107c457600080fd5b8063a22cb465146106f1578063a3e56fa814610711578063a3f4df7e1461073157600080fd5b80638c8e9d1f146106505780638e09f336146106655780638f3ae5b41461067a57806395d89b411461068f578063995a07e3146106a45780639e6611a5146106d157600080fd5b806342842e0e1161024f5780636352211e1161020857806369e71056116101e257806369e71056146105b657806370a08231146105e357806380dcec89146106035780638796ba8c1461063057600080fd5b80636352211e14610560578063638cf41e146105805780636817c76c146105a057600080fd5b806342842e0e1461048d5780634d65b6ae146104ad578063598bc486146104d55780635a405c871461050a5780635c4760911461052a5780636022743e1461054057600080fd5b80631d086206116102a15780631d086206146103d15780631fe543e3146103e657806323b872dd1461040657806324600fc3146104265780633679ca331461042e5780633b7ed7341461045b57600080fd5b806301ffc9a7146102e9578063039698861461031e578063041d443e1461033f57806306fdde0314610355578063081812fc14610377578063095ea7b3146103af575b600080fd5b3480156102f557600080fd5b50610309610304366004612bd0565b610acd565b60405190151581526020015b60405180910390f35b61033161032c366004612bed565b610b1f565b604051908152602001610315565b34801561034b57600080fd5b50610331600a5481565b34801561036157600080fd5b5061036a610de1565b6040516103159190612c6b565b34801561038357600080fd5b50610397610392366004612c7e565b610e73565b6040516001600160a01b039091168152602001610315565b3480156103bb57600080fd5b506103cf6103ca366004612cae565b610e9a565b005b3480156103dd57600080fd5b506103cf610faf565b3480156103f257600080fd5b506103cf610401366004612d1f565b611020565b34801561041257600080fd5b506103cf610421366004612dd1565b6110a8565b6103cf6110d9565b34801561043a57600080fd5b5061044e610449366004612c7e565b61113f565b6040516103159190612e0d565b34801561046757600080fd5b50600b546104789063ffffffff1681565b60405163ffffffff9091168152602001610315565b34801561049957600080fd5b506103cf6104a8366004612dd1565b6111ac565b3480156104b957600080fd5b506104c2604081565b60405160019190910b8152602001610315565b3480156104e157600080fd5b50600b546104f790600160601b900461ffff1681565b60405161ffff9091168152602001610315565b34801561051657600080fd5b506103cf610525366004612bed565b6111c7565b34801561053657600080fd5b5061033160095481565b34801561054c57600080fd5b506103cf61055b366004612c7e565b61120d565b34801561056c57600080fd5b5061039761057b366004612c7e565b61125c565b34801561058c57600080fd5b506104c261059b366004612e42565b6112bc565b3480156105ac57600080fd5b5061033160085481565b3480156105c257600080fd5b506105d66105d1366004612c7e565b6112fc565b6040516103159190612ed2565b3480156105ef57600080fd5b506103316105fe366004612f20565b6113e4565b34801561060f57600080fd5b5061062361061e366004612e42565b61146a565b6040516103159190612f3b565b34801561063c57600080fd5b5061033161064b366004612c7e565b611555565b34801561065c57600080fd5b50610331600481565b34801561067157600080fd5b50610331601081565b34801561068657600080fd5b50610331600881565b34801561069b57600080fd5b5061036a611576565b3480156106b057600080fd5b506106c46106bf366004612f49565b611585565b6040516103159190612f7b565b3480156106dd57600080fd5b506103cf6106ec366004612c7e565b6116f9565b3480156106fd57600080fd5b506103cf61070c366004612fb3565b61173d565b34801561071d57600080fd5b50600654610397906001600160a01b031681565b34801561073d57600080fd5b5061036a604051806040016040528060078152602001662bb0b6b7b9ab1960c91b81525081565b34801561077057600080fd5b506103cf61077f366004612fef565b611748565b34801561079057600080fd5b506103cf61079f36600461306b565b611794565b3480156107b057600080fd5b506103cf6107bf366004612f20565b611828565b3480156107d057600080fd5b506103cf6107df3660046130c6565b611874565b3480156107f057600080fd5b506108046107ff366004612c7e565b6118a6565b6040516103159796959493929190613142565b34801561082357600080fd5b5061036a610832366004612c7e565b61194e565b34801561084357600080fd5b50600754610397906001600160a01b031681565b34801561086357600080fd5b50610896610872366004612c7e565b6000908152600f602052604090205460ff6101008204811692620100009092041690565b604080519215158352901515602083015201610315565b3480156108b957600080fd5b506108cd6108c8366004612c7e565b6119c2565b6040516103159190815181526020808301519082015260408083015190820152606080830151908201526080808301519082015260a0808301519082015260c0808301519082015260e0808301519082015261010080830151908201526101208083015190820152610140808301519082015261016091820151918101919091526101800190565b34801561096157600080fd5b506103096109703660046131c2565b611b01565b34801561098157600080fd5b50600b5461099e90640100000000900467ffffffffffffffff1681565b60405167ffffffffffffffff9091168152602001610315565b3480156109c357600080fd5b506103cf6109d2366004612c7e565b611b2f565b3480156109e357600080fd5b50610a216109f2366004612c7e565b6000908152600f602052604090208054600282015460039092015463010000009091046001600160a01b031692565b604080516001600160a01b039094168452602084019290925290820152606001610315565b348015610a5257600080fd5b5061036a6040518060400160405280600581526020016457414d4f5360d81b81525081565b348015610a8357600080fd5b50600c54610397906001600160a01b031681565b348015610aa357600080fd5b50610331600e5481565b348015610ab957600080fd5b506103cf610ac8366004612c7e565b611b5e565b60006001600160e01b031982166380ac58cd60e01b1480610afe57506001600160e01b03198216635b5e139f60e01b145b80610b1957506301ffc9a760e01b6001600160e01b03198316145b92915050565b6000600854341015610b785760405162461bcd60e51b815260206004820152601f60248201527f496e73756666696369656e74206d73672e76616c756520746f206d696e74210060448201526064015b60405180910390fd5b600654600a54600b546040516305d3b1d360e41b81526004810192909252640100000000810467ffffffffffffffff166024830152600160601b810461ffff16604483015263ffffffff9081166064830152841660848201526001600160a01b0390911690635d3b1d309060a4016020604051808303816000875af1158015610c05573d6000803e3d6000fd5b505050506040513d601f19601f82011682018060405250810190610c2991906131f5565b6009805491925063ffffffff8416906000610c448385613224565b9091555050604080516101008101825260018152600060208201819052918101919091523360608201526080810183905260a0810182905263ffffffff841660c0820181905260e082019067ffffffffffffffff811115610ca757610ca7612cd8565b604051908082528060200260200182016040528015610cd0578160200160208202803683370190505b5090526000838152600f6020908152604091829020835181548584015194860151606087015161ffff1990921692151561ff00191692909217610100951515959095029490941762010000600160b81b03191662010000911515919091026301000000600160b81b0319161763010000006001600160a01b03909416939093029290921782556080830151600183015560a0830151600283015560c0830151600383015560e08301518051610d8b9260048501920190612a45565b5050604080513381526020810185905290810183905263ffffffff851660608201527f27187bd827f2d3fdbdf637ff0b46df312088a9040bbaeb898fc5b9bc88ef42a6915060800160405180910390a150919050565b606060008054610df09061323c565b80601f0160208091040260200160405190810160405280929190818152602001828054610e1c9061323c565b8015610e695780601f10610e3e57610100808354040283529160200191610e69565b820191906000526020600020905b815481529060010190602001808311610e4c57829003601f168201915b5050505050905090565b6000610e7e82611e41565b506000908152600460205260409020546001600160a01b031690565b6000610ea58261125c565b9050806001600160a01b0316836001600160a01b031603610f125760405162461bcd60e51b815260206004820152602160248201527f4552433732313a20617070726f76616c20746f2063757272656e74206f776e656044820152603960f91b6064820152608401610b6f565b336001600160a01b0382161480610f2e5750610f2e8133611b01565b610fa05760405162461bcd60e51b815260206004820152603d60248201527f4552433732313a20617070726f76652063616c6c6572206973206e6f7420746f60448201527f6b656e206f776e6572206f7220617070726f76656420666f7220616c6c0000006064820152608401610b6f565b610faa8383611ea0565b505050565b600c546001600160a01b03166110075760405162461bcd60e51b815260206004820152601f60248201527f57616d6f73204172656e612041646472657373206973206e6f742073657421006044820152606401610b6f565b600c5461101e906001600160a01b0316600161173d565b565b336001600160a01b037f0000000000000000000000000000000000000000000000000000000000000000161461109a5760405163073e64fd60e21b81523360048201526001600160a01b037f0000000000000000000000000000000000000000000000000000000000000000166024820152604401610b6f565b6110a48282611f0e565b5050565b6110b23382611fa4565b6110ce5760405162461bcd60e51b8152600401610b6f90613276565b610faa838383612002565b6007546001600160a01b031633146111035760405162461bcd60e51b8152600401610b6f906132c3565b6007546040516001600160a01b03909116904780156108fc02916000818181858888f1935050505015801561113c573d6000803e3d6000fd5b50565b611147612a90565b60008281526014602052604080822081516101008101928390529290916008918390855b82829054906101000a900460010b60010b8152602001906002019060208260010104928301926001038202915080841161116b575094979650505050505050565b610faa83838360405180602001604052806000815250611874565b6007546001600160a01b031633146111f15760405162461bcd60e51b8152600401610b6f906132c3565b600b805463ffffffff191663ffffffff92909216919091179055565b600c546001600160a01b031633146112375760405162461bcd60e51b8152600401610b6f906132f1565b600081815260126020526040812060010180549161125483613339565b919050555050565b6000818152600260205260408120546001600160a01b031680610b195760405162461bcd60e51b8152602060048201526018602482015277115490cdcc8c4e881a5b9d985b1a59081d1bdad95b88125160421b6044820152606401610b6f565b600082815260146020526040812082600881106112db576112db613352565b601091828204019190066002029054906101000a900460010b905092915050565b606060156000838152602001908152602001600020805480602002602001604051908101604052809291908181526020016000905b828210156113d957838290600052602060002090600602016040518060c0016040529081600082015481526020016001820160009054906101000a900460ff16600281111561138257611382612e64565b600281111561139357611393612e64565b81526002820154602080830191909152600383015460408301526004830154600190810b6060840152600590930154608090920191909152918352929092019101611331565b505050509050919050565b60006001600160a01b03821661144e5760405162461bcd60e51b815260206004820152602960248201527f4552433732313a2061646472657373207a65726f206973206e6f7420612076616044820152683634b21037bbb732b960b91b6064820152608401610b6f565b506001600160a01b031660009081526003602052604090205490565b6114a76040805160c081019091526000808252602082019081526020016000815260200160008152602001600060010b8152602001600081525090565b60008381526015602052604090208054839081106114c7576114c7613352565b90600052602060002090600602016040518060c0016040529081600082015481526020016001820160009054906101000a900460ff16600281111561150e5761150e612e64565b600281111561151f5761151f612e64565b81526002820154602082015260038201546040820152600482015460010b60608201526005909101546080909101529392505050565b600d818154811061156557600080fd5b600091825260209091200154905081565b606060018054610df09061323c565b606060008560405160200161159c91815260200190565b6040516020818303038152906040528051906020012060001c905060008567ffffffffffffffff8111156115d2576115d2612cd8565b6040519080825280602002602001820160405280156115fb578160200160208202803683370190505b5090506000805b878110156116b45761161384612173565b9150866008611623886080613368565b61162d9190613403565b60086116398986613368565b6116439190613403565b61164d9190613431565b6116579190613470565b83828151811061166957611669613352565b6020026020010181815250508360405160200161168891815260200190565b60408051601f1981840301815291905280516020909101209350806116ac81613339565b915050611602565b507ff9fc71c43f1e7e37f78a908ed23771aebf73f9a89bb81b30743f5db1b4697e95826040516116e49190612f7b565b60405180910390a1509150505b949350505050565b600c546001600160a01b031633146117235760405162461bcd60e51b8152600401610b6f906132f1565b600081815260126020526040812080549161125483613339565b6110a4338383612192565b6007546001600160a01b031633146117725760405162461bcd60e51b8152600401610b6f906132c3565b600b805461ffff909216600160601b0261ffff60601b19909216919091179055565b8161179e8161125c565b6001600160a01b0316336001600160a01b03161461180a5760405162461bcd60e51b8152602060048201526024808201527f4f6e6c7920746865206f776e6572206f6620746869732077616d6f2063616e2060448201526318d85b1b60e21b6064820152608401610b6f565b600083815260116020526040902061182283826134f7565b50505050565b6007546001600160a01b031633146118525760405162461bcd60e51b8152600401610b6f906132c3565b600c80546001600160a01b0319166001600160a01b0392909216919091179055565b61187e3383611fa4565b61189a5760405162461bcd60e51b8152600401610b6f90613276565b61182284848484612260565b6000818152600f60209081526040918290208054600282015460038301546004909301805486518187028101870190975280875260ff8085169761010086048216976201000087049092169663010000009096046001600160a01b03169593606093919290919083018282801561193c57602002820191906000526020600020905b815481526020019060010190808311611928575b50505050509050919395979092949650565b606061195982611e41565b600061197060408051602081019091526000815290565b9050600081511161199057604051806020016040528060008152506119bb565b8061199a84612293565b6040516020016119ab9291906135b7565b6040516020818303038152906040525b9392505050565b611a266040518061018001604052806000815260200160008152602001600081526020016000815260200160008152602001600081526020016000815260200160008152602001600081526020016000815260200160008152602001600081525090565b6000828152601360209081526040918290205460ff600882811d82168652601083901d821686850152601883901d8216868601529282901d81166060860152602882901d81166080860152603082901d811660a0860152603882901d811660c08601529281901d831660e085015291611aa59190604884901d166135e6565b61010083015260e0820151611ac19060ff605084901d166135e6565b61012083015260c0820151611add9060ff605884901d166135e6565b610140830152611af5601060ff606084901d166135e6565b61016083015250919050565b6001600160a01b03918216600090815260056020908152604080832093909416825291909152205460ff1690565b6007546001600160a01b03163314611b595760405162461bcd60e51b8152600401610b6f906132c3565b600855565b6000818152600f6020908152604080832081516101008082018452825460ff808216151584529181048216151583870152620100008104909116151582850152630100000090046001600160a01b0316606082015260018201546080820152600282015460a0820152600382015460c08201526004820180548451818702810187019095528085529194929360e0860193909290830182828015611c2157602002820191906000526020600020905b815481526020019060010190808311611c0d575b50505050508152505090508060000151611c765760405162461bcd60e51b815260206004820152601660248201527514995c5d595cdd08191bd95cc81b9bdd08195e1a5cdd60521b6044820152606401610b6f565b8060200151611cd65760405162461bcd60e51b815260206004820152602660248201527f52616e646f6d6e65737320686173206e6f74206265656e2066756c66696c6c6560448201526532103cb2ba1760d11b6064820152608401610b6f565b806040015115611d395760405162461bcd60e51b815260206004820152602860248201527f537061776e206f6620746869732057616d6f20697320616c726561647920636f60448201526736b83632ba32b21760c11b6064820152608401610b6f565b60a081015160c082015160005b81811015611db1576000611d5a8285613224565b905060008560e001518381518110611d7457611d74613352565b60200260200101519050611d888282612326565b611d9282826123ad565b611d9c828261240e565b50508080611da990613339565b915050611d46565b506000848152600f60205260409020805462ff000019166201000017905560608301517f888d946d0d01658bbbe699800132393d4e4a35253b2f527878f12ef3fe8760ff9085846001611e048683613224565b611e0e91906135fa565b604080516001600160a01b039095168552602085019390935291830152606082015260800160405180910390a150505050565b6000818152600260205260409020546001600160a01b031661113c5760405162461bcd60e51b8152602060048201526018602482015277115490cdcc8c4e881a5b9d985b1a59081d1bdad95b88125160421b6044820152606401610b6f565b600081815260046020526040902080546001600160a01b0319166001600160a01b0384169081179091558190611ed58261125c565b6001600160a01b03167f8c5be1e5ebec7d5bd14f71427d1e84f3dd0314c0f7b2291e5b200ac8c7c3b92560405160405180910390a45050565b6000828152600f60209081526040909120805461ff0019166101001781558251611f4092600490920191840190612a45565b506000828152600f602052604081208054600282015460039092015463010000009091046001600160a01b0316925b81811015611f9c57611f8a84611f858386613224565b612601565b80611f9481613339565b915050611f6f565b505050505050565b600080611fb08361125c565b9050806001600160a01b0316846001600160a01b03161480611fd75750611fd78185611b01565b806116f15750836001600160a01b0316611ff084610e73565b6001600160a01b031614949350505050565b826001600160a01b03166120158261125c565b6001600160a01b03161461203b5760405162461bcd60e51b8152600401610b6f90613611565b6001600160a01b03821661209d5760405162461bcd60e51b8152602060048201526024808201527f4552433732313a207472616e7366657220746f20746865207a65726f206164646044820152637265737360e01b6064820152608401610b6f565b6120aa838383600161261b565b826001600160a01b03166120bd8261125c565b6001600160a01b0316146120e35760405162461bcd60e51b8152600401610b6f90613611565b600081815260046020908152604080832080546001600160a01b03199081169091556001600160a01b0387811680865260038552838620805460001901905590871680865283862080546001019055868652600290945282852080549092168417909155905184937fddf252ad1be2c89b69c2b068fc378daa952ba7f163c4a11628f55a4df523b3ef91a4505050565b60005b811561218d57600019820190911690600101612176565b919050565b816001600160a01b0316836001600160a01b0316036121f35760405162461bcd60e51b815260206004820152601960248201527f4552433732313a20617070726f766520746f2063616c6c6572000000000000006044820152606401610b6f565b6001600160a01b03838116600081815260056020908152604080832094871680845294825291829020805460ff191686151590811790915591519182527f17307eab39ab6107e8899845ad3d59bd9653f200f220920489ca2b5937696c31910160405180910390a3505050565b61226b848484612002565b612277848484846126a3565b6118225760405162461bcd60e51b8152600401610b6f90613656565b606060006122a0836127a1565b600101905060008167ffffffffffffffff8111156122c0576122c0612cd8565b6040519080825280601f01601f1916602001820160405280156122ea576020820181803683370190505b5090508181016020015b600019016f181899199a1a9b1b9c1cb0b131b232b360811b600a86061a8153600a85049450846122f457509392505050565b6000600c608060208361233b86858585611585565b905060005b84811015612392576123538160086136a8565b82828151811061236557612365613352565b602002602001015160016123799190613470565b901b86179550808061238a90613339565b915050612340565b50505060009485525050601360205260409092209190915550565b604080516101008101825260001981526001602080830191909152600f1982840152601060608301526003608083015260021960a0830152603060c0830152602f1960e0830152600085815260149091529190912061182290826008612aaf565b612416612b43565b60005b600281101561250d5760008481526015602052604090819020815160c0810190925290806124486008876135e6565b815260006020808301829052603c604084018190526060840152600260808401819052600a60a0909401939093528454600180820187559583529181902084516006909302019182558301518185018054949592949193909260ff19909216919084908111156124ba576124ba612e64565b02179055506040820151600282015560608201516003820155608082015160048201805461ffff191661ffff90921691909117905560a0909101516005909101558061250581613339565b915050612419565b5060005b60028110156118225760008481526015602052604090819020815160c0810190925290806125406008876135e6565b815260016020808301829052603c60408401819052606084015260056080840152600a60a0909301929092528354808201855560009485529382902083516006909502019384559082015183820180549394939192909160ff1916908360028111156125ae576125ae612e64565b02179055506040820151600282015560608201516003820155608082015160048201805461ffff191661ffff90921691909117905560a090910151600590910155806125f981613339565b915050612511565b6110a4828260405180602001604052806000815250612879565b6001811115611822576001600160a01b03841615612661576001600160a01b0384166000908152600360205260408120805483929061265b9084906135fa565b90915550505b6001600160a01b03831615611822576001600160a01b03831660009081526003602052604081208054839290612698908490613224565b909155505050505050565b60006001600160a01b0384163b1561279957604051630a85bd0160e11b81526001600160a01b0385169063150b7a02906126e79033908990889088906004016136c7565b6020604051808303816000875af1925050508015612722575060408051601f3d908101601f1916820190925261271f91810190613704565b60015b61277f573d808015612750576040519150601f19603f3d011682016040523d82523d6000602084013e612755565b606091505b5080516000036127775760405162461bcd60e51b8152600401610b6f90613656565b805181602001fd5b6001600160e01b031916630a85bd0160e11b1490506116f1565b5060016116f1565b60008072184f03e93ff9f4daa797ed6e38ed64bf6a1f0160401b83106127e05772184f03e93ff9f4daa797ed6e38ed64bf6a1f0160401b830492506040015b6d04ee2d6d415b85acef8100000000831061280c576d04ee2d6d415b85acef8100000000830492506020015b662386f26fc10000831061282a57662386f26fc10000830492506010015b6305f5e1008310612842576305f5e100830492506008015b612710831061285657612710830492506004015b60648310612868576064830492506002015b600a8310610b195760010192915050565b61288383836128ac565b61289060008484846126a3565b610faa5760405162461bcd60e51b8152600401610b6f90613656565b6001600160a01b0382166129025760405162461bcd60e51b815260206004820181905260248201527f4552433732313a206d696e7420746f20746865207a65726f20616464726573736044820152606401610b6f565b6000818152600260205260409020546001600160a01b0316156129675760405162461bcd60e51b815260206004820152601c60248201527f4552433732313a20746f6b656e20616c7265616479206d696e746564000000006044820152606401610b6f565b61297560008383600161261b565b6000818152600260205260409020546001600160a01b0316156129da5760405162461bcd60e51b815260206004820152601c60248201527f4552433732313a20746f6b656e20616c7265616479206d696e746564000000006044820152606401610b6f565b6001600160a01b038216600081815260036020908152604080832080546001019055848352600290915280822080546001600160a01b0319168417905551839291907fddf252ad1be2c89b69c2b068fc378daa952ba7f163c4a11628f55a4df523b3ef908290a45050565b828054828255906000526020600020908101928215612a80579160200282015b82811115612a80578251825591602001919060010190612a65565b50612a8c929150612ba5565b5090565b6040518061010001604052806008906020820280368337509192915050565b600183019183908215612a805791602002820160005b83821115612b0857835183826101000a81548161ffff021916908360010b61ffff1602179055509260200192600201602081600101049283019260010302612ac5565b8015612b365782816101000a81549061ffff0219169055600201602081600101049283019260010302612b08565b5050612a8c929150612ba5565b60405180608001604052806004905b612b8f6040805160c081019091526000808252602082019081526020016000815260200160008152602001600060010b8152602001600081525090565b815260200190600190039081612b525790505090565b5b80821115612a8c5760008155600101612ba6565b6001600160e01b03198116811461113c57600080fd5b600060208284031215612be257600080fd5b81356119bb81612bba565b600060208284031215612bff57600080fd5b813563ffffffff811681146119bb57600080fd5b60005b83811015612c2e578181015183820152602001612c16565b838111156118225750506000910152565b60008151808452612c57816020860160208601612c13565b601f01601f19169290920160200192915050565b6020815260006119bb6020830184612c3f565b600060208284031215612c9057600080fd5b5035919050565b80356001600160a01b038116811461218d57600080fd5b60008060408385031215612cc157600080fd5b612cca83612c97565b946020939093013593505050565b634e487b7160e01b600052604160045260246000fd5b604051601f8201601f1916810167ffffffffffffffff81118282101715612d1757612d17612cd8565b604052919050565b60008060408385031215612d3257600080fd5b8235915060208084013567ffffffffffffffff80821115612d5257600080fd5b818601915086601f830112612d6657600080fd5b813581811115612d7857612d78612cd8565b8060051b9150612d89848301612cee565b8181529183018401918481019089841115612da357600080fd5b938501935b83851015612dc157843582529385019390850190612da8565b8096505050505050509250929050565b600080600060608486031215612de657600080fd5b612def84612c97565b9250612dfd60208501612c97565b9150604084013590509250925092565b6101008101818360005b6008811015612e39578151600190810b84526020938401939092019101612e17565b50505092915050565b60008060408385031215612e5557600080fd5b50508035926020909101359150565b634e487b7160e01b600052602160045260246000fd5b80518252602081015160038110612ea157634e487b7160e01b600052602160045260246000fd5b6020830152604081810151908301526060808201519083015260808082015160010b9083015260a090810151910152565b6020808252825182820181905260009190848201906040850190845b81811015612f1457612f01838551612e7a565b9284019260c09290920191600101612eee565b50909695505050505050565b600060208284031215612f3257600080fd5b6119bb82612c97565b60c08101610b198284612e7a565b60008060008060808587031215612f5f57600080fd5b5050823594602084013594506040840135936060013592509050565b6020808252825182820181905260009190848201906040850190845b81811015612f1457835183529284019291840191600101612f97565b60008060408385031215612fc657600080fd5b612fcf83612c97565b915060208301358015158114612fe457600080fd5b809150509250929050565b60006020828403121561300157600080fd5b813561ffff811681146119bb57600080fd5b600067ffffffffffffffff83111561302d5761302d612cd8565b613040601f8401601f1916602001612cee565b905082815283838301111561305457600080fd5b828260208301376000602084830101529392505050565b6000806040838503121561307e57600080fd5b82359150602083013567ffffffffffffffff81111561309c57600080fd5b8301601f810185136130ad57600080fd5b6130bc85823560208401613013565b9150509250929050565b600080600080608085870312156130dc57600080fd5b6130e585612c97565b93506130f360208601612c97565b925060408501359150606085013567ffffffffffffffff81111561311657600080fd5b8501601f8101871361312757600080fd5b61313687823560208401613013565b91505092959194509250565b600060e082018915158352602089151581850152881515604085015260018060a01b03881660608501528660808501528560a085015260e060c085015281855180845261010086019150828701935060005b818110156131b057845183529383019391830191600101613194565b50909c9b505050505050505050505050565b600080604083850312156131d557600080fd5b6131de83612c97565b91506131ec60208401612c97565b90509250929050565b60006020828403121561320757600080fd5b5051919050565b634e487b7160e01b600052601160045260246000fd5b600082198211156132375761323761320e565b500190565b600181811c9082168061325057607f821691505b60208210810361327057634e487b7160e01b600052602260045260246000fd5b50919050565b6020808252602d908201527f4552433732313a2063616c6c6572206973206e6f7420746f6b656e206f776e6560408201526c1c881bdc88185c1c1c9bdd9959609a1b606082015260800190565b60208082526014908201527327b7363c9037bbb732b91031b0b71031b0b6361760611b604082015260600190565b60208082526028908201527f4f6e6c792057616d6f73426174746c652063616e2063616c6c207468697320666040820152673ab731ba34b7b71760c11b606082015260800190565b60006001820161334b5761334b61320e565b5060010190565b634e487b7160e01b600052603260045260246000fd5b60006001600160ff1b038184138284138082168684048611161561338e5761338e61320e565b600160ff1b60008712828116878305891216156133ad576133ad61320e565b600087129250878205871284841616156133c9576133c961320e565b878505871281841616156133df576133df61320e565b505050929093029392505050565b634e487b7160e01b600052601260045260246000fd5b600082613412576134126133ed565b600160ff1b82146000198414161561342c5761342c61320e565b500590565b60008083128015600160ff1b85018412161561344f5761344f61320e565b6001600160ff1b038401831381161561346a5761346a61320e565b50500390565b600080821280156001600160ff1b03849003851316156134925761349261320e565b600160ff1b83900384128116156134ab576134ab61320e565b50500190565b601f821115610faa57600081815260208120601f850160051c810160208610156134d85750805b601f850160051c820191505b81811015611f9c578281556001016134e4565b815167ffffffffffffffff81111561351157613511612cd8565b6135258161351f845461323c565b846134b1565b602080601f83116001811461355a57600084156135425750858301515b600019600386901b1c1916600185901b178555611f9c565b600085815260208120601f198616915b828110156135895788860151825594840194600190910190840161356a565b50858210156135a75787850151600019600388901b60f8161c191681555b5050505050600190811b01905550565b600083516135c9818460208801612c13565b8351908301906135dd818360208801612c13565b01949350505050565b6000826135f5576135f56133ed565b500690565b60008282101561360c5761360c61320e565b500390565b60208082526025908201527f4552433732313a207472616e736665722066726f6d20696e636f72726563742060408201526437bbb732b960d91b606082015260800190565b60208082526032908201527f4552433732313a207472616e7366657220746f206e6f6e20455243373231526560408201527131b2b4bb32b91034b6b83632b6b2b73a32b960711b606082015260800190565b60008160001904831182151516156136c2576136c261320e565b500290565b6001600160a01b03858116825284166020820152604081018390526080606082018190526000906136fa90830184612c3f565b9695505050505050565b60006020828403121561371657600080fd5b81516119bb81612bba56fea2646970667358221220b8a89add6905f25358392239cf685485944af2ead1a90a278f8ac6eb6e4996ec64736f6c634300080f0033",
    "linkReferences": {}
  },
  "methodIdentifiers": {
    "MAX_ABILITIES()": "8c8e9d1f",
    "MAX_FECUNDITY()": "8e09f336",
    "MAX_INDEX_MUTATION()": "4d65b6ae",
    "NAME()": "a3f4df7e",
    "NUMBER_OF_GODS()": "8f3ae5b4",
    "SYMBOL()": "f76f8d78",
    "approve(address,uint256)": "095ea7b3",
    "approveArenaStaking()": "1d086206",
    "arenaAddress()": "f93c5cb8",
    "balanceOf(address)": "70a08231",
    "completeSpawn(uint256)": "fd34c9f1",
    "contractOwner()": "ce606ee0",
    "gaussianRNG(uint256,uint256,int256,uint256)": "995a07e3",
    "getAbilities(uint256)": "69e71056",
    "getAbility(uint256,uint256)": "80dcec89",
    "getApproved(uint256)": "081812fc",
    "getMovement(uint256,uint256)": "638cf41e",
    "getMovements(uint256)": "3679ca33",
    "getRequest(uint256)": "c58343ef",
    "getRequestData(uint256)": "f735968c",
    "getRequestStatus(uint256)": "d8a4676f",
    "getTraits(uint256)": "e1dc0761",
    "isApprovedForAll(address,address)": "e985e9c5",
    "lastRequestId()": "fc2a88c3",
    "mintPrice()": "6817c76c",
    "name()": "06fdde03",
    "nextWamoId()": "5c476091",
    "ownerOf(uint256)": "6352211e",
    "rawFulfillRandomWords(uint256,uint256[])": "1fe543e3",
    "recordLoss(uint256)": "6022743e",
    "recordWin(uint256)": "9e6611a5",
    "requestIds(uint256)": "8796ba8c",
    "requestSpawn(uint32)": "03969886",
    "safeTransferFrom(address,address,uint256)": "42842e0e",
    "safeTransferFrom(address,address,uint256,bytes)": "b88d4fde",
    "setApprovalForAll(address,bool)": "a22cb465",
    "setMintPrice(uint256)": "f4a0a528",
    "setVrfCallbackGasLimit(uint32)": "5a405c87",
    "setVrfRequestConfirmations(uint16)": "ab149533",
    "setWamoName(uint256,string)": "adb67048",
    "setWamosArenaAddress(address)": "b478fe40",
    "supportsInterface(bytes4)": "01ffc9a7",
    "symbol()": "95d89b41",
    "tokenURI(uint256)": "c87b56dd",
    "transferFrom(address,address,uint256)": "23b872dd",
    "vrfCallbackGasLimit()": "3b7ed734",
    "vrfCoordinator()": "a3e56fa8",
    "vrfKeyHash()": "041d443e",
    "vrfRequestConfirmations()": "598bc486",
    "vrfSubscriptionId()": "ed647d21",
    "withdrawFunds()": "24600fc3"
  },
  "id": 32
}