{
  "abi": [
    {
      "inputs": [
        {
          "internalType": "address",
          "name": "_vrfCoordinatorAddr",
          "type": "address"
        },
        {
          "internalType": "bytes32",
          "name": "_vrfKeyHash",
          "type": "bytes32"
        },
        {
          "internalType": "uint64",
          "name": "_vrfSubscriptionId",
          "type": "uint64"
        },
        {
          "internalType": "uint256",
          "name": "_mintPrice",
          "type": "uint256"
        }
      ],
      "stateMutability": "nonpayable",
      "type": "constructor"
    },
    {
      "inputs": [
        {
          "internalType": "address",
          "name": "have",
          "type": "address"
        },
        {
          "internalType": "address",
          "name": "want",
          "type": "address"
        }
      ],
      "name": "OnlyCoordinatorCanFulfill",
      "type": "error"
    },
    {
      "anonymous": false,
      "inputs": [
        {
          "indexed": true,
          "internalType": "address",
          "name": "owner",
          "type": "address"
        },
        {
          "indexed": true,
          "internalType": "address",
          "name": "approved",
          "type": "address"
        },
        {
          "indexed": true,
          "internalType": "uint256",
          "name": "tokenId",
          "type": "uint256"
        }
      ],
      "name": "Approval",
      "type": "event"
    },
    {
      "anonymous": false,
      "inputs": [
        {
          "indexed": true,
          "internalType": "address",
          "name": "owner",
          "type": "address"
        },
        {
          "indexed": true,
          "internalType": "address",
          "name": "operator",
          "type": "address"
        },
        {
          "indexed": false,
          "internalType": "bool",
          "name": "approved",
          "type": "bool"
        }
      ],
      "name": "ApprovalForAll",
      "type": "event"
    },
    {
      "anonymous": false,
      "inputs": [
        {
          "indexed": false,
          "internalType": "int256[]",
          "name": "results",
          "type": "int256[]"
        }
      ],
      "name": "GaussianRNGOutput",
      "type": "event"
    },
    {
      "anonymous": false,
      "inputs": [
        {
          "indexed": false,
          "internalType": "address",
          "name": "sender",
          "type": "address"
        },
        {
          "indexed": false,
          "internalType": "uint256",
          "name": "requestId",
          "type": "uint256"
        }
      ],
      "name": "SpawnCompleted",
      "type": "event"
    },
    {
      "anonymous": false,
      "inputs": [
        {
          "indexed": false,
          "internalType": "address",
          "name": "sender",
          "type": "address"
        },
        {
          "indexed": false,
          "internalType": "uint256",
          "name": "requestId",
          "type": "uint256"
        },
        {
          "indexed": false,
          "internalType": "uint256",
          "name": "startWamoId",
          "type": "uint256"
        },
        {
          "indexed": false,
          "internalType": "uint256",
          "name": "numWamos",
          "type": "uint256"
        }
      ],
      "name": "SpawnRequested",
      "type": "event"
    },
    {
      "anonymous": false,
      "inputs": [
        {
          "indexed": true,
          "internalType": "address",
          "name": "from",
          "type": "address"
        },
        {
          "indexed": true,
          "internalType": "address",
          "name": "to",
          "type": "address"
        },
        {
          "indexed": true,
          "internalType": "uint256",
          "name": "tokenId",
          "type": "uint256"
        }
      ],
      "name": "Transfer",
      "type": "event"
    },
    {
      "inputs": [],
      "name": "MAX_ABILITIES",
      "outputs": [
        {
          "internalType": "uint256",
          "name": "",
          "type": "uint256"
        }
      ],
      "stateMutability": "view",
      "type": "function"
    },
    {
      "inputs": [],
      "name": "MAX_FECUNDITY",
      "outputs": [
        {
          "internalType": "uint256",
          "name": "",
          "type": "uint256"
        }
      ],
      "stateMutability": "view",
      "type": "function"
    },
    {
      "inputs": [],
      "name": "MAX_INDEX_MUTATION",
      "outputs": [
        {
          "internalType": "int16",
          "name": "",
          "type": "int16"
        }
      ],
      "stateMutability": "view",
      "type": "function"
    },
    {
      "inputs": [],
      "name": "NAME",
      "outputs": [
        {
          "internalType": "string",
          "name": "",
          "type": "string"
        }
      ],
      "stateMutability": "view",
      "type": "function"
    },
    {
      "inputs": [],
      "name": "NUMBER_OF_GODS",
      "outputs": [
        {
          "internalType": "uint256",
          "name": "",
          "type": "uint256"
        }
      ],
      "stateMutability": "view",
      "type": "function"
    },
    {
      "inputs": [],
      "name": "SYMBOL",
      "outputs": [
        {
          "internalType": "string",
          "name": "",
          "type": "string"
        }
      ],
      "stateMutability": "view",
      "type": "function"
    },
    {
      "inputs": [
        {
          "internalType": "address",
          "name": "to",
          "type": "address"
        },
        {
          "internalType": "uint256",
          "name": "tokenId",
          "type": "uint256"
        }
      ],
      "name": "approve",
      "outputs": [],
      "stateMutability": "nonpayable",
      "type": "function"
    },
    {
      "inputs": [],
      "name": "approveArenaStaking",
      "outputs": [],
      "stateMutability": "nonpayable",
      "type": "function"
    },
    {
      "inputs": [
        {
          "internalType": "address",
          "name": "owner",
          "type": "address"
        }
      ],
      "name": "balanceOf",
      "outputs": [
        {
          "internalType": "uint256",
          "name": "",
          "type": "uint256"
        }
      ],
      "stateMutability": "view",
      "type": "function"
    },
    {
      "inputs": [
        {
          "internalType": "uint256",
          "name": "requestId",
          "type": "uint256"
        }
      ],
      "name": "completeSpawn",
      "outputs": [],
      "stateMutability": "nonpayable",
      "type": "function"
    },
    {
      "inputs": [],
      "name": "contractOwner",
      "outputs": [
        {
          "internalType": "address",
          "name": "",
          "type": "address"
        }
      ],
      "stateMutability": "view",
      "type": "function"
    },
    {
      "inputs": [
        {
          "internalType": "uint256",
          "name": "seed",
          "type": "uint256"
        },
        {
          "internalType": "uint256",
          "name": "n",
          "type": "uint256"
        },
        {
          "internalType": "int256",
          "name": "mu",
          "type": "int256"
        },
        {
          "internalType": "uint256",
          "name": "sigma",
          "type": "uint256"
        }
      ],
      "name": "gaussianRNG",
      "outputs": [
        {
          "internalType": "int256[]",
          "name": "",
          "type": "int256[]"
        }
      ],
      "stateMutability": "nonpayable",
      "type": "function"
    },
    {
      "inputs": [
        {
          "internalType": "uint256",
          "name": "wamoId",
          "type": "uint256"
        }
      ],
      "name": "getAbilities",
      "outputs": [
        {
          "components": [
            {
              "internalType": "uint256",
              "name": "dietyType",
              "type": "uint256"
            },
            {
              "internalType": "enum DamageType",
              "name": "damageType",
              "type": "uint8"
            },
            {
              "internalType": "uint256",
              "name": "power",
              "type": "uint256"
            },
            {
              "internalType": "uint256",
              "name": "accuracy",
              "type": "uint256"
            },
            {
              "internalType": "int16",
              "name": "range",
              "type": "int16"
            },
            {
              "internalType": "uint256",
              "name": "cost",
              "type": "uint256"
            }
          ],
          "internalType": "struct Ability[]",
          "name": "abilities",
          "type": "tuple[]"
        }
      ],
      "stateMutability": "view",
      "type": "function"
    },
    {
      "inputs": [
        {
          "internalType": "uint256",
          "name": "tokenId",
          "type": "uint256"
        }
      ],
      "name": "getApproved",
      "outputs": [
        {
          "internalType": "address",
          "name": "",
          "type": "address"
        }
      ],
      "stateMutability": "view",
      "type": "function"
    },
    {
      "inputs": [
        {
          "internalType": "uint256",
          "name": "wamoId",
          "type": "uint256"
        }
      ],
      "name": "getMovements",
      "outputs": [
        {
          "internalType": "int16[8]",
          "name": "movements",
          "type": "int16[8]"
        }
      ],
      "stateMutability": "view",
      "type": "function"
    },
    {
      "inputs": [
        {
          "internalType": "uint256",
          "name": "requestId",
          "type": "uint256"
        }
      ],
      "name": "getRequest",
      "outputs": [
        {
          "internalType": "bool",
          "name": "exists",
          "type": "bool"
        },
        {
          "internalType": "bool",
          "name": "isFulfilled",
          "type": "bool"
        },
        {
          "internalType": "bool",
          "name": "isCompleted",
          "type": "bool"
        },
        {
          "internalType": "address",
          "name": "sender",
          "type": "address"
        },
        {
          "internalType": "uint256",
          "name": "firstWamoId",
          "type": "uint256"
        },
        {
          "internalType": "uint256",
          "name": "numWamos",
          "type": "uint256"
        },
        {
          "internalType": "uint256[]",
          "name": "seeds",
          "type": "uint256[]"
        }
      ],
      "stateMutability": "view",
      "type": "function"
    },
    {
      "inputs": [
        {
          "internalType": "uint256",
          "name": "requestId",
          "type": "uint256"
        }
      ],
      "name": "getRequestData",
      "outputs": [
        {
          "internalType": "address",
          "name": "sender",
          "type": "address"
        },
        {
          "internalType": "uint256",
          "name": "firstWamoId",
          "type": "uint256"
        },
        {
          "internalType": "uint256",
          "name": "numWamos",
          "type": "uint256"
        }
      ],
      "stateMutability": "view",
      "type": "function"
    },
    {
      "inputs": [
        {
          "internalType": "uint256",
          "name": "requestId",
          "type": "uint256"
        }
      ],
      "name": "getRequestStatus",
      "outputs": [
        {
          "internalType": "bool",
          "name": "fulfilled",
          "type": "bool"
        },
        {
          "internalType": "bool",
          "name": "completed",
          "type": "bool"
        }
      ],
      "stateMutability": "view",
      "type": "function"
    },
    {
      "inputs": [
        {
          "internalType": "uint256",
          "name": "wamoId",
          "type": "uint256"
        }
      ],
      "name": "getTraits",
      "outputs": [
        {
          "components": [
            {
              "internalType": "uint256",
              "name": "health",
              "type": "uint256"
            },
            {
              "internalType": "uint256",
              "name": "meeleeAttack",
              "type": "uint256"
            },
            {
              "internalType": "uint256",
              "name": "meeleeDefence",
              "type": "uint256"
            },
            {
              "internalType": "uint256",
              "name": "magicAttack",
              "type": "uint256"
            },
            {
              "internalType": "uint256",
              "name": "magicDefence",
              "type": "uint256"
            },
            {
              "internalType": "uint256",
              "name": "luck",
              "type": "uint256"
            },
            {
              "internalType": "uint256",
              "name": "stamina",
              "type": "uint256"
            },
            {
              "internalType": "uint256",
              "name": "mana",
              "type": "uint256"
            },
            {
              "internalType": "uint256",
              "name": "diety",
              "type": "uint256"
            },
            {
              "internalType": "uint256",
              "name": "manaRegen",
              "type": "uint256"
            },
            {
              "internalType": "uint256",
              "name": "staminaRegen",
              "type": "uint256"
            },
            {
              "internalType": "uint256",
              "name": "fecundity",
              "type": "uint256"
            }
          ],
          "internalType": "struct Traits",
          "name": "traits",
          "type": "tuple"
        }
      ],
      "stateMutability": "view",
      "type": "function"
    },
    {
      "inputs": [
        {
          "internalType": "address",
          "name": "owner",
          "type": "address"
        },
        {
          "internalType": "address",
          "name": "operator",
          "type": "address"
        }
      ],
      "name": "isApprovedForAll",
      "outputs": [
        {
          "internalType": "bool",
          "name": "",
          "type": "bool"
        }
      ],
      "stateMutability": "view",
      "type": "function"
    },
    {
      "inputs": [],
      "name": "lastRequestId",
      "outputs": [
        {
          "internalType": "uint256",
          "name": "",
          "type": "uint256"
        }
      ],
      "stateMutability": "view",
      "type": "function"
    },
    {
      "inputs": [],
      "name": "mintPrice",
      "outputs": [
        {
          "internalType": "uint256",
          "name": "",
          "type": "uint256"
        }
      ],
      "stateMutability": "view",
      "type": "function"
    },
    {
      "inputs": [],
      "name": "name",
      "outputs": [
        {
          "internalType": "string",
          "name": "",
          "type": "string"
        }
      ],
      "stateMutability": "view",
      "type": "function"
    },
    {
      "inputs": [],
      "name": "nextWamoId",
      "outputs": [
        {
          "internalType": "uint256",
          "name": "",
          "type": "uint256"
        }
      ],
      "stateMutability": "view",
      "type": "function"
    },
    {
      "inputs": [
        {
          "internalType": "uint256",
          "name": "tokenId",
          "type": "uint256"
        }
      ],
      "name": "ownerOf",
      "outputs": [
        {
          "internalType": "address",
          "name": "",
          "type": "address"
        }
      ],
      "stateMutability": "view",
      "type": "function"
    },
    {
      "inputs": [
        {
          "internalType": "uint256",
          "name": "requestId",
          "type": "uint256"
        },
        {
          "internalType": "uint256[]",
          "name": "randomWords",
          "type": "uint256[]"
        }
      ],
      "name": "rawFulfillRandomWords",
      "outputs": [],
      "stateMutability": "nonpayable",
      "type": "function"
    },
    {
      "inputs": [
        {
          "internalType": "uint256",
          "name": "wamoId",
          "type": "uint256"
        }
      ],
      "name": "recordLoss",
      "outputs": [],
      "stateMutability": "nonpayable",
      "type": "function"
    },
    {
      "inputs": [
        {
          "internalType": "uint256",
          "name": "wamoId",
          "type": "uint256"
        }
      ],
      "name": "recordWin",
      "outputs": [],
      "stateMutability": "nonpayable",
      "type": "function"
    },
    {
      "inputs": [
        {
          "internalType": "uint256",
          "name": "",
          "type": "uint256"
        }
      ],
      "name": "requestIds",
      "outputs": [
        {
          "internalType": "uint256",
          "name": "",
          "type": "uint256"
        }
      ],
      "stateMutability": "view",
      "type": "function"
    },
    {
      "inputs": [
        {
          "internalType": "uint32",
          "name": "number",
          "type": "uint32"
        }
      ],
      "name": "requestSpawn",
      "outputs": [
        {
          "internalType": "uint256",
          "name": "requestId",
          "type": "uint256"
        }
      ],
      "stateMutability": "payable",
      "type": "function"
    },
    {
      "inputs": [
        {
          "internalType": "address",
          "name": "from",
          "type": "address"
        },
        {
          "internalType": "address",
          "name": "to",
          "type": "address"
        },
        {
          "internalType": "uint256",
          "name": "tokenId",
          "type": "uint256"
        }
      ],
      "name": "safeTransferFrom",
      "outputs": [],
      "stateMutability": "nonpayable",
      "type": "function"
    },
    {
      "inputs": [
        {
          "internalType": "address",
          "name": "from",
          "type": "address"
        },
        {
          "internalType": "address",
          "name": "to",
          "type": "address"
        },
        {
          "internalType": "uint256",
          "name": "tokenId",
          "type": "uint256"
        },
        {
          "internalType": "bytes",
          "name": "data",
          "type": "bytes"
        }
      ],
      "name": "safeTransferFrom",
      "outputs": [],
      "stateMutability": "nonpayable",
      "type": "function"
    },
    {
      "inputs": [
        {
          "internalType": "address",
          "name": "operator",
          "type": "address"
        },
        {
          "internalType": "bool",
          "name": "approved",
          "type": "bool"
        }
      ],
      "name": "setApprovalForAll",
      "outputs": [],
      "stateMutability": "nonpayable",
      "type": "function"
    },
    {
      "inputs": [
        {
          "internalType": "uint256",
          "name": "_mintPrice",
          "type": "uint256"
        }
      ],
      "name": "setMintPrice",
      "outputs": [],
      "stateMutability": "nonpayable",
      "type": "function"
    },
    {
      "inputs": [
        {
          "internalType": "uint32",
          "name": "_gasLimit",
          "type": "uint32"
        }
      ],
      "name": "setVrfCallbackGasLimit",
      "outputs": [],
      "stateMutability": "nonpayable",
      "type": "function"
    },
    {
      "inputs": [
        {
          "internalType": "uint16",
          "name": "_numConfirmations",
          "type": "uint16"
        }
      ],
      "name": "setVrfRequestConfirmations",
      "outputs": [],
      "stateMutability": "nonpayable",
      "type": "function"
    },
    {
      "inputs": [
        {
          "internalType": "uint256",
          "name": "wamoId",
          "type": "uint256"
        },
        {
          "internalType": "string",
          "name": "name",
          "type": "string"
        }
      ],
      "name": "setWamoName",
      "outputs": [],
      "stateMutability": "nonpayable",
      "type": "function"
    },
    {
      "inputs": [
        {
          "internalType": "address",
          "name": "_arenaAddress",
          "type": "address"
        }
      ],
      "name": "setWamosArenaAddress",
      "outputs": [],
      "stateMutability": "nonpayable",
      "type": "function"
    },
    {
      "inputs": [
        {
          "internalType": "bytes4",
          "name": "interfaceId",
          "type": "bytes4"
        }
      ],
      "name": "supportsInterface",
      "outputs": [
        {
          "internalType": "bool",
          "name": "",
          "type": "bool"
        }
      ],
      "stateMutability": "view",
      "type": "function"
    },
    {
      "inputs": [],
      "name": "symbol",
      "outputs": [
        {
          "internalType": "string",
          "name": "",
          "type": "string"
        }
      ],
      "stateMutability": "view",
      "type": "function"
    },
    {
      "inputs": [
        {
          "internalType": "uint256",
          "name": "tokenId",
          "type": "uint256"
        }
      ],
      "name": "tokenURI",
      "outputs": [
        {
          "internalType": "string",
          "name": "",
          "type": "string"
        }
      ],
      "stateMutability": "view",
      "type": "function"
    },
    {
      "inputs": [
        {
          "internalType": "address",
          "name": "from",
          "type": "address"
        },
        {
          "internalType": "address",
          "name": "to",
          "type": "address"
        },
        {
          "internalType": "uint256",
          "name": "tokenId",
          "type": "uint256"
        }
      ],
      "name": "transferFrom",
      "outputs": [],
      "stateMutability": "nonpayable",
      "type": "function"
    },
    {
      "inputs": [],
      "name": "vrfCallbackGasLimit",
      "outputs": [
        {
          "internalType": "uint32",
          "name": "",
          "type": "uint32"
        }
      ],
      "stateMutability": "view",
      "type": "function"
    },
    {
      "inputs": [],
      "name": "vrfCoordinator",
      "outputs": [
        {
          "internalType": "contract VRFCoordinatorV2Interface",
          "name": "",
          "type": "address"
        }
      ],
      "stateMutability": "view",
      "type": "function"
    },
    {
      "inputs": [],
      "name": "vrfKeyHash",
      "outputs": [
        {
          "internalType": "bytes32",
          "name": "",
          "type": "bytes32"
        }
      ],
      "stateMutability": "view",
      "type": "function"
    },
    {
      "inputs": [],
      "name": "vrfRequestConfirmations",
      "outputs": [
        {
          "internalType": "uint16",
          "name": "",
          "type": "uint16"
        }
      ],
      "stateMutability": "view",
      "type": "function"
    },
    {
      "inputs": [],
      "name": "vrfSubscriptionId",
      "outputs": [
        {
          "internalType": "uint64",
          "name": "",
          "type": "uint64"
        }
      ],
      "stateMutability": "view",
      "type": "function"
    },
    {
      "inputs": [],
      "name": "withdrawFunds",
      "outputs": [],
      "stateMutability": "payable",
      "type": "function"
    }
  ],
  "bytecode": {
    "object": "0x60a06040523480156200001157600080fd5b506040516200381338038062003813833981016040819052620000349162000131565b83604051806040016040528060078152602001662bb0b6b7b9ab1960c91b8152506040518060400160405280600581526020016457414d4f5360d81b81525081600090816200008491906200023a565b5060016200009382826200023a565b5050506001600160a01b0390811660805260078054336001600160a01b031991821617909155600892909255600160095560068054909216941693909317909255600a55600b80546207a120600160201b600160701b03199091166401000000006001600160401b039094169390930261ffff60601b1916929092176c030000000000000000000000001763ffffffff191691909117905562000306565b600080600080608085870312156200014857600080fd5b84516001600160a01b03811681146200016057600080fd5b6020860151604087015191955093506001600160401b03811681146200018557600080fd5b6060959095015193969295505050565b634e487b7160e01b600052604160045260246000fd5b600181811c90821680620001c057607f821691505b602082108103620001e157634e487b7160e01b600052602260045260246000fd5b50919050565b601f8211156200023557600081815260208120601f850160051c81016020861015620002105750805b601f850160051c820191505b8181101562000231578281556001016200021c565b5050505b505050565b81516001600160401b0381111562000256576200025662000195565b6200026e81620002678454620001ab565b84620001e7565b602080601f831160018114620002a657600084156200028d5750858301515b600019600386901b1c1916600185901b17855562000231565b600085815260208120601f198616915b82811015620002d757888601518255948401946001909101908401620002b6565b5085821015620002f65787850151600019600388901b60f8161c191681555b5050505050600190811b01905550565b6080516134ea6200032960003960008181610f3e0152610f8001526134ea6000f3fe6080604052600436106102935760003560e01c80638e09f3361161015a578063c58343ef116100c1578063ed647d211161007a578063ed647d2114610900578063f4a0a52814610942578063f735968c14610962578063f76f8d78146109d1578063fc2a88c314610a02578063fd34c9f114610a1857600080fd5b8063c58343ef14610746578063c87b56dd14610779578063ce606ee014610799578063d8a4676f146107b9578063e1dc07611461080f578063e985e9c5146108b757600080fd5b8063a3e56fa811610113578063a3e56fa814610673578063a3f4df7e14610693578063ab149533146106c6578063adb67048146106e6578063b478fe4014610706578063b88d4fde1461072657600080fd5b80638e09f336146105c75780638f3ae5b4146105dc57806395d89b41146105f1578063995a07e3146106065780639e6611a514610633578063a22cb4651461065357600080fd5b806342842e0e116101fe5780636352211e116101b75780636352211e1461050f5780636817c76c1461052f57806369e710561461054557806370a08231146105725780638796ba8c146105925780638c8e9d1f146105b257600080fd5b806342842e0e1461043c5780634d65b6ae1461045c578063598bc486146104845780635a405c87146104b95780635c476091146104d95780636022743e146104ef57600080fd5b80631d086206116102505780631d086206146103805780631fe543e31461039557806323b872dd146103b557806324600fc3146103d55780633679ca33146103dd5780633b7ed7341461040a57600080fd5b806301ffc9a71461029857806303969886146102cd578063041d443e146102ee57806306fdde0314610304578063081812fc14610326578063095ea7b31461035e575b600080fd5b3480156102a457600080fd5b506102b86102b336600461298e565b610a38565b60405190151581526020015b60405180910390f35b6102e06102db3660046129ab565b610a8a565b6040519081526020016102c4565b3480156102fa57600080fd5b506102e0600a5481565b34801561031057600080fd5b50610319610d4c565b6040516102c49190612a29565b34801561033257600080fd5b50610346610341366004612a3c565b610dde565b6040516001600160a01b0390911681526020016102c4565b34801561036a57600080fd5b5061037e610379366004612a6c565b610e05565b005b34801561038c57600080fd5b5061037e610f1a565b3480156103a157600080fd5b5061037e6103b0366004612add565b610f33565b3480156103c157600080fd5b5061037e6103d0366004612b8f565b610fbb565b61037e610fec565b3480156103e957600080fd5b506103fd6103f8366004612a3c565b611052565b6040516102c49190612bcb565b34801561041657600080fd5b50600b546104279063ffffffff1681565b60405163ffffffff90911681526020016102c4565b34801561044857600080fd5b5061037e610457366004612b8f565b6110bf565b34801561046857600080fd5b50610471604081565b60405160019190910b81526020016102c4565b34801561049057600080fd5b50600b546104a690600160601b900461ffff1681565b60405161ffff90911681526020016102c4565b3480156104c557600080fd5b5061037e6104d43660046129ab565b6110da565b3480156104e557600080fd5b506102e060095481565b3480156104fb57600080fd5b5061037e61050a366004612a3c565b611120565b34801561051b57600080fd5b5061034661052a366004612a3c565b61116f565b34801561053b57600080fd5b506102e060085481565b34801561055157600080fd5b50610565610560366004612a3c565b6111cf565b6040516102c49190612c16565b34801561057e57600080fd5b506102e061058d366004612cb5565b6112b7565b34801561059e57600080fd5b506102e06105ad366004612a3c565b61133d565b3480156105be57600080fd5b506102e0600481565b3480156105d357600080fd5b506102e0601081565b3480156105e857600080fd5b506102e0600881565b3480156105fd57600080fd5b5061031961135e565b34801561061257600080fd5b50610626610621366004612cd0565b61136d565b6040516102c49190612d02565b34801561063f57600080fd5b5061037e61064e366004612a3c565b6114e1565b34801561065f57600080fd5b5061037e61066e366004612d46565b611525565b34801561067f57600080fd5b50600654610346906001600160a01b031681565b34801561069f57600080fd5b50610319604051806040016040528060078152602001662bb0b6b7b9ab1960c91b81525081565b3480156106d257600080fd5b5061037e6106e1366004612d82565b611530565b3480156106f257600080fd5b5061037e610701366004612dfe565b61157c565b34801561071257600080fd5b5061037e610721366004612cb5565b611610565b34801561073257600080fd5b5061037e610741366004612e59565b61165c565b34801561075257600080fd5b50610766610761366004612a3c565b61168e565b6040516102c49796959493929190612ed5565b34801561078557600080fd5b50610319610794366004612a3c565b611736565b3480156107a557600080fd5b50600754610346906001600160a01b031681565b3480156107c557600080fd5b506107f86107d4366004612a3c565b6000908152600f602052604090205460ff6101008204811692620100009092041690565b6040805192151583529015156020830152016102c4565b34801561081b57600080fd5b5061082f61082a366004612a3c565b6117aa565b6040516102c49190815181526020808301519082015260408083015190820152606080830151908201526080808301519082015260a0808301519082015260c0808301519082015260e0808301519082015261010080830151908201526101208083015190820152610140808301519082015261016091820151918101919091526101800190565b3480156108c357600080fd5b506102b86108d2366004612f55565b6001600160a01b03918216600090815260056020908152604080832093909416825291909152205460ff1690565b34801561090c57600080fd5b50600b5461092990640100000000900467ffffffffffffffff1681565b60405167ffffffffffffffff90911681526020016102c4565b34801561094e57600080fd5b5061037e61095d366004612a3c565b6118e9565b34801561096e57600080fd5b506109ac61097d366004612a3c565b6000908152600f602052604090208054600282015460039092015463010000009091046001600160a01b031692565b604080516001600160a01b0390941684526020840192909252908201526060016102c4565b3480156109dd57600080fd5b506103196040518060400160405280600581526020016457414d4f5360d81b81525081565b348015610a0e57600080fd5b506102e0600e5481565b348015610a2457600080fd5b5061037e610a33366004612a3c565b611918565b60006001600160e01b031982166380ac58cd60e01b1480610a6957506001600160e01b03198216635b5e139f60e01b145b80610a8457506301ffc9a760e01b6001600160e01b03198316145b92915050565b6000600854341015610ae35760405162461bcd60e51b815260206004820152601f60248201527f496e73756666696369656e74206d73672e76616c756520746f206d696e74210060448201526064015b60405180910390fd5b600654600a54600b546040516305d3b1d360e41b81526004810192909252640100000000810467ffffffffffffffff166024830152600160601b810461ffff16604483015263ffffffff9081166064830152841660848201526001600160a01b0390911690635d3b1d309060a4016020604051808303816000875af1158015610b70573d6000803e3d6000fd5b505050506040513d601f19601f82011682018060405250810190610b949190612f88565b6009805491925063ffffffff8416906000610baf8385612fb7565b9091555050604080516101008101825260018152600060208201819052918101919091523360608201526080810183905260a0810182905263ffffffff841660c0820181905260e082019067ffffffffffffffff811115610c1257610c12612a96565b604051908082528060200260200182016040528015610c3b578160200160208202803683370190505b5090526000838152600f6020908152604091829020835181548584015194860151606087015161ffff1990921692151561ff00191692909217610100951515959095029490941762010000600160b81b03191662010000911515919091026301000000600160b81b0319161763010000006001600160a01b03909416939093029290921782556080830151600183015560a0830151600283015560c0830151600383015560e08301518051610cf69260048501920190612803565b5050604080513381526020810185905290810183905263ffffffff851660608201527f27187bd827f2d3fdbdf637ff0b46df312088a9040bbaeb898fc5b9bc88ef42a6915060800160405180910390a150919050565b606060008054610d5b90612fcf565b80601f0160208091040260200160405190810160405280929190818152602001828054610d8790612fcf565b8015610dd45780601f10610da957610100808354040283529160200191610dd4565b820191906000526020600020905b815481529060010190602001808311610db757829003601f168201915b5050505050905090565b6000610de982611bdf565b506000908152600460205260409020546001600160a01b031690565b6000610e108261116f565b9050806001600160a01b0316836001600160a01b031603610e7d5760405162461bcd60e51b815260206004820152602160248201527f4552433732313a20617070726f76616c20746f2063757272656e74206f776e656044820152603960f91b6064820152608401610ada565b336001600160a01b0382161480610e995750610e9981336108d2565b610f0b5760405162461bcd60e51b815260206004820152603d60248201527f4552433732313a20617070726f76652063616c6c6572206973206e6f7420746f60448201527f6b656e206f776e6572206f7220617070726f76656420666f7220616c6c0000006064820152608401610ada565b610f158383611c3e565b505050565b600c54610f31906001600160a01b03166001611525565b565b336001600160a01b037f00000000000000000000000000000000000000000000000000000000000000001614610fad5760405163073e64fd60e21b81523360048201526001600160a01b037f0000000000000000000000000000000000000000000000000000000000000000166024820152604401610ada565b610fb78282611cac565b5050565b610fc53382611d42565b610fe15760405162461bcd60e51b8152600401610ada90613009565b610f15838383611dc0565b6007546001600160a01b031633146110165760405162461bcd60e51b8152600401610ada90613056565b6007546040516001600160a01b03909116904780156108fc02916000818181858888f1935050505015801561104f573d6000803e3d6000fd5b50565b61105a61284e565b60008281526014602052604080822081516101008101928390529290916008918390855b82829054906101000a900460010b60010b8152602001906002019060208260010104928301926001038202915080841161107e575094979650505050505050565b610f158383836040518060200160405280600081525061165c565b6007546001600160a01b031633146111045760405162461bcd60e51b8152600401610ada90613056565b600b805463ffffffff191663ffffffff92909216919091179055565b600c546001600160a01b0316331461114a5760405162461bcd60e51b8152600401610ada90613084565b6000818152601260205260408120600101805491611167836130cc565b919050555050565b6000818152600260205260408120546001600160a01b031680610a845760405162461bcd60e51b8152602060048201526018602482015277115490cdcc8c4e881a5b9d985b1a59081d1bdad95b88125160421b6044820152606401610ada565b606060156000838152602001908152602001600020805480602002602001604051908101604052809291908181526020016000905b828210156112ac57838290600052602060002090600602016040518060c0016040529081600082015481526020016001820160009054906101000a900460ff16600281111561125557611255612c00565b600281111561126657611266612c00565b81526002820154602080830191909152600383015460408301526004830154600190810b6060840152600590930154608090920191909152918352929092019101611204565b505050509050919050565b60006001600160a01b0382166113215760405162461bcd60e51b815260206004820152602960248201527f4552433732313a2061646472657373207a65726f206973206e6f7420612076616044820152683634b21037bbb732b960b91b6064820152608401610ada565b506001600160a01b031660009081526003602052604090205490565b600d818154811061134d57600080fd5b600091825260209091200154905081565b606060018054610d5b90612fcf565b606060008560405160200161138491815260200190565b6040516020818303038152906040528051906020012060001c905060008567ffffffffffffffff8111156113ba576113ba612a96565b6040519080825280602002602001820160405280156113e3578160200160208202803683370190505b5090506000805b8781101561149c576113fb84611f31565b915086600861140b8860806130e5565b6114159190613180565b600861142189866130e5565b61142b9190613180565b61143591906131ae565b61143f91906131ed565b8382815181106114515761145161322e565b6020026020010181815250508360405160200161147091815260200190565b60408051601f198184030181529190528051602090910120935080611494816130cc565b9150506113ea565b507ff9fc71c43f1e7e37f78a908ed23771aebf73f9a89bb81b30743f5db1b4697e95826040516114cc9190612d02565b60405180910390a1509150505b949350505050565b600c546001600160a01b0316331461150b5760405162461bcd60e51b8152600401610ada90613084565b6000818152601260205260408120805491611167836130cc565b610fb7338383611f50565b6007546001600160a01b0316331461155a5760405162461bcd60e51b8152600401610ada90613056565b600b805461ffff909216600160601b0261ffff60601b19909216919091179055565b816115868161116f565b6001600160a01b0316336001600160a01b0316146115f25760405162461bcd60e51b8152602060048201526024808201527f4f6e6c7920746865206f776e6572206f6620746869732077616d6f2063616e2060448201526318d85b1b60e21b6064820152608401610ada565b600083815260116020526040902061160a838261328a565b50505050565b6007546001600160a01b0316331461163a5760405162461bcd60e51b8152600401610ada90613056565b600c80546001600160a01b0319166001600160a01b0392909216919091179055565b6116663383611d42565b6116825760405162461bcd60e51b8152600401610ada90613009565b61160a8484848461201e565b6000818152600f60209081526040918290208054600282015460038301546004909301805486518187028101870190975280875260ff8085169761010086048216976201000087049092169663010000009096046001600160a01b03169593606093919290919083018282801561172457602002820191906000526020600020905b815481526020019060010190808311611710575b50505050509050919395979092949650565b606061174182611bdf565b600061175860408051602081019091526000815290565b9050600081511161177857604051806020016040528060008152506117a3565b8061178284612051565b60405160200161179392919061334a565b6040516020818303038152906040525b9392505050565b61180e6040518061018001604052806000815260200160008152602001600081526020016000815260200160008152602001600081526020016000815260200160008152602001600081526020016000815260200160008152602001600081525090565b6000828152601360209081526040918290205460ff600882811d82168652601083901d821686850152601883901d8216868601529282901d81166060860152602882901d81166080860152603082901d811660a0860152603882901d811660c08601529281901d831660e08501529161188d9190604884901d16613379565b61010083015260e08201516118a99060ff605084901d16613379565b61012083015260c08201516118c59060ff605884901d16613379565b6101408301526118dd601060ff606084901d16613379565b61016083015250919050565b6007546001600160a01b031633146119135760405162461bcd60e51b8152600401610ada90613056565b600855565b6000818152600f6020908152604080832081516101008082018452825460ff808216151584529181048216151583870152620100008104909116151582850152630100000090046001600160a01b0316606082015260018201546080820152600282015460a0820152600382015460c08201526004820180548451818702810187019095528085529194929360e08601939092908301828280156119db57602002820191906000526020600020905b8154815260200190600101908083116119c7575b50505050508152505090508060000151611a305760405162461bcd60e51b815260206004820152601660248201527514995c5d595cdd08191bd95cc81b9bdd08195e1a5cdd60521b6044820152606401610ada565b8060200151611a905760405162461bcd60e51b815260206004820152602660248201527f52616e646f6d6e65737320686173206e6f74206265656e2066756c66696c6c6560448201526532103cb2ba1760d11b6064820152608401610ada565b806040015115611af35760405162461bcd60e51b815260206004820152602860248201527f537061776e206f6620746869732057616d6f20697320616c726561647920636f60448201526736b83632ba32b21760c11b6064820152608401610ada565b60a081015160005b8260c00151811015611b6a576000611b138284612fb7565b905060008460e001518381518110611b2d57611b2d61322e565b60200260200101519050611b4182826120e4565b611b4b828261216b565b611b5582826121cc565b50508080611b62906130cc565b915050611afb565b506000838152600f602052604090819020805462ff0000191662010000179055606083015190517f6eead2e825d93376a63cdb9a583ae3d985e03f9c768e06cd1a684a927803a29c91611bd29186906001600160a01b03929092168252602082015260400190565b60405180910390a1505050565b6000818152600260205260409020546001600160a01b031661104f5760405162461bcd60e51b8152602060048201526018602482015277115490cdcc8c4e881a5b9d985b1a59081d1bdad95b88125160421b6044820152606401610ada565b600081815260046020526040902080546001600160a01b0319166001600160a01b0384169081179091558190611c738261116f565b6001600160a01b03167f8c5be1e5ebec7d5bd14f71427d1e84f3dd0314c0f7b2291e5b200ac8c7c3b92560405160405180910390a45050565b6000828152600f60209081526040909120805461ff0019166101001781558251611cde92600490920191840190612803565b506000828152600f602052604081208054600282015460039092015463010000009091046001600160a01b0316925b81811015611d3a57611d2884611d238386612fb7565b6123bf565b80611d32816130cc565b915050611d0d565b505050505050565b600080611d4e8361116f565b9050806001600160a01b0316846001600160a01b03161480611d9557506001600160a01b0380821660009081526005602090815260408083209388168352929052205460ff165b806114d95750836001600160a01b0316611dae84610dde565b6001600160a01b031614949350505050565b826001600160a01b0316611dd38261116f565b6001600160a01b031614611df95760405162461bcd60e51b8152600401610ada9061338d565b6001600160a01b038216611e5b5760405162461bcd60e51b8152602060048201526024808201527f4552433732313a207472616e7366657220746f20746865207a65726f206164646044820152637265737360e01b6064820152608401610ada565b611e6883838360016123d9565b826001600160a01b0316611e7b8261116f565b6001600160a01b031614611ea15760405162461bcd60e51b8152600401610ada9061338d565b600081815260046020908152604080832080546001600160a01b03199081169091556001600160a01b0387811680865260038552838620805460001901905590871680865283862080546001019055868652600290945282852080549092168417909155905184937fddf252ad1be2c89b69c2b068fc378daa952ba7f163c4a11628f55a4df523b3ef91a4505050565b60005b8115611f4b57600019820190911690600101611f34565b919050565b816001600160a01b0316836001600160a01b031603611fb15760405162461bcd60e51b815260206004820152601960248201527f4552433732313a20617070726f766520746f2063616c6c6572000000000000006044820152606401610ada565b6001600160a01b03838116600081815260056020908152604080832094871680845294825291829020805460ff191686151590811790915591519182527f17307eab39ab6107e8899845ad3d59bd9653f200f220920489ca2b5937696c31910160405180910390a3505050565b612029848484611dc0565b61203584848484612461565b61160a5760405162461bcd60e51b8152600401610ada906133d2565b6060600061205e8361255f565b600101905060008167ffffffffffffffff81111561207e5761207e612a96565b6040519080825280601f01601f1916602001820160405280156120a8576020820181803683370190505b5090508181016020015b600019016f181899199a1a9b1b9c1cb0b131b232b360811b600a86061a8153600a85049450846120b257509392505050565b6000600c60806030836120f98685858561136d565b905060005b8481101561215057612111816008613424565b8282815181106121235761212361322e565b6020026020010151600161213791906131ed565b901b861795508080612148906130cc565b9150506120fe565b50505060009485525050601360205260409092209190915550565b604080516101008101825260001981526001602080830191909152600f1982840152601060608301526003608083015260021960a0830152603060c0830152602f1960e0830152600085815260149091529190912061160a9082600861286d565b6121d4612901565b60005b60028110156122cb5760008481526015602052604090819020815160c081019092529080612206600887613379565b815260006020808301829052603c604084018190526060840152600260808401819052600a60a0909401939093528454600180820187559583529181902084516006909302019182558301518185018054949592949193909260ff199092169190849081111561227857612278612c00565b02179055506040820151600282015560608201516003820155608082015160048201805461ffff191661ffff90921691909117905560a090910151600590910155806122c3816130cc565b9150506121d7565b5060005b600281101561160a5760008481526015602052604090819020815160c0810190925290806122fe600887613379565b815260016020808301829052603c60408401819052606084015260056080840152600a60a0909301929092528354808201855560009485529382902083516006909502019384559082015183820180549394939192909160ff19169083600281111561236c5761236c612c00565b02179055506040820151600282015560608201516003820155608082015160048201805461ffff191661ffff90921691909117905560a090910151600590910155806123b7816130cc565b9150506122cf565b610fb7828260405180602001604052806000815250612637565b600181111561160a576001600160a01b0384161561241f576001600160a01b03841660009081526003602052604081208054839290612419908490613443565b90915550505b6001600160a01b0383161561160a576001600160a01b03831660009081526003602052604081208054839290612456908490612fb7565b909155505050505050565b60006001600160a01b0384163b1561255757604051630a85bd0160e11b81526001600160a01b0385169063150b7a02906124a590339089908890889060040161345a565b6020604051808303816000875af19250505080156124e0575060408051601f3d908101601f191682019092526124dd91810190613497565b60015b61253d573d80801561250e576040519150601f19603f3d011682016040523d82523d6000602084013e612513565b606091505b5080516000036125355760405162461bcd60e51b8152600401610ada906133d2565b805181602001fd5b6001600160e01b031916630a85bd0160e11b1490506114d9565b5060016114d9565b60008072184f03e93ff9f4daa797ed6e38ed64bf6a1f0160401b831061259e5772184f03e93ff9f4daa797ed6e38ed64bf6a1f0160401b830492506040015b6d04ee2d6d415b85acef810000000083106125ca576d04ee2d6d415b85acef8100000000830492506020015b662386f26fc1000083106125e857662386f26fc10000830492506010015b6305f5e1008310612600576305f5e100830492506008015b612710831061261457612710830492506004015b60648310612626576064830492506002015b600a8310610a845760010192915050565b612641838361266a565b61264e6000848484612461565b610f155760405162461bcd60e51b8152600401610ada906133d2565b6001600160a01b0382166126c05760405162461bcd60e51b815260206004820181905260248201527f4552433732313a206d696e7420746f20746865207a65726f20616464726573736044820152606401610ada565b6000818152600260205260409020546001600160a01b0316156127255760405162461bcd60e51b815260206004820152601c60248201527f4552433732313a20746f6b656e20616c7265616479206d696e746564000000006044820152606401610ada565b6127336000838360016123d9565b6000818152600260205260409020546001600160a01b0316156127985760405162461bcd60e51b815260206004820152601c60248201527f4552433732313a20746f6b656e20616c7265616479206d696e746564000000006044820152606401610ada565b6001600160a01b038216600081815260036020908152604080832080546001019055848352600290915280822080546001600160a01b0319168417905551839291907fddf252ad1be2c89b69c2b068fc378daa952ba7f163c4a11628f55a4df523b3ef908290a45050565b82805482825590600052602060002090810192821561283e579160200282015b8281111561283e578251825591602001919060010190612823565b5061284a929150612963565b5090565b6040518061010001604052806008906020820280368337509192915050565b60018301918390821561283e5791602002820160005b838211156128c657835183826101000a81548161ffff021916908360010b61ffff1602179055509260200192600201602081600101049283019260010302612883565b80156128f45782816101000a81549061ffff02191690556002016020816001010492830192600103026128c6565b505061284a929150612963565b60405180608001604052806004905b61294d6040805160c081019091526000808252602082019081526020016000815260200160008152602001600060010b8152602001600081525090565b8152602001906001900390816129105790505090565b5b8082111561284a5760008155600101612964565b6001600160e01b03198116811461104f57600080fd5b6000602082840312156129a057600080fd5b81356117a381612978565b6000602082840312156129bd57600080fd5b813563ffffffff811681146117a357600080fd5b60005b838110156129ec5781810151838201526020016129d4565b8381111561160a5750506000910152565b60008151808452612a158160208601602086016129d1565b601f01601f19169290920160200192915050565b6020815260006117a360208301846129fd565b600060208284031215612a4e57600080fd5b5035919050565b80356001600160a01b0381168114611f4b57600080fd5b60008060408385031215612a7f57600080fd5b612a8883612a55565b946020939093013593505050565b634e487b7160e01b600052604160045260246000fd5b604051601f8201601f1916810167ffffffffffffffff81118282101715612ad557612ad5612a96565b604052919050565b60008060408385031215612af057600080fd5b8235915060208084013567ffffffffffffffff80821115612b1057600080fd5b818601915086601f830112612b2457600080fd5b813581811115612b3657612b36612a96565b8060051b9150612b47848301612aac565b8181529183018401918481019089841115612b6157600080fd5b938501935b83851015612b7f57843582529385019390850190612b66565b8096505050505050509250929050565b600080600060608486031215612ba457600080fd5b612bad84612a55565b9250612bbb60208501612a55565b9150604084013590509250925092565b6101008101818360005b6008811015612bf7578151600190810b84526020938401939092019101612bd5565b50505092915050565b634e487b7160e01b600052602160045260246000fd5b60208082528251828201819052600091906040908185019086840185805b83811015612ca7578251805186528781015160038110612c6257634e487b7160e01b84526021600452602484fd5b86890152808701518787015260608082015190870152608080820151600190810b9188019190915260a0918201519187019190915260c0909501949287019201612c34565b509298975050505050505050565b600060208284031215612cc757600080fd5b6117a382612a55565b60008060008060808587031215612ce657600080fd5b5050823594602084013594506040840135936060013592509050565b6020808252825182820181905260009190848201906040850190845b81811015612d3a57835183529284019291840191600101612d1e565b50909695505050505050565b60008060408385031215612d5957600080fd5b612d6283612a55565b915060208301358015158114612d7757600080fd5b809150509250929050565b600060208284031215612d9457600080fd5b813561ffff811681146117a357600080fd5b600067ffffffffffffffff831115612dc057612dc0612a96565b612dd3601f8401601f1916602001612aac565b9050828152838383011115612de757600080fd5b828260208301376000602084830101529392505050565b60008060408385031215612e1157600080fd5b82359150602083013567ffffffffffffffff811115612e2f57600080fd5b8301601f81018513612e4057600080fd5b612e4f85823560208401612da6565b9150509250929050565b60008060008060808587031215612e6f57600080fd5b612e7885612a55565b9350612e8660208601612a55565b925060408501359150606085013567ffffffffffffffff811115612ea957600080fd5b8501601f81018713612eba57600080fd5b612ec987823560208401612da6565b91505092959194509250565b600060e082018915158352602089151581850152881515604085015260018060a01b03881660608501528660808501528560a085015260e060c085015281855180845261010086019150828701935060005b81811015612f4357845183529383019391830191600101612f27565b50909c9b505050505050505050505050565b60008060408385031215612f6857600080fd5b612f7183612a55565b9150612f7f60208401612a55565b90509250929050565b600060208284031215612f9a57600080fd5b5051919050565b634e487b7160e01b600052601160045260246000fd5b60008219821115612fca57612fca612fa1565b500190565b600181811c90821680612fe357607f821691505b60208210810361300357634e487b7160e01b600052602260045260246000fd5b50919050565b6020808252602d908201527f4552433732313a2063616c6c6572206973206e6f7420746f6b656e206f776e6560408201526c1c881bdc88185c1c1c9bdd9959609a1b606082015260800190565b60208082526014908201527327b7363c9037bbb732b91031b0b71031b0b6361760611b604082015260600190565b60208082526028908201527f4f6e6c792057616d6f73426174746c652063616e2063616c6c207468697320666040820152673ab731ba34b7b71760c11b606082015260800190565b6000600182016130de576130de612fa1565b5060010190565b60006001600160ff1b038184138284138082168684048611161561310b5761310b612fa1565b600160ff1b600087128281168783058912161561312a5761312a612fa1565b6000871292508782058712848416161561314657613146612fa1565b8785058712818416161561315c5761315c612fa1565b505050929093029392505050565b634e487b7160e01b600052601260045260246000fd5b60008261318f5761318f61316a565b600160ff1b8214600019841416156131a9576131a9612fa1565b500590565b60008083128015600160ff1b8501841216156131cc576131cc612fa1565b6001600160ff1b03840183138116156131e7576131e7612fa1565b50500390565b600080821280156001600160ff1b038490038513161561320f5761320f612fa1565b600160ff1b839003841281161561322857613228612fa1565b50500190565b634e487b7160e01b600052603260045260246000fd5b601f821115610f1557600081815260208120601f850160051c8101602086101561326b5750805b601f850160051c820191505b81811015611d3a57828155600101613277565b815167ffffffffffffffff8111156132a4576132a4612a96565b6132b8816132b28454612fcf565b84613244565b602080601f8311600181146132ed57600084156132d55750858301515b600019600386901b1c1916600185901b178555611d3a565b600085815260208120601f198616915b8281101561331c578886015182559484019460019091019084016132fd565b508582101561333a5787850151600019600388901b60f8161c191681555b5050505050600190811b01905550565b6000835161335c8184602088016129d1565b8351908301906133708183602088016129d1565b01949350505050565b6000826133885761338861316a565b500690565b60208082526025908201527f4552433732313a207472616e736665722066726f6d20696e636f72726563742060408201526437bbb732b960d91b606082015260800190565b60208082526032908201527f4552433732313a207472616e7366657220746f206e6f6e20455243373231526560408201527131b2b4bb32b91034b6b83632b6b2b73a32b960711b606082015260800190565b600081600019048311821515161561343e5761343e612fa1565b500290565b60008282101561345557613455612fa1565b500390565b6001600160a01b038581168252841660208201526040810183905260806060820181905260009061348d908301846129fd565b9695505050505050565b6000602082840312156134a957600080fd5b81516117a38161297856fea2646970667358221220eda2ba2cc7936a878778db399978726e60a9c236906de1b27a631e0eeedde3e564736f6c634300080f0033",
    "linkReferences": {}
  },
  "methodIdentifiers": {
    "MAX_ABILITIES()": "8c8e9d1f",
    "MAX_FECUNDITY()": "8e09f336",
    "MAX_INDEX_MUTATION()": "4d65b6ae",
    "NAME()": "a3f4df7e",
    "NUMBER_OF_GODS()": "8f3ae5b4",
    "SYMBOL()": "f76f8d78",
    "approve(address,uint256)": "095ea7b3",
    "approveArenaStaking()": "1d086206",
    "balanceOf(address)": "70a08231",
    "completeSpawn(uint256)": "fd34c9f1",
    "contractOwner()": "ce606ee0",
    "gaussianRNG(uint256,uint256,int256,uint256)": "995a07e3",
    "getAbilities(uint256)": "69e71056",
    "getApproved(uint256)": "081812fc",
    "getMovements(uint256)": "3679ca33",
    "getRequest(uint256)": "c58343ef",
    "getRequestData(uint256)": "f735968c",
    "getRequestStatus(uint256)": "d8a4676f",
    "getTraits(uint256)": "e1dc0761",
    "isApprovedForAll(address,address)": "e985e9c5",
    "lastRequestId()": "fc2a88c3",
    "mintPrice()": "6817c76c",
    "name()": "06fdde03",
    "nextWamoId()": "5c476091",
    "ownerOf(uint256)": "6352211e",
    "rawFulfillRandomWords(uint256,uint256[])": "1fe543e3",
    "recordLoss(uint256)": "6022743e",
    "recordWin(uint256)": "9e6611a5",
    "requestIds(uint256)": "8796ba8c",
    "requestSpawn(uint32)": "03969886",
    "safeTransferFrom(address,address,uint256)": "42842e0e",
    "safeTransferFrom(address,address,uint256,bytes)": "b88d4fde",
    "setApprovalForAll(address,bool)": "a22cb465",
    "setMintPrice(uint256)": "f4a0a528",
    "setVrfCallbackGasLimit(uint32)": "5a405c87",
    "setVrfRequestConfirmations(uint16)": "ab149533",
    "setWamoName(uint256,string)": "adb67048",
    "setWamosArenaAddress(address)": "b478fe40",
    "supportsInterface(bytes4)": "01ffc9a7",
    "symbol()": "95d89b41",
    "tokenURI(uint256)": "c87b56dd",
    "transferFrom(address,address,uint256)": "23b872dd",
    "vrfCallbackGasLimit()": "3b7ed734",
    "vrfCoordinator()": "a3e56fa8",
    "vrfKeyHash()": "041d443e",
    "vrfRequestConfirmations()": "598bc486",
    "vrfSubscriptionId()": "ed647d21",
    "withdrawFunds()": "24600fc3"
  },
  "id": 26
}