{
  "_format": "hh-sol-artifact-1",
  "contractName": "WamosV1",
  "sourceName": "src/v1/WamosV1.sol",
  "abi": [
    {
      "inputs": [
        {
          "internalType": "address",
          "name": "_vrfCoordinatorAddr",
          "type": "address"
        },
        {
          "internalType": "bytes32",
          "name": "_vrfKeyHash",
          "type": "bytes32"
        },
        {
          "internalType": "uint64",
          "name": "_vrfSubscriptionId",
          "type": "uint64"
        },
        {
          "internalType": "uint256",
          "name": "_mintPrice",
          "type": "uint256"
        }
      ],
      "stateMutability": "nonpayable",
      "type": "constructor"
    },
    {
      "inputs": [
        {
          "internalType": "address",
          "name": "have",
          "type": "address"
        },
        {
          "internalType": "address",
          "name": "want",
          "type": "address"
        }
      ],
      "name": "OnlyCoordinatorCanFulfill",
      "type": "error"
    },
    {
      "inputs": [
        {
          "internalType": "uint256",
          "name": "requestId",
          "type": "uint256"
        }
      ],
      "name": "SpawnRequestNotFound",
      "type": "error"
    },
    {
      "inputs": [
        {
          "internalType": "uint256",
          "name": "requestId",
          "type": "uint256"
        }
      ],
      "name": "SpawnRequestNotFulfilled",
      "type": "error"
    },
    {
      "inputs": [
        {
          "internalType": "uint256",
          "name": "tokenId",
          "type": "uint256"
        }
      ],
      "name": "WamoAlreadySpawned",
      "type": "error"
    },
    {
      "anonymous": false,
      "inputs": [
        {
          "indexed": true,
          "internalType": "address",
          "name": "owner",
          "type": "address"
        },
        {
          "indexed": true,
          "internalType": "address",
          "name": "approved",
          "type": "address"
        },
        {
          "indexed": true,
          "internalType": "uint256",
          "name": "tokenId",
          "type": "uint256"
        }
      ],
      "name": "Approval",
      "type": "event"
    },
    {
      "anonymous": false,
      "inputs": [
        {
          "indexed": true,
          "internalType": "address",
          "name": "owner",
          "type": "address"
        },
        {
          "indexed": true,
          "internalType": "address",
          "name": "operator",
          "type": "address"
        },
        {
          "indexed": false,
          "internalType": "bool",
          "name": "approved",
          "type": "bool"
        }
      ],
      "name": "ApprovalForAll",
      "type": "event"
    },
    {
      "anonymous": false,
      "inputs": [
        {
          "indexed": false,
          "internalType": "uint256",
          "name": "requestId",
          "type": "uint256"
        },
        {
          "indexed": false,
          "internalType": "uint256",
          "name": "tokenId",
          "type": "uint256"
        }
      ],
      "name": "RandomnessFulfilled",
      "type": "event"
    },
    {
      "anonymous": false,
      "inputs": [
        {
          "indexed": false,
          "internalType": "uint256",
          "name": "requestId",
          "type": "uint256"
        },
        {
          "indexed": true,
          "internalType": "uint256",
          "name": "tokenId",
          "type": "uint256"
        },
        {
          "indexed": false,
          "internalType": "address",
          "name": "owner",
          "type": "address"
        }
      ],
      "name": "SpawnCompleted",
      "type": "event"
    },
    {
      "anonymous": false,
      "inputs": [
        {
          "indexed": false,
          "internalType": "uint256",
          "name": "requestId",
          "type": "uint256"
        },
        {
          "indexed": true,
          "internalType": "uint256",
          "name": "tokenId",
          "type": "uint256"
        },
        {
          "indexed": false,
          "internalType": "address",
          "name": "sender",
          "type": "address"
        }
      ],
      "name": "SpawnRequested",
      "type": "event"
    },
    {
      "anonymous": false,
      "inputs": [
        {
          "indexed": true,
          "internalType": "address",
          "name": "from",
          "type": "address"
        },
        {
          "indexed": true,
          "internalType": "address",
          "name": "to",
          "type": "address"
        },
        {
          "indexed": true,
          "internalType": "uint256",
          "name": "tokenId",
          "type": "uint256"
        }
      ],
      "name": "Transfer",
      "type": "event"
    },
    {
      "inputs": [],
      "name": "ABILITY_SLOTS",
      "outputs": [
        {
          "internalType": "uint256",
          "name": "",
          "type": "uint256"
        }
      ],
      "stateMutability": "view",
      "type": "function"
    },
    {
      "inputs": [],
      "name": "MAX_INDEX_MUATION",
      "outputs": [
        {
          "internalType": "int16",
          "name": "",
          "type": "int16"
        }
      ],
      "stateMutability": "view",
      "type": "function"
    },
    {
      "inputs": [],
      "name": "MOVE_CHOICE",
      "outputs": [
        {
          "internalType": "uint256",
          "name": "",
          "type": "uint256"
        }
      ],
      "stateMutability": "view",
      "type": "function"
    },
    {
      "inputs": [],
      "name": "NAME",
      "outputs": [
        {
          "internalType": "string",
          "name": "",
          "type": "string"
        }
      ],
      "stateMutability": "view",
      "type": "function"
    },
    {
      "inputs": [],
      "name": "SYMBOL",
      "outputs": [
        {
          "internalType": "string",
          "name": "",
          "type": "string"
        }
      ],
      "stateMutability": "view",
      "type": "function"
    },
    {
      "inputs": [
        {
          "internalType": "address",
          "name": "to",
          "type": "address"
        },
        {
          "internalType": "uint256",
          "name": "tokenId",
          "type": "uint256"
        }
      ],
      "name": "approve",
      "outputs": [],
      "stateMutability": "nonpayable",
      "type": "function"
    },
    {
      "inputs": [],
      "name": "approveBattleStaking",
      "outputs": [],
      "stateMutability": "nonpayable",
      "type": "function"
    },
    {
      "inputs": [
        {
          "internalType": "address",
          "name": "owner",
          "type": "address"
        }
      ],
      "name": "balanceOf",
      "outputs": [
        {
          "internalType": "uint256",
          "name": "",
          "type": "uint256"
        }
      ],
      "stateMutability": "view",
      "type": "function"
    },
    {
      "inputs": [
        {
          "internalType": "uint256",
          "name": "tokenId",
          "type": "uint256"
        }
      ],
      "name": "completeSpawnWamo",
      "outputs": [],
      "stateMutability": "payable",
      "type": "function"
    },
    {
      "inputs": [],
      "name": "contractOwner",
      "outputs": [
        {
          "internalType": "address",
          "name": "",
          "type": "address"
        }
      ],
      "stateMutability": "view",
      "type": "function"
    },
    {
      "inputs": [
        {
          "internalType": "uint256",
          "name": "tokenId",
          "type": "uint256"
        }
      ],
      "name": "getApproved",
      "outputs": [
        {
          "internalType": "address",
          "name": "",
          "type": "address"
        }
      ],
      "stateMutability": "view",
      "type": "function"
    },
    {
      "inputs": [],
      "name": "getRequestCount",
      "outputs": [
        {
          "internalType": "uint256",
          "name": "count",
          "type": "uint256"
        }
      ],
      "stateMutability": "view",
      "type": "function"
    },
    {
      "inputs": [
        {
          "internalType": "uint256",
          "name": "requestId",
          "type": "uint256"
        }
      ],
      "name": "getSpawnRequest",
      "outputs": [
        {
          "components": [
            {
              "internalType": "bool",
              "name": "exists",
              "type": "bool"
            },
            {
              "internalType": "bool",
              "name": "randomnessFulfilled",
              "type": "bool"
            },
            {
              "internalType": "bool",
              "name": "completed",
              "type": "bool"
            },
            {
              "internalType": "uint256",
              "name": "randomWord",
              "type": "uint256"
            },
            {
              "internalType": "address",
              "name": "sender",
              "type": "address"
            },
            {
              "internalType": "uint256",
              "name": "tokenId",
              "type": "uint256"
            }
          ],
          "internalType": "struct SpawnRequest",
          "name": "request",
          "type": "tuple"
        }
      ],
      "stateMutability": "view",
      "type": "function"
    },
    {
      "inputs": [
        {
          "internalType": "uint256",
          "name": "requestId",
          "type": "uint256"
        }
      ],
      "name": "getSpawnRequestStatus",
      "outputs": [
        {
          "internalType": "bool",
          "name": "requestIsFulfilled",
          "type": "bool"
        }
      ],
      "stateMutability": "view",
      "type": "function"
    },
    {
      "inputs": [
        {
          "internalType": "uint256",
          "name": "requestId",
          "type": "uint256"
        }
      ],
      "name": "getTokenIdFromRequestId",
      "outputs": [
        {
          "internalType": "uint256",
          "name": "tokenId",
          "type": "uint256"
        }
      ],
      "stateMutability": "view",
      "type": "function"
    },
    {
      "inputs": [
        {
          "internalType": "uint256",
          "name": "tokenId",
          "type": "uint256"
        }
      ],
      "name": "getWamoAbilities",
      "outputs": [
        {
          "components": [
            {
              "internalType": "uint256",
              "name": "dietyType",
              "type": "uint256"
            },
            {
              "internalType": "enum DamageType",
              "name": "damageType",
              "type": "uint8"
            },
            {
              "internalType": "uint256",
              "name": "power",
              "type": "uint256"
            },
            {
              "internalType": "uint256",
              "name": "accuracy",
              "type": "uint256"
            },
            {
              "internalType": "int16",
              "name": "range",
              "type": "int16"
            },
            {
              "internalType": "uint256",
              "name": "cost",
              "type": "uint256"
            }
          ],
          "internalType": "struct Ability[]",
          "name": "abilities",
          "type": "tuple[]"
        }
      ],
      "stateMutability": "view",
      "type": "function"
    },
    {
      "inputs": [
        {
          "internalType": "uint256",
          "name": "tokenId",
          "type": "uint256"
        },
        {
          "internalType": "uint256",
          "name": "index",
          "type": "uint256"
        }
      ],
      "name": "getWamoAbility",
      "outputs": [
        {
          "components": [
            {
              "internalType": "uint256",
              "name": "dietyType",
              "type": "uint256"
            },
            {
              "internalType": "enum DamageType",
              "name": "damageType",
              "type": "uint8"
            },
            {
              "internalType": "uint256",
              "name": "power",
              "type": "uint256"
            },
            {
              "internalType": "uint256",
              "name": "accuracy",
              "type": "uint256"
            },
            {
              "internalType": "int16",
              "name": "range",
              "type": "int16"
            },
            {
              "internalType": "uint256",
              "name": "cost",
              "type": "uint256"
            }
          ],
          "internalType": "struct Ability",
          "name": "abilities",
          "type": "tuple"
        }
      ],
      "stateMutability": "view",
      "type": "function"
    },
    {
      "inputs": [
        {
          "internalType": "uint256",
          "name": "tokenId",
          "type": "uint256"
        }
      ],
      "name": "getWamoMovements",
      "outputs": [
        {
          "internalType": "int16[8]",
          "name": "",
          "type": "int16[8]"
        }
      ],
      "stateMutability": "view",
      "type": "function"
    },
    {
      "inputs": [
        {
          "internalType": "uint256",
          "name": "wamoId",
          "type": "uint256"
        }
      ],
      "name": "getWamoName",
      "outputs": [
        {
          "internalType": "string",
          "name": "",
          "type": "string"
        }
      ],
      "stateMutability": "view",
      "type": "function"
    },
    {
      "inputs": [
        {
          "internalType": "uint256",
          "name": "tokenId",
          "type": "uint256"
        }
      ],
      "name": "getWamoRecord",
      "outputs": [
        {
          "components": [
            {
              "internalType": "uint256",
              "name": "wins",
              "type": "uint256"
            },
            {
              "internalType": "uint256",
              "name": "losses",
              "type": "uint256"
            },
            {
              "internalType": "uint256",
              "name": "draws",
              "type": "uint256"
            }
          ],
          "internalType": "struct WamoRecord",
          "name": "record",
          "type": "tuple"
        }
      ],
      "stateMutability": "view",
      "type": "function"
    },
    {
      "inputs": [
        {
          "internalType": "uint256",
          "name": "tokenId",
          "type": "uint256"
        }
      ],
      "name": "getWamoTraits",
      "outputs": [
        {
          "components": [
            {
              "internalType": "int16[8]",
              "name": "movements",
              "type": "int16[8]"
            },
            {
              "internalType": "uint256",
              "name": "dietyType",
              "type": "uint256"
            },
            {
              "internalType": "uint256",
              "name": "health",
              "type": "uint256"
            },
            {
              "internalType": "uint256",
              "name": "meeleeAttack",
              "type": "uint256"
            },
            {
              "internalType": "uint256",
              "name": "meeleeDefence",
              "type": "uint256"
            },
            {
              "internalType": "uint256",
              "name": "rangeAttack",
              "type": "uint256"
            },
            {
              "internalType": "uint256",
              "name": "rangeDefence",
              "type": "uint256"
            },
            {
              "internalType": "uint256",
              "name": "magicAttack",
              "type": "uint256"
            },
            {
              "internalType": "uint256",
              "name": "magicDefence",
              "type": "uint256"
            },
            {
              "internalType": "uint256",
              "name": "luck",
              "type": "uint256"
            },
            {
              "internalType": "uint256",
              "name": "stamina",
              "type": "uint256"
            },
            {
              "internalType": "uint256",
              "name": "mana",
              "type": "uint256"
            },
            {
              "internalType": "uint256",
              "name": "energyRegen",
              "type": "uint256"
            },
            {
              "internalType": "uint256",
              "name": "fecundity",
              "type": "uint256"
            }
          ],
          "internalType": "struct WamoTraits",
          "name": "traits",
          "type": "tuple"
        }
      ],
      "stateMutability": "view",
      "type": "function"
    },
    {
      "inputs": [
        {
          "internalType": "address",
          "name": "owner",
          "type": "address"
        },
        {
          "internalType": "address",
          "name": "operator",
          "type": "address"
        }
      ],
      "name": "isApprovedForAll",
      "outputs": [
        {
          "internalType": "bool",
          "name": "",
          "type": "bool"
        }
      ],
      "stateMutability": "view",
      "type": "function"
    },
    {
      "inputs": [
        {
          "internalType": "uint256",
          "name": "wamoId",
          "type": "uint256"
        }
      ],
      "name": "isSpawnCompleted",
      "outputs": [
        {
          "internalType": "bool",
          "name": "isCompleted",
          "type": "bool"
        }
      ],
      "stateMutability": "view",
      "type": "function"
    },
    {
      "inputs": [],
      "name": "lastRequestId",
      "outputs": [
        {
          "internalType": "uint256",
          "name": "",
          "type": "uint256"
        }
      ],
      "stateMutability": "view",
      "type": "function"
    },
    {
      "inputs": [],
      "name": "mintPrice",
      "outputs": [
        {
          "internalType": "uint256",
          "name": "",
          "type": "uint256"
        }
      ],
      "stateMutability": "view",
      "type": "function"
    },
    {
      "inputs": [],
      "name": "name",
      "outputs": [
        {
          "internalType": "string",
          "name": "",
          "type": "string"
        }
      ],
      "stateMutability": "view",
      "type": "function"
    },
    {
      "inputs": [
        {
          "internalType": "uint256",
          "name": "tokenId",
          "type": "uint256"
        }
      ],
      "name": "ownerOf",
      "outputs": [
        {
          "internalType": "address",
          "name": "",
          "type": "address"
        }
      ],
      "stateMutability": "view",
      "type": "function"
    },
    {
      "inputs": [
        {
          "internalType": "uint256",
          "name": "requestId",
          "type": "uint256"
        },
        {
          "internalType": "uint256[]",
          "name": "randomWords",
          "type": "uint256[]"
        }
      ],
      "name": "rawFulfillRandomWords",
      "outputs": [],
      "stateMutability": "nonpayable",
      "type": "function"
    },
    {
      "inputs": [
        {
          "internalType": "uint256",
          "name": "wamoId",
          "type": "uint256"
        }
      ],
      "name": "recordLoss",
      "outputs": [],
      "stateMutability": "nonpayable",
      "type": "function"
    },
    {
      "inputs": [
        {
          "internalType": "uint256",
          "name": "wamoId",
          "type": "uint256"
        }
      ],
      "name": "recordWin",
      "outputs": [],
      "stateMutability": "nonpayable",
      "type": "function"
    },
    {
      "inputs": [],
      "name": "requestCount",
      "outputs": [
        {
          "internalType": "uint256",
          "name": "",
          "type": "uint256"
        }
      ],
      "stateMutability": "view",
      "type": "function"
    },
    {
      "inputs": [
        {
          "internalType": "uint256",
          "name": "",
          "type": "uint256"
        }
      ],
      "name": "requestIds",
      "outputs": [
        {
          "internalType": "uint256",
          "name": "",
          "type": "uint256"
        }
      ],
      "stateMutability": "view",
      "type": "function"
    },
    {
      "inputs": [],
      "name": "requestSpawnWamo",
      "outputs": [
        {
          "internalType": "uint256",
          "name": "requestId",
          "type": "uint256"
        }
      ],
      "stateMutability": "payable",
      "type": "function"
    },
    {
      "inputs": [
        {
          "internalType": "address",
          "name": "from",
          "type": "address"
        },
        {
          "internalType": "address",
          "name": "to",
          "type": "address"
        },
        {
          "internalType": "uint256",
          "name": "tokenId",
          "type": "uint256"
        }
      ],
      "name": "safeTransferFrom",
      "outputs": [],
      "stateMutability": "nonpayable",
      "type": "function"
    },
    {
      "inputs": [
        {
          "internalType": "address",
          "name": "from",
          "type": "address"
        },
        {
          "internalType": "address",
          "name": "to",
          "type": "address"
        },
        {
          "internalType": "uint256",
          "name": "tokenId",
          "type": "uint256"
        },
        {
          "internalType": "bytes",
          "name": "data",
          "type": "bytes"
        }
      ],
      "name": "safeTransferFrom",
      "outputs": [],
      "stateMutability": "nonpayable",
      "type": "function"
    },
    {
      "inputs": [
        {
          "internalType": "address",
          "name": "operator",
          "type": "address"
        },
        {
          "internalType": "bool",
          "name": "approved",
          "type": "bool"
        }
      ],
      "name": "setApprovalForAll",
      "outputs": [],
      "stateMutability": "nonpayable",
      "type": "function"
    },
    {
      "inputs": [
        {
          "internalType": "uint256",
          "name": "_mintPrice",
          "type": "uint256"
        }
      ],
      "name": "setMintPrice",
      "outputs": [],
      "stateMutability": "nonpayable",
      "type": "function"
    },
    {
      "inputs": [
        {
          "internalType": "uint32",
          "name": "_gasLimit",
          "type": "uint32"
        }
      ],
      "name": "setVrfCallbackGasLimit",
      "outputs": [],
      "stateMutability": "nonpayable",
      "type": "function"
    },
    {
      "inputs": [
        {
          "internalType": "uint16",
          "name": "_requestConfirmations",
          "type": "uint16"
        }
      ],
      "name": "setVrfRequestConfirmations",
      "outputs": [],
      "stateMutability": "nonpayable",
      "type": "function"
    },
    {
      "inputs": [
        {
          "internalType": "uint256",
          "name": "wamoId",
          "type": "uint256"
        },
        {
          "internalType": "string",
          "name": "name",
          "type": "string"
        }
      ],
      "name": "setWamoName",
      "outputs": [],
      "stateMutability": "nonpayable",
      "type": "function"
    },
    {
      "inputs": [
        {
          "internalType": "address",
          "name": "_wamosBattleAddr",
          "type": "address"
        }
      ],
      "name": "setWamosBattleAddress",
      "outputs": [],
      "stateMutability": "nonpayable",
      "type": "function"
    },
    {
      "inputs": [
        {
          "internalType": "uint256",
          "name": "randomWord",
          "type": "uint256"
        },
        {
          "internalType": "uint256",
          "name": "shavingSize",
          "type": "uint256"
        },
        {
          "internalType": "uint256",
          "name": "segmentNum",
          "type": "uint256"
        }
      ],
      "name": "shaveOffRandomIntegers",
      "outputs": [
        {
          "internalType": "uint256",
          "name": "a",
          "type": "uint256"
        },
        {
          "internalType": "uint256",
          "name": "b",
          "type": "uint256"
        },
        {
          "internalType": "uint256",
          "name": "c",
          "type": "uint256"
        },
        {
          "internalType": "uint256",
          "name": "d",
          "type": "uint256"
        },
        {
          "internalType": "uint256",
          "name": "e",
          "type": "uint256"
        }
      ],
      "stateMutability": "pure",
      "type": "function"
    },
    {
      "inputs": [
        {
          "internalType": "bytes4",
          "name": "interfaceId",
          "type": "bytes4"
        }
      ],
      "name": "supportsInterface",
      "outputs": [
        {
          "internalType": "bool",
          "name": "",
          "type": "bool"
        }
      ],
      "stateMutability": "view",
      "type": "function"
    },
    {
      "inputs": [],
      "name": "symbol",
      "outputs": [
        {
          "internalType": "string",
          "name": "",
          "type": "string"
        }
      ],
      "stateMutability": "view",
      "type": "function"
    },
    {
      "inputs": [],
      "name": "tokenCount",
      "outputs": [
        {
          "internalType": "uint256",
          "name": "",
          "type": "uint256"
        }
      ],
      "stateMutability": "view",
      "type": "function"
    },
    {
      "inputs": [
        {
          "internalType": "uint256",
          "name": "tokenId",
          "type": "uint256"
        }
      ],
      "name": "tokenURI",
      "outputs": [
        {
          "internalType": "string",
          "name": "",
          "type": "string"
        }
      ],
      "stateMutability": "view",
      "type": "function"
    },
    {
      "inputs": [
        {
          "internalType": "address",
          "name": "from",
          "type": "address"
        },
        {
          "internalType": "address",
          "name": "to",
          "type": "address"
        },
        {
          "internalType": "uint256",
          "name": "tokenId",
          "type": "uint256"
        }
      ],
      "name": "transferFrom",
      "outputs": [],
      "stateMutability": "nonpayable",
      "type": "function"
    },
    {
      "inputs": [],
      "name": "vrfCallbackGasLimit",
      "outputs": [
        {
          "internalType": "uint32",
          "name": "",
          "type": "uint32"
        }
      ],
      "stateMutability": "view",
      "type": "function"
    },
    {
      "inputs": [],
      "name": "vrfCoordinator",
      "outputs": [
        {
          "internalType": "contract VRFCoordinatorV2Interface",
          "name": "",
          "type": "address"
        }
      ],
      "stateMutability": "view",
      "type": "function"
    },
    {
      "inputs": [],
      "name": "vrfKeyHash",
      "outputs": [
        {
          "internalType": "bytes32",
          "name": "",
          "type": "bytes32"
        }
      ],
      "stateMutability": "view",
      "type": "function"
    },
    {
      "inputs": [],
      "name": "vrfNumWords",
      "outputs": [
        {
          "internalType": "uint32",
          "name": "",
          "type": "uint32"
        }
      ],
      "stateMutability": "view",
      "type": "function"
    },
    {
      "inputs": [],
      "name": "vrfRequestConfirmations",
      "outputs": [
        {
          "internalType": "uint16",
          "name": "",
          "type": "uint16"
        }
      ],
      "stateMutability": "view",
      "type": "function"
    },
    {
      "inputs": [],
      "name": "vrfSubscriptionId",
      "outputs": [
        {
          "internalType": "uint64",
          "name": "",
          "type": "uint64"
        }
      ],
      "stateMutability": "view",
      "type": "function"
    },
    {
      "inputs": [],
      "name": "wamosBattleAddr",
      "outputs": [
        {
          "internalType": "address",
          "name": "",
          "type": "address"
        }
      ],
      "stateMutability": "view",
      "type": "function"
    },
    {
      "inputs": [],
      "name": "withdrawFunds",
      "outputs": [],
      "stateMutability": "payable",
      "type": "function"
    }
  ],
  "bytecode": "0x60a06040523480156200001157600080fd5b5060405162003b6338038062003b63833981016040819052620000349162000142565b836040518060400160405280600c81526020016b57616d6f73546f6b656e563160a01b8152506040518060400160405280600781526020016657414d4f53563160c81b81525081600090816200008b91906200024b565b5060016200009a82826200024b565b5050506001600160a01b0390811660805260078054336001600160a01b031991821617909155600992909255600a8054909216941693909317909255600b55600c80546201000069ffffffff000000010000600160901b03199091166a01000000000000000000006001600160401b039094169390930265ffffffff00001916929092179190911769ffffffff00000000ffff191668030d4000000000000317905562000317565b600080600080608085870312156200015957600080fd5b84516001600160a01b03811681146200017157600080fd5b6020860151604087015191955093506001600160401b03811681146200019657600080fd5b6060959095015193969295505050565b634e487b7160e01b600052604160045260246000fd5b600181811c90821680620001d157607f821691505b602082108103620001f257634e487b7160e01b600052602260045260246000fd5b50919050565b601f8211156200024657600081815260208120601f850160051c81016020861015620002215750805b601f850160051c820191505b8181101562000242578281556001016200022d565b5050505b505050565b81516001600160401b03811115620002675762000267620001a6565b6200027f81620002788454620001bc565b84620001f8565b602080601f831160018114620002b757600084156200029e5750858301515b600019600386901b1c1916600185901b17855562000242565b600085815260208120601f198616915b82811015620002e857888601518255948401946001909101908401620002c7565b5085821015620003075787850151600019600388901b60f8161c191681555b5050505050600190811b01905550565b6080516138296200033a60003960008181610f060152610f4801526138296000f3fe6080604052600436106103505760003560e01c80637105cf68116101c6578063ad851f82116100f7578063e001206d11610095578063f1d9190b1161006f578063f1d9190b14610bf4578063f4a0a52814610c21578063f76f8d7814610c41578063fc2a88c314610c7457600080fd5b8063e001206d14610b57578063e985e9c514610b6a578063ed647d2114610bb357600080fd5b8063c74c0369116100d1578063c74c036914610ae2578063c87b56dd14610af7578063ce606ee014610b17578063d2c01c4214610b3757600080fd5b8063ad851f8214610a8d578063adb6704814610aa2578063b88d4fde14610ac257600080fd5b806395d89b4111610164578063a22cb4651161013e578063a22cb465146109f5578063a3e56fa814610a15578063a3f4df7e14610a35578063ab14953314610a6d57600080fd5b806395d89b41146109aa5780639e6611a5146109bf5780639f181b5e146109df57600080fd5b80637cafff8c116101a05780637cafff8c146108735780638796ba8c146108b55780638cdae851146108d55780638e8b01561461091d57600080fd5b80637105cf68146107e3578063764e4166146108035780637945178a1461084657600080fd5b80633b7ed734116102a05780635d64a5b51161023e5780636352211e116102185780636352211e146107605780636817c76c146107805780636dc3574c1461079657806370a08231146107c357600080fd5b80635d64a5b51461070b5780635d86f4a6146107385780636022743e1461074057600080fd5b80635151804a1161027a5780635151804a14610684578063598bc486146106a75780635a405c87146106d55780635badbe4c146106f557600080fd5b80633b7ed734146106165780633fad18341461064f57806342842e0e1461066457600080fd5b8063095ea7b31161030d57806323b872dd116102e757806323b872dd146105ac57806324600fc3146105cc5780632af024ef146105d457806338c9d6dc1461060157600080fd5b8063095ea7b31461054a5780631afbdcad1461056c5780631fe543e31461058c57600080fd5b806301d5e5441461035557806301ffc9a714610474578063041d443e146104a457806306fdde03146104c8578063073b4234146104ea578063081812fc14610512575b600080fd5b34801561036157600080fd5b50610415610370366004612c68565b6040805160c081018252600080825260208201819052918101829052606081018290526080810182905260a0810191909152506000908152600d6020908152604091829020825160c081018452815460ff80821615158352610100820481161515948301949094526201000090049092161515928201929092526001820154606082015260028201546001600160a01b0316608082015260039091015460a082015290565b60405161046b9190815115158152602080830151151590820152604080830151151590820152606080830151908201526080808301516001600160a01b03169082015260a0918201519181019190915260c00190565b60405180910390f35b34801561048057600080fd5b5061049461048f366004612c97565b610c8a565b604051901515815260200161046b565b3480156104b057600080fd5b506104ba600b5481565b60405190815260200161046b565b3480156104d457600080fd5b506104dd610cdc565b60405161046b9190612d04565b3480156104f657600080fd5b506104ff603081565b60405160019190910b815260200161046b565b34801561051e57600080fd5b5061053261052d366004612c68565b610d6e565b6040516001600160a01b03909116815260200161046b565b34801561055657600080fd5b5061056a610565366004612d33565b610d95565b005b34801561057857600080fd5b5061056a610587366004612d5d565b610eaf565b34801561059857600080fd5b5061056a6105a7366004612dbf565b610efb565b3480156105b857600080fd5b5061056a6105c7366004612e71565b610f83565b61056a610fb4565b3480156105e057600080fd5b506105f46105ef366004612ead565b61101a565b60405161046b9190612f3d565b34801561060d57600080fd5b5061056a61116b565b34801561062257600080fd5b50600c5461063a90600160301b900463ffffffff1681565b60405163ffffffff909116815260200161046b565b34801561065b57600080fd5b506012546104ba565b34801561067057600080fd5b5061056a61067f366004612e71565b611184565b34801561069057600080fd5b50600c5461063a9062010000900463ffffffff1681565b3480156106b357600080fd5b50600c546106c29061ffff1681565b60405161ffff909116815260200161046b565b3480156106e157600080fd5b5061056a6106f0366004612f4b565b61119f565b34801561070157600080fd5b506104ba60065481565b34801561071757600080fd5b5061072b610726366004612c68565b6111f2565b60405161046b9190612f71565b6104ba6112da565b34801561074c57600080fd5b5061056a61075b366004612c68565b61155d565b34801561076c57600080fd5b5061053261077b366004612c68565b6115ac565b34801561078c57600080fd5b506104ba60095481565b3480156107a257600080fd5b506107b66107b1366004612c68565b61160c565b60405161046b9190612fe5565b3480156107cf57600080fd5b506104ba6107de366004612d5d565b61167b565b3480156107ef57600080fd5b50601754610532906001600160a01b031681565b34801561080f57600080fd5b5061049461081e366004612c68565b6000908152601060209081526040808320548352600d90915290205462010000900460ff1690565b34801561085257600080fd5b506104ba610861366004612c68565b6000908152600e602052604090205490565b34801561087f57600080fd5b5061089361088e366004612c68565b611701565b604080518251815260208084015190820152918101519082015260600161046b565b3480156108c157600080fd5b506104ba6108d0366004612c68565b61175e565b3480156108e157600080fd5b506108f56108f0366004612ff4565b61177f565b604080519586526020860194909452928401919091526060830152608082015260a00161046b565b34801561092957600080fd5b50610494610938366004612c68565b6000908152600d6020908152604091829020825160c081018452815460ff8082161515835261010082048116151594830185905262010000909104161515938101939093526001810154606084015260028101546001600160a01b031660808401526003015460a09092019190915290565b3480156109b657600080fd5b506104dd6118be565b3480156109cb57600080fd5b5061056a6109da366004612c68565b6118cd565b3480156109eb57600080fd5b506104ba60085481565b348015610a0157600080fd5b5061056a610a10366004613020565b611911565b348015610a2157600080fd5b50600a54610532906001600160a01b031681565b348015610a4157600080fd5b506104dd6040518060400160405280600c81526020016b57616d6f73546f6b656e563160a01b81525081565b348015610a7957600080fd5b5061056a610a8836600461305c565b61191c565b348015610a9957600080fd5b506104ba600481565b348015610aae57600080fd5b5061056a610abd3660046130d8565b61195e565b348015610ace57600080fd5b5061056a610add366004613133565b6119f2565b348015610aee57600080fd5b506104ba600881565b348015610b0357600080fd5b506104dd610b12366004612c68565b611a24565b348015610b2357600080fd5b50600754610532906001600160a01b031681565b348015610b4357600080fd5b506104dd610b52366004612c68565b611a98565b61056a610b65366004612c68565b611b30565b348015610b7657600080fd5b50610494610b853660046131af565b6001600160a01b03918216600090815260056020908152604080832093909416825291909152205460ff1690565b348015610bbf57600080fd5b50600c54610bdb90600160501b900467ffffffffffffffff1681565b60405167ffffffffffffffff909116815260200161046b565b348015610c0057600080fd5b50610c14610c0f366004612c68565b611ca6565b60405161046b91906131e2565b348015610c2d57600080fd5b5061056a610c3c366004612c68565b611dab565b348015610c4d57600080fd5b506104dd6040518060400160405280600781526020016657414d4f53563160c81b81525081565b348015610c8057600080fd5b506104ba60135481565b60006001600160e01b031982166380ac58cd60e01b1480610cbb57506001600160e01b03198216635b5e139f60e01b145b80610cd657506301ffc9a760e01b6001600160e01b03198316145b92915050565b606060008054610ceb90613299565b80601f0160208091040260200160405190810160405280929190818152602001828054610d1790613299565b8015610d645780601f10610d3957610100808354040283529160200191610d64565b820191906000526020600020905b815481529060010190602001808311610d4757829003601f168201915b5050505050905090565b6000610d7982611dda565b506000908152600460205260409020546001600160a01b031690565b6000610da0826115ac565b9050806001600160a01b0316836001600160a01b031603610e125760405162461bcd60e51b815260206004820152602160248201527f4552433732313a20617070726f76616c20746f2063757272656e74206f776e656044820152603960f91b60648201526084015b60405180910390fd5b336001600160a01b0382161480610e2e5750610e2e8133610b85565b610ea05760405162461bcd60e51b815260206004820152603d60248201527f4552433732313a20617070726f76652063616c6c6572206973206e6f7420746f60448201527f6b656e206f776e6572206f7220617070726f76656420666f7220616c6c0000006064820152608401610e09565b610eaa8383611e39565b505050565b6007546001600160a01b03163314610ed95760405162461bcd60e51b8152600401610e09906132d3565b601780546001600160a01b0319166001600160a01b0392909216919091179055565b336001600160a01b037f00000000000000000000000000000000000000000000000000000000000000001614610f755760405163073e64fd60e21b81523360048201526001600160a01b037f0000000000000000000000000000000000000000000000000000000000000000166024820152604401610e09565b610f7f8282611ea7565b5050565b610f8d3382611f85565b610fa95760405162461bcd60e51b8152600401610e0990613301565b610eaa838383612004565b6007546001600160a01b03163314610fde5760405162461bcd60e51b8152600401610e09906132d3565b6007546040516001600160a01b03909116904780156108fc02916000818181858888f19350505050158015611017573d6000803e3d6000fd5b50565b6110576040805160c081019091526000808252602082019081526020016000815260200160008152602001600060010b8152602001600081525090565b600482106110bd5760405162461bcd60e51b815260206004820152602d60248201527f4162696c69747920696e646578206f7574206f662072616e676520286d75737460448201526c20626520696e205b302c335d2960981b6064820152608401610e09565b60008381526015602052604090208054839081106110dd576110dd61334e565b90600052602060002090600602016040518060c0016040529081600082015481526020016001820160009054906101000a900460ff16600281111561112457611124612ecf565b600281111561113557611135612ecf565b81526002820154602082015260038201546040820152600482015460010b60608201526005909101546080909101529392505050565b601754611182906001600160a01b03166001611911565b565b610eaa838383604051806020016040528060008152506119f2565b6007546001600160a01b031633146111c95760405162461bcd60e51b8152600401610e09906132d3565b600c805463ffffffff909216600160301b0269ffffffff00000000000019909216919091179055565b606060156000838152602001908152602001600020805480602002602001604051908101604052809291908181526020016000905b828210156112cf57838290600052602060002090600602016040518060c0016040529081600082015481526020016001820160009054906101000a900460ff16600281111561127857611278612ecf565b600281111561128957611289612ecf565b81526002820154602080830191909152600383015460408301526004830154600190810b6060840152600590930154608090920191909152918352929092019101611227565b505050509050919050565b60006009543410156113395760405162461bcd60e51b815260206004820152602260248201527f496e73756666696369656e74207061796d656e7420746f206d696e742057616d604482015261181760f11b6064820152608401610e09565b600a54600b54600c546040516305d3b1d360e41b8152600481019290925267ffffffffffffffff600160501b820416602483015261ffff8116604483015263ffffffff600160301b820481166064840152620100009091041660848201526001600160a01b0390911690635d3b1d309060a4016020604051808303816000875af11580156113cb573d6000803e3d6000fd5b505050506040513d601f19601f820116820180604052508101906113ef9190613364565b6012805460018101825560009182527fbb8a6a4669ba250d26cd7a459eca9d215f8307e33aebe50379bc5a3617ec3444018290556013829055600680549293509061143983613393565b909155505060088054908190600061145083613393565b90915550506000818152601060209081526040808320859055848352600e8252808320849055805160c081018252600180825281840185815282840186815260608401878152336080860181815260a087018b81528c8b52600d8a5299889020965187549551945161ffff1990961690151561ff00191617610100941515949094029390931762ff000019166201000094151594909402939093178555519284019290925590516002830180546001600160a01b0319166001600160a01b03909216919091179055935160039091015580518581529182019290925282917f4c8e7e53ca2ad454440c843da13db1c47b84828c360c951700ab867f9d2cd125910160405180910390a25090565b6017546001600160a01b031633146115875760405162461bcd60e51b8152600401610e09906133ac565b60008181526011602052604081206001018054916115a483613393565b919050555050565b6000818152600260205260408120546001600160a01b031680610cd65760405162461bcd60e51b8152602060048201526018602482015277115490cdcc8c4e881a5b9d985b1a59081d1bdad95b88125160421b6044820152606401610e09565b611614612b26565b60008281526014602052604080822081516101008101928390529290916008918390855b82829054906101000a900460010b60010b815260200190600201906020826001010492830192600103820291508084116116385790505b50505050509050919050565b60006001600160a01b0382166116e55760405162461bcd60e51b815260206004820152602960248201527f4552433732313a2061646472657373207a65726f206973206e6f7420612076616044820152683634b21037bbb732b960b91b6064820152608401610e09565b506001600160a01b031660009081526003602052604090205490565b61172560405180606001604052806000815260200160008152602001600081525090565b50600090815260116020908152604091829020825160608101845281548152600182015492810192909252600201549181019190915290565b6012818154811061176e57600080fd5b600091825260209091200154905081565b6000808080808061179188600a6134d8565b9050806117a188620186a06134d8565b6117ac8a60016134d8565b6117b691906134e4565b6117c0908b613511565b6117ca9190613525565b9550806117da88620186a06134d8565b6117e58a600a6134d8565b6117ef91906134e4565b6117f9908b613511565b6118039190613525565b94508061181388620186a06134d8565b61181e8a60646134d8565b61182891906134e4565b611832908b613511565b61183c9190613525565b93508061184c88620186a06134d8565b6118588a6103e86134d8565b61186291906134e4565b61186c908b613511565b6118769190613525565b92508061188688620186a06134d8565b6118928a6127106134d8565b61189c91906134e4565b6118a6908b613511565b6118b09190613525565b915050939792965093509350565b606060018054610ceb90613299565b6017546001600160a01b031633146118f75760405162461bcd60e51b8152600401610e09906133ac565b60008181526011602052604081208054916115a483613393565b610f7f338383612175565b6007546001600160a01b031633146119465760405162461bcd60e51b8152600401610e09906132d3565b600c805461ffff191661ffff92909216919091179055565b81611968816115ac565b6001600160a01b0316336001600160a01b0316146119d45760405162461bcd60e51b8152602060048201526024808201527f4f6e6c7920746865206f776e6572206f6620746869732077616d6f2063616e2060448201526318d85b1b60e21b6064820152608401610e09565b60008381526016602052604090206119ec8382613587565b50505050565b6119fc3383611f85565b611a185760405162461bcd60e51b8152600401610e0990613301565b6119ec84848484612243565b6060611a2f82611dda565b6000611a4660408051602081019091526000815290565b90506000815111611a665760405180602001604052806000815250611a91565b80611a7084612276565b604051602001611a81929190613647565b6040516020818303038152906040525b9392505050565b6000818152601660205260409020805460609190611ab590613299565b80601f0160208091040260200160405190810160405280929190818152602001828054611ae190613299565b801561166f5780601f10611b035761010080835404028352916020019161166f565b820191906000526020600020905b815481529060010190602001808311611b115750939695505050505050565b806008541015611b915760405162461bcd60e51b815260206004820152602660248201527f5468697320746f6b656e20696420686173206e6f74206265656e206d696e746560448201526564207965742160d01b6064820152608401610e09565b600081815260106020908152604080832054808452600d9092529091205462010000900460ff1615611bd9576040516325a7cc2360e11b815260048101839052602401610e09565b6000818152600d6020526040902054610100900460ff16611c105760405163069cc43160e11b815260048101829052602401610e09565b6000818152600d6020526040902060010154611c2c8382612309565b611c36838261251e565b6000828152600d6020908152604091829020805462ff00001916620100001781556002015482518581526001600160a01b03909116918101829052909185917f50f9d0bd46ddaf12b910d3d12174767c14cdb4ea06aec062042525ad68fcf3b3910160405180910390a250505050565b611cae612b45565b6000828152601460205260409081902081516102c08101909252816101c081018260088282826020028201916000905b82829054906101000a900460010b60010b81526020019060020190602082600101049283019260010382029150808411611cde5750505092845250505060018201546020820152600282015460408201526003820154606082015260048201546080820152600582015460a0820152600682015460c0820152600782015460e082015260088201546101008201526009820154610120820152600a820154610140820152600b820154610160820152600c820154610180820152600d909101546101a09091015292915050565b6007546001600160a01b03163314611dd55760405162461bcd60e51b8152600401610e09906132d3565b600955565b6000818152600260205260409020546001600160a01b03166110175760405162461bcd60e51b8152602060048201526018602482015277115490cdcc8c4e881a5b9d985b1a59081d1bdad95b88125160421b6044820152606401610e09565b600081815260046020526040902080546001600160a01b0319166001600160a01b0384169081179091558190611e6e826115ac565b6001600160a01b03167f8c5be1e5ebec7d5bd14f71427d1e84f3dd0314c0f7b2291e5b200ac8c7c3b92560405160405180910390a45050565b6000828152600d602052604090205460ff16611ed9576040516341b6fe0560e01b815260048101839052602401610e09565b6000828152600d60205260408120805461ff0019166101001790558151829190611f0557611f0561334e565b6020908102919091018101516000848152600d9092526040909120600181019190915560038101546002909101546001600160a01b0316611f4681836126df565b60408051858152602081018490527f546aca7b2683440b8f02fa95faeb8efc79dd0f16af3d815a002742ea6f76116c910160405180910390a150505050565b600080611f91836115ac565b9050806001600160a01b0316846001600160a01b03161480611fd857506001600160a01b0380821660009081526005602090815260408083209388168352929052205460ff165b80611ffc5750836001600160a01b0316611ff184610d6e565b6001600160a01b0316145b949350505050565b826001600160a01b0316612017826115ac565b6001600160a01b03161461203d5760405162461bcd60e51b8152600401610e0990613676565b6001600160a01b03821661209f5760405162461bcd60e51b8152602060048201526024808201527f4552433732313a207472616e7366657220746f20746865207a65726f206164646044820152637265737360e01b6064820152608401610e09565b6120ac83838360016126f9565b826001600160a01b03166120bf826115ac565b6001600160a01b0316146120e55760405162461bcd60e51b8152600401610e0990613676565b600081815260046020908152604080832080546001600160a01b03199081169091556001600160a01b0387811680865260038552838620805460001901905590871680865283862080546001019055868652600290945282852080549092168417909155905184937fddf252ad1be2c89b69c2b068fc378daa952ba7f163c4a11628f55a4df523b3ef91a4505050565b816001600160a01b0316836001600160a01b0316036121d65760405162461bcd60e51b815260206004820152601960248201527f4552433732313a20617070726f766520746f2063616c6c6572000000000000006044820152606401610e09565b6001600160a01b03838116600081815260056020908152604080832094871680845294825291829020805460ff191686151590811790915591519182527f17307eab39ab6107e8899845ad3d59bd9653f200f220920489ca2b5937696c31910160405180910390a3505050565b61224e848484612004565b61225a84848484612781565b6119ec5760405162461bcd60e51b8152600401610e09906136bb565b6060600061228383612882565b600101905060008167ffffffffffffffff8111156122a3576122a3612d78565b6040519080825280601f01601f1916602001820160405280156122cd576020820181803683370190505b5090508181016020015b600019016f181899199a1a9b1b9c1cb0b131b232b360811b600a86061a8153600a85049450846122d757509392505050565b612311612b45565b6000806000806000612326876002600061177f565b60408b019490945260608a0192909252608089015260e0880152610100870152506000935083925082915081905080612362876002600161177f565b6101408b01949094526101608a019290925261012089015260a088015260c087015250600093508392508291508190508061239f8760028061177f565b94509450945094509450600060308660000b6123bb919061370d565b905060006123cc603087830b61370d565b60408051610100810182526000198152600160208201819052601092820192909252600f1960608201529084900b608082015290915060a0810161240f8461372f565b600190810b825283900b602082015260400161242a8361372f565b60010b9052885261243c601786613525565b61018089015261244d600885613525565b6020890152506124689550600b945087935061352592505050565b6101a08201526000838152601460205260409020815182919061248e9082906008612bba565b506020820151600182015560408201516002820155606082015160038201556080820151600482015560a0820151600582015560c0820151600682015560e0820151600782015561010082015160088201556101208201516009820155610140820151600a820155610160820151600b820155610180820151600c8201556101a090910151600d90910155505050565b60005b6004811015610eaa576125676040805160c081019091526000808252602082019081526020016000815260200160008152602001600060010b8152602001600081525090565b6000612574836002613750565b9050600080600080600061258a8960028861177f565b9450945094509450945060228510156125b05760006020880152600160808801526125f6565b60438510156125db57600160208801819052506125ce826001613763565b60010b60808801526125f6565b600260208801526125ed826001613763565b60010b60808801525b612601846001613750565b6040880152612611836001613750565b6060880152612621602182613525565b61262c906001613750565b60a088015260008a81526015602090815260408220805460018181018355918452928290208a516006909402019283559089015182820180548b949360ff199091169083600281111561268157612681612ecf565b02179055506040820151600282015560608201516003820155608082015160048201805461ffff191661ffff90921691909117905560a090910151600590910155508695506126d7945085935061339392505050565b915050612521565b610f7f82826040518060200160405280600081525061295a565b60018111156119ec576001600160a01b0384161561273f576001600160a01b03841660009081526003602052604081208054839290612739908490613786565b90915550505b6001600160a01b038316156119ec576001600160a01b03831660009081526003602052604081208054839290612776908490613750565b909155505050505050565b60006001600160a01b0384163b1561287757604051630a85bd0160e11b81526001600160a01b0385169063150b7a02906127c5903390899088908890600401613799565b6020604051808303816000875af1925050508015612800575060408051601f3d908101601f191682019092526127fd918101906137d6565b60015b61285d573d80801561282e576040519150601f19603f3d011682016040523d82523d6000602084013e612833565b606091505b5080516000036128555760405162461bcd60e51b8152600401610e09906136bb565b805181602001fd5b6001600160e01b031916630a85bd0160e11b149050611ffc565b506001949350505050565b60008072184f03e93ff9f4daa797ed6e38ed64bf6a1f0160401b83106128c15772184f03e93ff9f4daa797ed6e38ed64bf6a1f0160401b830492506040015b6d04ee2d6d415b85acef810000000083106128ed576d04ee2d6d415b85acef8100000000830492506020015b662386f26fc10000831061290b57662386f26fc10000830492506010015b6305f5e1008310612923576305f5e100830492506008015b612710831061293757612710830492506004015b60648310612949576064830492506002015b600a8310610cd65760010192915050565b612964838361298d565b6129716000848484612781565b610eaa5760405162461bcd60e51b8152600401610e09906136bb565b6001600160a01b0382166129e35760405162461bcd60e51b815260206004820181905260248201527f4552433732313a206d696e7420746f20746865207a65726f20616464726573736044820152606401610e09565b6000818152600260205260409020546001600160a01b031615612a485760405162461bcd60e51b815260206004820152601c60248201527f4552433732313a20746f6b656e20616c7265616479206d696e746564000000006044820152606401610e09565b612a566000838360016126f9565b6000818152600260205260409020546001600160a01b031615612abb5760405162461bcd60e51b815260206004820152601c60248201527f4552433732313a20746f6b656e20616c7265616479206d696e746564000000006044820152606401610e09565b6001600160a01b038216600081815260036020908152604080832080546001019055848352600290915280822080546001600160a01b0319168417905551839291907fddf252ad1be2c89b69c2b068fc378daa952ba7f163c4a11628f55a4df523b3ef908290a45050565b6040518061010001604052806008906020820280368337509192915050565b604051806101c00160405280612b59612b26565b8152602001600081526020016000815260200160008152602001600081526020016000815260200160008152602001600081526020016000815260200160008152602001600081526020016000815260200160008152602001600081525090565b600183019183908215612c435791602002820160005b83821115612c1357835183826101000a81548161ffff021916908360010b61ffff1602179055509260200192600201602081600101049283019260010302612bd0565b8015612c415782816101000a81549061ffff0219169055600201602081600101049283019260010302612c13565b505b50612c4f929150612c53565b5090565b5b80821115612c4f5760008155600101612c54565b600060208284031215612c7a57600080fd5b5035919050565b6001600160e01b03198116811461101757600080fd5b600060208284031215612ca957600080fd5b8135611a9181612c81565b60005b83811015612ccf578181015183820152602001612cb7565b50506000910152565b60008151808452612cf0816020860160208601612cb4565b601f01601f19169290920160200192915050565b602081526000611a916020830184612cd8565b80356001600160a01b0381168114612d2e57600080fd5b919050565b60008060408385031215612d4657600080fd5b612d4f83612d17565b946020939093013593505050565b600060208284031215612d6f57600080fd5b611a9182612d17565b634e487b7160e01b600052604160045260246000fd5b604051601f8201601f1916810167ffffffffffffffff81118282101715612db757612db7612d78565b604052919050565b60008060408385031215612dd257600080fd5b8235915060208084013567ffffffffffffffff80821115612df257600080fd5b818601915086601f830112612e0657600080fd5b813581811115612e1857612e18612d78565b8060051b9150612e29848301612d8e565b8181529183018401918481019089841115612e4357600080fd5b938501935b83851015612e6157843582529385019390850190612e48565b8096505050505050509250929050565b600080600060608486031215612e8657600080fd5b612e8f84612d17565b9250612e9d60208501612d17565b9150604084013590509250925092565b60008060408385031215612ec057600080fd5b50508035926020909101359150565b634e487b7160e01b600052602160045260246000fd5b80518252602081015160038110612f0c57634e487b7160e01b600052602160045260246000fd5b6020830152604081810151908301526060808201519083015260808082015160010b9083015260a090810151910152565b60c08101610cd68284612ee5565b600060208284031215612f5d57600080fd5b813563ffffffff81168114611a9157600080fd5b6020808252825182820181905260009190848201906040850190845b81811015612fb357612fa0838551612ee5565b9284019260c09290920191600101612f8d565b50909695505050505050565b8060005b60088110156119ec578151600190810b85526020948501949092019101612fc3565b6101008101610cd68284612fbf565b60008060006060848603121561300957600080fd5b505081359360208301359350604090920135919050565b6000806040838503121561303357600080fd5b61303c83612d17565b91506020830135801515811461305157600080fd5b809150509250929050565b60006020828403121561306e57600080fd5b813561ffff81168114611a9157600080fd5b600067ffffffffffffffff83111561309a5761309a612d78565b6130ad601f8401601f1916602001612d8e565b90508281528383830111156130c157600080fd5b828260208301376000602084830101529392505050565b600080604083850312156130eb57600080fd5b82359150602083013567ffffffffffffffff81111561310957600080fd5b8301601f8101851361311a57600080fd5b61312985823560208401613080565b9150509250929050565b6000806000806080858703121561314957600080fd5b61315285612d17565b935061316060208601612d17565b925060408501359150606085013567ffffffffffffffff81111561318357600080fd5b8501601f8101871361319457600080fd5b6131a387823560208401613080565b91505092959194509250565b600080604083850312156131c257600080fd5b6131cb83612d17565b91506131d960208401612d17565b90509250929050565b60006102a0820190506131f6828451612fbf565b60208301516101008381019190915260408401516101208085019190915260608501516101408086019190915260808601516101608087019190915260a08701516101808088019190915260c08801516101a08089019190915260e08901516101c0890152948801516101e08801529287015161020087015290860151610220860152850151610240850152840151610260840152909201516102809091015290565b600181811c908216806132ad57607f821691505b6020821081036132cd57634e487b7160e01b600052602260045260246000fd5b50919050565b60208082526014908201527327b7363c9037bbb732b91031b0b71031b0b6361760611b604082015260600190565b6020808252602d908201527f4552433732313a2063616c6c6572206973206e6f7420746f6b656e206f776e6560408201526c1c881bdc88185c1c1c9bdd9959609a1b606082015260800190565b634e487b7160e01b600052603260045260246000fd5b60006020828403121561337657600080fd5b5051919050565b634e487b7160e01b600052601160045260246000fd5b6000600182016133a5576133a561337d565b5060010190565b60208082526028908201527f4f6e6c792057616d6f73426174746c652063616e2063616c6c207468697320666040820152673ab731ba34b7b71760c11b606082015260800190565b600181815b8085111561342f5781600019048211156134155761341561337d565b8085161561342257918102915b93841c93908002906133f9565b509250929050565b60008261344657506001610cd6565b8161345357506000610cd6565b816001811461346957600281146134735761348f565b6001915050610cd6565b60ff8411156134845761348461337d565b50506001821b610cd6565b5060208310610133831016604e8410600b84101617156134b2575081810a610cd6565b6134bc83836133f4565b80600019048211156134d0576134d061337d565b029392505050565b6000611a918383613437565b8082028115828204841417610cd657610cd661337d565b634e487b7160e01b600052601260045260246000fd5b600082613520576135206134fb565b500490565b600082613534576135346134fb565b500690565b601f821115610eaa57600081815260208120601f850160051c810160208610156135605750805b601f850160051c820191505b8181101561357f5782815560010161356c565b505050505050565b815167ffffffffffffffff8111156135a1576135a1612d78565b6135b5816135af8454613299565b84613539565b602080601f8311600181146135ea57600084156135d25750858301515b600019600386901b1c1916600185901b17855561357f565b600085815260208120601f198616915b82811015613619578886015182559484019460019091019084016135fa565b50858210156136375787850151600019600388901b60f8161c191681555b5050505050600190811b01905550565b60008351613659818460208801612cb4565b83519083019061366d818360208801612cb4565b01949350505050565b60208082526025908201527f4552433732313a207472616e736665722066726f6d20696e636f72726563742060408201526437bbb732b960d91b606082015260800190565b60208082526032908201527f4552433732313a207472616e7366657220746f206e6f6e20455243373231526560408201527131b2b4bb32b91034b6b83632b6b2b73a32b960711b606082015260800190565b60008260010b80613720576137206134fb565b808360010b0791505092915050565b60008160010b617fff1981036137475761374761337d565b60000392915050565b80820180821115610cd657610cd661337d565b600181810b9083900b01617fff8113617fff1982121715610cd657610cd661337d565b81810381811115610cd657610cd661337d565b6001600160a01b03858116825284166020820152604081018390526080606082018190526000906137cc90830184612cd8565b9695505050505050565b6000602082840312156137e857600080fd5b8151611a9181612c8156fea264697066735822122017ecd96d7371a111d62239efe97519b1b1ef4539f2a1a03f7604a11c22be3cb864736f6c63430008110033",
  "linkReferences": {},
  "deployedLinkReferences": {}
}