{
  "abi": [
    {
      "inputs": [
        {
          "internalType": "address",
          "name": "link",
          "type": "address"
        },
        {
          "internalType": "address",
          "name": "blockhashStore",
          "type": "address"
        },
        {
          "internalType": "address",
          "name": "linkEthFeed",
          "type": "address"
        }
      ],
      "stateMutability": "nonpayable",
      "type": "constructor"
    },
    {
      "inputs": [
        {
          "internalType": "uint256",
          "name": "internalBalance",
          "type": "uint256"
        },
        {
          "internalType": "uint256",
          "name": "externalBalance",
          "type": "uint256"
        }
      ],
      "name": "BalanceInvariantViolated",
      "type": "error"
    },
    {
      "inputs": [
        {
          "internalType": "uint256",
          "name": "blockNum",
          "type": "uint256"
        }
      ],
      "name": "BlockhashNotInStore",
      "type": "error"
    },
    {
      "inputs": [
        {
          "internalType": "uint32",
          "name": "have",
          "type": "uint32"
        },
        {
          "internalType": "uint32",
          "name": "want",
          "type": "uint32"
        }
      ],
      "name": "GasLimitTooBig",
      "type": "error"
    },
    {
      "inputs": [],
      "name": "IncorrectCommitment",
      "type": "error"
    },
    {
      "inputs": [],
      "name": "InsufficientBalance",
      "type": "error"
    },
    {
      "inputs": [
        {
          "internalType": "uint256",
          "name": "have",
          "type": "uint256"
        },
        {
          "internalType": "uint256",
          "name": "want",
          "type": "uint256"
        }
      ],
      "name": "InsufficientGasForConsumer",
      "type": "error"
    },
    {
      "inputs": [],
      "name": "InvalidCalldata",
      "type": "error"
    },
    {
      "inputs": [
        {
          "internalType": "uint64",
          "name": "subId",
          "type": "uint64"
        },
        {
          "internalType": "address",
          "name": "consumer",
          "type": "address"
        }
      ],
      "name": "InvalidConsumer",
      "type": "error"
    },
    {
      "inputs": [
        {
          "internalType": "int256",
          "name": "linkWei",
          "type": "int256"
        }
      ],
      "name": "InvalidLinkWeiPrice",
      "type": "error"
    },
    {
      "inputs": [
        {
          "internalType": "uint16",
          "name": "have",
          "type": "uint16"
        },
        {
          "internalType": "uint16",
          "name": "min",
          "type": "uint16"
        },
        {
          "internalType": "uint16",
          "name": "max",
          "type": "uint16"
        }
      ],
      "name": "InvalidRequestConfirmations",
      "type": "error"
    },
    {
      "inputs": [],
      "name": "InvalidSubscription",
      "type": "error"
    },
    {
      "inputs": [
        {
          "internalType": "address",
          "name": "proposedOwner",
          "type": "address"
        }
      ],
      "name": "MustBeRequestedOwner",
      "type": "error"
    },
    {
      "inputs": [
        {
          "internalType": "address",
          "name": "owner",
          "type": "address"
        }
      ],
      "name": "MustBeSubOwner",
      "type": "error"
    },
    {
      "inputs": [],
      "name": "NoCorrespondingRequest",
      "type": "error"
    },
    {
      "inputs": [
        {
          "internalType": "bytes32",
          "name": "keyHash",
          "type": "bytes32"
        }
      ],
      "name": "NoSuchProvingKey",
      "type": "error"
    },
    {
      "inputs": [
        {
          "internalType": "uint32",
          "name": "have",
          "type": "uint32"
        },
        {
          "internalType": "uint32",
          "name": "want",
          "type": "uint32"
        }
      ],
      "name": "NumWordsTooBig",
      "type": "error"
    },
    {
      "inputs": [],
      "name": "OnlyCallableFromLink",
      "type": "error"
    },
    {
      "inputs": [],
      "name": "PaymentTooLarge",
      "type": "error"
    },
    {
      "inputs": [],
      "name": "PendingRequestExists",
      "type": "error"
    },
    {
      "inputs": [
        {
          "internalType": "bytes32",
          "name": "keyHash",
          "type": "bytes32"
        }
      ],
      "name": "ProvingKeyAlreadyRegistered",
      "type": "error"
    },
    {
      "inputs": [],
      "name": "Reentrant",
      "type": "error"
    },
    {
      "inputs": [],
      "name": "TooManyConsumers",
      "type": "error"
    },
    {
      "anonymous": false,
      "inputs": [
        {
          "indexed": false,
          "internalType": "uint16",
          "name": "minimumRequestConfirmations",
          "type": "uint16"
        },
        {
          "indexed": false,
          "internalType": "uint32",
          "name": "maxGasLimit",
          "type": "uint32"
        },
        {
          "indexed": false,
          "internalType": "uint32",
          "name": "stalenessSeconds",
          "type": "uint32"
        },
        {
          "indexed": false,
          "internalType": "uint32",
          "name": "gasAfterPaymentCalculation",
          "type": "uint32"
        },
        {
          "indexed": false,
          "internalType": "int256",
          "name": "fallbackWeiPerUnitLink",
          "type": "int256"
        },
        {
          "components": [
            {
              "internalType": "uint32",
              "name": "fulfillmentFlatFeeLinkPPMTier1",
              "type": "uint32"
            },
            {
              "internalType": "uint32",
              "name": "fulfillmentFlatFeeLinkPPMTier2",
              "type": "uint32"
            },
            {
              "internalType": "uint32",
              "name": "fulfillmentFlatFeeLinkPPMTier3",
              "type": "uint32"
            },
            {
              "internalType": "uint32",
              "name": "fulfillmentFlatFeeLinkPPMTier4",
              "type": "uint32"
            },
            {
              "internalType": "uint32",
              "name": "fulfillmentFlatFeeLinkPPMTier5",
              "type": "uint32"
            },
            {
              "internalType": "uint24",
              "name": "reqsForTier2",
              "type": "uint24"
            },
            {
              "internalType": "uint24",
              "name": "reqsForTier3",
              "type": "uint24"
            },
            {
              "internalType": "uint24",
              "name": "reqsForTier4",
              "type": "uint24"
            },
            {
              "internalType": "uint24",
              "name": "reqsForTier5",
              "type": "uint24"
            }
          ],
          "indexed": false,
          "internalType": "struct VRFCoordinatorV2.FeeConfig",
          "name": "feeConfig",
          "type": "tuple"
        }
      ],
      "name": "ConfigSet",
      "type": "event"
    },
    {
      "anonymous": false,
      "inputs": [
        {
          "indexed": false,
          "internalType": "address",
          "name": "to",
          "type": "address"
        },
        {
          "indexed": false,
          "internalType": "uint256",
          "name": "amount",
          "type": "uint256"
        }
      ],
      "name": "FundsRecovered",
      "type": "event"
    },
    {
      "anonymous": false,
      "inputs": [
        {
          "indexed": true,
          "internalType": "address",
          "name": "from",
          "type": "address"
        },
        {
          "indexed": true,
          "internalType": "address",
          "name": "to",
          "type": "address"
        }
      ],
      "name": "OwnershipTransferRequested",
      "type": "event"
    },
    {
      "anonymous": false,
      "inputs": [
        {
          "indexed": true,
          "internalType": "address",
          "name": "from",
          "type": "address"
        },
        {
          "indexed": true,
          "internalType": "address",
          "name": "to",
          "type": "address"
        }
      ],
      "name": "OwnershipTransferred",
      "type": "event"
    },
    {
      "anonymous": false,
      "inputs": [
        {
          "indexed": false,
          "internalType": "bytes32",
          "name": "keyHash",
          "type": "bytes32"
        },
        {
          "indexed": true,
          "internalType": "address",
          "name": "oracle",
          "type": "address"
        }
      ],
      "name": "ProvingKeyDeregistered",
      "type": "event"
    },
    {
      "anonymous": false,
      "inputs": [
        {
          "indexed": false,
          "internalType": "bytes32",
          "name": "keyHash",
          "type": "bytes32"
        },
        {
          "indexed": true,
          "internalType": "address",
          "name": "oracle",
          "type": "address"
        }
      ],
      "name": "ProvingKeyRegistered",
      "type": "event"
    },
    {
      "anonymous": false,
      "inputs": [
        {
          "indexed": true,
          "internalType": "uint256",
          "name": "requestId",
          "type": "uint256"
        },
        {
          "indexed": false,
          "internalType": "uint256",
          "name": "outputSeed",
          "type": "uint256"
        },
        {
          "indexed": false,
          "internalType": "uint96",
          "name": "payment",
          "type": "uint96"
        },
        {
          "indexed": false,
          "internalType": "bool",
          "name": "success",
          "type": "bool"
        }
      ],
      "name": "RandomWordsFulfilled",
      "type": "event"
    },
    {
      "anonymous": false,
      "inputs": [
        {
          "indexed": true,
          "internalType": "bytes32",
          "name": "keyHash",
          "type": "bytes32"
        },
        {
          "indexed": false,
          "internalType": "uint256",
          "name": "requestId",
          "type": "uint256"
        },
        {
          "indexed": false,
          "internalType": "uint256",
          "name": "preSeed",
          "type": "uint256"
        },
        {
          "indexed": true,
          "internalType": "uint64",
          "name": "subId",
          "type": "uint64"
        },
        {
          "indexed": false,
          "internalType": "uint16",
          "name": "minimumRequestConfirmations",
          "type": "uint16"
        },
        {
          "indexed": false,
          "internalType": "uint32",
          "name": "callbackGasLimit",
          "type": "uint32"
        },
        {
          "indexed": false,
          "internalType": "uint32",
          "name": "numWords",
          "type": "uint32"
        },
        {
          "indexed": true,
          "internalType": "address",
          "name": "sender",
          "type": "address"
        }
      ],
      "name": "RandomWordsRequested",
      "type": "event"
    },
    {
      "anonymous": false,
      "inputs": [
        {
          "indexed": true,
          "internalType": "uint64",
          "name": "subId",
          "type": "uint64"
        },
        {
          "indexed": false,
          "internalType": "address",
          "name": "to",
          "type": "address"
        },
        {
          "indexed": false,
          "internalType": "uint256",
          "name": "amount",
          "type": "uint256"
        }
      ],
      "name": "SubscriptionCanceled",
      "type": "event"
    },
    {
      "anonymous": false,
      "inputs": [
        {
          "indexed": true,
          "internalType": "uint64",
          "name": "subId",
          "type": "uint64"
        },
        {
          "indexed": false,
          "internalType": "address",
          "name": "consumer",
          "type": "address"
        }
      ],
      "name": "SubscriptionConsumerAdded",
      "type": "event"
    },
    {
      "anonymous": false,
      "inputs": [
        {
          "indexed": true,
          "internalType": "uint64",
          "name": "subId",
          "type": "uint64"
        },
        {
          "indexed": false,
          "internalType": "address",
          "name": "consumer",
          "type": "address"
        }
      ],
      "name": "SubscriptionConsumerRemoved",
      "type": "event"
    },
    {
      "anonymous": false,
      "inputs": [
        {
          "indexed": true,
          "internalType": "uint64",
          "name": "subId",
          "type": "uint64"
        },
        {
          "indexed": false,
          "internalType": "address",
          "name": "owner",
          "type": "address"
        }
      ],
      "name": "SubscriptionCreated",
      "type": "event"
    },
    {
      "anonymous": false,
      "inputs": [
        {
          "indexed": true,
          "internalType": "uint64",
          "name": "subId",
          "type": "uint64"
        },
        {
          "indexed": false,
          "internalType": "uint256",
          "name": "oldBalance",
          "type": "uint256"
        },
        {
          "indexed": false,
          "internalType": "uint256",
          "name": "newBalance",
          "type": "uint256"
        }
      ],
      "name": "SubscriptionFunded",
      "type": "event"
    },
    {
      "anonymous": false,
      "inputs": [
        {
          "indexed": true,
          "internalType": "uint64",
          "name": "subId",
          "type": "uint64"
        },
        {
          "indexed": false,
          "internalType": "address",
          "name": "from",
          "type": "address"
        },
        {
          "indexed": false,
          "internalType": "address",
          "name": "to",
          "type": "address"
        }
      ],
      "name": "SubscriptionOwnerTransferRequested",
      "type": "event"
    },
    {
      "anonymous": false,
      "inputs": [
        {
          "indexed": true,
          "internalType": "uint64",
          "name": "subId",
          "type": "uint64"
        },
        {
          "indexed": false,
          "internalType": "address",
          "name": "from",
          "type": "address"
        },
        {
          "indexed": false,
          "internalType": "address",
          "name": "to",
          "type": "address"
        }
      ],
      "name": "SubscriptionOwnerTransferred",
      "type": "event"
    },
    {
      "inputs": [],
      "name": "BLOCKHASH_STORE",
      "outputs": [
        {
          "internalType": "contract BlockhashStoreInterface",
          "name": "",
          "type": "address"
        }
      ],
      "stateMutability": "view",
      "type": "function"
    },
    {
      "inputs": [],
      "name": "LINK",
      "outputs": [
        {
          "internalType": "contract LinkTokenInterface",
          "name": "",
          "type": "address"
        }
      ],
      "stateMutability": "view",
      "type": "function"
    },
    {
      "inputs": [],
      "name": "LINK_ETH_FEED",
      "outputs": [
        {
          "internalType": "contract AggregatorV3Interface",
          "name": "",
          "type": "address"
        }
      ],
      "stateMutability": "view",
      "type": "function"
    },
    {
      "inputs": [],
      "name": "MAX_CONSUMERS",
      "outputs": [
        {
          "internalType": "uint16",
          "name": "",
          "type": "uint16"
        }
      ],
      "stateMutability": "view",
      "type": "function"
    },
    {
      "inputs": [],
      "name": "MAX_NUM_WORDS",
      "outputs": [
        {
          "internalType": "uint32",
          "name": "",
          "type": "uint32"
        }
      ],
      "stateMutability": "view",
      "type": "function"
    },
    {
      "inputs": [],
      "name": "MAX_REQUEST_CONFIRMATIONS",
      "outputs": [
        {
          "internalType": "uint16",
          "name": "",
          "type": "uint16"
        }
      ],
      "stateMutability": "view",
      "type": "function"
    },
    {
      "inputs": [],
      "name": "acceptOwnership",
      "outputs": [],
      "stateMutability": "nonpayable",
      "type": "function"
    },
    {
      "inputs": [
        {
          "internalType": "uint64",
          "name": "subId",
          "type": "uint64"
        }
      ],
      "name": "acceptSubscriptionOwnerTransfer",
      "outputs": [],
      "stateMutability": "nonpayable",
      "type": "function"
    },
    {
      "inputs": [
        {
          "internalType": "uint64",
          "name": "subId",
          "type": "uint64"
        },
        {
          "internalType": "address",
          "name": "consumer",
          "type": "address"
        }
      ],
      "name": "addConsumer",
      "outputs": [],
      "stateMutability": "nonpayable",
      "type": "function"
    },
    {
      "inputs": [
        {
          "internalType": "uint64",
          "name": "subId",
          "type": "uint64"
        },
        {
          "internalType": "address",
          "name": "to",
          "type": "address"
        }
      ],
      "name": "cancelSubscription",
      "outputs": [],
      "stateMutability": "nonpayable",
      "type": "function"
    },
    {
      "inputs": [],
      "name": "createSubscription",
      "outputs": [
        {
          "internalType": "uint64",
          "name": "",
          "type": "uint64"
        }
      ],
      "stateMutability": "nonpayable",
      "type": "function"
    },
    {
      "inputs": [
        {
          "internalType": "uint256[2]",
          "name": "publicProvingKey",
          "type": "uint256[2]"
        }
      ],
      "name": "deregisterProvingKey",
      "outputs": [],
      "stateMutability": "nonpayable",
      "type": "function"
    },
    {
      "inputs": [
        {
          "components": [
            {
              "internalType": "uint256[2]",
              "name": "pk",
              "type": "uint256[2]"
            },
            {
              "internalType": "uint256[2]",
              "name": "gamma",
              "type": "uint256[2]"
            },
            {
              "internalType": "uint256",
              "name": "c",
              "type": "uint256"
            },
            {
              "internalType": "uint256",
              "name": "s",
              "type": "uint256"
            },
            {
              "internalType": "uint256",
              "name": "seed",
              "type": "uint256"
            },
            {
              "internalType": "address",
              "name": "uWitness",
              "type": "address"
            },
            {
              "internalType": "uint256[2]",
              "name": "cGammaWitness",
              "type": "uint256[2]"
            },
            {
              "internalType": "uint256[2]",
              "name": "sHashWitness",
              "type": "uint256[2]"
            },
            {
              "internalType": "uint256",
              "name": "zInv",
              "type": "uint256"
            }
          ],
          "internalType": "struct VRF.Proof",
          "name": "proof",
          "type": "tuple"
        },
        {
          "components": [
            {
              "internalType": "uint64",
              "name": "blockNum",
              "type": "uint64"
            },
            {
              "internalType": "uint64",
              "name": "subId",
              "type": "uint64"
            },
            {
              "internalType": "uint32",
              "name": "callbackGasLimit",
              "type": "uint32"
            },
            {
              "internalType": "uint32",
              "name": "numWords",
              "type": "uint32"
            },
            {
              "internalType": "address",
              "name": "sender",
              "type": "address"
            }
          ],
          "internalType": "struct VRFCoordinatorV2.RequestCommitment",
          "name": "rc",
          "type": "tuple"
        }
      ],
      "name": "fulfillRandomWords",
      "outputs": [
        {
          "internalType": "uint96",
          "name": "",
          "type": "uint96"
        }
      ],
      "stateMutability": "nonpayable",
      "type": "function"
    },
    {
      "inputs": [
        {
          "internalType": "uint256",
          "name": "requestId",
          "type": "uint256"
        }
      ],
      "name": "getCommitment",
      "outputs": [
        {
          "internalType": "bytes32",
          "name": "",
          "type": "bytes32"
        }
      ],
      "stateMutability": "view",
      "type": "function"
    },
    {
      "inputs": [],
      "name": "getConfig",
      "outputs": [
        {
          "internalType": "uint16",
          "name": "minimumRequestConfirmations",
          "type": "uint16"
        },
        {
          "internalType": "uint32",
          "name": "maxGasLimit",
          "type": "uint32"
        },
        {
          "internalType": "uint32",
          "name": "stalenessSeconds",
          "type": "uint32"
        },
        {
          "internalType": "uint32",
          "name": "gasAfterPaymentCalculation",
          "type": "uint32"
        }
      ],
      "stateMutability": "view",
      "type": "function"
    },
    {
      "inputs": [],
      "name": "getCurrentSubId",
      "outputs": [
        {
          "internalType": "uint64",
          "name": "",
          "type": "uint64"
        }
      ],
      "stateMutability": "view",
      "type": "function"
    },
    {
      "inputs": [],
      "name": "getFallbackWeiPerUnitLink",
      "outputs": [
        {
          "internalType": "int256",
          "name": "",
          "type": "int256"
        }
      ],
      "stateMutability": "view",
      "type": "function"
    },
    {
      "inputs": [],
      "name": "getFeeConfig",
      "outputs": [
        {
          "internalType": "uint32",
          "name": "fulfillmentFlatFeeLinkPPMTier1",
          "type": "uint32"
        },
        {
          "internalType": "uint32",
          "name": "fulfillmentFlatFeeLinkPPMTier2",
          "type": "uint32"
        },
        {
          "internalType": "uint32",
          "name": "fulfillmentFlatFeeLinkPPMTier3",
          "type": "uint32"
        },
        {
          "internalType": "uint32",
          "name": "fulfillmentFlatFeeLinkPPMTier4",
          "type": "uint32"
        },
        {
          "internalType": "uint32",
          "name": "fulfillmentFlatFeeLinkPPMTier5",
          "type": "uint32"
        },
        {
          "internalType": "uint24",
          "name": "reqsForTier2",
          "type": "uint24"
        },
        {
          "internalType": "uint24",
          "name": "reqsForTier3",
          "type": "uint24"
        },
        {
          "internalType": "uint24",
          "name": "reqsForTier4",
          "type": "uint24"
        },
        {
          "internalType": "uint24",
          "name": "reqsForTier5",
          "type": "uint24"
        }
      ],
      "stateMutability": "view",
      "type": "function"
    },
    {
      "inputs": [
        {
          "internalType": "uint64",
          "name": "reqCount",
          "type": "uint64"
        }
      ],
      "name": "getFeeTier",
      "outputs": [
        {
          "internalType": "uint32",
          "name": "",
          "type": "uint32"
        }
      ],
      "stateMutability": "view",
      "type": "function"
    },
    {
      "inputs": [],
      "name": "getRequestConfig",
      "outputs": [
        {
          "internalType": "uint16",
          "name": "",
          "type": "uint16"
        },
        {
          "internalType": "uint32",
          "name": "",
          "type": "uint32"
        },
        {
          "internalType": "bytes32[]",
          "name": "",
          "type": "bytes32[]"
        }
      ],
      "stateMutability": "view",
      "type": "function"
    },
    {
      "inputs": [
        {
          "internalType": "uint64",
          "name": "subId",
          "type": "uint64"
        }
      ],
      "name": "getSubscription",
      "outputs": [
        {
          "internalType": "uint96",
          "name": "balance",
          "type": "uint96"
        },
        {
          "internalType": "uint64",
          "name": "reqCount",
          "type": "uint64"
        },
        {
          "internalType": "address",
          "name": "owner",
          "type": "address"
        },
        {
          "internalType": "address[]",
          "name": "consumers",
          "type": "address[]"
        }
      ],
      "stateMutability": "view",
      "type": "function"
    },
    {
      "inputs": [],
      "name": "getTotalBalance",
      "outputs": [
        {
          "internalType": "uint256",
          "name": "",
          "type": "uint256"
        }
      ],
      "stateMutability": "view",
      "type": "function"
    },
    {
      "inputs": [
        {
          "internalType": "uint256[2]",
          "name": "publicKey",
          "type": "uint256[2]"
        }
      ],
      "name": "hashOfKey",
      "outputs": [
        {
          "internalType": "bytes32",
          "name": "",
          "type": "bytes32"
        }
      ],
      "stateMutability": "pure",
      "type": "function"
    },
    {
      "inputs": [
        {
          "internalType": "address",
          "name": "",
          "type": "address"
        },
        {
          "internalType": "uint256",
          "name": "amount",
          "type": "uint256"
        },
        {
          "internalType": "bytes",
          "name": "data",
          "type": "bytes"
        }
      ],
      "name": "onTokenTransfer",
      "outputs": [],
      "stateMutability": "nonpayable",
      "type": "function"
    },
    {
      "inputs": [
        {
          "internalType": "address",
          "name": "recipient",
          "type": "address"
        },
        {
          "internalType": "uint96",
          "name": "amount",
          "type": "uint96"
        }
      ],
      "name": "oracleWithdraw",
      "outputs": [],
      "stateMutability": "nonpayable",
      "type": "function"
    },
    {
      "inputs": [],
      "name": "owner",
      "outputs": [
        {
          "internalType": "address",
          "name": "",
          "type": "address"
        }
      ],
      "stateMutability": "view",
      "type": "function"
    },
    {
      "inputs": [
        {
          "internalType": "uint64",
          "name": "subId",
          "type": "uint64"
        }
      ],
      "name": "ownerCancelSubscription",
      "outputs": [],
      "stateMutability": "nonpayable",
      "type": "function"
    },
    {
      "inputs": [
        {
          "internalType": "uint64",
          "name": "subId",
          "type": "uint64"
        }
      ],
      "name": "pendingRequestExists",
      "outputs": [
        {
          "internalType": "bool",
          "name": "",
          "type": "bool"
        }
      ],
      "stateMutability": "view",
      "type": "function"
    },
    {
      "inputs": [
        {
          "internalType": "address",
          "name": "to",
          "type": "address"
        }
      ],
      "name": "recoverFunds",
      "outputs": [],
      "stateMutability": "nonpayable",
      "type": "function"
    },
    {
      "inputs": [
        {
          "internalType": "address",
          "name": "oracle",
          "type": "address"
        },
        {
          "internalType": "uint256[2]",
          "name": "publicProvingKey",
          "type": "uint256[2]"
        }
      ],
      "name": "registerProvingKey",
      "outputs": [],
      "stateMutability": "nonpayable",
      "type": "function"
    },
    {
      "inputs": [
        {
          "internalType": "uint64",
          "name": "subId",
          "type": "uint64"
        },
        {
          "internalType": "address",
          "name": "consumer",
          "type": "address"
        }
      ],
      "name": "removeConsumer",
      "outputs": [],
      "stateMutability": "nonpayable",
      "type": "function"
    },
    {
      "inputs": [
        {
          "internalType": "bytes32",
          "name": "keyHash",
          "type": "bytes32"
        },
        {
          "internalType": "uint64",
          "name": "subId",
          "type": "uint64"
        },
        {
          "internalType": "uint16",
          "name": "requestConfirmations",
          "type": "uint16"
        },
        {
          "internalType": "uint32",
          "name": "callbackGasLimit",
          "type": "uint32"
        },
        {
          "internalType": "uint32",
          "name": "numWords",
          "type": "uint32"
        }
      ],
      "name": "requestRandomWords",
      "outputs": [
        {
          "internalType": "uint256",
          "name": "",
          "type": "uint256"
        }
      ],
      "stateMutability": "nonpayable",
      "type": "function"
    },
    {
      "inputs": [
        {
          "internalType": "uint64",
          "name": "subId",
          "type": "uint64"
        },
        {
          "internalType": "address",
          "name": "newOwner",
          "type": "address"
        }
      ],
      "name": "requestSubscriptionOwnerTransfer",
      "outputs": [],
      "stateMutability": "nonpayable",
      "type": "function"
    },
    {
      "inputs": [
        {
          "internalType": "uint16",
          "name": "minimumRequestConfirmations",
          "type": "uint16"
        },
        {
          "internalType": "uint32",
          "name": "maxGasLimit",
          "type": "uint32"
        },
        {
          "internalType": "uint32",
          "name": "stalenessSeconds",
          "type": "uint32"
        },
        {
          "internalType": "uint32",
          "name": "gasAfterPaymentCalculation",
          "type": "uint32"
        },
        {
          "internalType": "int256",
          "name": "fallbackWeiPerUnitLink",
          "type": "int256"
        },
        {
          "components": [
            {
              "internalType": "uint32",
              "name": "fulfillmentFlatFeeLinkPPMTier1",
              "type": "uint32"
            },
            {
              "internalType": "uint32",
              "name": "fulfillmentFlatFeeLinkPPMTier2",
              "type": "uint32"
            },
            {
              "internalType": "uint32",
              "name": "fulfillmentFlatFeeLinkPPMTier3",
              "type": "uint32"
            },
            {
              "internalType": "uint32",
              "name": "fulfillmentFlatFeeLinkPPMTier4",
              "type": "uint32"
            },
            {
              "internalType": "uint32",
              "name": "fulfillmentFlatFeeLinkPPMTier5",
              "type": "uint32"
            },
            {
              "internalType": "uint24",
              "name": "reqsForTier2",
              "type": "uint24"
            },
            {
              "internalType": "uint24",
              "name": "reqsForTier3",
              "type": "uint24"
            },
            {
              "internalType": "uint24",
              "name": "reqsForTier4",
              "type": "uint24"
            },
            {
              "internalType": "uint24",
              "name": "reqsForTier5",
              "type": "uint24"
            }
          ],
          "internalType": "struct VRFCoordinatorV2.FeeConfig",
          "name": "feeConfig",
          "type": "tuple"
        }
      ],
      "name": "setConfig",
      "outputs": [],
      "stateMutability": "nonpayable",
      "type": "function"
    },
    {
      "inputs": [
        {
          "internalType": "address",
          "name": "to",
          "type": "address"
        }
      ],
      "name": "transferOwnership",
      "outputs": [],
      "stateMutability": "nonpayable",
      "type": "function"
    },
    {
      "inputs": [],
      "name": "typeAndVersion",
      "outputs": [
        {
          "internalType": "string",
          "name": "",
          "type": "string"
        }
      ],
      "stateMutability": "pure",
      "type": "function"
    }
  ],
  "bytecode": {
    "object": "0x60e06040523480156200001157600080fd5b50604051620049bb380380620049bb8339810160408190526200003491620001a6565b33806000816200008b5760405162461bcd60e51b815260206004820152601860248201527f43616e6e6f7420736574206f776e657220746f207a65726f000000000000000060448201526064015b60405180910390fd5b600080546001600160a01b0319166001600160a01b0384811691909117909155811615620000be57620000be81620000de565b5050506001600160a01b03928316608052821660a0521660c052620001f0565b336001600160a01b03821603620001385760405162461bcd60e51b815260206004820152601760248201527f43616e6e6f74207472616e7366657220746f2073656c66000000000000000000604482015260640162000082565b600180546001600160a01b0319166001600160a01b0383811691821790925560008054604051929316917fed8889f560326eb138920d842192f0eb3dd22b4f139c87a2c57538e05bae12789190a350565b80516001600160a01b0381168114620001a157600080fd5b919050565b600080600060608486031215620001bc57600080fd5b620001c78462000189565b9250620001d76020850162000189565b9150620001e76040850162000189565b90509250925092565b60805160a05160c05161476a62000251600039600081816104550152612cdb01526000818161053f015261303601526000818161031a0152818161104601528181611bbe015281816123b5015281816124a601526129b3015261476a6000f3fe608060405234801561001057600080fd5b506004361061021b5760003560e01c80636f64f03f11610125578063ad178361116100ad578063d2f9f9a71161007c578063d2f9f9a7146105e5578063d7ae1d30146105f8578063e72f6e301461060b578063e82ad7d41461061e578063f2fde38b1461064157600080fd5b8063ad1783611461053a578063af198b9714610561578063c3f909d41461058c578063caf70c4a146105d257600080fd5b80638da5cb5b116100f45780638da5cb5b146104d85780639f87fad7146104e9578063a21a23e4146104fc578063a47c769614610504578063a4c0ed361461052757600080fd5b80636f64f03f146104975780637341c10c146104aa57806379ba5097146104bd57806382359740146104c557600080fd5b8063356dac71116101a85780635fbbc0d2116101775780635fbbc0d2146103a057806364d51a2a1461043557806366316d8d1461043d578063689c45171461045057806369bcdb7d1461047757600080fd5b8063356dac711461035457806340d6bb821461035c5780634cb48a541461037a5780635d3b1d301461038d57600080fd5b806308821d58116101ef57806308821d581461028d57806312b58349146102a057806315c48b84146102c2578063181f5a77146102dd5780631b6b6d231461031557600080fd5b80620122911461022057806302bcc5b61461024057806304c357cb1461025557806306bfa63714610268575b600080fd5b610228610654565b60405161023793929190613c41565b60405180910390f35b61025361024e366004613cb7565b6106d0565b005b610253610263366004613ce9565b610747565b6005546001600160401b03165b6040516001600160401b039091168152602001610237565b61025361029b366004613d2d565b610892565b600554600160401b90046001600160601b03165b604051908152602001610237565b6102ca60c881565b60405161ffff9091168152602001610237565b60408051808201825260168152750565246436f6f7264696e61746f72563220312e302e360541b602082015290516102379190613d49565b61033c7f000000000000000000000000000000000000000000000000000000000000000081565b6040516001600160a01b039091168152602001610237565b600a546102b4565b6103656101f481565b60405163ffffffff9091168152602001610237565b610253610388366004613e16565b610a25565b6102b461039b366004613f35565b610c7b565b600c546040805163ffffffff8084168252640100000000840481166020830152600160401b8404811692820192909252600160601b830482166060820152600160801b8304909116608082015262ffffff600160a01b8304811660a0830152600160b81b8304811660c0830152600160d01b8304811660e0830152600160e81b90920490911661010082015261012001610237565b6102ca606481565b61025361044b366004613f93565b610f49565b61033c7f000000000000000000000000000000000000000000000000000000000000000081565b6102b4610485366004613fd6565b60009081526009602052604090205490565b6102536104a5366004613fef565b611113565b6102536104b8366004613ce9565b611212565b6102536113c0565b6102536104d3366004613cb7565b61146a565b6000546001600160a01b031661033c565b6102536104f7366004613ce9565b6115c6565b6102756118f1565b610517610512366004613cb7565b611a8e565b604051610237949392919061401a565b610253610535366004614094565b611b88565b61033c7f000000000000000000000000000000000000000000000000000000000000000081565b61057461056f366004614219565b611d57565b6040516001600160601b039091168152602001610237565b600b546040805161ffff8316815263ffffffff62010000840481166020830152600160381b8404811692820192909252600160581b909204166060820152608001610237565b6102b46105e03660046142e1565b612116565b6103656105f3366004613cb7565b612146565b610253610606366004613ce9565b6122c3565b6102536106193660046142fd565b612395565b61063161062c366004613cb7565b61255f565b6040519015158152602001610237565b61025361064f3660046142fd565b61270a565b600b546007805460408051602080840282018101909252828152600094859460609461ffff8316946201000090930463ffffffff169391928391908301828280156106be57602002820191906000526020600020905b8154815260200190600101908083116106aa575b50505050509050925092509250909192565b6106d861271b565b6001600160401b0381166000908152600360205260409020546001600160a01b031661071757604051630fb532db60e11b815260040160405180910390fd5b6001600160401b0381166000908152600360205260409020546107449082906001600160a01b0316612770565b50565b6001600160401b03821660009081526003602052604090205482906001600160a01b03168061078957604051630fb532db60e11b815260040160405180910390fd5b336001600160a01b038216146107c257604051636c51fda960e11b81526001600160a01b03821660048201526024015b60405180910390fd5b600b54600160301b900460ff16156107ed5760405163769dd35360e11b815260040160405180910390fd5b6001600160401b0384166000908152600360205260409020600101546001600160a01b0384811691161461088c576001600160401b03841660008181526003602090815260409182902060010180546001600160a01b0319166001600160a01b0388169081179091558251338152918201527f69436ea6df009049404f564eff6622cd00522b0bd6a89efd9e52a355c4a879be91015b60405180910390a25b50505050565b61089a61271b565b6040805180820182526000916108c9919084906002908390839080828437600092019190915250612116915050565b6000818152600660205260409020549091506001600160a01b03168061090557604051631dfd6e1360e21b8152600481018390526024016107b9565b600082815260066020526040812080546001600160a01b03191690555b6007548110156109dc57826007828154811061094057610940614318565b9060005260206000200154036109ca57600780546000919061096490600190614344565b8154811061097457610974614318565b90600052602060002001549050806007838154811061099557610995614318565b60009182526020909120015560078054806109b2576109b261435b565b60019003818190600052602060002001600090559055505b806109d481614371565b915050610922565b50806001600160a01b03167f72be339577868f868798bac2c93e52d6f034fef4689a9848996c14ebb7416c0d83604051610a1891815260200190565b60405180910390a2505050565b610a2d61271b565b60c861ffff87161115610a675760405163539c34bb60e11b815261ffff871660048201819052602482015260c860448201526064016107b9565b60008213610a8b576040516321ea67b360e11b8152600481018390526024016107b9565b6040805160a0808201835261ffff891680835263ffffffff89811660208086018290526000868801528a831660608088018290528b85166080988901819052600b805465ffffffffffff191690971762010000909502949094176effffffffffffffffff0000000000001916600160381b90920263ffffffff60581b191691909117600160581b909302929092179093558651600c80549489015189890151938a0151978a0151968a015160c08b015160e08c01516101008d015195881667ffffffffffffffff199099169890981764010000000093881693909302929092176fffffffffffffffff00000000000000001916600160401b9587169590950263ffffffff60601b191694909417600160601b988616989098029790971766ffffffffffffff60801b1916600160801b969094169590950262ffffff60a01b191692909217600160a01b62ffffff928316021765ffffffffffff60b81b1916600160b81b9582169590950262ffffff60d01b191694909417600160d01b92851692909202919091176001600160e81b0316600160e81b9390911692909202919091178155600a84905590517fc21e3bd2e0b339d2848f0dd956947a88966c242c0c0c582a33137a5c1ceb5cb291610c6b91899189918991899189919061438a565b60405180910390a1505050505050565b600b54600090600160301b900460ff1615610ca95760405163769dd35360e11b815260040160405180910390fd5b6001600160401b0385166000908152600360205260409020546001600160a01b0316610ce857604051630fb532db60e11b815260040160405180910390fd5b3360009081526002602090815260408083206001600160401b03808a16855292528220541690819003610d3f57604051637800cff360e11b81526001600160401b03871660048201523360248201526044016107b9565b600b5461ffff9081169086161080610d5b575060c861ffff8616115b15610d9257600b5460405163539c34bb60e11b815261ffff8088166004830152909116602482015260c860448201526064016107b9565b600b5463ffffffff6201000090910481169085161115610de057600b54604051637aebf00f60e11b815263ffffffff80871660048301526201000090920490911660248201526044016107b9565b6101f463ffffffff84161115610e19576040516311ce1afb60e21b815263ffffffff841660048201526101f460248201526044016107b9565b6000610e26826001614466565b9050600080610e378a338b86612ad8565b604080516020810184905243918101919091526001600160401b038c16606082015263ffffffff808b166080830152891660a08201523360c0820152919350915060e00160408051808303601f19018152828252805160209182012060008681526009835283902055848352820183905261ffff8a169082015263ffffffff80891660608301528716608082015233906001600160401b038b16908c907f63373d1c4696214b898952999c9aaec57dac1ee2723cec59bea6888f489a97729060a00160405180910390a4503360009081526002602090815260408083206001600160401b03808d168552925290912080549190931667ffffffffffffffff199091161790915591505095945050505050565b600b54600160301b900460ff1615610f745760405163769dd35360e11b815260040160405180910390fd5b336000908152600860205260409020546001600160601b0380831691161015610fb057604051631e9acf1760e31b815260040160405180910390fd5b3360009081526008602052604081208054839290610fd89084906001600160601b0316614491565b92506101000a8154816001600160601b0302191690836001600160601b0316021790555080600560088282829054906101000a90046001600160601b03166110209190614491565b92506101000a8154816001600160601b0302191690836001600160601b031602179055507f00000000000000000000000000000000000000000000000000000000000000006001600160a01b031663a9059cbb83836040518363ffffffff1660e01b81526004016110af9291906001600160a01b039290921682526001600160601b0316602082015260400190565b6020604051808303816000875af11580156110ce573d6000803e3d6000fd5b505050506040513d601f19601f820116820180604052508101906110f291906144b9565b61110f57604051631e9acf1760e31b815260040160405180910390fd5b5050565b61111b61271b565b60408051808201825260009161114a919084906002908390839080828437600092019190915250612116915050565b6000818152600660205260409020549091506001600160a01b03161561118657604051634a0b8fa760e01b8152600481018290526024016107b9565b600081815260066020908152604080832080546001600160a01b0319166001600160a01b0388169081179091556007805460018101825594527fa66cc928b5edb82af9bd49922954155ab7b0942694bea4ce44661d9a8736c688909301849055518381527fe729ae16526293f74ade739043022254f1489f616295a25bf72dfb4511ed73b89101610a18565b6001600160401b03821660009081526003602052604090205482906001600160a01b03168061125457604051630fb532db60e11b815260040160405180910390fd5b336001600160a01b0382161461128857604051636c51fda960e11b81526001600160a01b03821660048201526024016107b9565b600b54600160301b900460ff16156112b35760405163769dd35360e11b815260040160405180910390fd5b6001600160401b038416600090815260036020526040902060020154606319016112f0576040516305a48e0f60e01b815260040160405180910390fd5b6001600160a01b03831660009081526002602090815260408083206001600160401b038089168552925282205416900361088c576001600160a01b03831660008181526002602081815260408084206001600160401b038a16808652908352818520805467ffffffffffffffff19166001908117909155600384528286209094018054948501815585529382902090920180546001600160a01b03191685179055905192835290917f43dc749a04ac8fb825cbd514f7c0e13f13bc6f2ee66043b76629d51776cff8e09101610883565b6001546001600160a01b031633146114135760405162461bcd60e51b815260206004820152601660248201527526bab9ba10313290383937b837b9b2b21037bbb732b960511b60448201526064016107b9565b60008054336001600160a01b0319808316821784556001805490911690556040516001600160a01b0390921692909183917f8be0079c531659141344cd1fd0a4f28419497f9722a3daafe3b4186f6b6457e091a350565b600b54600160301b900460ff16156114955760405163769dd35360e11b815260040160405180910390fd5b6001600160401b0381166000908152600360205260409020546001600160a01b03166114d457604051630fb532db60e11b815260040160405180910390fd5b6001600160401b0381166000908152600360205260409020600101546001600160a01b03163314611541576001600160401b0381166000908152600360205260409081902060010154905163d084e97560e01b81526001600160a01b0390911660048201526024016107b9565b6001600160401b0381166000818152600360209081526040918290208054336001600160a01b0319808316821784556001909301805490931690925583516001600160a01b03909116808252928101919091529092917f6f1dc65165ffffedfd8e507b4a0f1fcfdada045ed11f6c26ba27cedfe87802f0910160405180910390a25050565b6001600160401b03821660009081526003602052604090205482906001600160a01b03168061160857604051630fb532db60e11b815260040160405180910390fd5b336001600160a01b0382161461163c57604051636c51fda960e11b81526001600160a01b03821660048201526024016107b9565b600b54600160301b900460ff16156116675760405163769dd35360e11b815260040160405180910390fd5b6001600160a01b03831660009081526002602090815260408083206001600160401b03808916855292528220541690036116ce57604051637800cff360e11b81526001600160401b03851660048201526001600160a01b03841660248201526044016107b9565b6001600160401b03841660009081526003602090815260408083206002018054825181850281018501909352808352919290919083018282801561173b57602002820191906000526020600020905b81546001600160a01b0316815260019091019060200180831161171d575b505050505090506000600182516117529190614344565b905060005b825181101561187857856001600160a01b031683828151811061177c5761177c614318565b60200260200101516001600160a01b0316036118665760008383815181106117a6576117a6614318565b6020026020010151905080600360008a6001600160401b03166001600160401b0316815260200190815260200160002060020183815481106117ea576117ea614318565b600091825260208083209190910180546001600160a01b0319166001600160a01b0394909416939093179092556001600160401b038a16815260039091526040902060020180548061183e5761183e61435b565b600082815260209020810160001990810180546001600160a01b031916905501905550611878565b8061187081614371565b915050611757565b506001600160a01b03851660008181526002602090815260408083206001600160401b038b1680855290835292819020805467ffffffffffffffff191690555192835290917f182bff9831466789164ca77075fffd84916d35a8180ba73c27e45634549b445b91015b60405180910390a2505050505050565b600b54600090600160301b900460ff161561191f5760405163769dd35360e11b815260040160405180910390fd5b600580546001600160401b0316906000611938836144db565b82546101009290920a6001600160401b0381810219909316918316021790915560055416905060008060405190808252806020026020018201604052801561198a578160200160208202803683370190505b50604080518082018252600080825260208083018281526001600160401b03888116808552600484528685209551865493516001600160601b039091166001600160a01b031994851617600160601b919093160291909117909455845160608101865233815280830184815281870188815295855260038452959093208351815483166001600160a01b0391821617825595516001820180549093169616959095179055915180519495509093611a479260028501920190613b4f565b50506040513381526001600160401b03841691507f464722b4166576d3dcbba877b999bc35cf911f4eaf434b7eba68fa113951d0bf9060200160405180910390a250905090565b6001600160401b038116600090815260036020526040812054819081906060906001600160a01b0316611ad457604051630fb532db60e11b815260040160405180910390fd5b6001600160401b0380861660009081526004602090815260408083205460038352928190208054600290910180548351818602810186019094528084526001600160601b03861696600160601b909604909516946001600160a01b03909216939092918391830182828015611b7257602002820191906000526020600020905b81546001600160a01b03168152600190910190602001808311611b54575b5050505050905093509350935093509193509193565b600b54600160301b900460ff1615611bb35760405163769dd35360e11b815260040160405180910390fd5b336001600160a01b037f00000000000000000000000000000000000000000000000000000000000000001614611bfc576040516344b0e3c360e01b815260040160405180910390fd5b60208114611c1d57604051638129bbcd60e01b815260040160405180910390fd5b6000611c2b82840184613cb7565b6001600160401b0381166000908152600360205260409020549091506001600160a01b0316611c6d57604051630fb532db60e11b815260040160405180910390fd5b6001600160401b038116600090815260046020526040812080546001600160601b031691869190611c9e8385614501565b92506101000a8154816001600160601b0302191690836001600160601b0316021790555084600560088282829054906101000a90046001600160601b0316611ce69190614501565b92506101000a8154816001600160601b0302191690836001600160601b03160217905550816001600160401b03167fd39ec07f4e209f627a4c427971473820dc129761ba28de8906bd56f57101d4f8828784611d429190614523565b604080519283526020830191909152016118e1565b600b54600090600160301b900460ff1615611d855760405163769dd35360e11b815260040160405180910390fd5b60005a90506000806000611d998787612b52565b9250925092506000866060015163ffffffff166001600160401b03811115611dc357611dc3613dc4565b604051908082528060200260200182016040528015611dec578160200160208202803683370190505b50905060005b876060015163ffffffff16811015611e605760408051602081018590529081018290526060016040516020818303038152906040528051906020012060001c828281518110611e4357611e43614318565b602090810291909101015280611e5881614371565b915050611df2565b50600083815260096020526040808220829055518190631fe543e360e01b90611e8f908790869060240161453b565b60408051601f198184030181529181526020820180516001600160e01b03166001600160e01b031990941693909317909252600b805466ff0000000000001916600160301b179055908a015160808b0151919250600091611ef79163ffffffff169084612dd0565b600b805466ff000000000000191690556020808c0180516001600160401b03908116600090815260049093526040808420549251821684529092208054939450600160601b918290048316936001939192600c92611f59928692900416614466565b92506101000a8154816001600160401b0302191690836001600160401b031602179055506000611fae8a600b600001600b9054906101000a900463ffffffff1663ffffffff16611fa885612146565b3a612e1e565b6020808e01516001600160401b03166000908152600490915260409020549091506001600160601b0380831691161015611ffb57604051631e9acf1760e31b815260040160405180910390fd5b6020808d01516001600160401b0316600090815260049091526040812080548392906120319084906001600160601b0316614491565b82546101009290920a6001600160601b0381810219909316918316021790915560008b8152600660209081526040808320546001600160a01b03168352600890915281208054859450909261208891859116614501565b92506101000a8154816001600160601b0302191690836001600160601b03160217905550877f7dffc5ae5ee4e2e4df1651cf6ad329a73cebdb728f37ea0187b9b17e036756e48883866040516120fc939291909283526001600160601b039190911660208301521515604082015260600190565b60405180910390a299505050505050505050505b92915050565b60008160405160200161212991906145ac565b604051602081830303815290604052805190602001209050919050565b6040805161012081018252600c5463ffffffff8082168352640100000000820481166020840152600160401b8204811693830193909352600160601b810483166060830152600160801b8104909216608082015262ffffff600160a01b8304811660a08301819052600160b81b8404821660c0840152600160d01b8404821660e0840152600160e81b909304166101008201526000916001600160401b038416116121f2575192915050565b826001600160401b03168160a0015162ffffff1610801561222557508060c0015162ffffff16836001600160401b031611155b15612234576020015192915050565b826001600160401b03168160c0015162ffffff1610801561226757508060e0015162ffffff16836001600160401b031611155b15612276576040015192915050565b826001600160401b03168160e0015162ffffff161080156122aa575080610100015162ffffff16836001600160401b031611155b156122b9576060015192915050565b6080015192915050565b6001600160401b03821660009081526003602052604090205482906001600160a01b03168061230557604051630fb532db60e11b815260040160405180910390fd5b336001600160a01b0382161461233957604051636c51fda960e11b81526001600160a01b03821660048201526024016107b9565b600b54600160301b900460ff16156123645760405163769dd35360e11b815260040160405180910390fd5b61236d8461255f565b1561238b57604051631685ecdd60e31b815260040160405180910390fd5b61088c8484612770565b61239d61271b565b6040516370a0823160e01b81523060048201526000907f00000000000000000000000000000000000000000000000000000000000000006001600160a01b0316906370a0823190602401602060405180830381865afa158015612404573d6000803e3d6000fd5b505050506040513d601f19601f8201168201806040525081019061242891906145ba565b600554909150600160401b90046001600160601b031681811115612469576040516354ced18160e11b815260048101829052602481018390526044016107b9565b8181101561255a57600061247d8284614344565b60405163a9059cbb60e01b81526001600160a01b038681166004830152602482018390529192507f00000000000000000000000000000000000000000000000000000000000000009091169063a9059cbb906044016020604051808303816000875af11580156124f1573d6000803e3d6000fd5b505050506040513d601f19601f8201168201806040525081019061251591906144b9565b50604080516001600160a01b0386168152602081018390527f59bfc682b673f8cbf945f1e454df9334834abf7dfe7f92237ca29ecb9b436600910160405180910390a1505b505050565b6001600160401b0381166000908152600360209081526040808320815160608101835281546001600160a01b03908116825260018301541681850152600282018054845181870281018701865281815287969395860193909291908301828280156125f357602002820191906000526020600020905b81546001600160a01b031681526001909101906020018083116125d5575b505050505081525050905060005b8160400151518110156127005760005b6007548110156126ed5760006126b66007838154811061263357612633614318565b90600052602060002001548560400151858151811061265457612654614318565b602002602001015188600260008960400151898151811061267757612677614318565b6020908102919091018101516001600160a01b0316825281810192909252604090810160009081206001600160401b03808f1683529352205416612ad8565b50600081815260096020526040902054909150156126da5750600195945050505050565b50806126e581614371565b915050612611565b50806126f881614371565b915050612601565b5060009392505050565b61271261271b565b61074481612ef4565b6000546001600160a01b0316331461276e5760405162461bcd60e51b815260206004820152601660248201527527b7363c9031b0b63630b1363290313c9037bbb732b960511b60448201526064016107b9565b565b600b54600160301b900460ff161561279b5760405163769dd35360e11b815260040160405180910390fd5b6001600160401b0382166000908152600360209081526040808320815160608101835281546001600160a01b0390811682526001830154168185015260028201805484518187028101870186528181529295939486019383018282801561282b57602002820191906000526020600020905b81546001600160a01b0316815260019091019060200180831161280d575b505050919092525050506001600160401b0380851660009081526004602090815260408083208151808301909252546001600160601b038116808352600160601b909104909416918101919091529293505b8360400151518110156128fe5760026000856040015183815181106128a4576128a4614318565b6020908102919091018101516001600160a01b0316825281810192909252604090810160009081206001600160401b038a1682529092529020805467ffffffffffffffff19169055806128f681614371565b91505061287d565b506001600160401b038516600090815260036020526040812080546001600160a01b031990811682556001820180549091169055906129406002830182613bb4565b50506001600160401b038516600090815260046020526040902080546001600160a01b03191690556005805482919060089061298d908490600160401b90046001600160601b0316614491565b92506101000a8154816001600160601b0302191690836001600160601b031602179055507f00000000000000000000000000000000000000000000000000000000000000006001600160a01b031663a9059cbb85836001600160601b03166040518363ffffffff1660e01b8152600401612a1c9291906001600160a01b03929092168252602082015260400190565b6020604051808303816000875af1158015612a3b573d6000803e3d6000fd5b505050506040513d601f19601f82011682018060405250810190612a5f91906144b9565b612a7c57604051631e9acf1760e31b815260040160405180910390fd5b604080516001600160a01b03861681526001600160601b03831660208201526001600160401b038716917fe8ed5b475a5b5987aa9165e8731bb78043f39eee32ec5a1169a89e27fcd49815910160405180910390a25050505050565b6040805160208082018790526001600160a01b0395909516818301526001600160401b039384166060820152919092166080808301919091528251808303909101815260a08201835280519084012060c082019490945260e080820185905282518083039091018152610100909101909152805191012091565b6000806000612b648560000151612116565b6000818152600660205260409020549093506001600160a01b031680612ba057604051631dfd6e1360e21b8152600481018590526024016107b9565b6080860151604051612bbf918691602001918252602082015260400190565b60408051601f198184030181529181528151602092830120600081815260099093529082205490945090819003612c0957604051631b44092560e11b815260040160405180910390fd5b85516020808801516040808a015160608b015160808c01519251612c74968b9690959491019586526001600160401b03948516602087015292909316604085015263ffffffff90811660608501529190911660808301526001600160a01b031660a082015260c00190565b604051602081830303815290604052805190602001208114612ca95760405163354a450b60e21b815260040160405180910390fd5b85516001600160401b03164080612d7c578651604051631d2827a760e31b81526001600160401b0390911660048201527f00000000000000000000000000000000000000000000000000000000000000006001600160a01b03169063e9413d3890602401602060405180830381865afa158015612d2a573d6000803e3d6000fd5b505050506040513d601f19601f82011682018060405250810190612d4e91906145ba565b905080612d7c57865160405163175dadad60e01b81526001600160401b0390911660048201526024016107b9565b6000886080015182604051602001612d9e929190918252602082015260400190565b6040516020818303038152906040528051906020012060001c9050612dc38982612f9d565b9450505050509250925092565b60005a611388811015612de257600080fd5b611388810390508460408204820311612dfa57600080fd5b50823b612e0657600080fd5b60008083516020850160008789f190505b9392505050565b600080612e29613008565b905060008113612e4f576040516321ea67b360e11b8152600481018290526024016107b9565b6000815a612e5d8989614523565b612e679190614344565b612e7986670de0b6b3a76400006145d3565b612e8391906145d3565b612e8d9190614608565b90506000612ea663ffffffff871664e8d4a510006145d3565b9050612ebe816b033b2e3c9fd0803ce8000000614344565b821115612ede5760405163e80fa38160e01b815260040160405180910390fd5b612ee88183614523565b98975050505050505050565b336001600160a01b03821603612f4c5760405162461bcd60e51b815260206004820152601760248201527f43616e6e6f74207472616e7366657220746f2073656c6600000000000000000060448201526064016107b9565b600180546001600160a01b0319166001600160a01b0383811691821790925560008054604051929316917fed8889f560326eb138920d842192f0eb3dd22b4f139c87a2c57538e05bae12789190a350565b6000612fd18360000151846020015185604001518660600151868860a001518960c001518a60e001518b61010001516130e3565b60038360200151604051602001612fe992919061461c565b60408051601f1981840301815291905280516020909101209392505050565b600b5460408051633fabe5a360e21b81529051600092600160381b900463ffffffff169182151591849182917f00000000000000000000000000000000000000000000000000000000000000006001600160a01b03169163feaf968c9160048083019260a09291908290030181865afa158015613089573d6000803e3d6000fd5b505050506040513d601f19601f820116820180604052508101906130ad919061464a565b5094509092508491505080156130d157506130c88242614344565b8463ffffffff16105b156130db5750600a545b949350505050565b6130ec89613306565b6131385760405162461bcd60e51b815260206004820152601a60248201527f7075626c6963206b6579206973206e6f74206f6e20637572766500000000000060448201526064016107b9565b61314188613306565b6131855760405162461bcd60e51b815260206004820152601560248201527467616d6d61206973206e6f74206f6e20637572766560581b60448201526064016107b9565b61318e83613306565b6131da5760405162461bcd60e51b815260206004820152601d60248201527f6347616d6d615769746e657373206973206e6f74206f6e20637572766500000060448201526064016107b9565b6131e382613306565b61322f5760405162461bcd60e51b815260206004820152601c60248201527f73486173685769746e657373206973206e6f74206f6e2063757276650000000060448201526064016107b9565b61323b878a88876133c9565b6132875760405162461bcd60e51b815260206004820152601960248201527f6164647228632a706b2b732a6729213d5f755769746e6573730000000000000060448201526064016107b9565b60006132938a876134ec565b905060006132a6898b878b868989613550565b905060006132b7838d8d8a86613669565b9050808a146132f85760405162461bcd60e51b815260206004820152600d60248201526c34b73b30b634b210383937b7b360991b60448201526064016107b9565b505050505050505050505050565b80516000906401000003d019116133545760405162461bcd60e51b8152602060048201526012602482015271696e76616c696420782d6f7264696e61746560701b60448201526064016107b9565b60208201516401000003d019116133a25760405162461bcd60e51b8152602060048201526012602482015271696e76616c696420792d6f7264696e61746560701b60448201526064016107b9565b60208201516401000003d0199080096133c28360005b60200201516136a9565b1492915050565b60006001600160a01b03821661340f5760405162461bcd60e51b815260206004820152600b60248201526a626164207769746e65737360a81b60448201526064016107b9565b60208401516000906001161561342657601c613429565b601b5b9050600070014551231950b75fc4402da1732fc9bebe1985876000602002015109865170014551231950b75fc4402da1732fc9bebe19918203925060009190890987516040805160008082526020820180845287905260ff88169282019290925260608101929092526080820183905291925060019060a0016020604051602081039080840390855afa1580156134c4573d6000803e3d6000fd5b5050604051601f1901516001600160a01b039081169088161495505050505050949350505050565b6134f4613bd2565b6135216001848460405160200161350d9392919061468e565b6040516020818303038152906040526136cd565b90505b61352d81613306565b612110578051604080516020810192909252613549910161350d565b9050613524565b613558613bd2565b825186516401000003d01991829006919006036135b75760405162461bcd60e51b815260206004820152601e60248201527f706f696e747320696e2073756d206d7573742062652064697374696e6374000060448201526064016107b9565b6135c287898861371b565b6136075760405162461bcd60e51b8152602060048201526016602482015275119a5c9cdd081b5d5b0818da1958dac819985a5b195960521b60448201526064016107b9565b61361284868561371b565b61365e5760405162461bcd60e51b815260206004820152601760248201527f5365636f6e64206d756c20636865636b206661696c656400000000000000000060448201526064016107b9565b612ee8868484613846565b600060028686868587604051602001613687969594939291906146af565b60408051601f1981840301815291905280516020909101209695505050505050565b6000806401000003d01980848509840990506401000003d019600782089392505050565b6136d5613bd2565b6136de8261390d565b81526136f36136ee8260006133b8565b613948565b6020820181905260029006600103613716576020810180516401000003d0190390525b919050565b60008260000361375b5760405162461bcd60e51b815260206004820152600b60248201526a3d32b9379039b1b0b630b960a91b60448201526064016107b9565b835160208501516000906137719060029061470e565b1561377d57601c613780565b601b5b9050600070014551231950b75fc4402da1732fc9bebe198387096040805160008082526020820180845281905260ff86169282019290925260608101869052608081018390529192509060019060a0016020604051602081039080840390855afa1580156137f2573d6000803e3d6000fd5b5050506020604051035190506000866040516020016138119190614722565b60408051601f1981840301815291905280516020909101206001600160a01b0392831692169190911498975050505050505050565b61384e613bd2565b83516020808601518551918601516000938493849361386f93909190613968565b919450925090506401000003d0198582096001146138cf5760405162461bcd60e51b815260206004820152601960248201527f696e765a206d75737420626520696e7665727365206f66207a0000000000000060448201526064016107b9565b60405180604001604052806401000003d019806138ee576138ee6145f2565b87860981526020016401000003d0198785099052979650505050505050565b805160208201205b6401000003d019811061371657604080516020808201939093528151808203840181529082019091528051910120613915565b60006121108260026139616401000003d0196001614523565b901c613a48565b60008080600180826401000003d019896401000003d019038808905060006401000003d0198b6401000003d019038a08905060006139a883838585613ae2565b90985090506139b988828e88613b06565b90985090506139ca88828c87613b06565b909850905060006139dd8d878b85613b06565b90985090506139ee88828686613ae2565b90985090506139ff88828e89613b06565b9098509050818114613a34576401000003d019818a0998506401000003d01982890997506401000003d0198183099650613a38565b8196505b5050505050509450945094915050565b600080613a53613bf0565b6020808252818101819052604082015260608101859052608081018490526401000003d01960a0820152613a85613c0e565b60208160c0846005600019fa925082600003613ad85760405162461bcd60e51b81526020600482015260126024820152716269674d6f64457870206661696c7572652160701b60448201526064016107b9565b5195945050505050565b6000806401000003d0198487096401000003d0198487099097909650945050505050565b600080806401000003d019878509905060006401000003d01987876401000003d019030990506401000003d0198183086401000003d01986890990999098509650505050505050565b828054828255906000526020600020908101928215613ba4579160200282015b82811115613ba457825182546001600160a01b0319166001600160a01b03909116178255602090920191600190910190613b6f565b50613bb0929150613c2c565b5090565b50805460008255906000526020600020908101906107449190613c2c565b60405180604001604052806002906020820280368337509192915050565b6040518060c001604052806006906020820280368337509192915050565b60405180602001604052806001906020820280368337509192915050565b5b80821115613bb05760008155600101613c2d565b60006060820161ffff86168352602063ffffffff86168185015260606040850152818551808452608086019150828701935060005b81811015613c9257845183529383019391830191600101613c76565b509098975050505050505050565b80356001600160401b038116811461371657600080fd5b600060208284031215613cc957600080fd5b612e1782613ca0565b80356001600160a01b038116811461371657600080fd5b60008060408385031215613cfc57600080fd5b613d0583613ca0565b9150613d1360208401613cd2565b90509250929050565b806040810183101561211057600080fd5b600060408284031215613d3f57600080fd5b612e178383613d1c565b600060208083528351808285015260005b81811015613d7657858101830151858201604001528201613d5a565b81811115613d88576000604083870101525b50601f01601f1916929092016040019392505050565b803561ffff8116811461371657600080fd5b803563ffffffff8116811461371657600080fd5b634e487b7160e01b600052604160045260246000fd5b60405161012081016001600160401b0381118282101715613dfd57613dfd613dc4565b60405290565b803562ffffff8116811461371657600080fd5b6000806000806000808688036101c0811215613e3157600080fd5b613e3a88613d9e565b9650613e4860208901613db0565b9550613e5660408901613db0565b9450613e6460608901613db0565b93506080880135925061012080609f1983011215613e8157600080fd5b613e89613dda565b9150613e9760a08a01613db0565b8252613ea560c08a01613db0565b6020830152613eb660e08a01613db0565b6040830152610100613ec9818b01613db0565b6060840152613ed9828b01613db0565b6080840152613eeb6101408b01613e03565b60a0840152613efd6101608b01613e03565b60c0840152613f0f6101808b01613e03565b60e0840152613f216101a08b01613e03565b818401525050809150509295509295509295565b600080600080600060a08688031215613f4d57600080fd5b85359450613f5d60208701613ca0565b9350613f6b60408701613d9e565b9250613f7960608701613db0565b9150613f8760808701613db0565b90509295509295909350565b60008060408385031215613fa657600080fd5b613faf83613cd2565b915060208301356001600160601b0381168114613fcb57600080fd5b809150509250929050565b600060208284031215613fe857600080fd5b5035919050565b6000806060838503121561400257600080fd5b61400b83613cd2565b9150613d138460208501613d1c565b6000608082016001600160601b038716835260206001600160401b0387168185015260018060a01b0380871660408601526080606086015282865180855260a087019150838801945060005b81811015614084578551841683529484019491840191600101614066565b50909a9950505050505050505050565b600080600080606085870312156140aa57600080fd5b6140b385613cd2565b93506020850135925060408501356001600160401b03808211156140d657600080fd5b818701915087601f8301126140ea57600080fd5b8135818111156140f957600080fd5b88602082850101111561410b57600080fd5b95989497505060200194505050565b600082601f83011261412b57600080fd5b604051604081018181106001600160401b038211171561414d5761414d613dc4565b806040525080604084018581111561416457600080fd5b845b8181101561417e578035835260209283019201614166565b509195945050505050565b600060a0828403121561419b57600080fd5b60405160a081018181106001600160401b03821117156141bd576141bd613dc4565b6040529050806141cc83613ca0565b81526141da60208401613ca0565b60208201526141eb60408401613db0565b60408201526141fc60608401613db0565b606082015261420d60808401613cd2565b60808201525092915050565b60008082840361024081121561422e57600080fd5b6101a08082121561423e57600080fd5b614246613dda565b9150614252868661411a565b8252614261866040870161411a565b60208301526080850135604083015260a0850135606083015260c0850135608083015261429060e08601613cd2565b60a08301526101006142a48782880161411a565b60c08401526142b787610140880161411a565b60e084015261018086013581840152508193506142d686828701614189565b925050509250929050565b6000604082840312156142f357600080fd5b612e17838361411a565b60006020828403121561430f57600080fd5b612e1782613cd2565b634e487b7160e01b600052603260045260246000fd5b634e487b7160e01b600052601160045260246000fd5b6000828210156143565761435661432e565b500390565b634e487b7160e01b600052603160045260246000fd5b6000600182016143835761438361432e565b5060010190565b61ffff8716815263ffffffff86811660208301528581166040830152848116606083015260808201849052825480821660a08401526101c0830191906143dd60c08501838360201c1663ffffffff169052565b6143f460e08501838360401c1663ffffffff169052565b61440c6101008501838360601c1663ffffffff169052565b6144246101208501838360801c1663ffffffff169052565b62ffffff60a082901c811661014086015260b882901c811661016086015260d082901c1661018085015260e81c6101a090930192909252979650505050505050565b60006001600160401b038083168185168083038211156144885761448861432e565b01949350505050565b60006001600160601b03838116908316818110156144b1576144b161432e565b039392505050565b6000602082840312156144cb57600080fd5b81518015158114612e1757600080fd5b60006001600160401b038083168181036144f7576144f761432e565b6001019392505050565b60006001600160601b038083168185168083038211156144885761448861432e565b600082198211156145365761453661432e565b500190565b6000604082018483526020604081850152818551808452606086019150828701935060005b8181101561457c57845183529383019391830191600101614560565b5090979650505050505050565b8060005b600281101561088c57815184526020938401939091019060010161458d565b604081016121108284614589565b6000602082840312156145cc57600080fd5b5051919050565b60008160001904831182151516156145ed576145ed61432e565b500290565b634e487b7160e01b600052601260045260246000fd5b600082614617576146176145f2565b500490565b82815260608101612e176020830184614589565b805169ffffffffffffffffffff8116811461371657600080fd5b600080600080600060a0868803121561466257600080fd5b61466b86614630565b9450602086015193506040860151925060608601519150613f8760808701614630565b83815261469e6020820184614589565b606081019190915260800192915050565b8681526146bf6020820187614589565b6146cc6060820186614589565b6146d960a0820185614589565b6146e660e0820184614589565b60609190911b6bffffffffffffffffffffffff19166101208201526101340195945050505050565b60008261471d5761471d6145f2565b500690565b61472c8183614589565b60400191905056fea2646970667358221220a30b3970321c5560c8d037f1dc8ee0f28e33a1f4dd496e13b088fa518f1c13a564736f6c634300080f0033",
    "linkReferences": {}
  },
  "methodIdentifiers": {
    "BLOCKHASH_STORE()": "689c4517",
    "LINK()": "1b6b6d23",
    "LINK_ETH_FEED()": "ad178361",
    "MAX_CONSUMERS()": "64d51a2a",
    "MAX_NUM_WORDS()": "40d6bb82",
    "MAX_REQUEST_CONFIRMATIONS()": "15c48b84",
    "acceptOwnership()": "79ba5097",
    "acceptSubscriptionOwnerTransfer(uint64)": "82359740",
    "addConsumer(uint64,address)": "7341c10c",
    "cancelSubscription(uint64,address)": "d7ae1d30",
    "createSubscription()": "a21a23e4",
    "deregisterProvingKey(uint256[2])": "08821d58",
    "fulfillRandomWords((uint256[2],uint256[2],uint256,uint256,uint256,address,uint256[2],uint256[2],uint256),(uint64,uint64,uint32,uint32,address))": "af198b97",
    "getCommitment(uint256)": "69bcdb7d",
    "getConfig()": "c3f909d4",
    "getCurrentSubId()": "06bfa637",
    "getFallbackWeiPerUnitLink()": "356dac71",
    "getFeeConfig()": "5fbbc0d2",
    "getFeeTier(uint64)": "d2f9f9a7",
    "getRequestConfig()": "00012291",
    "getSubscription(uint64)": "a47c7696",
    "getTotalBalance()": "12b58349",
    "hashOfKey(uint256[2])": "caf70c4a",
    "onTokenTransfer(address,uint256,bytes)": "a4c0ed36",
    "oracleWithdraw(address,uint96)": "66316d8d",
    "owner()": "8da5cb5b",
    "ownerCancelSubscription(uint64)": "02bcc5b6",
    "pendingRequestExists(uint64)": "e82ad7d4",
    "recoverFunds(address)": "e72f6e30",
    "registerProvingKey(address,uint256[2])": "6f64f03f",
    "removeConsumer(uint64,address)": "9f87fad7",
    "requestRandomWords(bytes32,uint64,uint16,uint32,uint32)": "5d3b1d30",
    "requestSubscriptionOwnerTransfer(uint64,address)": "04c357cb",
    "setConfig(uint16,uint32,uint32,uint32,int256,(uint32,uint32,uint32,uint32,uint32,uint24,uint24,uint24,uint24))": "4cb48a54",
    "transferOwnership(address)": "f2fde38b",
    "typeAndVersion()": "181f5a77"
  },
  "id": 4
}