{
  "abi": [
    {
      "inputs": [],
      "stateMutability": "nonpayable",
      "type": "constructor"
    },
    {
      "inputs": [],
      "name": "GRID_SIZE",
      "outputs": [
        {
          "internalType": "int8",
          "name": "",
          "type": "int8"
        }
      ],
      "stateMutability": "view",
      "type": "function"
    },
    {
      "inputs": [],
      "name": "MAX_MOVE",
      "outputs": [
        {
          "internalType": "int8",
          "name": "",
          "type": "int8"
        }
      ],
      "stateMutability": "view",
      "type": "function"
    },
    {
      "inputs": [],
      "name": "MAX_PLAYERS",
      "outputs": [
        {
          "internalType": "int8",
          "name": "",
          "type": "int8"
        }
      ],
      "stateMutability": "view",
      "type": "function"
    },
    {
      "inputs": [
        {
          "internalType": "int8",
          "name": "number",
          "type": "int8"
        }
      ],
      "name": "abs",
      "outputs": [
        {
          "internalType": "int8",
          "name": "",
          "type": "int8"
        }
      ],
      "stateMutability": "pure",
      "type": "function"
    },
    {
      "inputs": [
        {
          "internalType": "address",
          "name": "_p1",
          "type": "address"
        },
        {
          "internalType": "address",
          "name": "_p2",
          "type": "address"
        }
      ],
      "name": "create",
      "outputs": [
        {
          "internalType": "uint256",
          "name": "",
          "type": "uint256"
        }
      ],
      "stateMutability": "nonpayable",
      "type": "function"
    },
    {
      "inputs": [
        {
          "internalType": "uint256",
          "name": "id",
          "type": "uint256"
        }
      ],
      "name": "end",
      "outputs": [],
      "stateMutability": "nonpayable",
      "type": "function"
    },
    {
      "inputs": [],
      "name": "gameCount",
      "outputs": [
        {
          "internalType": "uint256",
          "name": "",
          "type": "uint256"
        }
      ],
      "stateMutability": "view",
      "type": "function"
    },
    {
      "inputs": [
        {
          "internalType": "uint256",
          "name": "",
          "type": "uint256"
        }
      ],
      "name": "games",
      "outputs": [
        {
          "internalType": "uint256",
          "name": "id",
          "type": "uint256"
        },
        {
          "internalType": "uint256",
          "name": "startTimestamp",
          "type": "uint256"
        },
        {
          "internalType": "uint256",
          "name": "lastTurnTimestamp",
          "type": "uint256"
        },
        {
          "internalType": "enum GameStatus",
          "name": "status",
          "type": "uint8"
        },
        {
          "internalType": "uint256",
          "name": "turnCount",
          "type": "uint256"
        }
      ],
      "stateMutability": "view",
      "type": "function"
    },
    {
      "inputs": [
        {
          "internalType": "uint256",
          "name": "gameId",
          "type": "uint256"
        }
      ],
      "name": "getGameStatus",
      "outputs": [
        {
          "internalType": "enum GameStatus",
          "name": "",
          "type": "uint8"
        }
      ],
      "stateMutability": "view",
      "type": "function"
    },
    {
      "inputs": [
        {
          "internalType": "uint256",
          "name": "gameId",
          "type": "uint256"
        },
        {
          "internalType": "address",
          "name": "player",
          "type": "address"
        }
      ],
      "name": "getPlayerPosition",
      "outputs": [
        {
          "internalType": "int8[2]",
          "name": "",
          "type": "int8[2]"
        }
      ],
      "stateMutability": "view",
      "type": "function"
    },
    {
      "inputs": [
        {
          "internalType": "uint256",
          "name": "gameId",
          "type": "uint256"
        }
      ],
      "name": "getPlayers",
      "outputs": [
        {
          "internalType": "address[2]",
          "name": "",
          "type": "address[2]"
        }
      ],
      "stateMutability": "view",
      "type": "function"
    },
    {
      "inputs": [
        {
          "internalType": "uint256",
          "name": "id",
          "type": "uint256"
        },
        {
          "internalType": "int8",
          "name": "xMove",
          "type": "int8"
        },
        {
          "internalType": "int8",
          "name": "yMove",
          "type": "int8"
        }
      ],
      "name": "move",
      "outputs": [
        {
          "internalType": "int8",
          "name": "",
          "type": "int8"
        },
        {
          "internalType": "int8",
          "name": "",
          "type": "int8"
        }
      ],
      "stateMutability": "nonpayable",
      "type": "function"
    },
    {
      "inputs": [
        {
          "internalType": "uint256",
          "name": "id",
          "type": "uint256"
        }
      ],
      "name": "start",
      "outputs": [],
      "stateMutability": "nonpayable",
      "type": "function"
    },
    {
      "inputs": [],
      "name": "timestamp",
      "outputs": [
        {
          "internalType": "uint256",
          "name": "",
          "type": "uint256"
        }
      ],
      "stateMutability": "view",
      "type": "function"
    }
  ],
  "bytecode": {
    "object": "0x60806040526000805462ffffff19166202031017905534801561002157600080fd5b5042600255610fa2806100356000396000f3fe608060405234801561001057600080fd5b50600436106100ea5760003560e01c80634d1975b41161008c57806395805dad1161006657806395805dad14610209578063b80777ea1461021c578063c93829b214610225578063f7f281ce1461023857600080fd5b80634d1975b4146101c85780637fc4eda8146101d057806383156e3c146101dc57600080fd5b8063117a5b90116100c8578063117a5b901461014f5780633e68680a146101735780634411b3eb14610194578063460e2049146101a857600080fd5b80630ad24528146100ef5780630b7623ba146101045780630f1bf4541461012f575b600080fd5b6101026100fd366004610cdc565b610258565b005b610117610112366004610d0c565b610330565b60405160009190910b81526020015b60405180910390f35b61014261013d366004610cdc565b610353565b6040516101269190610d66565b61016261015d366004610cdc565b610385565b604051610126959493929190610d74565b610186610181366004610dbd565b6103cc565b604051908152602001610126565b600080546101179162010000909104900b81565b6101bb6101b6366004610cdc565b610597565b6040516101269190610df0565b600154610186565b60008054610117910b81565b6101ef6101ea366004610e2a565b610601565b60408051600093840b81529190920b602082015201610126565b610102610217366004610cdc565b610a91565b61018660025481565b6000805461011791610100909104900b81565b61024b610246366004610e66565b610b2f565b6040516101269190610e89565b600180828154811061026c5761026c610ebe565b600091825260209091206003600890920201015460ff16600281111561029457610294610d2e565b146102e65760405162461bcd60e51b815260206004820152601f60248201527f5468652067616d65206d757374206265206f6e666f6f7420746f20656e642e0060448201526064015b60405180910390fd5b6002600182815481106102fb576102fb610ebe565b60009182526020909120600360089092020101805460ff1916600183600281111561032857610328610d2e565b021790555050565b6000808260000b121561034b5761034682610eea565b61034d565b815b92915050565b60006001828154811061036857610368610ebe565b600091825260209091206003600890920201015460ff1692915050565b6001818154811061039557600080fd5b6000918252602090912060089091020180546001820154600283015460038401546004909401549294509092909160ff9091169085565b6001805480820182556000918252600881027fb10e2d527612073b26eecdfd717e6a320cf44b4afac2b0732d9fcbe2b7fa0cf68101828155427fb10e2d527612073b26eecdfd717e6a320cf44b4afac2b0732d9fcbe2b7fa0cf783018190557fb10e2d527612073b26eecdfd717e6a320cf44b4afac2b0732d9fcbe2b7fa0cf88301557fb10e2d527612073b26eecdfd717e6a320cf44b4afac2b0732d9fcbe2b7fa0cf98201805460ff191690557fb10e2d527612073b26eecdfd717e6a320cf44b4afac2b0732d9fcbe2b7fa0cfa8201849055604080518082019091526001600160a01b0387811682528616602082015290916104f0917fb10e2d527612073b26eecdfd717e6a320cf44b4afac2b0732d9fcbe2b7fa0cfb909101906002610bc0565b50604080518082018252600080825260208083018290526001600160a01b038916825260078501905291909120610528916002610c18565b5060408051808201909152600080548291610546916001910b610f08565b600090810b8252805460209092019161056391600191900b610f08565b600090810b9091526001600160a01b0386168152600783016020526040902061058d916002610c18565b5054949350505050565b61059f610ca9565b600182815481106105b2576105b2610ebe565b600091825260209091206040805180820191829052926008029091016005019060029082845b81546001600160a01b031681526001909101906020018083116105d85750505050509050919050565b600080846001818154811061061857610618610ebe565b60009182526020822060056008909202010101546001600160a01b031633148061068157506001818154811061065057610650610ebe565b906000526020600020906008020160050160016002811061067357610673610ebe565b01546001600160a01b031633145b6106cd5760405162461bcd60e51b815260206004820152601d60248201527f43616c6c6572206d75737420626520706c61796572206f662067616d6500000060448201526064016102dd565b60018082815481106106e1576106e1610ebe565b600091825260209091206003600890920201015460ff16600281111561070957610709610d2e565b146107565760405162461bcd60e51b815260206004820152601e60248201527f47616d65207265666572656e636564206d757374206265206f6e666f6f74000060448201526064016102dd565b600060026001888154811061076d5761076d610ebe565b9060005260206000209060080201600401546107899190610f29565b9050336001600160a01b0316600188815481106107a8576107a8610ebe565b906000526020600020906008020160050182600281106107ca576107ca610ebe565b01546001600160a01b03161461082e5760405162461bcd60e51b8152602060048201526024808201527f4974206973206e6f74207468697320706c6179657273207475726e20746f206d60448201526337bb329760e11b60648201526084016102dd565b600080546101009004900b61084286610330565b61084b88610330565b6108559190610f4b565b60000b13156108b05760405162461bcd60e51b815260206004820152602160248201527f4d6f76656d656e7420776f756c64206578636565642073746570206c696d69746044820152601760f91b60648201526084016102dd565b6000600188815481106108c5576108c5610ebe565b60009182526020808320338452600892909202909101600701905260408082208151808301928390529290916002918390855b825461010083900a900460000b8152602060019283018181049485019490930390920291018084116108f85790505050505050905060006040518060400160405280898460006002811061094e5761094e610ebe565b602002015161095d9190610f4b565b60000b81526020018884600160200201516109789190610f4b565b600090810b909152815191925090810b1280159061099e575060008054825190820b910b125b80156109b257506020810151600090810b12155b80156109c9575060008054602083015190820b910b125b610a3b5760405162461bcd60e51b815260206004820152603760248201527f4d6f76656d656e7420776f756c64206c656176652074686520426174746c656760448201527f7269642e2e2e747279696e6720746f206573636170653f00000000000000000060648201526084016102dd565b8060018a81548110610a4f57610a4f610ebe565b60009182526020808320338452600760089093020191909101905260409020610a79916002610c18565b50805160209091015190999098509650505050505050565b600060018281548110610aa657610aa6610ebe565b600091825260209091206003600890920201015460ff166002811115610ace57610ace610d2e565b14610b1b5760405162461bcd60e51b815260206004820152601d60248201527f5468652067616d652068617320616c726561647920737461727465642e00000060448201526064016102dd565b60018082815481106102fb576102fb610ebe565b610b37610ca9565b60018381548110610b4a57610b4a610ebe565b600091825260208083206001600160a01b0386168452600892909202909101600701905260408082208151808301928390529290916002918390855b825461010083900a900460000b815260206001928301818104948501949093039092029101808411610b8657509498975050505050505050565b8260028101928215610c08579160200282015b82811115610c0857825182546001600160a01b0319166001600160a01b03909116178255602090920191600190910190610bd3565b50610c14929150610cc7565b5090565b600183019183908215610c085791602002820160005b83821115610c6f57835183826101000a81548160ff021916908360000b60ff1602179055509260200192600101602081600001049283019260010302610c2e565b8015610c9c5782816101000a81549060ff0219169055600101602081600001049283019260010302610c6f565b5050610c14929150610cc7565b60405180604001604052806002906020820280368337509192915050565b5b80821115610c145760008155600101610cc8565b600060208284031215610cee57600080fd5b5035919050565b8035600081900b8114610d0757600080fd5b919050565b600060208284031215610d1e57600080fd5b610d2782610cf5565b9392505050565b634e487b7160e01b600052602160045260246000fd5b60038110610d6257634e487b7160e01b600052602160045260246000fd5b9052565b6020810161034d8284610d44565b858152602081018590526040810184905260a08101610d966060830185610d44565b8260808301529695505050505050565b80356001600160a01b0381168114610d0757600080fd5b60008060408385031215610dd057600080fd5b610dd983610da6565b9150610de760208401610da6565b90509250929050565b60408101818360005b6002811015610e215781516001600160a01b0316835260209283019290910190600101610df9565b50505092915050565b600080600060608486031215610e3f57600080fd5b83359250610e4f60208501610cf5565b9150610e5d60408501610cf5565b90509250925092565b60008060408385031215610e7957600080fd5b82359150610de760208401610da6565b6040810181836000805b6002811015610eb4578251820b845260209384019390920191600101610e93565b5050505092915050565b634e487b7160e01b600052603260045260246000fd5b634e487b7160e01b600052601160045260246000fd5b600081810b60808101610eff57610eff610ed4565b60000392915050565b600082810b9082900b03607f198112607f8213171561034d5761034d610ed4565b600082610f4657634e487b7160e01b600052601260045260246000fd5b500690565b600081810b9083900b01607f8113607f198212171561034d5761034d610ed456fea26469706673582212209b7f8e44e3156c2b1cf036a3a0eda677ba3aeb7445cf23fb72adbda99d498a6264736f6c63430008110033",
    "linkReferences": {}
  },
  "methodIdentifiers": {
    "GRID_SIZE()": "7fc4eda8",
    "MAX_MOVE()": "c93829b2",
    "MAX_PLAYERS()": "4411b3eb",
    "abs(int8)": "0b7623ba",
    "create(address,address)": "3e68680a",
    "end(uint256)": "0ad24528",
    "gameCount()": "4d1975b4",
    "games(uint256)": "117a5b90",
    "getGameStatus(uint256)": "0f1bf454",
    "getPlayerPosition(uint256,address)": "f7f281ce",
    "getPlayers(uint256)": "460e2049",
    "move(uint256,int8,int8)": "83156e3c",
    "start(uint256)": "95805dad",
    "timestamp()": "b80777ea"
  },
  "id": 0
}