{
  "abi": [
    {
      "inputs": [
        {
          "internalType": "uint64",
          "name": "subscriptionId",
          "type": "uint64"
        }
      ],
      "stateMutability": "nonpayable",
      "type": "constructor"
    },
    {
      "inputs": [
        {
          "internalType": "address",
          "name": "have",
          "type": "address"
        },
        {
          "internalType": "address",
          "name": "want",
          "type": "address"
        }
      ],
      "name": "OnlyCoordinatorCanFulfill",
      "type": "error"
    },
    {
      "anonymous": false,
      "inputs": [
        {
          "indexed": true,
          "internalType": "address",
          "name": "owner",
          "type": "address"
        },
        {
          "indexed": true,
          "internalType": "address",
          "name": "approved",
          "type": "address"
        },
        {
          "indexed": true,
          "internalType": "uint256",
          "name": "tokenId",
          "type": "uint256"
        }
      ],
      "name": "Approval",
      "type": "event"
    },
    {
      "anonymous": false,
      "inputs": [
        {
          "indexed": true,
          "internalType": "address",
          "name": "owner",
          "type": "address"
        },
        {
          "indexed": true,
          "internalType": "address",
          "name": "operator",
          "type": "address"
        },
        {
          "indexed": false,
          "internalType": "bool",
          "name": "approved",
          "type": "bool"
        }
      ],
      "name": "ApprovalForAll",
      "type": "event"
    },
    {
      "anonymous": false,
      "inputs": [
        {
          "indexed": true,
          "internalType": "address",
          "name": "from",
          "type": "address"
        },
        {
          "indexed": true,
          "internalType": "address",
          "name": "to",
          "type": "address"
        }
      ],
      "name": "OwnershipTransferRequested",
      "type": "event"
    },
    {
      "anonymous": false,
      "inputs": [
        {
          "indexed": true,
          "internalType": "address",
          "name": "from",
          "type": "address"
        },
        {
          "indexed": true,
          "internalType": "address",
          "name": "to",
          "type": "address"
        }
      ],
      "name": "OwnershipTransferred",
      "type": "event"
    },
    {
      "anonymous": false,
      "inputs": [
        {
          "indexed": false,
          "internalType": "uint256",
          "name": "requestId",
          "type": "uint256"
        },
        {
          "indexed": false,
          "internalType": "uint256[]",
          "name": "randomWords",
          "type": "uint256[]"
        }
      ],
      "name": "RequestFulfilled",
      "type": "event"
    },
    {
      "anonymous": false,
      "inputs": [
        {
          "indexed": false,
          "internalType": "uint256",
          "name": "requestId",
          "type": "uint256"
        },
        {
          "indexed": false,
          "internalType": "uint32",
          "name": "numWords",
          "type": "uint32"
        }
      ],
      "name": "RequestSent",
      "type": "event"
    },
    {
      "anonymous": false,
      "inputs": [
        {
          "indexed": true,
          "internalType": "address",
          "name": "from",
          "type": "address"
        },
        {
          "indexed": true,
          "internalType": "address",
          "name": "to",
          "type": "address"
        },
        {
          "indexed": true,
          "internalType": "uint256",
          "name": "tokenId",
          "type": "uint256"
        }
      ],
      "name": "Transfer",
      "type": "event"
    },
    {
      "inputs": [],
      "name": "NAME",
      "outputs": [
        {
          "internalType": "string",
          "name": "",
          "type": "string"
        }
      ],
      "stateMutability": "view",
      "type": "function"
    },
    {
      "inputs": [],
      "name": "SYMBOL",
      "outputs": [
        {
          "internalType": "string",
          "name": "",
          "type": "string"
        }
      ],
      "stateMutability": "view",
      "type": "function"
    },
    {
      "inputs": [],
      "name": "acceptOwnership",
      "outputs": [],
      "stateMutability": "nonpayable",
      "type": "function"
    },
    {
      "inputs": [
        {
          "internalType": "address",
          "name": "to",
          "type": "address"
        },
        {
          "internalType": "uint256",
          "name": "tokenId",
          "type": "uint256"
        }
      ],
      "name": "approve",
      "outputs": [],
      "stateMutability": "nonpayable",
      "type": "function"
    },
    {
      "inputs": [
        {
          "internalType": "address",
          "name": "owner",
          "type": "address"
        }
      ],
      "name": "balanceOf",
      "outputs": [
        {
          "internalType": "uint256",
          "name": "",
          "type": "uint256"
        }
      ],
      "stateMutability": "view",
      "type": "function"
    },
    {
      "inputs": [
        {
          "internalType": "uint256",
          "name": "tokenId",
          "type": "uint256"
        }
      ],
      "name": "getApproved",
      "outputs": [
        {
          "internalType": "address",
          "name": "",
          "type": "address"
        }
      ],
      "stateMutability": "view",
      "type": "function"
    },
    {
      "inputs": [
        {
          "internalType": "uint256",
          "name": "_requestId",
          "type": "uint256"
        }
      ],
      "name": "getRequestStatus",
      "outputs": [
        {
          "internalType": "bool",
          "name": "fulfilled",
          "type": "bool"
        },
        {
          "internalType": "uint256[]",
          "name": "randomWords",
          "type": "uint256[]"
        }
      ],
      "stateMutability": "view",
      "type": "function"
    },
    {
      "inputs": [
        {
          "internalType": "address",
          "name": "owner",
          "type": "address"
        },
        {
          "internalType": "address",
          "name": "operator",
          "type": "address"
        }
      ],
      "name": "isApprovedForAll",
      "outputs": [
        {
          "internalType": "bool",
          "name": "",
          "type": "bool"
        }
      ],
      "stateMutability": "view",
      "type": "function"
    },
    {
      "inputs": [],
      "name": "lastRequestId",
      "outputs": [
        {
          "internalType": "uint256",
          "name": "",
          "type": "uint256"
        }
      ],
      "stateMutability": "view",
      "type": "function"
    },
    {
      "inputs": [],
      "name": "mint",
      "outputs": [
        {
          "internalType": "uint256",
          "name": "",
          "type": "uint256"
        }
      ],
      "stateMutability": "nonpayable",
      "type": "function"
    },
    {
      "inputs": [],
      "name": "name",
      "outputs": [
        {
          "internalType": "string",
          "name": "",
          "type": "string"
        }
      ],
      "stateMutability": "view",
      "type": "function"
    },
    {
      "inputs": [],
      "name": "owner",
      "outputs": [
        {
          "internalType": "address",
          "name": "",
          "type": "address"
        }
      ],
      "stateMutability": "view",
      "type": "function"
    },
    {
      "inputs": [
        {
          "internalType": "uint256",
          "name": "tokenId",
          "type": "uint256"
        }
      ],
      "name": "ownerOf",
      "outputs": [
        {
          "internalType": "address",
          "name": "",
          "type": "address"
        }
      ],
      "stateMutability": "view",
      "type": "function"
    },
    {
      "inputs": [
        {
          "internalType": "uint256",
          "name": "requestId",
          "type": "uint256"
        },
        {
          "internalType": "uint256[]",
          "name": "randomWords",
          "type": "uint256[]"
        }
      ],
      "name": "rawFulfillRandomWords",
      "outputs": [],
      "stateMutability": "nonpayable",
      "type": "function"
    },
    {
      "inputs": [
        {
          "internalType": "uint256",
          "name": "",
          "type": "uint256"
        }
      ],
      "name": "requestIds",
      "outputs": [
        {
          "internalType": "uint256",
          "name": "",
          "type": "uint256"
        }
      ],
      "stateMutability": "view",
      "type": "function"
    },
    {
      "inputs": [],
      "name": "requestRandomWords",
      "outputs": [
        {
          "internalType": "uint256",
          "name": "requestId",
          "type": "uint256"
        }
      ],
      "stateMutability": "nonpayable",
      "type": "function"
    },
    {
      "inputs": [
        {
          "internalType": "uint256",
          "name": "",
          "type": "uint256"
        }
      ],
      "name": "s_requests",
      "outputs": [
        {
          "internalType": "bool",
          "name": "fulfilled",
          "type": "bool"
        },
        {
          "internalType": "bool",
          "name": "exists",
          "type": "bool"
        }
      ],
      "stateMutability": "view",
      "type": "function"
    },
    {
      "inputs": [
        {
          "internalType": "address",
          "name": "from",
          "type": "address"
        },
        {
          "internalType": "address",
          "name": "to",
          "type": "address"
        },
        {
          "internalType": "uint256",
          "name": "tokenId",
          "type": "uint256"
        }
      ],
      "name": "safeTransferFrom",
      "outputs": [],
      "stateMutability": "nonpayable",
      "type": "function"
    },
    {
      "inputs": [
        {
          "internalType": "address",
          "name": "from",
          "type": "address"
        },
        {
          "internalType": "address",
          "name": "to",
          "type": "address"
        },
        {
          "internalType": "uint256",
          "name": "tokenId",
          "type": "uint256"
        },
        {
          "internalType": "bytes",
          "name": "data",
          "type": "bytes"
        }
      ],
      "name": "safeTransferFrom",
      "outputs": [],
      "stateMutability": "nonpayable",
      "type": "function"
    },
    {
      "inputs": [
        {
          "internalType": "address",
          "name": "operator",
          "type": "address"
        },
        {
          "internalType": "bool",
          "name": "approved",
          "type": "bool"
        }
      ],
      "name": "setApprovalForAll",
      "outputs": [],
      "stateMutability": "nonpayable",
      "type": "function"
    },
    {
      "inputs": [
        {
          "internalType": "bytes4",
          "name": "interfaceId",
          "type": "bytes4"
        }
      ],
      "name": "supportsInterface",
      "outputs": [
        {
          "internalType": "bool",
          "name": "",
          "type": "bool"
        }
      ],
      "stateMutability": "view",
      "type": "function"
    },
    {
      "inputs": [],
      "name": "symbol",
      "outputs": [
        {
          "internalType": "string",
          "name": "",
          "type": "string"
        }
      ],
      "stateMutability": "view",
      "type": "function"
    },
    {
      "inputs": [
        {
          "internalType": "uint256",
          "name": "tokenId",
          "type": "uint256"
        }
      ],
      "name": "tokenURI",
      "outputs": [
        {
          "internalType": "string",
          "name": "",
          "type": "string"
        }
      ],
      "stateMutability": "view",
      "type": "function"
    },
    {
      "inputs": [
        {
          "internalType": "address",
          "name": "from",
          "type": "address"
        },
        {
          "internalType": "address",
          "name": "to",
          "type": "address"
        },
        {
          "internalType": "uint256",
          "name": "tokenId",
          "type": "uint256"
        }
      ],
      "name": "transferFrom",
      "outputs": [],
      "stateMutability": "nonpayable",
      "type": "function"
    },
    {
      "inputs": [
        {
          "internalType": "address",
          "name": "to",
          "type": "address"
        }
      ],
      "name": "transferOwnership",
      "outputs": [],
      "stateMutability": "nonpayable",
      "type": "function"
    }
  ],
  "bytecode": {
    "object": "0x60e0604052600a60a09081526950726f746f57414d4f5360b01b60c0526008906200002b908262000501565b506040805180820190915260068152657057414d4f7360d01b602082015260099062000058908262000501565b50600e805466020000000186a069ffffffff0000ffffffff199091161790557f79d3d8832d904592c0bf9818b621522c988bb8b0c05cdc3b15aea1b6e8db0c15600f557f4b09e658ed251bcafeebbc69400383d49f344ace09b9576fe248bb02c003fe9f6010557f354d2f95da55398f44b7cff77da56283d9c6c829a4bdf1bbcaf2ad6a4d081f61601155601280546001600160a01b0319908116732ca8e0c643bde4c2e08ab1fa0da3401adad7734d17909155601380548216737a1bac17ccc5b313516c5e16fb24f7659aa5ebed17905560148054909116732ed832ba664535e5886b75d64c46eb9a228c26101790553480156200015657600080fd5b5060405162002175380380620021758339810160408190526200017991620005cd565b60135460088054339283926000926001600160a01b03909216916200019e9062000472565b80601f0160208091040260200160405190810160405280929190818152602001828054620001cc9062000472565b80156200021d5780601f10620001f1576101008083540402835291602001916200021d565b820191906000526020600020905b815481529060010190602001808311620001ff57829003601f168201915b505050505060098054620002319062000472565b80601f01602080910402602001604051908101604052809291908181526020018280546200025f9062000472565b8015620002b05780601f106200028457610100808354040283529160200191620002b0565b820191906000526020600020905b8154815290600101906020018083116200029257829003601f168201915b50505050508160009081620002c6919062000501565b506001620002d5828262000501565b5050506001600160a01b0390811660805282166200033a5760405162461bcd60e51b815260206004820152601860248201527f43616e6e6f7420736574206f776e657220746f207a65726f000000000000000060448201526064015b60405180910390fd5b600680546001600160a01b0319166001600160a01b03848116919091179091558116156200036d576200036d81620003b0565b5050601354600b80546001600160401b03909416600160a01b026001600160e01b03199094166001600160a01b03909216919091179290921790915550620005ff565b336001600160a01b038216036200040a5760405162461bcd60e51b815260206004820152601760248201527f43616e6e6f74207472616e7366657220746f2073656c66000000000000000000604482015260640162000331565b600780546001600160a01b0319166001600160a01b03838116918217909255600654604051919216907fed8889f560326eb138920d842192f0eb3dd22b4f139c87a2c57538e05bae127890600090a350565b634e487b7160e01b600052604160045260246000fd5b600181811c908216806200048757607f821691505b602082108103620004a857634e487b7160e01b600052602260045260246000fd5b50919050565b601f821115620004fc57600081815260208120601f850160051c81016020861015620004d75750805b601f850160051c820191505b81811015620004f857828155600101620004e3565b5050505b505050565b81516001600160401b038111156200051d576200051d6200045c565b62000535816200052e845462000472565b84620004ae565b602080601f8311600181146200056d5760008415620005545750858301515b600019600386901b1c1916600185901b178555620004f8565b600085815260208120601f198616915b828110156200059e578886015182559484019460019091019084016200057d565b5085821015620005bd5787850151600019600388901b60f8161c191681555b5050505050600190811b01905550565b600060208284031215620005e057600080fd5b81516001600160401b0381168114620005f857600080fd5b9392505050565b608051611b5362000622600039600081816105ad01526105ef0152611b536000f3fe608060405234801561001057600080fd5b50600436106101735760003560e01c80638da5cb5b116100de578063c87b56dd11610097578063e985e9c511610071578063e985e9c514610346578063f2fde38b14610359578063f76f8d781461036c578063fc2a88c31461037457600080fd5b8063c87b56dd1461030a578063d8a4676f1461031d578063e0c862891461033e57600080fd5b80638da5cb5b1461028057806395d89b4114610291578063a168fa8914610299578063a22cb465146102dc578063a3f4df7e146102ef578063b88d4fde146102f757600080fd5b806323b872dd1161013057806323b872dd1461021957806342842e0e1461022c5780636352211e1461023f57806370a082311461025257806379ba5097146102655780638796ba8c1461026d57600080fd5b806301ffc9a71461017857806306fdde03146101a0578063081812fc146101b5578063095ea7b3146101e05780631249c58b146101f55780631fe543e314610206575b600080fd5b61018b610186366004611554565b61037d565b60405190151581526020015b60405180910390f35b6101a86103cf565b60405161019791906115c1565b6101c86101c33660046115d4565b610461565b6040516001600160a01b039091168152602001610197565b6101f36101ee366004611609565b610488565b005b60005b604051908152602001610197565b6101f361021436600461167a565b6105a2565b6101f361022736600461172c565b61062a565b6101f361023a36600461172c565b61065b565b6101c861024d3660046115d4565b610676565b6101f8610260366004611768565b6106d6565b6101f361075c565b6101f861027b3660046115d4565b61080a565b6006546001600160a01b03166101c8565b6101a861082b565b6102c56102a73660046115d4565b600a6020526000908152604090205460ff8082169161010090041682565b604080519215158352901515602083015201610197565b6101f36102ea366004611783565b61083a565b6101a8610845565b6101f36103053660046117bf565b6108d3565b6101a86103183660046115d4565b61090b565b61033061032b3660046115d4565b61097f565b6040516101979291906118ba565b6101f8610a73565b61018b6103543660046118d5565b610c38565b6101f3610367366004611768565b610c66565b6101a8610c7a565b6101f8600d5481565b60006001600160e01b031982166380ac58cd60e01b14806103ae57506001600160e01b03198216635b5e139f60e01b145b806103c957506301ffc9a760e01b6001600160e01b03198316145b92915050565b6060600080546103de90611908565b80601f016020809104026020016040519081016040528092919081815260200182805461040a90611908565b80156104575780601f1061042c57610100808354040283529160200191610457565b820191906000526020600020905b81548152906001019060200180831161043a57829003601f168201915b5050505050905090565b600061046c82610c87565b506000908152600460205260409020546001600160a01b031690565b600061049382610676565b9050806001600160a01b0316836001600160a01b0316036105055760405162461bcd60e51b815260206004820152602160248201527f4552433732313a20617070726f76616c20746f2063757272656e74206f776e656044820152603960f91b60648201526084015b60405180910390fd5b336001600160a01b038216148061052157506105218133610c38565b6105935760405162461bcd60e51b815260206004820152603d60248201527f4552433732313a20617070726f76652063616c6c6572206973206e6f7420746f60448201527f6b656e206f776e6572206f7220617070726f76656420666f7220616c6c00000060648201526084016104fc565b61059d8383610ce6565b505050565b336001600160a01b037f0000000000000000000000000000000000000000000000000000000000000000161461061c5760405163073e64fd60e21b81523360048201526001600160a01b037f00000000000000000000000000000000000000000000000000000000000000001660248201526044016104fc565b6106268282610d54565b5050565b6106343382610e1a565b6106505760405162461bcd60e51b81526004016104fc90611942565b61059d838383610e79565b61059d838383604051806020016040528060008152506108d3565b6000818152600260205260408120546001600160a01b0316806103c95760405162461bcd60e51b8152602060048201526018602482015277115490cdcc8c4e881a5b9d985b1a59081d1bdad95b88125160421b60448201526064016104fc565b60006001600160a01b0382166107405760405162461bcd60e51b815260206004820152602960248201527f4552433732313a2061646472657373207a65726f206973206e6f7420612076616044820152683634b21037bbb732b960b91b60648201526084016104fc565b506001600160a01b031660009081526003602052604090205490565b6007546001600160a01b031633146107af5760405162461bcd60e51b815260206004820152601660248201527526bab9ba10313290383937b837b9b2b21037bbb732b960511b60448201526064016104fc565b600680546001600160a01b0319808216339081179093556007805490911690556040516001600160a01b03909116919082907f8be0079c531659141344cd1fd0a4f28419497f9722a3daafe3b4186f6b6457e090600090a350565b600c818154811061081a57600080fd5b600091825260209091200154905081565b6060600180546103de90611908565b610626338383610fea565b6008805461085290611908565b80601f016020809104026020016040519081016040528092919081815260200182805461087e90611908565b80156108cb5780601f106108a0576101008083540402835291602001916108cb565b820191906000526020600020905b8154815290600101906020018083116108ae57829003601f168201915b505050505081565b6108dd3383610e1a565b6108f95760405162461bcd60e51b81526004016104fc90611942565b610905848484846110b8565b50505050565b606061091682610c87565b600061092d60408051602081019091526000815290565b9050600081511161094d5760405180602001604052806000815250610978565b80610957846110eb565b60405160200161096892919061198f565b6040516020818303038152906040525b9392505050565b6000818152600a6020526040812054606090610100900460ff166109d95760405162461bcd60e51b815260206004820152601160248201527014995c5d595cdd081b9bdd08199bdd5b99607a1b60448201526064016104fc565b6000838152600a602090815260408083208151606081018352815460ff8082161515835261010090910416151581850152600182018054845181870281018701865281815292959394860193830182828015610a5457602002820191906000526020600020905b815481526020019060010190808311610a40575b5050505050815250509050806000015181604001519250925050915091565b6000610a7d61117e565b600b54601054600e546040516305d3b1d360e41b81526004810192909252600160a01b830467ffffffffffffffff166024830152640100000000810461ffff16604483015263ffffffff808216606484015266010000000000009091041660848201526001600160a01b0390911690635d3b1d309060a4016020604051808303816000875af1158015610b14573d6000803e3d6000fd5b505050506040513d601f19601f82011682018060405250810190610b3891906119be565b6040805160608101825260008082526001602080840182815285518481528083018752858701908152878552600a83529590932084518154945161ffff1990951690151561ff00191617610100941515949094029390931783559351805195965092949193610bad93918501929101906114de565b5050600c80546001810182556000919091527fdf6966c971051c3d54ec59162606531493a51404a002842f56009d7e5cf4a8c70182905550600d819055600e5460408051838152660100000000000090920463ffffffff1660208301527fcc58b13ad3eab50626c6a6300b1d139cd6ebb1688a7cced9461c2f7e762665ee910160405180910390a190565b6001600160a01b03918216600090815260056020908152604080832093909416825291909152205460ff1690565b610c6e61117e565b610c77816111d3565b50565b6009805461085290611908565b6000818152600260205260409020546001600160a01b0316610c775760405162461bcd60e51b8152602060048201526018602482015277115490cdcc8c4e881a5b9d985b1a59081d1bdad95b88125160421b60448201526064016104fc565b600081815260046020526040902080546001600160a01b0319166001600160a01b0384169081179091558190610d1b82610676565b6001600160a01b03167f8c5be1e5ebec7d5bd14f71427d1e84f3dd0314c0f7b2291e5b200ac8c7c3b92560405160405180910390a45050565b6000828152600a6020526040902054610100900460ff16610dab5760405162461bcd60e51b815260206004820152601160248201527014995c5d595cdd081b9bdd08199bdd5b99607a1b60448201526064016104fc565b6000828152600a60209081526040909120805460ff1916600190811782558351610ddc9392909101918401906114de565b507ffe2e2d779dba245964d4e3ef9b994be63856fd568bf7d3ca9e224755cb1bd54d8282604051610e0e9291906119d7565b60405180910390a15050565b600080610e2683610676565b9050806001600160a01b0316846001600160a01b03161480610e4d5750610e4d8185610c38565b80610e715750836001600160a01b0316610e6684610461565b6001600160a01b0316145b949350505050565b826001600160a01b0316610e8c82610676565b6001600160a01b031614610eb25760405162461bcd60e51b81526004016104fc906119f0565b6001600160a01b038216610f145760405162461bcd60e51b8152602060048201526024808201527f4552433732313a207472616e7366657220746f20746865207a65726f206164646044820152637265737360e01b60648201526084016104fc565b610f21838383600161127d565b826001600160a01b0316610f3482610676565b6001600160a01b031614610f5a5760405162461bcd60e51b81526004016104fc906119f0565b600081815260046020908152604080832080546001600160a01b03199081169091556001600160a01b0387811680865260038552838620805460001901905590871680865283862080546001019055868652600290945282852080549092168417909155905184937fddf252ad1be2c89b69c2b068fc378daa952ba7f163c4a11628f55a4df523b3ef91a4505050565b816001600160a01b0316836001600160a01b03160361104b5760405162461bcd60e51b815260206004820152601960248201527f4552433732313a20617070726f766520746f2063616c6c65720000000000000060448201526064016104fc565b6001600160a01b03838116600081815260056020908152604080832094871680845294825291829020805460ff191686151590811790915591519182527f17307eab39ab6107e8899845ad3d59bd9653f200f220920489ca2b5937696c31910160405180910390a3505050565b6110c3848484610e79565b6110cf84848484611305565b6109055760405162461bcd60e51b81526004016104fc90611a35565b606060006110f883611406565b600101905060008167ffffffffffffffff81111561111857611118611633565b6040519080825280601f01601f191660200182016040528015611142576020820181803683370190505b5090508181016020015b600019016f181899199a1a9b1b9c1cb0b131b232b360811b600a86061a8153600a850494508461114c57509392505050565b6006546001600160a01b031633146111d15760405162461bcd60e51b815260206004820152601660248201527527b7363c9031b0b63630b1363290313c9037bbb732b960511b60448201526064016104fc565b565b336001600160a01b0382160361122b5760405162461bcd60e51b815260206004820152601760248201527f43616e6e6f74207472616e7366657220746f2073656c6600000000000000000060448201526064016104fc565b600780546001600160a01b0319166001600160a01b03838116918217909255600654604051919216907fed8889f560326eb138920d842192f0eb3dd22b4f139c87a2c57538e05bae127890600090a350565b6001811115610905576001600160a01b038416156112c3576001600160a01b038416600090815260036020526040812080548392906112bd908490611a9d565b90915550505b6001600160a01b03831615610905576001600160a01b038316600090815260036020526040812080548392906112fa908490611ab0565b909155505050505050565b60006001600160a01b0384163b156113fb57604051630a85bd0160e11b81526001600160a01b0385169063150b7a0290611349903390899088908890600401611ac3565b6020604051808303816000875af1925050508015611384575060408051601f3d908101601f1916820190925261138191810190611b00565b60015b6113e1573d8080156113b2576040519150601f19603f3d011682016040523d82523d6000602084013e6113b7565b606091505b5080516000036113d95760405162461bcd60e51b81526004016104fc90611a35565b805181602001fd5b6001600160e01b031916630a85bd0160e11b149050610e71565b506001949350505050565b60008072184f03e93ff9f4daa797ed6e38ed64bf6a1f0160401b83106114455772184f03e93ff9f4daa797ed6e38ed64bf6a1f0160401b830492506040015b6d04ee2d6d415b85acef81000000008310611471576d04ee2d6d415b85acef8100000000830492506020015b662386f26fc10000831061148f57662386f26fc10000830492506010015b6305f5e10083106114a7576305f5e100830492506008015b61271083106114bb57612710830492506004015b606483106114cd576064830492506002015b600a83106103c95760010192915050565b828054828255906000526020600020908101928215611519579160200282015b828111156115195782518255916020019190600101906114fe565b50611525929150611529565b5090565b5b80821115611525576000815560010161152a565b6001600160e01b031981168114610c7757600080fd5b60006020828403121561156657600080fd5b81356109788161153e565b60005b8381101561158c578181015183820152602001611574565b50506000910152565b600081518084526115ad816020860160208601611571565b601f01601f19169290920160200192915050565b6020815260006109786020830184611595565b6000602082840312156115e657600080fd5b5035919050565b80356001600160a01b038116811461160457600080fd5b919050565b6000806040838503121561161c57600080fd5b611625836115ed565b946020939093013593505050565b634e487b7160e01b600052604160045260246000fd5b604051601f8201601f1916810167ffffffffffffffff8111828210171561167257611672611633565b604052919050565b6000806040838503121561168d57600080fd5b8235915060208084013567ffffffffffffffff808211156116ad57600080fd5b818601915086601f8301126116c157600080fd5b8135818111156116d3576116d3611633565b8060051b91506116e4848301611649565b81815291830184019184810190898411156116fe57600080fd5b938501935b8385101561171c57843582529385019390850190611703565b8096505050505050509250929050565b60008060006060848603121561174157600080fd5b61174a846115ed565b9250611758602085016115ed565b9150604084013590509250925092565b60006020828403121561177a57600080fd5b610978826115ed565b6000806040838503121561179657600080fd5b61179f836115ed565b9150602083013580151581146117b457600080fd5b809150509250929050565b600080600080608085870312156117d557600080fd5b6117de856115ed565b935060206117ed8187016115ed565b935060408601359250606086013567ffffffffffffffff8082111561181157600080fd5b818801915088601f83011261182557600080fd5b81358181111561183757611837611633565b611849601f8201601f19168501611649565b9150808252898482850101111561185f57600080fd5b808484018584013760008482840101525080935050505092959194509250565b600081518084526020808501945080840160005b838110156118af57815187529582019590820190600101611893565b509495945050505050565b8215158152604060208201526000610e71604083018461187f565b600080604083850312156118e857600080fd5b6118f1836115ed565b91506118ff602084016115ed565b90509250929050565b600181811c9082168061191c57607f821691505b60208210810361193c57634e487b7160e01b600052602260045260246000fd5b50919050565b6020808252602d908201527f4552433732313a2063616c6c6572206973206e6f7420746f6b656e206f776e6560408201526c1c881bdc88185c1c1c9bdd9959609a1b606082015260800190565b600083516119a1818460208801611571565b8351908301906119b5818360208801611571565b01949350505050565b6000602082840312156119d057600080fd5b5051919050565b828152604060208201526000610e71604083018461187f565b60208082526025908201527f4552433732313a207472616e736665722066726f6d20696e636f72726563742060408201526437bbb732b960d91b606082015260800190565b60208082526032908201527f4552433732313a207472616e7366657220746f206e6f6e20455243373231526560408201527131b2b4bb32b91034b6b83632b6b2b73a32b960711b606082015260800190565b634e487b7160e01b600052601160045260246000fd5b818103818111156103c9576103c9611a87565b808201808211156103c9576103c9611a87565b6001600160a01b0385811682528416602082015260408101839052608060608201819052600090611af690830184611595565b9695505050505050565b600060208284031215611b1257600080fd5b81516109788161153e56fea26469706673582212204e93e1f062f5a1b5a008605887db92677e815af2bdf5b2801a56e3ff6e3f327d64736f6c63430008110033",
    "linkReferences": {}
  },
  "methodIdentifiers": {
    "NAME()": "a3f4df7e",
    "SYMBOL()": "f76f8d78",
    "acceptOwnership()": "79ba5097",
    "approve(address,uint256)": "095ea7b3",
    "balanceOf(address)": "70a08231",
    "getApproved(uint256)": "081812fc",
    "getRequestStatus(uint256)": "d8a4676f",
    "isApprovedForAll(address,address)": "e985e9c5",
    "lastRequestId()": "fc2a88c3",
    "mint()": "1249c58b",
    "name()": "06fdde03",
    "owner()": "8da5cb5b",
    "ownerOf(uint256)": "6352211e",
    "rawFulfillRandomWords(uint256,uint256[])": "1fe543e3",
    "requestIds(uint256)": "8796ba8c",
    "requestRandomWords()": "e0c86289",
    "s_requests(uint256)": "a168fa89",
    "safeTransferFrom(address,address,uint256)": "42842e0e",
    "safeTransferFrom(address,address,uint256,bytes)": "b88d4fde",
    "setApprovalForAll(address,bool)": "a22cb465",
    "supportsInterface(bytes4)": "01ffc9a7",
    "symbol()": "95d89b41",
    "tokenURI(uint256)": "c87b56dd",
    "transferFrom(address,address,uint256)": "23b872dd",
    "transferOwnership(address)": "f2fde38b"
  },
  "id": 26
}