{
  "abi": [
    {
      "inputs": [
        {
          "internalType": "address",
          "name": "_wamosAddr",
          "type": "address"
        }
      ],
      "stateMutability": "nonpayable",
      "type": "constructor"
    },
    {
      "inputs": [
        {
          "internalType": "uint256",
          "name": "gameId",
          "type": "uint256"
        },
        {
          "internalType": "address",
          "name": "sender",
          "type": "address"
        }
      ],
      "name": "GameNotFinished",
      "type": "error"
    },
    {
      "inputs": [
        {
          "internalType": "uint256",
          "name": "wamoId",
          "type": "uint256"
        },
        {
          "internalType": "int16",
          "name": "attemptedIdenMutation",
          "type": "int16"
        }
      ],
      "name": "MoveOutOfBounds",
      "type": "error"
    },
    {
      "inputs": [
        {
          "internalType": "uint256",
          "name": "gameId",
          "type": "uint256"
        },
        {
          "internalType": "address",
          "name": "sender",
          "type": "address"
        }
      ],
      "name": "NotPlayerInGame",
      "type": "error"
    },
    {
      "inputs": [
        {
          "internalType": "uint256",
          "name": "gameId",
          "type": "uint256"
        },
        {
          "internalType": "address",
          "name": "sender",
          "type": "address"
        }
      ],
      "name": "NotPlayersTurnOrNotInGame",
      "type": "error"
    },
    {
      "inputs": [
        {
          "internalType": "uint256",
          "name": "gameId",
          "type": "uint256"
        }
      ],
      "name": "OpponentNotDefeated",
      "type": "error"
    },
    {
      "inputs": [],
      "name": "GRID_SIZE",
      "outputs": [
        {
          "internalType": "int16",
          "name": "",
          "type": "int16"
        }
      ],
      "stateMutability": "view",
      "type": "function"
    },
    {
      "inputs": [],
      "name": "MAX_PLAYERS",
      "outputs": [
        {
          "internalType": "uint256",
          "name": "",
          "type": "uint256"
        }
      ],
      "stateMutability": "view",
      "type": "function"
    },
    {
      "inputs": [],
      "name": "PARTY_SIZE",
      "outputs": [
        {
          "internalType": "uint256",
          "name": "",
          "type": "uint256"
        }
      ],
      "stateMutability": "view",
      "type": "function"
    },
    {
      "inputs": [
        {
          "components": [
            {
              "internalType": "address[2]",
              "name": "players",
              "type": "address[2]"
            },
            {
              "internalType": "enum GameStatus",
              "name": "status",
              "type": "uint8"
            },
            {
              "internalType": "uint256",
              "name": "partySize",
              "type": "uint256"
            },
            {
              "internalType": "bool",
              "name": "party1IsStaked",
              "type": "bool"
            },
            {
              "internalType": "bool",
              "name": "party2IsStaked",
              "type": "bool"
            },
            {
              "internalType": "uint256[3]",
              "name": "party1",
              "type": "uint256[3]"
            },
            {
              "internalType": "uint256[3]",
              "name": "party2",
              "type": "uint256[3]"
            },
            {
              "internalType": "uint256",
              "name": "createTime",
              "type": "uint256"
            },
            {
              "internalType": "uint256",
              "name": "lastMoveTime",
              "type": "uint256"
            },
            {
              "internalType": "uint256",
              "name": "turnCount",
              "type": "uint256"
            },
            {
              "internalType": "address",
              "name": "victor",
              "type": "address"
            }
          ],
          "internalType": "struct GameData",
          "name": "game",
          "type": "tuple"
        }
      ],
      "name": "_encodeGameData",
      "outputs": [
        {
          "internalType": "uint256",
          "name": "gameData",
          "type": "uint256"
        }
      ],
      "stateMutability": "nonpayable",
      "type": "function"
    },
    {
      "inputs": [
        {
          "internalType": "int16",
          "name": "number",
          "type": "int16"
        }
      ],
      "name": "abs",
      "outputs": [
        {
          "internalType": "int16",
          "name": "",
          "type": "int16"
        }
      ],
      "stateMutability": "pure",
      "type": "function"
    },
    {
      "inputs": [
        {
          "internalType": "address",
          "name": "",
          "type": "address"
        },
        {
          "internalType": "uint256",
          "name": "",
          "type": "uint256"
        }
      ],
      "name": "addrToChallengesReceived",
      "outputs": [
        {
          "internalType": "uint256",
          "name": "",
          "type": "uint256"
        }
      ],
      "stateMutability": "view",
      "type": "function"
    },
    {
      "inputs": [
        {
          "internalType": "address",
          "name": "",
          "type": "address"
        },
        {
          "internalType": "uint256",
          "name": "",
          "type": "uint256"
        }
      ],
      "name": "addrToChallengesSent",
      "outputs": [
        {
          "internalType": "uint256",
          "name": "",
          "type": "uint256"
        }
      ],
      "stateMutability": "view",
      "type": "function"
    },
    {
      "inputs": [
        {
          "internalType": "address",
          "name": "",
          "type": "address"
        }
      ],
      "name": "addrToPlayerTag",
      "outputs": [
        {
          "internalType": "string",
          "name": "",
          "type": "string"
        }
      ],
      "stateMutability": "view",
      "type": "function"
    },
    {
      "inputs": [
        {
          "internalType": "uint256",
          "name": "actingWamoId",
          "type": "uint256"
        },
        {
          "internalType": "uint256",
          "name": "targetWamoId",
          "type": "uint256"
        },
        {
          "components": [
            {
              "internalType": "uint256",
              "name": "dietyType",
              "type": "uint256"
            },
            {
              "internalType": "enum DamageType",
              "name": "damageType",
              "type": "uint8"
            },
            {
              "internalType": "uint256",
              "name": "power",
              "type": "uint256"
            },
            {
              "internalType": "uint256",
              "name": "accuracy",
              "type": "uint256"
            },
            {
              "internalType": "int16",
              "name": "range",
              "type": "int16"
            },
            {
              "internalType": "uint256",
              "name": "cost",
              "type": "uint256"
            }
          ],
          "internalType": "struct Ability",
          "name": "ability",
          "type": "tuple"
        }
      ],
      "name": "calculateDamage",
      "outputs": [
        {
          "internalType": "uint256",
          "name": "damage",
          "type": "uint256"
        }
      ],
      "stateMutability": "nonpayable",
      "type": "function"
    },
    {
      "inputs": [
        {
          "internalType": "uint256",
          "name": "gameId",
          "type": "uint256"
        }
      ],
      "name": "claimVictory",
      "outputs": [],
      "stateMutability": "nonpayable",
      "type": "function"
    },
    {
      "inputs": [
        {
          "internalType": "uint256",
          "name": "gameId",
          "type": "uint256"
        },
        {
          "internalType": "uint256",
          "name": "actingWamoId",
          "type": "uint256"
        },
        {
          "internalType": "uint256",
          "name": "targetWamoId",
          "type": "uint256"
        },
        {
          "internalType": "uint256",
          "name": "moveSelection",
          "type": "uint256"
        },
        {
          "internalType": "uint256",
          "name": "abilitySelection",
          "type": "uint256"
        },
        {
          "internalType": "bool",
          "name": "isMoved",
          "type": "bool"
        },
        {
          "internalType": "bool",
          "name": "moveBeforeAbility",
          "type": "bool"
        },
        {
          "internalType": "bool",
          "name": "useAbility",
          "type": "bool"
        }
      ],
      "name": "commitTurn",
      "outputs": [],
      "stateMutability": "nonpayable",
      "type": "function"
    },
    {
      "inputs": [
        {
          "internalType": "uint256",
          "name": "gameId",
          "type": "uint256"
        },
        {
          "internalType": "uint256[3]",
          "name": "wamoIds",
          "type": "uint256[3]"
        }
      ],
      "name": "connectWamos",
      "outputs": [],
      "stateMutability": "nonpayable",
      "type": "function"
    },
    {
      "inputs": [
        {
          "internalType": "address",
          "name": "player2",
          "type": "address"
        },
        {
          "internalType": "uint256",
          "name": "partySize",
          "type": "uint256"
        }
      ],
      "name": "createGame",
      "outputs": [
        {
          "internalType": "uint256",
          "name": "gameId",
          "type": "uint256"
        }
      ],
      "stateMutability": "nonpayable",
      "type": "function"
    },
    {
      "inputs": [
        {
          "internalType": "int16",
          "name": "p1",
          "type": "int16"
        },
        {
          "internalType": "int16",
          "name": "p2",
          "type": "int16"
        }
      ],
      "name": "euclideanDistance",
      "outputs": [
        {
          "internalType": "int16",
          "name": "y",
          "type": "int16"
        }
      ],
      "stateMutability": "pure",
      "type": "function"
    },
    {
      "inputs": [],
      "name": "gameCount",
      "outputs": [
        {
          "internalType": "uint256",
          "name": "",
          "type": "uint256"
        }
      ],
      "stateMutability": "view",
      "type": "function"
    },
    {
      "inputs": [
        {
          "internalType": "uint256",
          "name": "gameId",
          "type": "uint256"
        }
      ],
      "name": "getGameDataStruct",
      "outputs": [
        {
          "components": [
            {
              "internalType": "address[2]",
              "name": "players",
              "type": "address[2]"
            },
            {
              "internalType": "enum GameStatus",
              "name": "status",
              "type": "uint8"
            },
            {
              "internalType": "uint256",
              "name": "partySize",
              "type": "uint256"
            },
            {
              "internalType": "bool",
              "name": "party1IsStaked",
              "type": "bool"
            },
            {
              "internalType": "bool",
              "name": "party2IsStaked",
              "type": "bool"
            },
            {
              "internalType": "uint256[3]",
              "name": "party1",
              "type": "uint256[3]"
            },
            {
              "internalType": "uint256[3]",
              "name": "party2",
              "type": "uint256[3]"
            },
            {
              "internalType": "uint256",
              "name": "createTime",
              "type": "uint256"
            },
            {
              "internalType": "uint256",
              "name": "lastMoveTime",
              "type": "uint256"
            },
            {
              "internalType": "uint256",
              "name": "turnCount",
              "type": "uint256"
            },
            {
              "internalType": "address",
              "name": "victor",
              "type": "address"
            }
          ],
          "internalType": "struct GameData",
          "name": "",
          "type": "tuple"
        }
      ],
      "stateMutability": "view",
      "type": "function"
    },
    {
      "inputs": [
        {
          "internalType": "uint256",
          "name": "gameId",
          "type": "uint256"
        }
      ],
      "name": "getGameStatus",
      "outputs": [
        {
          "internalType": "enum GameStatus",
          "name": "",
          "type": "uint8"
        }
      ],
      "stateMutability": "view",
      "type": "function"
    },
    {
      "inputs": [
        {
          "internalType": "uint256",
          "name": "gameId",
          "type": "uint256"
        }
      ],
      "name": "getTurnCount",
      "outputs": [
        {
          "internalType": "uint256",
          "name": "",
          "type": "uint256"
        }
      ],
      "stateMutability": "view",
      "type": "function"
    },
    {
      "inputs": [
        {
          "internalType": "uint256",
          "name": "wamoId",
          "type": "uint256"
        }
      ],
      "name": "getWamoHealthStatus",
      "outputs": [
        {
          "internalType": "uint256",
          "name": "",
          "type": "uint256"
        }
      ],
      "stateMutability": "view",
      "type": "function"
    },
    {
      "inputs": [
        {
          "internalType": "uint256",
          "name": "wamoId",
          "type": "uint256"
        }
      ],
      "name": "getWamoPosition",
      "outputs": [
        {
          "internalType": "int16",
          "name": "position",
          "type": "int16"
        }
      ],
      "stateMutability": "view",
      "type": "function"
    },
    {
      "inputs": [
        {
          "internalType": "uint256",
          "name": "wamoId",
          "type": "uint256"
        }
      ],
      "name": "getWamoStatus",
      "outputs": [
        {
          "components": [
            {
              "internalType": "bool",
              "name": "inArena",
              "type": "bool"
            },
            {
              "internalType": "int16",
              "name": "position",
              "type": "int16"
            },
            {
              "internalType": "uint256",
              "name": "health",
              "type": "uint256"
            },
            {
              "internalType": "uint256",
              "name": "stamina",
              "type": "uint256"
            },
            {
              "internalType": "uint256",
              "name": "mana",
              "type": "uint256"
            }
          ],
          "internalType": "struct WamoStatus",
          "name": "status",
          "type": "tuple"
        }
      ],
      "stateMutability": "view",
      "type": "function"
    },
    {
      "inputs": [
        {
          "internalType": "address",
          "name": "operator",
          "type": "address"
        },
        {
          "internalType": "address",
          "name": "from",
          "type": "address"
        },
        {
          "internalType": "uint256",
          "name": "tokenId",
          "type": "uint256"
        },
        {
          "internalType": "bytes",
          "name": "data",
          "type": "bytes"
        }
      ],
      "name": "onERC721Received",
      "outputs": [
        {
          "internalType": "bytes4",
          "name": "",
          "type": "bytes4"
        }
      ],
      "stateMutability": "nonpayable",
      "type": "function"
    },
    {
      "inputs": [
        {
          "internalType": "uint256",
          "name": "gameId",
          "type": "uint256"
        }
      ],
      "name": "resign",
      "outputs": [],
      "stateMutability": "nonpayable",
      "type": "function"
    },
    {
      "inputs": [
        {
          "internalType": "uint256",
          "name": "gameId",
          "type": "uint256"
        }
      ],
      "name": "retrieveWamos",
      "outputs": [],
      "stateMutability": "nonpayable",
      "type": "function"
    },
    {
      "inputs": [
        {
          "internalType": "string",
          "name": "newPlayerTag",
          "type": "string"
        }
      ],
      "name": "setPlayerTag",
      "outputs": [],
      "stateMutability": "nonpayable",
      "type": "function"
    },
    {
      "inputs": [
        {
          "internalType": "uint256",
          "name": "wamoId",
          "type": "uint256"
        },
        {
          "internalType": "uint256",
          "name": "newHealth",
          "type": "uint256"
        }
      ],
      "name": "setWamoHealth",
      "outputs": [],
      "stateMutability": "nonpayable",
      "type": "function"
    },
    {
      "inputs": [
        {
          "internalType": "uint256",
          "name": "wamoId",
          "type": "uint256"
        },
        {
          "internalType": "int16",
          "name": "newIden",
          "type": "int16"
        }
      ],
      "name": "setWamoPosition",
      "outputs": [],
      "stateMutability": "nonpayable",
      "type": "function"
    },
    {
      "inputs": [
        {
          "internalType": "int16",
          "name": "x",
          "type": "int16"
        }
      ],
      "name": "sqrtApprox",
      "outputs": [
        {
          "internalType": "int16",
          "name": "y",
          "type": "int16"
        }
      ],
      "stateMutability": "pure",
      "type": "function"
    }
  ],
  "bytecode": {
    "object": "0x60a06040523480156200001157600080fd5b50604051620029173803806200291783398101604081905262000034916200005e565b600080546001600160a01b0319166001600160a01b03929092169190911790553360805262000090565b6000602082840312156200007157600080fd5b81516001600160a01b03811681146200008957600080fd5b9392505050565b608051612864620000b36000396000818161048a0152610fd901526128646000f3fe608060405234801561001057600080fd5b50600436106101c45760003560e01c806345f61431116100f957806398f5ec3511610097578063d6058aa311610071578063d6058aa314610432578063e8ea165514610445578063e958c81914610458578063f4499ef51461046c57600080fd5b806398f5ec3514610399578063ca9d1917146103b0578063d2ec4bf11461040a57600080fd5b80634ff776b8116100d35780634ff776b81461035e57806374919396146103715780637ae3e8d0146103275780637fc4eda81461039157600080fd5b806345f614311461032f57806348c407ef146103425780634d1975b41461035557600080fd5b80631ab67bc31161016657806333f82cb01161014057806333f82cb0146102e15780633ddead32146102f45780633f83c2c0146103075780634411b3eb1461032757600080fd5b80631ab67bc314610295578063256959b8146102a85780632ee90822146102bb57600080fd5b806308d9801c116101a257806308d9801c146102175780630b25680f1461022a5780630f1bf4541461023d578063150b7a021461025d57600080fd5b8063015661dd146101c957806304f79420146101de57806307ead93014610204575b600080fd5b6101dc6101d7366004611b59565b61047f565b005b6101f16101ec366004611b7b565b6104e5565b6040519081526020015b60405180910390f35b6101f1610212366004611bb0565b6104fe565b6101dc610225366004611b7b565b610689565b6101f1610238366004611bb0565b610730565b61025061024b366004611b7b565b610761565b6040516101fb9190611c12565b61027c61026b366004611c69565b630a85bd0160e11b95945050505050565b6040516001600160e01b031990911681526020016101fb565b6101dc6102a3366004611dcd565b61077b565b6101f16102b6366004611b7b565b610982565b6102ce6102c9366004611e0c565b610999565b60405160019190910b81526020016101fb565b6101dc6102ef366004611e30565b6109b8565b6102ce610302366004611e72565b6109d2565b61031a610315366004611eab565b610aac565b6040516101fb9190611ec6565b6101f1600281565b6101dc61033d366004611b7b565b610b46565b6101f1610350366004611bb0565b610cbe565b6101f160015481565b6101dc61036c366004611b7b565b610cda565b61038461037f366004611b7b565b610ddb565b6040516101fb9190611f6a565b6102ce601081565b6101f16103a7366004612037565b50600a92915050565b6103c36103be366004611b7b565b610f3e565b6040516101fb9190600060a082019050825115158252602083015160010b602083015260408301516040830152606083015160608301526080830151608083015292915050565b6102ce610418366004611b7b565b600090815260096020526040902054610100900460010b90565b6101dc6104403660046120c9565b610fce565b6102ce610453366004611e0c565b611024565b6101f161046636600461216a565b50600090565b6101dc61047a36600461222f565b611083565b336001600160a01b037f000000000000000000000000000000000000000000000000000000000000000016146104d05760405162461bcd60e51b81526004016104c7906122a3565b60405180910390fd5b60009182526009602052604090912060010155565b6000818152600560205260408120600d01545b92915050565b600180546000913391908361051283612301565b919050559150610520611a11565b4260e08201526040808201859052805180820182526001600160a01b0384811682528716602080830182905291845260008285018190528351808501855233815280840192909252868152600790925291902061057e916002611a86565b506000838152600560205260409020815182919061059f9082906002611a86565b5060208201518160020160006101000a81548160ff021916908360028111156105ca576105ca611bda565b021790555060408201516003808301919091556060830151600483018054608086015115156101000261ff00199315159390931661ffff199091161791909117905560a083015161062091600584019190611ada565b5060c08201516106369060088301906003611ada565b5060e0820151600b820155610100820151600c820155610120820151600d82015561014090910151600e90910180546001600160a01b0319166001600160a01b0390921691909117905550909392505050565b6000818152600760205260408120829101546001600160a01b031633148015906106cd57506000818152600760205260409020600101546001600160a01b03163314155b156106f4576040516314ecadef60e21b8152600481018290523360248201526044016104c7565b60006106fe611b08565b80516001600160a01b0316330361071b5760208101519150610720565b805191505b61072a8483611280565b50505050565b6002602052816000526040600020818154811061074c57600080fd5b90600052602060002001600091509150505481565b60008181526005602052604081206002015460ff166104f8565b6000828152600760205260408120839101546001600160a01b031633148015906107bf57506000818152600760205260409020600101546001600160a01b03163314155b156107e6576040516314ecadef60e21b8152600481018290523360248201526044016104c7565b60005b60038110156108e75760016008600085846003811061080a5761080a61231a565b6020020151815260200190815260200160002060006101000a81548160ff0219169083600281111561083e5761083e611bda565b02179055506000546001600160a01b03166342842e0e33308685600381106108685761086861231a565b60200201516040516001600160e01b031960e086901b1681526001600160a01b0393841660048201529290911660248301526044820152606401600060405180830381600087803b1580156108bc57600080fd5b505af11580156108d0573d6000803e3d6000fd5b5050505080806108df90612301565b9150506107e9565b506000838152600560205260409020546001600160a01b0316330361093957600083815260056020819052604090912060048101805460ff191660011790556109339101836003611ada565b50610969565b600083815260056020526040902060048101805461ff00191661010017905561096790600801836003611ada565b505b6109748333846112c1565b61097d83611485565b505050565b6000818152600960205260408120600101546104f8565b6000808260010b12156109b4576109af82612330565b6104f8565b5090565b33600090815260046020526040902061097d8284836123d3565b6000806109e06010856124a9565b6109eb6010856124a9565b6109f591906124cb565b90506000610a04601086612511565b610a0f601086612511565b610a1991906124cb565b610a2490600161254a565b90506000610a336002836126aa565b610a3e6002856126aa565b610a48919061254a565b905060006002610a5983600161254a565b610a639190612511565b90508194505b8460010b8160010b1215610aa257935083600281610a878185612511565b610a91919061254a565b610a9b9190612511565b9050610a69565b5050505092915050565b60046020526000908152604090208054610ac590612351565b80601f0160208091040260200160405190810160405280929190818152602001828054610af190612351565b8015610b3e5780601f10610b1357610100808354040283529160200191610b3e565b820191906000526020600020905b815481529060010190602001808311610b2157829003601f168201915b505050505081565b6000818152600760205260408120829101546001600160a01b03163314801590610b8a57506000818152600760205260409020600101546001600160a01b03163314155b15610bb1576040516314ecadef60e21b8152600481018290523360248201526044016104c7565b600260008381526005602052604090206002015460ff166002811115610bd957610bd9611bda565b14610c005760405163527a1abd60e11b8152600481018390523360248201526044016104c7565b6000610c0c8333611614565b905060005b600381101561072a576000546001600160a01b03166342842e0e3033858560038110610c3f57610c3f61231a565b60200201516040516001600160e01b031960e086901b1681526001600160a01b0393841660048201529290911660248301526044820152606401600060405180830381600087803b158015610c9357600080fd5b505af1158015610ca7573d6000803e3d6000fd5b505050508080610cb690612301565b915050610c11565b6003602052816000526040600020818154811061074c57600080fd5b6000818152600760205260408120829101546001600160a01b03163314801590610d1e57506000818152600760205260409020600101546001600160a01b03163314155b15610d45576040516314ecadef60e21b8152600481018290523360248201526044016104c7565b60036000610d5384336116c7565b90506000805b83811015610dc957828160038110610d7357610d7361231a565b602002015191506000610d958360009081526009602052604090206001015490565b1115610db757604051635e5e978d60e11b8152600481018790526024016104c7565b80610dc181612301565b915050610d59565b50610dd48533611280565b5050505050565b610de3611a11565b6000828152600560205260409081902081516101a081019092528161016081018260028282826020028201915b81546001600160a01b03168152600190910190602001808311610e1057505050918352505060028281015460209092019160ff1690811115610e5457610e54611bda565b6002811115610e6557610e65611bda565b81526003828101546020830152600483015460ff808216151560408086019190915261010090920416151560608085019190915281519081019182905260809093019291600585019182845b815481526020019060010190808311610eb157505050918352505060408051606081019182905260209092019190600884019060039082845b815481526020019060010190808311610eea575050509183525050600b8201546020820152600c8201546040820152600d8201546060820152600e909101546001600160a01b031660809091015292915050565b610f756040518060a00160405280600015158152602001600060010b81526020016000815260200160008152602001600081525090565b50600090815260096020908152604091829020825160a081018452815460ff8116151582526101009004600190810b93820193909352918101549282019290925260028201546060820152600390910154608082015290565b336001600160a01b037f000000000000000000000000000000000000000000000000000000000000000016146110165760405162461bcd60e51b81526004016104c7906122a3565b611020828261177b565b5050565b600080600261103484600161254a565b61103e9190612511565b90508291505b8160010b8160010b121561107d579050806002816110628186612511565b61106c919061254a565b6110769190612511565b9050611044565b50919050565b6000888152600760205260408082208151808301928390528b939290919060029082845b81546001600160a01b031681526001909101906020018083116110a7575050505050905060006110e6836000908152600560205260409020600d015490565b9050816110f46002836126bc565b600281106111045761110461231a565b60200201516001600160a01b0316336001600160a01b031614611143576040516398d9763160e01b8152600481018490523360248201526044016104c7565b6004871061119e5760405162461bcd60e51b815260206004820152602260248201527f4162696c6974792073656c656374696f6e206d75737420626520696e205b302c604482015261335d60f01b60648201526084016104c7565b600888106111ee5760405162461bcd60e51b815260206004820152601f60248201527f4d6f76652073656c656374696f6e206d75737420626520696e205b302c375d0060448201526064016104c7565b600160008c81526005602052604090206002015460ff16600281111561121657611216611bda565b1461125a5760405162461bcd60e51b815260206004820152601460248201527347616d65206d757374206265206f6e666f6f742160601b60448201526064016104c7565b6112638b6117a6565b6112738b8b8b8b8b8b8b8b6117cb565b5050505050505050505050565b6000918252600560205260409091206002808201805460ff19169091179055600e0180546001600160a01b0319166001600160a01b03909216919091179055565b60005b600381101561072a57600080546001600160a01b031663e1dc07618484600381106112f1576112f161231a565b60200201516040518263ffffffff1660e01b815260040161131491815260200190565b61018060405180830381865afa158015611332573d6000803e3d6000fd5b505050506040513d601f19601f8201168201806040525081019061135691906126d0565b905061138f6040518060a00160405280600015158152602001600060010b81526020016000815260200160008152602001600081525090565b600181526000868152600560205260409020546001600160a01b03908116908616036113c457600183900b60208201526113d8565b6113cf8360ff61276f565b60010b60208201525b8151604082015260e0820151608082015260c08201516060820152806009600086866003811061140a5761140a61231a565b602090810291909101518252818101929092526040908101600020835181549385015162ffffff1990941690151562ffff0019161761010061ffff909416939093029290921782558201516001820155606082015160028201556080909101516003909101555081905061147d81612301565b9150506112c4565b60008181526005602052604080822081516101a081019092528161016081018260028282826020028201915b81546001600160a01b031681526001909101906020018083116114b157505050918352505060028281015460209092019160ff16908111156114f5576114f5611bda565b600281111561150657611506611bda565b81526003828101546020830152600483015460ff808216151560408086019190915261010090920416151560608085019190915281519081019182905260809093019291600585019182845b81548152602001906001019080831161155257505050918352505060408051606081019182905260209092019190600884019060039082845b81548152602001906001019080831161158b575050509183525050600b8201546020820152600c8201546040820152600d820154606080830191909152600e909201546001600160a01b031660809091015281015190915080156115f0575080608001515b1561102057506000908152600560205260409020600201805460ff19166001179055565b61161c611b26565b6000838152600760205260409020546001600160a01b0316330361167f57600083815260056020819052604091829020825160608101938490529291019060039082845b81548152602001906001019080831161166057505050505090506104f8565b6000838152600560205260409081902081516060810190925260080160038282826020028201915b8154815260200190600101908083116116a7575050505050905092915050565b6116cf611b26565b6000838152600760205260409020546001600160a01b03908116908316036117375760008381526005602052604090819020815160608101909252600801600382828260200282019181548152602001906001019080831161166057505050505090506104f8565b6000838152600560208181526040928390208351606081019485905292810180548452929360039290916006019085018083116116a7575050505050905092915050565b600091825260096020526040909120805461ffff9092166101000262ffff0019909216919091179055565b6000818152600560205260408120600d018054916117c383612301565b919050555050565b821580156117d7575080155b611845578280156117e6575080155b156117fa576117f5878661184f565b611845565b821580156118055750805b15611815576117f587878661193e565b811561183057611825878661184f565b6117f587878661193e565b61183b87878661193e565b611845878661184f565b5050505050505050565b600080546040516331c67a0f60e11b815260048101859052602481018490526001600160a01b039091169063638cf41e90604401602060405180830381865afa1580156118a0573d6000803e3d6000fd5b505050506040513d601f19601f820116820180604052508101906118c49190612786565b60008481526009602052604081205491925061010090910460010b906118ea838361254a565b905060008160010b1215801561190457506101008160010b125b1561191857611913858261177b565b610dd4565b604051637dfa5c0960e01b815260048101869052600184900b60248201526044016104c7565b600080546040516380dcec8960e01b815260048101869052602481018490526001600160a01b03909116906380dcec899060440160c060405180830381865afa15801561198f573d6000803e3d6000fd5b505050506040513d601f19601f820116820180604052508101906119b391906127a3565b90506000600a9050610dd48482600082815260096020526040902060010154808210156119fb576119e4828261276f565b600084815260096020526040902060010155505050565b5050600090815260096020526040812060010155565b604051806101600160405280611a25611b08565b815260200160008152600060208201819052604082018190526060820152608001611a4e611b26565b8152602001611a5b611b26565b815260200160008152602001600081526020016000815260200160006001600160a01b031681525090565b8260028101928215611ace579160200282015b82811115611ace57825182546001600160a01b0319166001600160a01b03909116178255602090920191600190910190611a99565b506109b4929150611b44565b8260038101928215611ace579160200282015b82811115611ace578251825591602001919060010190611aed565b60405180604001604052806002906020820280368337509192915050565b60405180606001604052806003906020820280368337509192915050565b5b808211156109b45760008155600101611b45565b60008060408385031215611b6c57600080fd5b50508035926020909101359150565b600060208284031215611b8d57600080fd5b5035919050565b80356001600160a01b0381168114611bab57600080fd5b919050565b60008060408385031215611bc357600080fd5b611bcc83611b94565b946020939093013593505050565b634e487b7160e01b600052602160045260246000fd5b60038110611c0e57634e487b7160e01b600052602160045260246000fd5b9052565b602081016104f88284611bf0565b60008083601f840112611c3257600080fd5b50813567ffffffffffffffff811115611c4a57600080fd5b602083019150836020828501011115611c6257600080fd5b9250929050565b600080600080600060808688031215611c8157600080fd5b611c8a86611b94565b9450611c9860208701611b94565b935060408601359250606086013567ffffffffffffffff811115611cbb57600080fd5b611cc788828901611c20565b969995985093965092949392505050565b634e487b7160e01b600052604160045260246000fd5b60405160c0810167ffffffffffffffff81118282101715611d1157611d11611cd8565b60405290565b604051610160810167ffffffffffffffff81118282101715611d1157611d11611cd8565b604051610180810167ffffffffffffffff81118282101715611d1157611d11611cd8565b600082601f830112611d7057600080fd5b6040516060810181811067ffffffffffffffff82111715611d9357611d93611cd8565b604052806060840185811115611da857600080fd5b845b81811015611dc2578035835260209283019201611daa565b509195945050505050565b60008060808385031215611de057600080fd5b82359150611df18460208501611d5f565b90509250929050565b8060010b8114611e0957600080fd5b50565b600060208284031215611e1e57600080fd5b8135611e2981611dfa565b9392505050565b60008060208385031215611e4357600080fd5b823567ffffffffffffffff811115611e5a57600080fd5b611e6685828601611c20565b90969095509350505050565b60008060408385031215611e8557600080fd5b8235611e9081611dfa565b91506020830135611ea081611dfa565b809150509250929050565b600060208284031215611ebd57600080fd5b611e2982611b94565b600060208083528351808285015260005b81811015611ef357858101830151858201604001528201611ed7565b81811115611f05576000604083870101525b50601f01601f1916929092016040019392505050565b8060005b600281101561072a5781516001600160a01b0316845260209384019390910190600101611f1f565b8060005b600381101561072a578151845260209384019390910190600101611f4b565b600061020082019050611f7e828451611f1b565b6020830151611f906040840182611bf0565b50604083015160608301526060830151611fae608084018215159052565b50608083015180151560a08401525060a0830151611fcf60c0840182611f47565b5060c0830151610120611fe481850183611f47565b60e08501516101808501526101008501516101a08501528401516101c084015250610140909201516001600160a01b03166101e09091015290565b60038110611e0957600080fd5b8035611bab8161201f565b600080600083850361010081121561204e57600080fd5b843593506020850135925060c0603f198201121561206b57600080fd5b50612074611cee565b6040850135815260608501356120898161201f565b60208201526080850135604082015260a0850135606082015260c08501356120b081611dfa565b608082015260e0949094013560a0850152509093909250565b600080604083850312156120dc57600080fd5b823591506020830135611ea081611dfa565b600082601f8301126120ff57600080fd5b6040516040810181811067ffffffffffffffff8211171561212257612122611cd8565b806040525080604084018581111561213957600080fd5b845b81811015611dc25761214c81611b94565b83526020928301920161213b565b80358015158114611bab57600080fd5b6000610200828403121561217d57600080fd5b612185611d17565b61218f84846120ee565b815261219d6040840161202c565b6020820152606083013560408201526121b86080840161215a565b60608201526121c960a0840161215a565b60808201526121db8460c08501611d5f565b60a08201526101206121ef85828601611d5f565b60c083015261018084013560e08301526101a08401356101008301526101c0840135908201526122226101e08401611b94565b6101408201529392505050565b600080600080600080600080610100898b03121561224c57600080fd5b883597506020890135965060408901359550606089013594506080890135935061227860a08a0161215a565b925061228660c08a0161215a565b915061229460e08a0161215a565b90509295985092959890939650565b60208082526028908201527f46756e6374696f6e206f6e6c792063616c6c61626c65206279204172656e61206040820152672232b83637bcb2b960c11b606082015260800190565b634e487b7160e01b600052601160045260246000fd5b600060018201612313576123136122eb565b5060010190565b634e487b7160e01b600052603260045260246000fd5b60008160010b617fff198103612348576123486122eb565b60000392915050565b600181811c9082168061236557607f821691505b60208210810361107d57634e487b7160e01b600052602260045260246000fd5b601f82111561097d57600081815260208120601f850160051c810160208610156123ac5750805b601f850160051c820191505b818110156123cb578281556001016123b8565b505050505050565b67ffffffffffffffff8311156123eb576123eb611cd8565b6123ff836123f98354612351565b83612385565b6000601f841160018114612433576000851561241b5750838201355b600019600387901b1c1916600186901b178355610dd4565b600083815260209020601f19861690835b828110156124645786850135825560209485019460019092019101612444565b50868210156124815760001960f88860031b161c19848701351681555b505060018560011b0183555050505050565b634e487b7160e01b600052601260045260246000fd5b60008260010b806124bc576124bc612493565b808360010b0791505092915050565b60008160010b8360010b6000811281617fff19018312811516156124f1576124f16122eb565b81617fff018313811615612507576125076122eb565b5090039392505050565b60008160010b8360010b8061252857612528612493565b617fff19821460001982141615612541576125416122eb565b90059392505050565b60008160010b8360010b6000821282617fff0382138115161561256f5761256f6122eb565b82617fff19038212811615612586576125866122eb565b50019392505050565b80825b60018086116125a157506125ce565b81617fff048211156125b5576125b56122eb565b808616156125c257918102915b9490941c938002612592565b935093915050565b60008280156125ec57600181146125f6576125ff565b60019150506104f8565b829150506104f8565b508161260d575060006104f8565b5060016000821380821461262657801561263f57612653565b82617fff0483111561263a5761263a6122eb565b612653565b82617fff05831215612653576126536122eb565b508083161561265f5750805b61266f8360011c8384028361258f565b80617fff048211600083131615612688576126886122eb565b80617fff190582126000831216156126a2576126a26122eb565b029392505050565b6000611e2960ff84168360010b6125d6565b6000826126cb576126cb612493565b500690565b600061018082840312156126e357600080fd5b6126eb611d3b565b825181526020830151602082015260408301516040820152606083015160608201526080830151608082015260a083015160a082015260c083015160c082015260e083015160e08201526101008084015181830152506101208084015181830152506101408084015181830152506101608084015181830152508091505092915050565b600082821015612781576127816122eb565b500390565b60006020828403121561279857600080fd5b8151611e2981611dfa565b600060c082840312156127b557600080fd5b60405160c0810181811067ffffffffffffffff821117156127d8576127d8611cd8565b6040528251815260208301516127ed8161201f565b806020830152506040830151604082015260608301516060820152608083015161281681611dfa565b608082015260a092830151928101929092525091905056fea2646970667358221220df5c44a1da65c5a54346f1fe41fcfcf47f47e5280f17adba0866b96b99bf0ffd64736f6c634300080f0033",
    "linkReferences": {}
  },
  "methodIdentifiers": {
    "GRID_SIZE()": "7fc4eda8",
    "MAX_PLAYERS()": "4411b3eb",
    "PARTY_SIZE()": "7ae3e8d0",
    "_encodeGameData((address[2],uint8,uint256,bool,bool,uint256[3],uint256[3],uint256,uint256,uint256,address))": "e958c819",
    "abs(int16)": "2ee90822",
    "addrToChallengesReceived(address,uint256)": "48c407ef",
    "addrToChallengesSent(address,uint256)": "0b25680f",
    "addrToPlayerTag(address)": "3f83c2c0",
    "calculateDamage(uint256,uint256,(uint256,uint8,uint256,uint256,int16,uint256))": "98f5ec35",
    "claimVictory(uint256)": "4ff776b8",
    "commitTurn(uint256,uint256,uint256,uint256,uint256,bool,bool,bool)": "f4499ef5",
    "connectWamos(uint256,uint256[3])": "1ab67bc3",
    "createGame(address,uint256)": "07ead930",
    "euclideanDistance(int16,int16)": "3ddead32",
    "gameCount()": "4d1975b4",
    "getGameDataStruct(uint256)": "74919396",
    "getGameStatus(uint256)": "0f1bf454",
    "getTurnCount(uint256)": "04f79420",
    "getWamoHealthStatus(uint256)": "256959b8",
    "getWamoPosition(uint256)": "d2ec4bf1",
    "getWamoStatus(uint256)": "ca9d1917",
    "onERC721Received(address,address,uint256,bytes)": "150b7a02",
    "resign(uint256)": "08d9801c",
    "retrieveWamos(uint256)": "45f61431",
    "setPlayerTag(string)": "33f82cb0",
    "setWamoHealth(uint256,uint256)": "015661dd",
    "setWamoPosition(uint256,int16)": "d6058aa3",
    "sqrtApprox(int16)": "e8ea1655"
  },
  "id": 23
}