{
  "abi": [
    {
      "inputs": [
        {
          "internalType": "address",
          "name": "_wamosAddr",
          "type": "address"
        }
      ],
      "stateMutability": "nonpayable",
      "type": "constructor"
    },
    {
      "inputs": [
        {
          "internalType": "uint256",
          "name": "gameId",
          "type": "uint256"
        },
        {
          "internalType": "address",
          "name": "sender",
          "type": "address"
        }
      ],
      "name": "GameNotFinished",
      "type": "error"
    },
    {
      "inputs": [
        {
          "internalType": "uint256",
          "name": "wamoId",
          "type": "uint256"
        },
        {
          "internalType": "int16",
          "name": "attemptedIdenMutation",
          "type": "int16"
        }
      ],
      "name": "MoveOutOfBounds",
      "type": "error"
    },
    {
      "inputs": [
        {
          "internalType": "uint256",
          "name": "gameId",
          "type": "uint256"
        },
        {
          "internalType": "address",
          "name": "sender",
          "type": "address"
        }
      ],
      "name": "NotPlayerInGame",
      "type": "error"
    },
    {
      "inputs": [
        {
          "internalType": "uint256",
          "name": "gameId",
          "type": "uint256"
        },
        {
          "internalType": "address",
          "name": "sender",
          "type": "address"
        }
      ],
      "name": "NotPlayersTurnOrNotInGame",
      "type": "error"
    },
    {
      "inputs": [
        {
          "internalType": "uint256",
          "name": "gameId",
          "type": "uint256"
        }
      ],
      "name": "OpponentNotDefeated",
      "type": "error"
    },
    {
      "inputs": [],
      "name": "GRID_SIZE",
      "outputs": [
        {
          "internalType": "int16",
          "name": "",
          "type": "int16"
        }
      ],
      "stateMutability": "view",
      "type": "function"
    },
    {
      "inputs": [],
      "name": "MAX_PLAYERS",
      "outputs": [
        {
          "internalType": "uint256",
          "name": "",
          "type": "uint256"
        }
      ],
      "stateMutability": "view",
      "type": "function"
    },
    {
      "inputs": [],
      "name": "PARTY_SIZE",
      "outputs": [
        {
          "internalType": "uint256",
          "name": "",
          "type": "uint256"
        }
      ],
      "stateMutability": "view",
      "type": "function"
    },
    {
      "inputs": [
        {
          "components": [
            {
              "internalType": "address[2]",
              "name": "players",
              "type": "address[2]"
            },
            {
              "internalType": "enum GameStatus",
              "name": "status",
              "type": "uint8"
            },
            {
              "internalType": "uint256",
              "name": "partySize",
              "type": "uint256"
            },
            {
              "internalType": "bool",
              "name": "party1IsStaked",
              "type": "bool"
            },
            {
              "internalType": "bool",
              "name": "party2IsStaked",
              "type": "bool"
            },
            {
              "internalType": "uint256[3]",
              "name": "party1",
              "type": "uint256[3]"
            },
            {
              "internalType": "uint256[3]",
              "name": "party2",
              "type": "uint256[3]"
            },
            {
              "internalType": "uint256",
              "name": "createTime",
              "type": "uint256"
            },
            {
              "internalType": "uint256",
              "name": "lastMoveTime",
              "type": "uint256"
            },
            {
              "internalType": "uint256",
              "name": "turnCount",
              "type": "uint256"
            },
            {
              "internalType": "address",
              "name": "victor",
              "type": "address"
            }
          ],
          "internalType": "struct GameData",
          "name": "game",
          "type": "tuple"
        }
      ],
      "name": "_encodeGameData",
      "outputs": [
        {
          "internalType": "uint256",
          "name": "gameData",
          "type": "uint256"
        }
      ],
      "stateMutability": "nonpayable",
      "type": "function"
    },
    {
      "inputs": [
        {
          "internalType": "int16",
          "name": "number",
          "type": "int16"
        }
      ],
      "name": "abs",
      "outputs": [
        {
          "internalType": "int16",
          "name": "",
          "type": "int16"
        }
      ],
      "stateMutability": "pure",
      "type": "function"
    },
    {
      "inputs": [
        {
          "internalType": "address",
          "name": "",
          "type": "address"
        },
        {
          "internalType": "uint256",
          "name": "",
          "type": "uint256"
        }
      ],
      "name": "addrToChallengesReceived",
      "outputs": [
        {
          "internalType": "uint256",
          "name": "",
          "type": "uint256"
        }
      ],
      "stateMutability": "view",
      "type": "function"
    },
    {
      "inputs": [
        {
          "internalType": "address",
          "name": "",
          "type": "address"
        },
        {
          "internalType": "uint256",
          "name": "",
          "type": "uint256"
        }
      ],
      "name": "addrToChallengesSent",
      "outputs": [
        {
          "internalType": "uint256",
          "name": "",
          "type": "uint256"
        }
      ],
      "stateMutability": "view",
      "type": "function"
    },
    {
      "inputs": [
        {
          "internalType": "address",
          "name": "",
          "type": "address"
        }
      ],
      "name": "addrToPlayerTag",
      "outputs": [
        {
          "internalType": "string",
          "name": "",
          "type": "string"
        }
      ],
      "stateMutability": "view",
      "type": "function"
    },
    {
      "inputs": [
        {
          "internalType": "uint256",
          "name": "actingWamoId",
          "type": "uint256"
        },
        {
          "internalType": "uint256",
          "name": "targetWamoId",
          "type": "uint256"
        },
        {
          "components": [
            {
              "internalType": "uint256",
              "name": "dietyType",
              "type": "uint256"
            },
            {
              "internalType": "enum DamageType",
              "name": "damageType",
              "type": "uint8"
            },
            {
              "internalType": "uint256",
              "name": "power",
              "type": "uint256"
            },
            {
              "internalType": "uint256",
              "name": "accuracy",
              "type": "uint256"
            },
            {
              "internalType": "int16",
              "name": "range",
              "type": "int16"
            },
            {
              "internalType": "uint256",
              "name": "cost",
              "type": "uint256"
            }
          ],
          "internalType": "struct Ability",
          "name": "ability",
          "type": "tuple"
        }
      ],
      "name": "calculateDamage",
      "outputs": [
        {
          "internalType": "uint256",
          "name": "damage",
          "type": "uint256"
        }
      ],
      "stateMutability": "nonpayable",
      "type": "function"
    },
    {
      "inputs": [
        {
          "internalType": "uint256",
          "name": "gameId",
          "type": "uint256"
        }
      ],
      "name": "claimVictory",
      "outputs": [],
      "stateMutability": "nonpayable",
      "type": "function"
    },
    {
      "inputs": [
        {
          "internalType": "uint256",
          "name": "gameId",
          "type": "uint256"
        },
        {
          "internalType": "uint256",
          "name": "actingWamoId",
          "type": "uint256"
        },
        {
          "internalType": "uint256",
          "name": "targetWamoId",
          "type": "uint256"
        },
        {
          "internalType": "uint256",
          "name": "moveSelection",
          "type": "uint256"
        },
        {
          "internalType": "uint256",
          "name": "abilitySelection",
          "type": "uint256"
        },
        {
          "internalType": "bool",
          "name": "isMoved",
          "type": "bool"
        },
        {
          "internalType": "bool",
          "name": "moveBeforeAbility",
          "type": "bool"
        },
        {
          "internalType": "bool",
          "name": "useAbility",
          "type": "bool"
        }
      ],
      "name": "commitTurn",
      "outputs": [],
      "stateMutability": "nonpayable",
      "type": "function"
    },
    {
      "inputs": [
        {
          "internalType": "uint256",
          "name": "gameId",
          "type": "uint256"
        },
        {
          "internalType": "uint256[3]",
          "name": "wamoIds",
          "type": "uint256[3]"
        }
      ],
      "name": "connectWamos",
      "outputs": [],
      "stateMutability": "nonpayable",
      "type": "function"
    },
    {
      "inputs": [
        {
          "internalType": "address",
          "name": "player2",
          "type": "address"
        },
        {
          "internalType": "uint256",
          "name": "partySize",
          "type": "uint256"
        }
      ],
      "name": "createGame",
      "outputs": [
        {
          "internalType": "uint256",
          "name": "gameId",
          "type": "uint256"
        }
      ],
      "stateMutability": "nonpayable",
      "type": "function"
    },
    {
      "inputs": [
        {
          "internalType": "int16",
          "name": "p1",
          "type": "int16"
        },
        {
          "internalType": "int16",
          "name": "p2",
          "type": "int16"
        }
      ],
      "name": "euclideanDistance",
      "outputs": [
        {
          "internalType": "int16",
          "name": "y",
          "type": "int16"
        }
      ],
      "stateMutability": "pure",
      "type": "function"
    },
    {
      "inputs": [],
      "name": "gameCount",
      "outputs": [
        {
          "internalType": "uint256",
          "name": "",
          "type": "uint256"
        }
      ],
      "stateMutability": "view",
      "type": "function"
    },
    {
      "inputs": [
        {
          "internalType": "uint256",
          "name": "gameId",
          "type": "uint256"
        }
      ],
      "name": "getGameDataStruct",
      "outputs": [
        {
          "components": [
            {
              "internalType": "address[2]",
              "name": "players",
              "type": "address[2]"
            },
            {
              "internalType": "enum GameStatus",
              "name": "status",
              "type": "uint8"
            },
            {
              "internalType": "uint256",
              "name": "partySize",
              "type": "uint256"
            },
            {
              "internalType": "bool",
              "name": "party1IsStaked",
              "type": "bool"
            },
            {
              "internalType": "bool",
              "name": "party2IsStaked",
              "type": "bool"
            },
            {
              "internalType": "uint256[3]",
              "name": "party1",
              "type": "uint256[3]"
            },
            {
              "internalType": "uint256[3]",
              "name": "party2",
              "type": "uint256[3]"
            },
            {
              "internalType": "uint256",
              "name": "createTime",
              "type": "uint256"
            },
            {
              "internalType": "uint256",
              "name": "lastMoveTime",
              "type": "uint256"
            },
            {
              "internalType": "uint256",
              "name": "turnCount",
              "type": "uint256"
            },
            {
              "internalType": "address",
              "name": "victor",
              "type": "address"
            }
          ],
          "internalType": "struct GameData",
          "name": "",
          "type": "tuple"
        }
      ],
      "stateMutability": "view",
      "type": "function"
    },
    {
      "inputs": [
        {
          "internalType": "uint256",
          "name": "gameId",
          "type": "uint256"
        }
      ],
      "name": "getGameStatus",
      "outputs": [
        {
          "internalType": "enum GameStatus",
          "name": "",
          "type": "uint8"
        }
      ],
      "stateMutability": "view",
      "type": "function"
    },
    {
      "inputs": [
        {
          "internalType": "uint256",
          "name": "gameId",
          "type": "uint256"
        }
      ],
      "name": "getTurnCount",
      "outputs": [
        {
          "internalType": "uint256",
          "name": "",
          "type": "uint256"
        }
      ],
      "stateMutability": "view",
      "type": "function"
    },
    {
      "inputs": [
        {
          "internalType": "uint256",
          "name": "wamoId",
          "type": "uint256"
        }
      ],
      "name": "getWamoHealthStatus",
      "outputs": [
        {
          "internalType": "uint256",
          "name": "",
          "type": "uint256"
        }
      ],
      "stateMutability": "view",
      "type": "function"
    },
    {
      "inputs": [
        {
          "internalType": "uint256",
          "name": "wamoId",
          "type": "uint256"
        }
      ],
      "name": "getWamoPosition",
      "outputs": [
        {
          "internalType": "int16",
          "name": "position",
          "type": "int16"
        }
      ],
      "stateMutability": "view",
      "type": "function"
    },
    {
      "inputs": [
        {
          "internalType": "uint256",
          "name": "wamoId",
          "type": "uint256"
        }
      ],
      "name": "getWamoStatus",
      "outputs": [
        {
          "components": [
            {
              "internalType": "bool",
              "name": "inArena",
              "type": "bool"
            },
            {
              "internalType": "int16",
              "name": "position",
              "type": "int16"
            },
            {
              "internalType": "uint256",
              "name": "health",
              "type": "uint256"
            },
            {
              "internalType": "uint256",
              "name": "stamina",
              "type": "uint256"
            },
            {
              "internalType": "uint256",
              "name": "mana",
              "type": "uint256"
            }
          ],
          "internalType": "struct WamoStatus",
          "name": "status",
          "type": "tuple"
        }
      ],
      "stateMutability": "view",
      "type": "function"
    },
    {
      "inputs": [
        {
          "internalType": "address",
          "name": "operator",
          "type": "address"
        },
        {
          "internalType": "address",
          "name": "from",
          "type": "address"
        },
        {
          "internalType": "uint256",
          "name": "tokenId",
          "type": "uint256"
        },
        {
          "internalType": "bytes",
          "name": "data",
          "type": "bytes"
        }
      ],
      "name": "onERC721Received",
      "outputs": [
        {
          "internalType": "bytes4",
          "name": "",
          "type": "bytes4"
        }
      ],
      "stateMutability": "nonpayable",
      "type": "function"
    },
    {
      "inputs": [
        {
          "internalType": "uint256",
          "name": "gameId",
          "type": "uint256"
        }
      ],
      "name": "resign",
      "outputs": [],
      "stateMutability": "nonpayable",
      "type": "function"
    },
    {
      "inputs": [
        {
          "internalType": "uint256",
          "name": "gameId",
          "type": "uint256"
        }
      ],
      "name": "retrieveWamos",
      "outputs": [],
      "stateMutability": "nonpayable",
      "type": "function"
    },
    {
      "inputs": [
        {
          "internalType": "string",
          "name": "newPlayerTag",
          "type": "string"
        }
      ],
      "name": "setPlayerTag",
      "outputs": [],
      "stateMutability": "nonpayable",
      "type": "function"
    },
    {
      "inputs": [
        {
          "internalType": "uint256",
          "name": "wamoId",
          "type": "uint256"
        },
        {
          "internalType": "uint256",
          "name": "newHealth",
          "type": "uint256"
        }
      ],
      "name": "setWamoHealth",
      "outputs": [],
      "stateMutability": "nonpayable",
      "type": "function"
    },
    {
      "inputs": [
        {
          "internalType": "uint256",
          "name": "wamoId",
          "type": "uint256"
        },
        {
          "internalType": "int16",
          "name": "newIden",
          "type": "int16"
        }
      ],
      "name": "setWamoPosition",
      "outputs": [],
      "stateMutability": "nonpayable",
      "type": "function"
    },
    {
      "inputs": [
        {
          "internalType": "int16",
          "name": "x",
          "type": "int16"
        }
      ],
      "name": "sqrtApprox",
      "outputs": [
        {
          "internalType": "int16",
          "name": "y",
          "type": "int16"
        }
      ],
      "stateMutability": "pure",
      "type": "function"
    }
  ],
  "bytecode": {
    "object": "0x60a06040523480156200001157600080fd5b5060405162002b2e38038062002b2e83398101604081905262000034916200005e565b600080546001600160a01b0319166001600160a01b03929092169190911790553360805262000090565b6000602082840312156200007157600080fd5b81516001600160a01b03811681146200008957600080fd5b9392505050565b608051612a7b620000b3600039600081816104860152610fea0152612a7b6000f3fe608060405234801561001057600080fd5b50600436106101c45760003560e01c806345f61431116100f957806398f5ec3511610097578063d6058aa311610071578063d6058aa31461042e578063e8ea165514610441578063e958c81914610454578063f4499ef51461046857600080fd5b806398f5ec3514610399578063ca9d1917146103ac578063d2ec4bf11461040657600080fd5b80634ff776b8116100d35780634ff776b81461035e57806374919396146103715780637ae3e8d0146103275780637fc4eda81461039157600080fd5b806345f614311461032f57806348c407ef146103425780634d1975b41461035557600080fd5b80631ab67bc31161016657806333f82cb01161014057806333f82cb0146102e15780633ddead32146102f45780633f83c2c0146103075780634411b3eb1461032757600080fd5b80631ab67bc314610295578063256959b8146102a85780632ee90822146102bb57600080fd5b806308d9801c116101a257806308d9801c146102175780630b25680f1461022a5780630f1bf4541461023d578063150b7a021461025d57600080fd5b8063015661dd146101c957806304f79420146101de57806307ead93014610204575b600080fd5b6101dc6101d7366004611d25565b61047b565b005b6101f16101ec366004611d47565b6104e1565b6040519081526020015b60405180910390f35b6101f1610212366004611d7c565b6104fa565b6101dc610225366004611d47565b610685565b6101f1610238366004611d7c565b61072c565b61025061024b366004611d47565b61075d565b6040516101fb9190611dde565b61027c61026b366004611e35565b630a85bd0160e11b95945050505050565b6040516001600160e01b031990911681526020016101fb565b6101dc6102a3366004611f99565b610777565b6101f16102b6366004611d47565b61097e565b6102ce6102c9366004611fd8565b610995565b60405160019190910b81526020016101fb565b6101dc6102ef366004611ffc565b6109b4565b6102ce61030236600461203e565b6109ce565b61031a610315366004612077565b610aa8565b6040516101fb9190612092565b6101f1600281565b6101dc61033d366004611d47565b610b42565b6101f1610350366004611d7c565b610cba565b6101f160015481565b6101dc61036c366004611d47565b610cd6565b61038461037f366004611d47565b610dd7565b6040516101fb9190612136565b6102ce601081565b6101f16103a7366004612203565b610f3a565b6103bf6103ba366004611d47565b610f4f565b6040516101fb9190600060a082019050825115158252602083015160010b602083015260408301516040830152606083015160608301526080830151608083015292915050565b6102ce610414366004611d47565b600090815260096020526040902054610100900460010b90565b6101dc61043c366004612295565b610fdf565b6102ce61044f366004611fd8565b611035565b6101f1610462366004612336565b50600090565b6101dc6104763660046123fb565b611094565b336001600160a01b037f000000000000000000000000000000000000000000000000000000000000000016146104cc5760405162461bcd60e51b81526004016104c39061246f565b60405180910390fd5b60009182526009602052604090912060010155565b6000818152600560205260408120600d01545b92915050565b600180546000913391908361050e836124cd565b91905055915061051c611bdd565b4260e08201526040808201859052805180820182526001600160a01b0384811682528716602080830182905291845260008285018190528351808501855233815280840192909252868152600790925291902061057a916002611c52565b506000838152600560205260409020815182919061059b9082906002611c52565b5060208201518160020160006101000a81548160ff021916908360028111156105c6576105c6611da6565b021790555060408201516003808301919091556060830151600483018054608086015115156101000261ff00199315159390931661ffff199091161791909117905560a083015161061c91600584019190611ca6565b5060c08201516106329060088301906003611ca6565b5060e0820151600b820155610100820151600c820155610120820151600d82015561014090910151600e90910180546001600160a01b0319166001600160a01b0390921691909117905550909392505050565b6000818152600760205260408120829101546001600160a01b031633148015906106c957506000818152600760205260409020600101546001600160a01b03163314155b156106f0576040516314ecadef60e21b8152600481018290523360248201526044016104c3565b60006106fa611cd4565b80516001600160a01b03163303610717576020810151915061071c565b805191505b6107268483611291565b50505050565b6002602052816000526040600020818154811061074857600080fd5b90600052602060002001600091509150505481565b60008181526005602052604081206002015460ff166104f4565b6000828152600760205260408120839101546001600160a01b031633148015906107bb57506000818152600760205260409020600101546001600160a01b03163314155b156107e2576040516314ecadef60e21b8152600481018290523360248201526044016104c3565b60005b60038110156108e357600160086000858460038110610806576108066124e6565b6020020151815260200190815260200160002060006101000a81548160ff0219169083600281111561083a5761083a611da6565b02179055506000546001600160a01b03166342842e0e3330868560038110610864576108646124e6565b60200201516040516001600160e01b031960e086901b1681526001600160a01b0393841660048201529290911660248301526044820152606401600060405180830381600087803b1580156108b857600080fd5b505af11580156108cc573d6000803e3d6000fd5b5050505080806108db906124cd565b9150506107e5565b506000838152600560205260409020546001600160a01b0316330361093557600083815260056020819052604090912060048101805460ff1916600117905561092f9101836003611ca6565b50610965565b600083815260056020526040902060048101805461ff00191661010017905561096390600801836003611ca6565b505b6109708333846112d2565b61097983611496565b505050565b6000818152600960205260408120600101546104f4565b6000808260010b12156109b0576109ab826124fc565b6104f4565b5090565b33600090815260046020526040902061097982848361259f565b6000806109dc601085612675565b6109e7601085612675565b6109f19190612697565b90506000610a006010866126dd565b610a0b6010866126dd565b610a159190612697565b610a20906001612716565b90506000610a2f600283612876565b610a3a600285612876565b610a449190612716565b905060006002610a55836001612716565b610a5f91906126dd565b90508194505b8460010b8160010b1215610a9e57935083600281610a8381856126dd565b610a8d9190612716565b610a9791906126dd565b9050610a65565b5050505092915050565b60046020526000908152604090208054610ac19061251d565b80601f0160208091040260200160405190810160405280929190818152602001828054610aed9061251d565b8015610b3a5780601f10610b0f57610100808354040283529160200191610b3a565b820191906000526020600020905b815481529060010190602001808311610b1d57829003601f168201915b505050505081565b6000818152600760205260408120829101546001600160a01b03163314801590610b8657506000818152600760205260409020600101546001600160a01b03163314155b15610bad576040516314ecadef60e21b8152600481018290523360248201526044016104c3565b600260008381526005602052604090206002015460ff166002811115610bd557610bd5611da6565b14610bfc5760405163527a1abd60e11b8152600481018390523360248201526044016104c3565b6000610c088333611625565b905060005b6003811015610726576000546001600160a01b03166342842e0e3033858560038110610c3b57610c3b6124e6565b60200201516040516001600160e01b031960e086901b1681526001600160a01b0393841660048201529290911660248301526044820152606401600060405180830381600087803b158015610c8f57600080fd5b505af1158015610ca3573d6000803e3d6000fd5b505050508080610cb2906124cd565b915050610c0d565b6003602052816000526040600020818154811061074857600080fd5b6000818152600760205260408120829101546001600160a01b03163314801590610d1a57506000818152600760205260409020600101546001600160a01b03163314155b15610d41576040516314ecadef60e21b8152600481018290523360248201526044016104c3565b60036000610d4f84336116d8565b90506000805b83811015610dc557828160038110610d6f57610d6f6124e6565b602002015191506000610d918360009081526009602052604090206001015490565b1115610db357604051635e5e978d60e11b8152600481018790526024016104c3565b80610dbd816124cd565b915050610d55565b50610dd08533611291565b5050505050565b610ddf611bdd565b6000828152600560205260409081902081516101a081019092528161016081018260028282826020028201915b81546001600160a01b03168152600190910190602001808311610e0c57505050918352505060028281015460209092019160ff1690811115610e5057610e50611da6565b6002811115610e6157610e61611da6565b81526003828101546020830152600483015460ff808216151560408086019190915261010090920416151560608085019190915281519081019182905260809093019291600585019182845b815481526020019060010190808311610ead57505050918352505060408051606081019182905260209092019190600884019060039082845b815481526020019060010190808311610ee6575050509183525050600b8201546020820152600c8201546040820152600d8201546060820152600e909101546001600160a01b031660809091015292915050565b6000610f4784848461178c565b949350505050565b610f866040518060a00160405280600015158152602001600060010b81526020016000815260200160008152602001600081525090565b50600090815260096020908152604091829020825160a081018452815460ff8116151582526101009004600190810b93820193909352918101549282019290925260028201546060820152600390910154608082015290565b336001600160a01b037f000000000000000000000000000000000000000000000000000000000000000016146110275760405162461bcd60e51b81526004016104c39061246f565b611031828261193e565b5050565b6000806002611045846001612716565b61104f91906126dd565b90508291505b8160010b8160010b121561108e5790508060028161107381866126dd565b61107d9190612716565b61108791906126dd565b9050611055565b50919050565b6000888152600760205260408082208151808301928390528b939290919060029082845b81546001600160a01b031681526001909101906020018083116110b8575050505050905060006110f7836000908152600560205260409020600d015490565b905081611105600283612888565b60028110611115576111156124e6565b60200201516001600160a01b0316336001600160a01b031614611154576040516398d9763160e01b8152600481018490523360248201526044016104c3565b600487106111af5760405162461bcd60e51b815260206004820152602260248201527f4162696c6974792073656c656374696f6e206d75737420626520696e205b302c604482015261335d60f01b60648201526084016104c3565b600888106111ff5760405162461bcd60e51b815260206004820152601f60248201527f4d6f76652073656c656374696f6e206d75737420626520696e205b302c375d0060448201526064016104c3565b600160008c81526005602052604090206002015460ff16600281111561122757611227611da6565b1461126b5760405162461bcd60e51b815260206004820152601460248201527347616d65206d757374206265206f6e666f6f742160601b60448201526064016104c3565b6112748b611969565b6112848b8b8b8b8b8b8b8b61198e565b5050505050505050505050565b6000918252600560205260409091206002808201805460ff19169091179055600e0180546001600160a01b0319166001600160a01b03909216919091179055565b60005b600381101561072657600080546001600160a01b031663e1dc0761848460038110611302576113026124e6565b60200201516040518263ffffffff1660e01b815260040161132591815260200190565b61018060405180830381865afa158015611343573d6000803e3d6000fd5b505050506040513d601f19601f82011682018060405250810190611367919061289c565b90506113a06040518060a00160405280600015158152602001600060010b81526020016000815260200160008152602001600081525090565b600181526000868152600560205260409020546001600160a01b03908116908616036113d557600183900b60208201526113e9565b6113e08360ff61293b565b60010b60208201525b8151604082015260e0820151608082015260c08201516060820152806009600086866003811061141b5761141b6124e6565b602090810291909101518252818101929092526040908101600020835181549385015162ffffff1990941690151562ffff0019161761010061ffff909416939093029290921782558201516001820155606082015160028201556080909101516003909101555081905061148e816124cd565b9150506112d5565b60008181526005602052604080822081516101a081019092528161016081018260028282826020028201915b81546001600160a01b031681526001909101906020018083116114c257505050918352505060028281015460209092019160ff169081111561150657611506611da6565b600281111561151757611517611da6565b81526003828101546020830152600483015460ff808216151560408086019190915261010090920416151560608085019190915281519081019182905260809093019291600585019182845b81548152602001906001019080831161156357505050918352505060408051606081019182905260209092019190600884019060039082845b81548152602001906001019080831161159c575050509183525050600b8201546020820152600c8201546040820152600d820154606080830191909152600e909201546001600160a01b03166080909101528101519091508015611601575080608001515b1561103157506000908152600560205260409020600201805460ff19166001179055565b61162d611cf2565b6000838152600760205260409020546001600160a01b0316330361169057600083815260056020819052604091829020825160608101938490529291019060039082845b81548152602001906001019080831161167157505050505090506104f4565b6000838152600560205260409081902081516060810190925260080160038282826020028201915b8154815260200190600101908083116116b8575050505050905092915050565b6116e0611cf2565b6000838152600760205260409020546001600160a01b03908116908316036117485760008381526005602052604090819020815160608101909252600801600382828260200282019181548152602001906001019080831161167157505050505090506104f4565b6000838152600560208181526040928390208351606081019485905292810180548452929360039290916006019085018083116116b8575050505050905092915050565b6000805460405163e1dc076160e01b81526004810186905282916001600160a01b03169063e1dc07619060240161018060405180830381865afa1580156117d7573d6000803e3d6000fd5b505050506040513d601f19601f820116820180604052508101906117fb919061289c565b6000805460405163e1dc076160e01b81526004810188905292935090916001600160a01b039091169063e1dc07619060240161018060405180830381865afa15801561184b573d6000803e3d6000fd5b505050506040513d601f19601f8201168201806040525081019061186f919061289c565b9050600080808660200151600281111561188b5761188b611da6565b036118a1575050602082015160408201516118cb565b6001866020015160028111156118b9576118b9611da6565b036118cb575050606082015160808201515b60646118d8603242612888565b6118e390604b612952565b60286118ef848661296a565b60408a01516118ff90606461297e565b611909919061297e565b61191490600a612952565b61191e919061296a565b611928919061297e565b611932919061296a565b98975050505050505050565b600091825260096020526040909120805461ffff9092166101000262ffff0019909216919091179055565b6000818152600560205260408120600d01805491611986836124cd565b919050555050565b8215801561199a575080155b611a08578280156119a9575080155b156119bd576119b88786611a12565b611a08565b821580156119c85750805b156119d8576119b8878786611b01565b81156119f3576119e88786611a12565b6119b8878786611b01565b6119fe878786611b01565b611a088786611a12565b5050505050505050565b600080546040516331c67a0f60e11b815260048101859052602481018490526001600160a01b039091169063638cf41e90604401602060405180830381865afa158015611a63573d6000803e3d6000fd5b505050506040513d601f19601f82011682018060405250810190611a87919061299d565b60008481526009602052604081205491925061010090910460010b90611aad8383612716565b905060008160010b12158015611ac757506101008160010b125b15611adb57611ad6858261193e565b610dd0565b604051637dfa5c0960e01b815260048101869052600184900b60248201526044016104c3565b600080546040516380dcec8960e01b815260048101869052602481018490526001600160a01b03909116906380dcec899060440160c060405180830381865afa158015611b52573d6000803e3d6000fd5b505050506040513d601f19601f82011682018060405250810190611b7691906129ba565b90506000611b8585858461178c565b9050610dd0848260008281526009602052604090206001015480821015611bc757611bb0828261293b565b600084815260096020526040902060010155505050565b5050600090815260096020526040812060010155565b604051806101600160405280611bf1611cd4565b815260200160008152600060208201819052604082018190526060820152608001611c1a611cf2565b8152602001611c27611cf2565b815260200160008152602001600081526020016000815260200160006001600160a01b031681525090565b8260028101928215611c9a579160200282015b82811115611c9a57825182546001600160a01b0319166001600160a01b03909116178255602090920191600190910190611c65565b506109b0929150611d10565b8260038101928215611c9a579160200282015b82811115611c9a578251825591602001919060010190611cb9565b60405180604001604052806002906020820280368337509192915050565b60405180606001604052806003906020820280368337509192915050565b5b808211156109b05760008155600101611d11565b60008060408385031215611d3857600080fd5b50508035926020909101359150565b600060208284031215611d5957600080fd5b5035919050565b80356001600160a01b0381168114611d7757600080fd5b919050565b60008060408385031215611d8f57600080fd5b611d9883611d60565b946020939093013593505050565b634e487b7160e01b600052602160045260246000fd5b60038110611dda57634e487b7160e01b600052602160045260246000fd5b9052565b602081016104f48284611dbc565b60008083601f840112611dfe57600080fd5b50813567ffffffffffffffff811115611e1657600080fd5b602083019150836020828501011115611e2e57600080fd5b9250929050565b600080600080600060808688031215611e4d57600080fd5b611e5686611d60565b9450611e6460208701611d60565b935060408601359250606086013567ffffffffffffffff811115611e8757600080fd5b611e9388828901611dec565b969995985093965092949392505050565b634e487b7160e01b600052604160045260246000fd5b60405160c0810167ffffffffffffffff81118282101715611edd57611edd611ea4565b60405290565b604051610160810167ffffffffffffffff81118282101715611edd57611edd611ea4565b604051610180810167ffffffffffffffff81118282101715611edd57611edd611ea4565b600082601f830112611f3c57600080fd5b6040516060810181811067ffffffffffffffff82111715611f5f57611f5f611ea4565b604052806060840185811115611f7457600080fd5b845b81811015611f8e578035835260209283019201611f76565b509195945050505050565b60008060808385031215611fac57600080fd5b82359150611fbd8460208501611f2b565b90509250929050565b8060010b8114611fd557600080fd5b50565b600060208284031215611fea57600080fd5b8135611ff581611fc6565b9392505050565b6000806020838503121561200f57600080fd5b823567ffffffffffffffff81111561202657600080fd5b61203285828601611dec565b90969095509350505050565b6000806040838503121561205157600080fd5b823561205c81611fc6565b9150602083013561206c81611fc6565b809150509250929050565b60006020828403121561208957600080fd5b611ff582611d60565b600060208083528351808285015260005b818110156120bf578581018301518582016040015282016120a3565b818111156120d1576000604083870101525b50601f01601f1916929092016040019392505050565b8060005b60028110156107265781516001600160a01b03168452602093840193909101906001016120eb565b8060005b6003811015610726578151845260209384019390910190600101612117565b60006102008201905061214a8284516120e7565b602083015161215c6040840182611dbc565b5060408301516060830152606083015161217a608084018215159052565b50608083015180151560a08401525060a083015161219b60c0840182612113565b5060c08301516101206121b081850183612113565b60e08501516101808501526101008501516101a08501528401516101c084015250610140909201516001600160a01b03166101e09091015290565b60038110611fd557600080fd5b8035611d77816121eb565b600080600083850361010081121561221a57600080fd5b843593506020850135925060c0603f198201121561223757600080fd5b50612240611eba565b604085013581526060850135612255816121eb565b60208201526080850135604082015260a0850135606082015260c085013561227c81611fc6565b608082015260e0949094013560a0850152509093909250565b600080604083850312156122a857600080fd5b82359150602083013561206c81611fc6565b600082601f8301126122cb57600080fd5b6040516040810181811067ffffffffffffffff821117156122ee576122ee611ea4565b806040525080604084018581111561230557600080fd5b845b81811015611f8e5761231881611d60565b835260209283019201612307565b80358015158114611d7757600080fd5b6000610200828403121561234957600080fd5b612351611ee3565b61235b84846122ba565b8152612369604084016121f8565b60208201526060830135604082015261238460808401612326565b606082015261239560a08401612326565b60808201526123a78460c08501611f2b565b60a08201526101206123bb85828601611f2b565b60c083015261018084013560e08301526101a08401356101008301526101c0840135908201526123ee6101e08401611d60565b6101408201529392505050565b600080600080600080600080610100898b03121561241857600080fd5b883597506020890135965060408901359550606089013594506080890135935061244460a08a01612326565b925061245260c08a01612326565b915061246060e08a01612326565b90509295985092959890939650565b60208082526028908201527f46756e6374696f6e206f6e6c792063616c6c61626c65206279204172656e61206040820152672232b83637bcb2b960c11b606082015260800190565b634e487b7160e01b600052601160045260246000fd5b6000600182016124df576124df6124b7565b5060010190565b634e487b7160e01b600052603260045260246000fd5b60008160010b617fff198103612514576125146124b7565b60000392915050565b600181811c9082168061253157607f821691505b60208210810361108e57634e487b7160e01b600052602260045260246000fd5b601f82111561097957600081815260208120601f850160051c810160208610156125785750805b601f850160051c820191505b8181101561259757828155600101612584565b505050505050565b67ffffffffffffffff8311156125b7576125b7611ea4565b6125cb836125c5835461251d565b83612551565b6000601f8411600181146125ff57600085156125e75750838201355b600019600387901b1c1916600186901b178355610dd0565b600083815260209020601f19861690835b828110156126305786850135825560209485019460019092019101612610565b508682101561264d5760001960f88860031b161c19848701351681555b505060018560011b0183555050505050565b634e487b7160e01b600052601260045260246000fd5b60008260010b806126885761268861265f565b808360010b0791505092915050565b60008160010b8360010b6000811281617fff19018312811516156126bd576126bd6124b7565b81617fff0183138116156126d3576126d36124b7565b5090039392505050565b60008160010b8360010b806126f4576126f461265f565b617fff1982146000198214161561270d5761270d6124b7565b90059392505050565b60008160010b8360010b6000821282617fff0382138115161561273b5761273b6124b7565b82617fff19038212811615612752576127526124b7565b50019392505050565b80825b600180861161276d575061279a565b81617fff04821115612781576127816124b7565b8086161561278e57918102915b9490941c93800261275e565b935093915050565b60008280156127b857600181146127c2576127cb565b60019150506104f4565b829150506104f4565b50816127d9575060006104f4565b506001600082138082146127f257801561280b5761281f565b82617fff04831115612806576128066124b7565b61281f565b82617fff0583121561281f5761281f6124b7565b508083161561282b5750805b61283b8360011c8384028361275b565b80617fff048211600083131615612854576128546124b7565b80617fff1905821260008312161561286e5761286e6124b7565b029392505050565b6000611ff560ff84168360010b6127a2565b6000826128975761289761265f565b500690565b600061018082840312156128af57600080fd5b6128b7611f07565b825181526020830151602082015260408301516040820152606083015160608201526080830151608082015260a083015160a082015260c083015160c082015260e083015160e08201526101008084015181830152506101208084015181830152506101408084015181830152506101608084015181830152508091505092915050565b60008282101561294d5761294d6124b7565b500390565b60008219821115612965576129656124b7565b500190565b6000826129795761297961265f565b500490565b6000816000190483118215151615612998576129986124b7565b500290565b6000602082840312156129af57600080fd5b8151611ff581611fc6565b600060c082840312156129cc57600080fd5b60405160c0810181811067ffffffffffffffff821117156129ef576129ef611ea4565b604052825181526020830151612a04816121eb565b8060208301525060408301516040820152606083015160608201526080830151612a2d81611fc6565b608082015260a092830151928101929092525091905056fea264697066735822122099c2c1cef54429ddfd1283c8e01ba6e785627db84874308c4a344ac1eca3ab3c64736f6c634300080f0033",
    "linkReferences": {}
  },
  "methodIdentifiers": {
    "GRID_SIZE()": "7fc4eda8",
    "MAX_PLAYERS()": "4411b3eb",
    "PARTY_SIZE()": "7ae3e8d0",
    "_encodeGameData((address[2],uint8,uint256,bool,bool,uint256[3],uint256[3],uint256,uint256,uint256,address))": "e958c819",
    "abs(int16)": "2ee90822",
    "addrToChallengesReceived(address,uint256)": "48c407ef",
    "addrToChallengesSent(address,uint256)": "0b25680f",
    "addrToPlayerTag(address)": "3f83c2c0",
    "calculateDamage(uint256,uint256,(uint256,uint8,uint256,uint256,int16,uint256))": "98f5ec35",
    "claimVictory(uint256)": "4ff776b8",
    "commitTurn(uint256,uint256,uint256,uint256,uint256,bool,bool,bool)": "f4499ef5",
    "connectWamos(uint256,uint256[3])": "1ab67bc3",
    "createGame(address,uint256)": "07ead930",
    "euclideanDistance(int16,int16)": "3ddead32",
    "gameCount()": "4d1975b4",
    "getGameDataStruct(uint256)": "74919396",
    "getGameStatus(uint256)": "0f1bf454",
    "getTurnCount(uint256)": "04f79420",
    "getWamoHealthStatus(uint256)": "256959b8",
    "getWamoPosition(uint256)": "d2ec4bf1",
    "getWamoStatus(uint256)": "ca9d1917",
    "onERC721Received(address,address,uint256,bytes)": "150b7a02",
    "resign(uint256)": "08d9801c",
    "retrieveWamos(uint256)": "45f61431",
    "setPlayerTag(string)": "33f82cb0",
    "setWamoHealth(uint256,uint256)": "015661dd",
    "setWamoPosition(uint256,int16)": "d6058aa3",
    "sqrtApprox(int16)": "e8ea1655"
  },
  "id": 34
}