{
  "abi": [
    {
      "inputs": [
        {
          "internalType": "uint256",
          "name": "n",
          "type": "uint256"
        }
      ],
      "name": "countOnes",
      "outputs": [
        {
          "internalType": "uint256",
          "name": "",
          "type": "uint256"
        }
      ],
      "stateMutability": "pure",
      "type": "function"
    },
    {
      "inputs": [
        {
          "internalType": "uint256",
          "name": "salt",
          "type": "uint256"
        },
        {
          "internalType": "uint256",
          "name": "n",
          "type": "uint256"
        }
      ],
      "name": "getGaussianRandomNumbers",
      "outputs": [
        {
          "internalType": "uint256",
          "name": "",
          "type": "uint256"
        },
        {
          "internalType": "int256[]",
          "name": "",
          "type": "int256[]"
        }
      ],
      "stateMutability": "view",
      "type": "function"
    },
    {
      "inputs": [
        {
          "internalType": "uint256",
          "name": "seed",
          "type": "uint256"
        },
        {
          "internalType": "uint256",
          "name": "n",
          "type": "uint256"
        }
      ],
      "name": "reproduceGaussianRandomNumbers",
      "outputs": [
        {
          "internalType": "int256[]",
          "name": "",
          "type": "int256[]"
        }
      ],
      "stateMutability": "pure",
      "type": "function"
    }
  ],
  "bytecode": {
    "object": "0x608060405234801561001057600080fd5b5061040a806100206000396000f3fe608060405234801561001057600080fd5b50600436106100415760003560e01c80639215358714610046578063a17b1fe01461006f578063db1c6bac14610090575b600080fd5b610059610054366004610259565b6100b1565b60405161006691906102b6565b60405180910390f35b61008261007d366004610259565b6100c4565b6040516100669291906102c9565b6100a361009e3660046102ea565b610117565b604051908152602001610066565b60606100bd8383610128565b9392505050565b60006060816100d34286610319565b6040516020016100e591815260200190565b6040516020818303038152906040528051906020012060001c90508061010b8286610128565b92509250509250929050565b60006101228261023a565b92915050565b606060008360405160200161013f91815260200190565b6040516020818303038152906040528051906020012060001c905060008367ffffffffffffffff81111561017557610175610331565b60405190808252806020026020018201604052801561019e578160200160208202803683370190505b50905060005b848110156102315760006101b78461023a565b9050613e806101c782607d610347565b6101d19190610366565b8383815181106101e3576101e36103a5565b6020026020010181815250508360405160200161020291815260200190565b6040516020818303038152906040528051906020012060001c9350508080610229906103bb565b9150506101a4565b50949350505050565b60005b81156102545760001982019091169060010161023d565b919050565b6000806040838503121561026c57600080fd5b50508035926020909101359150565b600081518084526020808501945080840160005b838110156102ab5781518752958201959082019060010161028f565b509495945050505050565b6020815260006100bd602083018461027b565b8281526040602082015260006102e2604083018461027b565b949350505050565b6000602082840312156102fc57600080fd5b5035919050565b634e487b7160e01b600052601160045260246000fd5b6000821982111561032c5761032c610303565b500190565b634e487b7160e01b600052604160045260246000fd5b600081600019048311821515161561036157610361610303565b500290565b60008083128015600160ff1b85018412161561038457610384610303565b6001600160ff1b038401831381161561039f5761039f610303565b50500390565b634e487b7160e01b600052603260045260246000fd5b6000600182016103cd576103cd610303565b506001019056fea26469706673582212204a24609016571bdb6079c9be955bf8f87eb96139ce5d86aea8ff1b48b4c5b26464736f6c634300080f0033",
    "linkReferences": {}
  },
  "methodIdentifiers": {
    "countOnes(uint256)": "db1c6bac",
    "getGaussianRandomNumbers(uint256,uint256)": "a17b1fe0",
    "reproduceGaussianRandomNumbers(uint256,uint256)": "92153587"
  },
  "id": 0
}